{
	"data": {
		"bytecode": {
			"linkReferences": {},
			"object": "60e06040523480156200001157600080fd5b5060405162002abb38038062002abb83398181016040528101906200003791906200026b565b8073ffffffffffffffffffffffffffffffffffffffff1660a08173ffffffffffffffffffffffffffffffffffffffff16815250508073ffffffffffffffffffffffffffffffffffffffff1663c45a01556040518163ffffffff1660e01b8152600401602060405180830381865afa158015620000b7573d6000803e3d6000fd5b505050506040513d601f19601f82011682018060405250810190620000dd91906200026b565b73ffffffffffffffffffffffffffffffffffffffff1660808173ffffffffffffffffffffffffffffffffffffffff16815250508073ffffffffffffffffffffffffffffffffffffffff1663c45a01556040518163ffffffff1660e01b8152600401602060405180830381865afa1580156200015c573d6000803e3d6000fd5b505050506040513d601f19601f820116820180604052508101906200018291906200026b565b73ffffffffffffffffffffffffffffffffffffffff16639aab92486040518163ffffffff1660e01b8152600401602060405180830381865afa158015620001cd573d6000803e3d6000fd5b505050506040513d601f19601f82011682018060405250810190620001f39190620002d8565b60c08181525050506200030a565b600080fd5b600073ffffffffffffffffffffffffffffffffffffffff82169050919050565b6000620002338262000206565b9050919050565b620002458162000226565b81146200025157600080fd5b50565b60008151905062000265816200023a565b92915050565b60006020828403121562000284576200028362000201565b5b6000620002948482850162000254565b91505092915050565b6000819050919050565b620002b2816200029d565b8114620002be57600080fd5b50565b600081519050620002d281620002a7565b92915050565b600060208284031215620002f157620002f062000201565b5b60006200030184828501620002c1565b91505092915050565b60805160a05160c0516127496200037260003960006105a301526000818161033701528181610606015281816108d901528181610a8501528181610c85015281816110c9015281816112ba0152611573015260008181610557015261128b01526127496000f3fe608060405234801561001057600080fd5b50600436106100cf5760003560e01c8063bc1130361161008c578063c45a015511610066578063c45a01551461028c578063da214231146102aa578063ec323c00146102da578063f887ea401461030b576100cf565b8063bc113036146101fa578063bdefde181461022b578063be3b428e1461025c576100cf565b8063400b4829146100d45780634c1ee03e146101055780635250073314610135578063544caa56146101675780637055083514610198578063865db5e2146101c9575b600080fd5b6100ee60048036038101906100e99190611ce7565b610329565b6040516100fc929190611d5d565b60405180910390f35b61011f600480360381019061011a9190611d86565b610542565b60405161012c9190611de8565b60405180910390f35b61014f600480360381019061014a9190611d86565b6105f8565b60405161015e93929190611e03565b60405180910390f35b610181600480360381019061017c9190611e3a565b61079f565b60405161018f929190611e7a565b60405180910390f35b6101b260048036038101906101ad9190611ea3565b6108cb565b6040516101c0929190611d5d565b60405180910390f35b6101e360048036038101906101de9190611ce7565b610a77565b6040516101f1929190611d5d565b60405180910390f35b610214600480360381019061020f9190611ce7565b610c77565b604051610222929190611d5d565b60405180910390f35b61024560048036038101906102409190611d86565b610e98565b604051610253929190611d5d565b60405180910390f35b61027660048036038101906102719190611d86565b6110bc565b6040516102839190611f1e565b60405180910390f35b610294611289565b6040516102a19190611de8565b60405180910390f35b6102c460048036038101906102bf9190611ce7565b6112ad565b6040516102d19190611f1e565b60405180910390f35b6102f460048036038101906102ef9190611f39565b61140f565b604051610302929190611d5d565b60405180910390f35b610313611571565b6040516103209190611feb565b60405180910390f35b6000806000806000806000807f000000000000000000000000000000000000000000000000000000000000000073ffffffffffffffffffffffffffffffffffffffff16634c1ee03e8c8c8c6040518463ffffffff1660e01b815260040161039293929190612015565b602060405180830381865afa1580156103af573d6000803e3d6000fd5b505050506040513d601f19601f820116820180604052508101906103d39190612061565b73ffffffffffffffffffffffffffffffffffffffff1663392f37e96040518163ffffffff1660e01b815260040160e060405180830381865afa15801561041d573d6000803e3d6000fd5b505050506040513d601f19601f8201168201806040525081019061044191906120b8565b509550955095509550955095506000896104c3578173ffffffffffffffffffffffffffffffffffffffff168c73ffffffffffffffffffffffffffffffffffffffff16146104a4578487856104959190612189565b61049f9190612212565b6104bc565b8386866104b19190612189565b6104bb9190612212565b5b90506104d2565b6104cf8c838989611595565b90505b80670de0b6b3a76400006104ec838f8989888e8e8c611668565b6104f69190612189565b6105009190612212565b98508c670de0b6b3a764000061051c8f8f8989888e8e8c611668565b6105269190612189565b6105309190612212565b97505050505050505094509492505050565b6000806000610551868661079f565b915091507f000000000000000000000000000000000000000000000000000000000000000082828660405160200161058b939291906122d3565b604051602081830303815290604052805190602001207f00000000000000000000000000000000000000000000000000000000000000006040516020016105d493929190612392565b6040516020818303038152906040528051906020012060001c925050509392505050565b6000806000806000806000807f000000000000000000000000000000000000000000000000000000000000000073ffffffffffffffffffffffffffffffffffffffff16634c1ee03e8c8c8c6040518463ffffffff1660e01b815260040161066193929190612015565b602060405180830381865afa15801561067e573d6000803e3d6000fd5b505050506040513d601f19601f820116820180604052508101906106a29190612061565b73ffffffffffffffffffffffffffffffffffffffff1663392f37e96040518163ffffffff1660e01b815260040160e060405180830381865afa1580156106ec573d6000803e3d6000fd5b505050506040513d601f19601f8201168201806040525081019061071091906120b8565b50955050945094509450945060008173ffffffffffffffffffffffffffffffffffffffff168c73ffffffffffffffffffffffffffffffffffffffff161461076d5783868461075e9190612189565b6107689190612212565b610785565b82858561077a9190612189565b6107849190612212565b5b905080848498509850985050505050505093509350939050565b6000808273ffffffffffffffffffffffffffffffffffffffff168473ffffffffffffffffffffffffffffffffffffffff1603610810576040517f08c379a000000000000000000000000000000000000000000000000000000000815260040161080790612437565b60405180910390fd5b8273ffffffffffffffffffffffffffffffffffffffff168473ffffffffffffffffffffffffffffffffffffffff161061084a57828461084d565b83835b8092508193505050600073ffffffffffffffffffffffffffffffffffffffff168273ffffffffffffffffffffffffffffffffffffffff16036108c4576040517f08c379a00000000000000000000000000000000000000000000000000000000081526004016108bb906124a3565b60405180910390fd5b9250929050565b6000806000806000806000807f000000000000000000000000000000000000000000000000000000000000000073ffffffffffffffffffffffffffffffffffffffff16634c1ee03e8d8d8d6040518463ffffffff1660e01b815260040161093493929190612015565b602060405180830381865afa158015610951573d6000803e3d6000fd5b505050506040513d601f19601f820116820180604052508101906109759190612061565b73ffffffffffffffffffffffffffffffffffffffff1663392f37e96040518163ffffffff1660e01b815260040160e060405180830381865afa1580156109bf573d6000803e3d6000fd5b505050506040513d601f19601f820116820180604052508101906109e391906120b8565b5095509550955095509550955060008903610a0757610a048c828888611595565b98505b88670de0b6b3a7640000610a218b8f8888878d8d8b611668565b610a2b9190612189565b610a359190612212565b97508c670de0b6b3a7640000610a518f8f8888878d8d8b611668565b610a5b9190612189565b610a659190612212565b96505050505050509550959350505050565b6000806000806000806000807f000000000000000000000000000000000000000000000000000000000000000073ffffffffffffffffffffffffffffffffffffffff16634c1ee03e8c8c8c6040518463ffffffff1660e01b8152600401610ae093929190612015565b602060405180830381865afa158015610afd573d6000803e3d6000fd5b505050506040513d601f19601f82011682018060405250810190610b219190612061565b73ffffffffffffffffffffffffffffffffffffffff1663392f37e96040518163ffffffff1660e01b815260040160e060405180830381865afa158015610b6b573d6000803e3d6000fd5b505050506040513d601f19601f82011682018060405250810190610b8f91906120b8565b5095509550955095509550955060008173ffffffffffffffffffffffffffffffffffffffff168c73ffffffffffffffffffffffffffffffffffffffff1614610bed57848785610bde9190612189565b610be89190612212565b610c05565b838686610bfa9190612189565b610c049190612212565b5b905080670de0b6b3a7640000610c21838f8989888e8e8c611668565b610c2b9190612189565b610c359190612212565b98508c670de0b6b3a7640000610c518f8f8989888e8e8c611668565b610c5b9190612189565b610c659190612212565b97505050505050505094509492505050565b6000806000806000806000807f000000000000000000000000000000000000000000000000000000000000000073ffffffffffffffffffffffffffffffffffffffff16634c1ee03e8c8c8c6040518463ffffffff1660e01b8152600401610ce093929190612015565b602060405180830381865afa158015610cfd573d6000803e3d6000fd5b505050506040513d601f19601f82011682018060405250810190610d219190612061565b73ffffffffffffffffffffffffffffffffffffffff1663392f37e96040518163ffffffff1660e01b815260040160e060405180830381865afa158015610d6b573d6000803e3d6000fd5b505050506040513d601f19601f82011682018060405250810190610d8f91906120b8565b50955095509550955095509550600089610e3f578173ffffffffffffffffffffffffffffffffffffffff168c73ffffffffffffffffffffffffffffffffffffffff1614610dfa5784670de0b6b3a764000085610deb9190612189565b610df59190612212565b610e1a565b83670de0b6b3a764000086610e0f9190612189565b610e199190612212565b5b670de0b6b3a76400008e610e2e9190612189565b610e389190612212565b9850610e76565b610e4b8c838989611595565b9050808d610e5f838f8989888e8e8c611668565b610e699190612189565b610e739190612212565b98505b610e868d8d8787868c8c8a611668565b97505050505050505094509492505050565b6000806000610ea8868686610542565b9050600073ffffffffffffffffffffffffffffffffffffffff168173ffffffffffffffffffffffffffffffffffffffff1603610eeb5760008092509250506110b4565b6000806000806000808673ffffffffffffffffffffffffffffffffffffffff1663392f37e96040518163ffffffff1660e01b815260040160e060405180830381865afa158015610f3f573d6000803e3d6000fd5b505050506040513d601f19601f82011682018060405250810190610f6391906120b8565b965096505095509550955095508173ffffffffffffffffffffffffffffffffffffffff168c73ffffffffffffffffffffffffffffffffffffffff1614610fa95782610fab565b835b98508073ffffffffffffffffffffffffffffffffffffffff168c73ffffffffffffffffffffffffffffffffffffffff1614610fe65782610fe8565b835b975060008273ffffffffffffffffffffffffffffffffffffffff168d73ffffffffffffffffffffffffffffffffffffffff16146110255785611027565b865b905060008273ffffffffffffffffffffffffffffffffffffffff168e73ffffffffffffffffffffffffffffffffffffffff16146110645786611066565b875b905081670de0b6b3a76400008c61107d9190612189565b6110879190612212565b9a5080670de0b6b3a76400008b61109e9190612189565b6110a89190612212565b99505050505050505050505b935093915050565b60008060008060008060007f000000000000000000000000000000000000000000000000000000000000000073ffffffffffffffffffffffffffffffffffffffff16634c1ee03e8b8b8b6040518463ffffffff1660e01b815260040161112493929190612015565b602060405180830381865afa158015611141573d6000803e3d6000fd5b505050506040513d601f19601f820116820180604052508101906111659190612061565b73ffffffffffffffffffffffffffffffffffffffff1663392f37e96040518163ffffffff1660e01b815260040160e060405180830381865afa1580156111af573d6000803e3d6000fd5b505050506040513d601f19601f820116820180604052508101906111d391906120b8565b5095509550955095509550955060008173ffffffffffffffffffffffffffffffffffffffff168b73ffffffffffffffffffffffffffffffffffffffff1614611231578487856112229190612189565b61122c9190612212565b611249565b83868661123e9190612189565b6112489190612212565b5b905080670de0b6b3a7640000611265838e8989888e8e8c611668565b61126f9190612189565b6112799190612212565b9750505050505050509392505050565b7f000000000000000000000000000000000000000000000000000000000000000081565b60008060008060008060007f000000000000000000000000000000000000000000000000000000000000000073ffffffffffffffffffffffffffffffffffffffff16634c1ee03e8b8b8b6040518463ffffffff1660e01b815260040161131593929190612015565b602060405180830381865afa158015611332573d6000803e3d6000fd5b505050506040513d601f19601f820116820180604052508101906113569190612061565b73ffffffffffffffffffffffffffffffffffffffff1663392f37e96040518163ffffffff1660e01b815260040160e060405180830381865afa1580156113a0573d6000803e3d6000fd5b505050506040513d601f19601f820116820180604052508101906113c491906120b8565b509550955095509550955095508a670de0b6b3a76400006113eb8d8d8888878d8d8b611668565b6113f59190612189565b6113ff9190612212565b9650505050505050949350505050565b6000806000806000806000808873ffffffffffffffffffffffffffffffffffffffff1663392f37e96040518163ffffffff1660e01b815260040160e060405180830381865afa158015611466573d6000803e3d6000fd5b505050506040513d601f19601f8201168201806040525081019061148a91906120b8565b5095509550955095509550955060008173ffffffffffffffffffffffffffffffffffffffff168b73ffffffffffffffffffffffffffffffffffffffff16146114e8578487856114d99190612189565b6114e39190612212565b611500565b8386866114f59190612189565b6114ff9190612212565b5b905080670de0b6b3a764000061151c838e8989888e8e8c611668565b6115269190612189565b6115309190612212565b98508b670de0b6b3a764000061154c8e8e8989888e8e8c611668565b6115569190612189565b6115609190612212565b975050505050505050935093915050565b7f000000000000000000000000000000000000000000000000000000000000000081565b6000808473ffffffffffffffffffffffffffffffffffffffff168673ffffffffffffffffffffffffffffffffffffffff16146115d157826115d3565b835b905060008573ffffffffffffffffffffffffffffffffffffffff168773ffffffffffffffffffffffffffffffffffffffff16146116105784611612565b835b905061271061164682841161163257838361162d91906124c3565b61163f565b828461163e91906124c3565b5b6001611880565b600a611652919061262a565b61165c9190612189565b92505050949350505050565b6000811561180957600061167f888885888861189a565b905084670de0b6b3a7640000896116969190612189565b6116a09190612212565b975083670de0b6b3a7640000886116b79190612189565b6116c19190612212565b96506000808773ffffffffffffffffffffffffffffffffffffffff168b73ffffffffffffffffffffffffffffffffffffffff161461170057888a611703565b89895b915091508773ffffffffffffffffffffffffffffffffffffffff168b73ffffffffffffffffffffffffffffffffffffffff161461175e5785670de0b6b3a76400008d61174f9190612189565b6117599190612212565b61177e565b86670de0b6b3a76400008d6117739190612189565b61177d9190612212565b5b9b506000611798838e6117919190612675565b8584611999565b826117a391906124c3565b9050670de0b6b3a76400008973ffffffffffffffffffffffffffffffffffffffff168d73ffffffffffffffffffffffffffffffffffffffff16146117e757886117e9565b875b826117f49190612189565b6117fe9190612212565b945050505050611874565b6000808673ffffffffffffffffffffffffffffffffffffffff168a73ffffffffffffffffffffffffffffffffffffffff1614611846578789611849565b88885b915091508a826118599190612675565b818c6118659190612189565b61186f9190612212565b925050505b98975050505050505050565b6000818310156118905781611892565b825b905092915050565b6000831561198157600083670de0b6b3a7640000886118b99190612189565b6118c39190612212565b9050600083670de0b6b3a7640000886118dc9190612189565b6118e69190612212565b90506000670de0b6b3a764000082846118ff9190612189565b6119099190612212565b90506000670de0b6b3a764000083846119229190612189565b61192c9190612212565b670de0b6b3a764000085866119419190612189565b61194b9190612212565b6119559190612675565b9050670de0b6b3a7640000818361196c9190612189565b6119769190612212565b945050505050611990565b848661198d9190612189565b90505b95945050505050565b600080600090505b60ff811015611ab657600083905060006119bb8786611ac2565b905085811015611a105760006119d18887611b84565b670de0b6b3a764000083896119e691906124c3565b6119f09190612189565b6119fa9190612212565b90508086611a089190612675565b955050611a57565b6000611a1c8887611b84565b670de0b6b3a76400008884611a3191906124c3565b611a3b9190612189565b611a459190612212565b90508086611a5391906124c3565b9550505b81851115611a825760018286611a6d91906124c3565b11611a7d57849350505050611abb565b611aa1565b60018583611a9091906124c3565b11611aa057849350505050611abb565b5b50508080611aae906126cb565b9150506119a1565b508190505b9392505050565b6000670de0b6b3a764000082670de0b6b3a764000085670de0b6b3a76400008788611aed9190612189565b611af79190612212565b611b019190612189565b611b0b9190612212565b611b159190612189565b611b1f9190612212565b670de0b6b3a76400008084670de0b6b3a76400008687611b3f9190612189565b611b499190612212565b611b539190612189565b611b5d9190612212565b85611b689190612189565b611b729190612212565b611b7c9190612675565b905092915050565b6000670de0b6b3a764000083670de0b6b3a76400008586611ba59190612189565b611baf9190612212565b611bb99190612189565b611bc39190612212565b670de0b6b3a7640000808485611bd99190612189565b611be39190612212565b856003611bf09190612189565b611bfa9190612189565b611c049190612212565b611c0e9190612675565b905092915050565b600080fd5b6000819050919050565b611c2e81611c1b565b8114611c3957600080fd5b50565b600081359050611c4b81611c25565b92915050565b600073ffffffffffffffffffffffffffffffffffffffff82169050919050565b6000611c7c82611c51565b9050919050565b611c8c81611c71565b8114611c9757600080fd5b50565b600081359050611ca981611c83565b92915050565b60008115159050919050565b611cc481611caf565b8114611ccf57600080fd5b50565b600081359050611ce181611cbb565b92915050565b60008060008060808587031215611d0157611d00611c16565b5b6000611d0f87828801611c3c565b9450506020611d2087828801611c9a565b9350506040611d3187828801611c9a565b9250506060611d4287828801611cd2565b91505092959194509250565b611d5781611c1b565b82525050565b6000604082019050611d726000830185611d4e565b611d7f6020830184611d4e565b9392505050565b600080600060608486031215611d9f57611d9e611c16565b5b6000611dad86828701611c9a565b9350506020611dbe86828701611c9a565b9250506040611dcf86828701611cd2565b9150509250925092565b611de281611c71565b82525050565b6000602082019050611dfd6000830184611dd9565b92915050565b6000606082019050611e186000830186611d4e565b611e256020830185611d4e565b611e326040830184611d4e565b949350505050565b60008060408385031215611e5157611e50611c16565b5b6000611e5f85828601611c9a565b9250506020611e7085828601611c9a565b9150509250929050565b6000604082019050611e8f6000830185611dd9565b611e9c6020830184611dd9565b9392505050565b600080600080600060a08688031215611ebf57611ebe611c16565b5b6000611ecd88828901611c3c565b9550506020611ede88828901611c9a565b9450506040611eef88828901611c9a565b9350506060611f0088828901611cd2565b9250506080611f1188828901611c3c565b9150509295509295909350565b6000602082019050611f336000830184611d4e565b92915050565b600080600060608486031215611f5257611f51611c16565b5b6000611f6086828701611c3c565b9350506020611f7186828701611c9a565b9250506040611f8286828701611c9a565b9150509250925092565b6000819050919050565b6000611fb1611fac611fa784611c51565b611f8c565b611c51565b9050919050565b6000611fc382611f96565b9050919050565b6000611fd582611fb8565b9050919050565b611fe581611fca565b82525050565b60006020820190506120006000830184611fdc565b92915050565b61200f81611caf565b82525050565b600060608201905061202a6000830186611dd9565b6120376020830185611dd9565b6120446040830184612006565b949350505050565b60008151905061205b81611c83565b92915050565b60006020828403121561207757612076611c16565b5b60006120858482850161204c565b91505092915050565b60008151905061209d81611c25565b92915050565b6000815190506120b281611cbb565b92915050565b600080600080600080600060e0888a0312156120d7576120d6611c16565b5b60006120e58a828b0161208e565b97505060206120f68a828b0161208e565b96505060406121078a828b0161208e565b95505060606121188a828b0161208e565b94505060806121298a828b016120a3565b93505060a061213a8a828b0161204c565b92505060c061214b8a828b0161204c565b91505092959891949750929550565b7f4e487b7100000000000000000000000000000000000000000000000000000000600052601160045260246000fd5b600061219482611c1b565b915061219f83611c1b565b9250817fffffffffffffffffffffffffffffffffffffffffffffffffffffffffffffffff04831182151516156121d8576121d761215a565b5b828202905092915050565b7f4e487b7100000000000000000000000000000000000000000000000000000000600052601260045260246000fd5b600061221d82611c1b565b915061222883611c1b565b925082612238576122376121e3565b5b828204905092915050565b60008160601b9050919050565b600061225b82612243565b9050919050565b600061226d82612250565b9050919050565b61228561228082611c71565b612262565b82525050565b60008160f81b9050919050565b60006122a38261228b565b9050919050565b60006122b582612298565b9050919050565b6122cd6122c882611caf565b6122aa565b82525050565b60006122df8286612274565b6014820191506122ef8285612274565b6014820191506122ff82846122bc565b600182019150819050949350505050565b600081905092915050565b7fff00000000000000000000000000000000000000000000000000000000000000600082015250565b6000612351600183612310565b915061235c8261231b565b600182019050919050565b6000819050919050565b6000819050919050565b61238c61238782612367565b612371565b82525050565b600061239d82612344565b91506123a98286612274565b6014820191506123b9828561237b565b6020820191506123c9828461237b565b602082019150819050949350505050565b600082825260208201905092915050565b7f4944454e544943414c5f41444452455353455300000000000000000000000000600082015250565b60006124216013836123da565b915061242c826123eb565b602082019050919050565b6000602082019050818103600083015261245081612414565b9050919050565b7f5a45524f5f414444524553530000000000000000000000000000000000000000600082015250565b600061248d600c836123da565b915061249882612457565b602082019050919050565b600060208201905081810360008301526124bc81612480565b9050919050565b60006124ce82611c1b565b91506124d983611c1b565b9250828210156124ec576124eb61215a565b5b828203905092915050565b60008160011c9050919050565b6000808291508390505b600185111561254e5780860481111561252a5761252961215a565b5b60018516156125395780820291505b8081029050612547856124f7565b945061250e565b94509492505050565b6000826125675760019050612623565b816125755760009050612623565b816001811461258b5760028114612595576125c4565b6001915050612623565b60ff8411156125a7576125a661215a565b5b8360020a9150848211156125be576125bd61215a565b5b50612623565b5060208310610133831016604e8410600b84101617156125f95782820a9050838111156125f4576125f361215a565b5b612623565b6126068484846001612504565b9250905081840481111561261d5761261c61215a565b5b81810290505b9392505050565b600061263582611c1b565b915061264083611c1b565b925061266d7fffffffffffffffffffffffffffffffffffffffffffffffffffffffffffffffff8484612557565b905092915050565b600061268082611c1b565b915061268b83611c1b565b9250827fffffffffffffffffffffffffffffffffffffffffffffffffffffffffffffffff038211156126c0576126bf61215a565b5b828201905092915050565b60006126d682611c1b565b91507fffffffffffffffffffffffffffffffffffffffffffffffffffffffffffffffff82036127085761270761215a565b5b60018201905091905056fea264697066735822122015bb636387d13522af796b703adb7004db2d51ea3d9d3fe88c7d909d326a4e4164736f6c634300080f0033",
			"opcodes": "PUSH1 0xE0 PUSH1 0x40 MSTORE CALLVALUE DUP1 ISZERO PUSH3 0x11 JUMPI PUSH1 0x0 DUP1 REVERT JUMPDEST POP PUSH1 0x40 MLOAD PUSH3 0x2ABB CODESIZE SUB DUP1 PUSH3 0x2ABB DUP4 CODECOPY DUP2 DUP2 ADD PUSH1 0x40 MSTORE DUP2 ADD SWAP1 PUSH3 0x37 SWAP2 SWAP1 PUSH3 0x26B JUMP JUMPDEST DUP1 PUSH20 0xFFFFFFFFFFFFFFFFFFFFFFFFFFFFFFFFFFFFFFFF AND PUSH1 0xA0 DUP2 PUSH20 0xFFFFFFFFFFFFFFFFFFFFFFFFFFFFFFFFFFFFFFFF AND DUP2 MSTORE POP POP DUP1 PUSH20 0xFFFFFFFFFFFFFFFFFFFFFFFFFFFFFFFFFFFFFFFF AND PUSH4 0xC45A0155 PUSH1 0x40 MLOAD DUP2 PUSH4 0xFFFFFFFF AND PUSH1 0xE0 SHL DUP2 MSTORE PUSH1 0x4 ADD PUSH1 0x20 PUSH1 0x40 MLOAD DUP1 DUP4 SUB DUP2 DUP7 GAS STATICCALL ISZERO DUP1 ISZERO PUSH3 0xB7 JUMPI RETURNDATASIZE PUSH1 0x0 DUP1 RETURNDATACOPY RETURNDATASIZE PUSH1 0x0 REVERT JUMPDEST POP POP POP POP PUSH1 0x40 MLOAD RETURNDATASIZE PUSH1 0x1F NOT PUSH1 0x1F DUP3 ADD AND DUP3 ADD DUP1 PUSH1 0x40 MSTORE POP DUP2 ADD SWAP1 PUSH3 0xDD SWAP2 SWAP1 PUSH3 0x26B JUMP JUMPDEST PUSH20 0xFFFFFFFFFFFFFFFFFFFFFFFFFFFFFFFFFFFFFFFF AND PUSH1 0x80 DUP2 PUSH20 0xFFFFFFFFFFFFFFFFFFFFFFFFFFFFFFFFFFFFFFFF AND DUP2 MSTORE POP POP DUP1 PUSH20 0xFFFFFFFFFFFFFFFFFFFFFFFFFFFFFFFFFFFFFFFF AND PUSH4 0xC45A0155 PUSH1 0x40 MLOAD DUP2 PUSH4 0xFFFFFFFF AND PUSH1 0xE0 SHL DUP2 MSTORE PUSH1 0x4 ADD PUSH1 0x20 PUSH1 0x40 MLOAD DUP1 DUP4 SUB DUP2 DUP7 GAS STATICCALL ISZERO DUP1 ISZERO PUSH3 0x15C JUMPI RETURNDATASIZE PUSH1 0x0 DUP1 RETURNDATACOPY RETURNDATASIZE PUSH1 0x0 REVERT JUMPDEST POP POP POP POP PUSH1 0x40 MLOAD RETURNDATASIZE PUSH1 0x1F NOT PUSH1 0x1F DUP3 ADD AND DUP3 ADD DUP1 PUSH1 0x40 MSTORE POP DUP2 ADD SWAP1 PUSH3 0x182 SWAP2 SWAP1 PUSH3 0x26B JUMP JUMPDEST PUSH20 0xFFFFFFFFFFFFFFFFFFFFFFFFFFFFFFFFFFFFFFFF AND PUSH4 0x9AAB9248 PUSH1 0x40 MLOAD DUP2 PUSH4 0xFFFFFFFF AND PUSH1 0xE0 SHL DUP2 MSTORE PUSH1 0x4 ADD PUSH1 0x20 PUSH1 0x40 MLOAD DUP1 DUP4 SUB DUP2 DUP7 GAS STATICCALL ISZERO DUP1 ISZERO PUSH3 0x1CD JUMPI RETURNDATASIZE PUSH1 0x0 DUP1 RETURNDATACOPY RETURNDATASIZE PUSH1 0x0 REVERT JUMPDEST POP POP POP POP PUSH1 0x40 MLOAD RETURNDATASIZE PUSH1 0x1F NOT PUSH1 0x1F DUP3 ADD AND DUP3 ADD DUP1 PUSH1 0x40 MSTORE POP DUP2 ADD SWAP1 PUSH3 0x1F3 SWAP2 SWAP1 PUSH3 0x2D8 JUMP JUMPDEST PUSH1 0xC0 DUP2 DUP2 MSTORE POP POP POP PUSH3 0x30A JUMP JUMPDEST PUSH1 0x0 DUP1 REVERT JUMPDEST PUSH1 0x0 PUSH20 0xFFFFFFFFFFFFFFFFFFFFFFFFFFFFFFFFFFFFFFFF DUP3 AND SWAP1 POP SWAP2 SWAP1 POP JUMP JUMPDEST PUSH1 0x0 PUSH3 0x233 DUP3 PUSH3 0x206 JUMP JUMPDEST SWAP1 POP SWAP2 SWAP1 POP JUMP JUMPDEST PUSH3 0x245 DUP2 PUSH3 0x226 JUMP JUMPDEST DUP2 EQ PUSH3 0x251 JUMPI PUSH1 0x0 DUP1 REVERT JUMPDEST POP JUMP JUMPDEST PUSH1 0x0 DUP2 MLOAD SWAP1 POP PUSH3 0x265 DUP2 PUSH3 0x23A JUMP JUMPDEST SWAP3 SWAP2 POP POP JUMP JUMPDEST PUSH1 0x0 PUSH1 0x20 DUP3 DUP5 SUB SLT ISZERO PUSH3 0x284 JUMPI PUSH3 0x283 PUSH3 0x201 JUMP JUMPDEST JUMPDEST PUSH1 0x0 PUSH3 0x294 DUP5 DUP3 DUP6 ADD PUSH3 0x254 JUMP JUMPDEST SWAP2 POP POP SWAP3 SWAP2 POP POP JUMP JUMPDEST PUSH1 0x0 DUP2 SWAP1 POP SWAP2 SWAP1 POP JUMP JUMPDEST PUSH3 0x2B2 DUP2 PUSH3 0x29D JUMP JUMPDEST DUP2 EQ PUSH3 0x2BE JUMPI PUSH1 0x0 DUP1 REVERT JUMPDEST POP JUMP JUMPDEST PUSH1 0x0 DUP2 MLOAD SWAP1 POP PUSH3 0x2D2 DUP2 PUSH3 0x2A7 JUMP JUMPDEST SWAP3 SWAP2 POP POP JUMP JUMPDEST PUSH1 0x0 PUSH1 0x20 DUP3 DUP5 SUB SLT ISZERO PUSH3 0x2F1 JUMPI PUSH3 0x2F0 PUSH3 0x201 JUMP JUMPDEST JUMPDEST PUSH1 0x0 PUSH3 0x301 DUP5 DUP3 DUP6 ADD PUSH3 0x2C1 JUMP JUMPDEST SWAP2 POP POP SWAP3 SWAP2 POP POP JUMP JUMPDEST PUSH1 0x80 MLOAD PUSH1 0xA0 MLOAD PUSH1 0xC0 MLOAD PUSH2 0x2749 PUSH3 0x372 PUSH1 0x0 CODECOPY PUSH1 0x0 PUSH2 0x5A3 ADD MSTORE PUSH1 0x0 DUP2 DUP2 PUSH2 0x337 ADD MSTORE DUP2 DUP2 PUSH2 0x606 ADD MSTORE DUP2 DUP2 PUSH2 0x8D9 ADD MSTORE DUP2 DUP2 PUSH2 0xA85 ADD MSTORE DUP2 DUP2 PUSH2 0xC85 ADD MSTORE DUP2 DUP2 PUSH2 0x10C9 ADD MSTORE DUP2 DUP2 PUSH2 0x12BA ADD MSTORE PUSH2 0x1573 ADD MSTORE PUSH1 0x0 DUP2 DUP2 PUSH2 0x557 ADD MSTORE PUSH2 0x128B ADD MSTORE PUSH2 0x2749 PUSH1 0x0 RETURN INVALID PUSH1 0x80 PUSH1 0x40 MSTORE CALLVALUE DUP1 ISZERO PUSH2 0x10 JUMPI PUSH1 0x0 DUP1 REVERT JUMPDEST POP PUSH1 0x4 CALLDATASIZE LT PUSH2 0xCF JUMPI PUSH1 0x0 CALLDATALOAD PUSH1 0xE0 SHR DUP1 PUSH4 0xBC113036 GT PUSH2 0x8C JUMPI DUP1 PUSH4 0xC45A0155 GT PUSH2 0x66 JUMPI DUP1 PUSH4 0xC45A0155 EQ PUSH2 0x28C JUMPI DUP1 PUSH4 0xDA214231 EQ PUSH2 0x2AA JUMPI DUP1 PUSH4 0xEC323C00 EQ PUSH2 0x2DA JUMPI DUP1 PUSH4 0xF887EA40 EQ PUSH2 0x30B JUMPI PUSH2 0xCF JUMP JUMPDEST DUP1 PUSH4 0xBC113036 EQ PUSH2 0x1FA JUMPI DUP1 PUSH4 0xBDEFDE18 EQ PUSH2 0x22B JUMPI DUP1 PUSH4 0xBE3B428E EQ PUSH2 0x25C JUMPI PUSH2 0xCF JUMP JUMPDEST DUP1 PUSH4 0x400B4829 EQ PUSH2 0xD4 JUMPI DUP1 PUSH4 0x4C1EE03E EQ PUSH2 0x105 JUMPI DUP1 PUSH4 0x52500733 EQ PUSH2 0x135 JUMPI DUP1 PUSH4 0x544CAA56 EQ PUSH2 0x167 JUMPI DUP1 PUSH4 0x70550835 EQ PUSH2 0x198 JUMPI DUP1 PUSH4 0x865DB5E2 EQ PUSH2 0x1C9 JUMPI JUMPDEST PUSH1 0x0 DUP1 REVERT JUMPDEST PUSH2 0xEE PUSH1 0x4 DUP1 CALLDATASIZE SUB DUP2 ADD SWAP1 PUSH2 0xE9 SWAP2 SWAP1 PUSH2 0x1CE7 JUMP JUMPDEST PUSH2 0x329 JUMP JUMPDEST PUSH1 0x40 MLOAD PUSH2 0xFC SWAP3 SWAP2 SWAP1 PUSH2 0x1D5D JUMP JUMPDEST PUSH1 0x40 MLOAD DUP1 SWAP2 SUB SWAP1 RETURN JUMPDEST PUSH2 0x11F PUSH1 0x4 DUP1 CALLDATASIZE SUB DUP2 ADD SWAP1 PUSH2 0x11A SWAP2 SWAP1 PUSH2 0x1D86 JUMP JUMPDEST PUSH2 0x542 JUMP JUMPDEST PUSH1 0x40 MLOAD PUSH2 0x12C SWAP2 SWAP1 PUSH2 0x1DE8 JUMP JUMPDEST PUSH1 0x40 MLOAD DUP1 SWAP2 SUB SWAP1 RETURN JUMPDEST PUSH2 0x14F PUSH1 0x4 DUP1 CALLDATASIZE SUB DUP2 ADD SWAP1 PUSH2 0x14A SWAP2 SWAP1 PUSH2 0x1D86 JUMP JUMPDEST PUSH2 0x5F8 JUMP JUMPDEST PUSH1 0x40 MLOAD PUSH2 0x15E SWAP4 SWAP3 SWAP2 SWAP1 PUSH2 0x1E03 JUMP JUMPDEST PUSH1 0x40 MLOAD DUP1 SWAP2 SUB SWAP1 RETURN JUMPDEST PUSH2 0x181 PUSH1 0x4 DUP1 CALLDATASIZE SUB DUP2 ADD SWAP1 PUSH2 0x17C SWAP2 SWAP1 PUSH2 0x1E3A JUMP JUMPDEST PUSH2 0x79F JUMP JUMPDEST PUSH1 0x40 MLOAD PUSH2 0x18F SWAP3 SWAP2 SWAP1 PUSH2 0x1E7A JUMP JUMPDEST PUSH1 0x40 MLOAD DUP1 SWAP2 SUB SWAP1 RETURN JUMPDEST PUSH2 0x1B2 PUSH1 0x4 DUP1 CALLDATASIZE SUB DUP2 ADD SWAP1 PUSH2 0x1AD SWAP2 SWAP1 PUSH2 0x1EA3 JUMP JUMPDEST PUSH2 0x8CB JUMP JUMPDEST PUSH1 0x40 MLOAD PUSH2 0x1C0 SWAP3 SWAP2 SWAP1 PUSH2 0x1D5D JUMP JUMPDEST PUSH1 0x40 MLOAD DUP1 SWAP2 SUB SWAP1 RETURN JUMPDEST PUSH2 0x1E3 PUSH1 0x4 DUP1 CALLDATASIZE SUB DUP2 ADD SWAP1 PUSH2 0x1DE SWAP2 SWAP1 PUSH2 0x1CE7 JUMP JUMPDEST PUSH2 0xA77 JUMP JUMPDEST PUSH1 0x40 MLOAD PUSH2 0x1F1 SWAP3 SWAP2 SWAP1 PUSH2 0x1D5D JUMP JUMPDEST PUSH1 0x40 MLOAD DUP1 SWAP2 SUB SWAP1 RETURN JUMPDEST PUSH2 0x214 PUSH1 0x4 DUP1 CALLDATASIZE SUB DUP2 ADD SWAP1 PUSH2 0x20F SWAP2 SWAP1 PUSH2 0x1CE7 JUMP JUMPDEST PUSH2 0xC77 JUMP JUMPDEST PUSH1 0x40 MLOAD PUSH2 0x222 SWAP3 SWAP2 SWAP1 PUSH2 0x1D5D JUMP JUMPDEST PUSH1 0x40 MLOAD DUP1 SWAP2 SUB SWAP1 RETURN JUMPDEST PUSH2 0x245 PUSH1 0x4 DUP1 CALLDATASIZE SUB DUP2 ADD SWAP1 PUSH2 0x240 SWAP2 SWAP1 PUSH2 0x1D86 JUMP JUMPDEST PUSH2 0xE98 JUMP JUMPDEST PUSH1 0x40 MLOAD PUSH2 0x253 SWAP3 SWAP2 SWAP1 PUSH2 0x1D5D JUMP JUMPDEST PUSH1 0x40 MLOAD DUP1 SWAP2 SUB SWAP1 RETURN JUMPDEST PUSH2 0x276 PUSH1 0x4 DUP1 CALLDATASIZE SUB DUP2 ADD SWAP1 PUSH2 0x271 SWAP2 SWAP1 PUSH2 0x1D86 JUMP JUMPDEST PUSH2 0x10BC JUMP JUMPDEST PUSH1 0x40 MLOAD PUSH2 0x283 SWAP2 SWAP1 PUSH2 0x1F1E JUMP JUMPDEST PUSH1 0x40 MLOAD DUP1 SWAP2 SUB SWAP1 RETURN JUMPDEST PUSH2 0x294 PUSH2 0x1289 JUMP JUMPDEST PUSH1 0x40 MLOAD PUSH2 0x2A1 SWAP2 SWAP1 PUSH2 0x1DE8 JUMP JUMPDEST PUSH1 0x40 MLOAD DUP1 SWAP2 SUB SWAP1 RETURN JUMPDEST PUSH2 0x2C4 PUSH1 0x4 DUP1 CALLDATASIZE SUB DUP2 ADD SWAP1 PUSH2 0x2BF SWAP2 SWAP1 PUSH2 0x1CE7 JUMP JUMPDEST PUSH2 0x12AD JUMP JUMPDEST PUSH1 0x40 MLOAD PUSH2 0x2D1 SWAP2 SWAP1 PUSH2 0x1F1E JUMP JUMPDEST PUSH1 0x40 MLOAD DUP1 SWAP2 SUB SWAP1 RETURN JUMPDEST PUSH2 0x2F4 PUSH1 0x4 DUP1 CALLDATASIZE SUB DUP2 ADD SWAP1 PUSH2 0x2EF SWAP2 SWAP1 PUSH2 0x1F39 JUMP JUMPDEST PUSH2 0x140F JUMP JUMPDEST PUSH1 0x40 MLOAD PUSH2 0x302 SWAP3 SWAP2 SWAP1 PUSH2 0x1D5D JUMP JUMPDEST PUSH1 0x40 MLOAD DUP1 SWAP2 SUB SWAP1 RETURN JUMPDEST PUSH2 0x313 PUSH2 0x1571 JUMP JUMPDEST PUSH1 0x40 MLOAD PUSH2 0x320 SWAP2 SWAP1 PUSH2 0x1FEB JUMP JUMPDEST PUSH1 0x40 MLOAD DUP1 SWAP2 SUB SWAP1 RETURN JUMPDEST PUSH1 0x0 DUP1 PUSH1 0x0 DUP1 PUSH1 0x0 DUP1 PUSH1 0x0 DUP1 PUSH32 0x0 PUSH20 0xFFFFFFFFFFFFFFFFFFFFFFFFFFFFFFFFFFFFFFFF AND PUSH4 0x4C1EE03E DUP13 DUP13 DUP13 PUSH1 0x40 MLOAD DUP5 PUSH4 0xFFFFFFFF AND PUSH1 0xE0 SHL DUP2 MSTORE PUSH1 0x4 ADD PUSH2 0x392 SWAP4 SWAP3 SWAP2 SWAP1 PUSH2 0x2015 JUMP JUMPDEST PUSH1 0x20 PUSH1 0x40 MLOAD DUP1 DUP4 SUB DUP2 DUP7 GAS STATICCALL ISZERO DUP1 ISZERO PUSH2 0x3AF JUMPI RETURNDATASIZE PUSH1 0x0 DUP1 RETURNDATACOPY RETURNDATASIZE PUSH1 0x0 REVERT JUMPDEST POP POP POP POP PUSH1 0x40 MLOAD RETURNDATASIZE PUSH1 0x1F NOT PUSH1 0x1F DUP3 ADD AND DUP3 ADD DUP1 PUSH1 0x40 MSTORE POP DUP2 ADD SWAP1 PUSH2 0x3D3 SWAP2 SWAP1 PUSH2 0x2061 JUMP JUMPDEST PUSH20 0xFFFFFFFFFFFFFFFFFFFFFFFFFFFFFFFFFFFFFFFF AND PUSH4 0x392F37E9 PUSH1 0x40 MLOAD DUP2 PUSH4 0xFFFFFFFF AND PUSH1 0xE0 SHL DUP2 MSTORE PUSH1 0x4 ADD PUSH1 0xE0 PUSH1 0x40 MLOAD DUP1 DUP4 SUB DUP2 DUP7 GAS STATICCALL ISZERO DUP1 ISZERO PUSH2 0x41D JUMPI RETURNDATASIZE PUSH1 0x0 DUP1 RETURNDATACOPY RETURNDATASIZE PUSH1 0x0 REVERT JUMPDEST POP POP POP POP PUSH1 0x40 MLOAD RETURNDATASIZE PUSH1 0x1F NOT PUSH1 0x1F DUP3 ADD AND DUP3 ADD DUP1 PUSH1 0x40 MSTORE POP DUP2 ADD SWAP1 PUSH2 0x441 SWAP2 SWAP1 PUSH2 0x20B8 JUMP JUMPDEST POP SWAP6 POP SWAP6 POP SWAP6 POP SWAP6 POP SWAP6 POP SWAP6 POP PUSH1 0x0 DUP10 PUSH2 0x4C3 JUMPI DUP2 PUSH20 0xFFFFFFFFFFFFFFFFFFFFFFFFFFFFFFFFFFFFFFFF AND DUP13 PUSH20 0xFFFFFFFFFFFFFFFFFFFFFFFFFFFFFFFFFFFFFFFF AND EQ PUSH2 0x4A4 JUMPI DUP5 DUP8 DUP6 PUSH2 0x495 SWAP2 SWAP1 PUSH2 0x2189 JUMP JUMPDEST PUSH2 0x49F SWAP2 SWAP1 PUSH2 0x2212 JUMP JUMPDEST PUSH2 0x4BC JUMP JUMPDEST DUP4 DUP7 DUP7 PUSH2 0x4B1 SWAP2 SWAP1 PUSH2 0x2189 JUMP JUMPDEST PUSH2 0x4BB SWAP2 SWAP1 PUSH2 0x2212 JUMP JUMPDEST JUMPDEST SWAP1 POP PUSH2 0x4D2 JUMP JUMPDEST PUSH2 0x4CF DUP13 DUP4 DUP10 DUP10 PUSH2 0x1595 JUMP JUMPDEST SWAP1 POP JUMPDEST DUP1 PUSH8 0xDE0B6B3A7640000 PUSH2 0x4EC DUP4 DUP16 DUP10 DUP10 DUP9 DUP15 DUP15 DUP13 PUSH2 0x1668 JUMP JUMPDEST PUSH2 0x4F6 SWAP2 SWAP1 PUSH2 0x2189 JUMP JUMPDEST PUSH2 0x500 SWAP2 SWAP1 PUSH2 0x2212 JUMP JUMPDEST SWAP9 POP DUP13 PUSH8 0xDE0B6B3A7640000 PUSH2 0x51C DUP16 DUP16 DUP10 DUP10 DUP9 DUP15 DUP15 DUP13 PUSH2 0x1668 JUMP JUMPDEST PUSH2 0x526 SWAP2 SWAP1 PUSH2 0x2189 JUMP JUMPDEST PUSH2 0x530 SWAP2 SWAP1 PUSH2 0x2212 JUMP JUMPDEST SWAP8 POP POP POP POP POP POP POP POP SWAP5 POP SWAP5 SWAP3 POP POP POP JUMP JUMPDEST PUSH1 0x0 DUP1 PUSH1 0x0 PUSH2 0x551 DUP7 DUP7 PUSH2 0x79F JUMP JUMPDEST SWAP2 POP SWAP2 POP PUSH32 0x0 DUP3 DUP3 DUP7 PUSH1 0x40 MLOAD PUSH1 0x20 ADD PUSH2 0x58B SWAP4 SWAP3 SWAP2 SWAP1 PUSH2 0x22D3 JUMP JUMPDEST PUSH1 0x40 MLOAD PUSH1 0x20 DUP2 DUP4 SUB SUB DUP2 MSTORE SWAP1 PUSH1 0x40 MSTORE DUP1 MLOAD SWAP1 PUSH1 0x20 ADD KECCAK256 PUSH32 0x0 PUSH1 0x40 MLOAD PUSH1 0x20 ADD PUSH2 0x5D4 SWAP4 SWAP3 SWAP2 SWAP1 PUSH2 0x2392 JUMP JUMPDEST PUSH1 0x40 MLOAD PUSH1 0x20 DUP2 DUP4 SUB SUB DUP2 MSTORE SWAP1 PUSH1 0x40 MSTORE DUP1 MLOAD SWAP1 PUSH1 0x20 ADD KECCAK256 PUSH1 0x0 SHR SWAP3 POP POP POP SWAP4 SWAP3 POP POP POP JUMP JUMPDEST PUSH1 0x0 DUP1 PUSH1 0x0 DUP1 PUSH1 0x0 DUP1 PUSH1 0x0 DUP1 PUSH32 0x0 PUSH20 0xFFFFFFFFFFFFFFFFFFFFFFFFFFFFFFFFFFFFFFFF AND PUSH4 0x4C1EE03E DUP13 DUP13 DUP13 PUSH1 0x40 MLOAD DUP5 PUSH4 0xFFFFFFFF AND PUSH1 0xE0 SHL DUP2 MSTORE PUSH1 0x4 ADD PUSH2 0x661 SWAP4 SWAP3 SWAP2 SWAP1 PUSH2 0x2015 JUMP JUMPDEST PUSH1 0x20 PUSH1 0x40 MLOAD DUP1 DUP4 SUB DUP2 DUP7 GAS STATICCALL ISZERO DUP1 ISZERO PUSH2 0x67E JUMPI RETURNDATASIZE PUSH1 0x0 DUP1 RETURNDATACOPY RETURNDATASIZE PUSH1 0x0 REVERT JUMPDEST POP POP POP POP PUSH1 0x40 MLOAD RETURNDATASIZE PUSH1 0x1F NOT PUSH1 0x1F DUP3 ADD AND DUP3 ADD DUP1 PUSH1 0x40 MSTORE POP DUP2 ADD SWAP1 PUSH2 0x6A2 SWAP2 SWAP1 PUSH2 0x2061 JUMP JUMPDEST PUSH20 0xFFFFFFFFFFFFFFFFFFFFFFFFFFFFFFFFFFFFFFFF AND PUSH4 0x392F37E9 PUSH1 0x40 MLOAD DUP2 PUSH4 0xFFFFFFFF AND PUSH1 0xE0 SHL DUP2 MSTORE PUSH1 0x4 ADD PUSH1 0xE0 PUSH1 0x40 MLOAD DUP1 DUP4 SUB DUP2 DUP7 GAS STATICCALL ISZERO DUP1 ISZERO PUSH2 0x6EC JUMPI RETURNDATASIZE PUSH1 0x0 DUP1 RETURNDATACOPY RETURNDATASIZE PUSH1 0x0 REVERT JUMPDEST POP POP POP POP PUSH1 0x40 MLOAD RETURNDATASIZE PUSH1 0x1F NOT PUSH1 0x1F DUP3 ADD AND DUP3 ADD DUP1 PUSH1 0x40 MSTORE POP DUP2 ADD SWAP1 PUSH2 0x710 SWAP2 SWAP1 PUSH2 0x20B8 JUMP JUMPDEST POP SWAP6 POP POP SWAP5 POP SWAP5 POP SWAP5 POP SWAP5 POP PUSH1 0x0 DUP2 PUSH20 0xFFFFFFFFFFFFFFFFFFFFFFFFFFFFFFFFFFFFFFFF AND DUP13 PUSH20 0xFFFFFFFFFFFFFFFFFFFFFFFFFFFFFFFFFFFFFFFF AND EQ PUSH2 0x76D JUMPI DUP4 DUP7 DUP5 PUSH2 0x75E SWAP2 SWAP1 PUSH2 0x2189 JUMP JUMPDEST PUSH2 0x768 SWAP2 SWAP1 PUSH2 0x2212 JUMP JUMPDEST PUSH2 0x785 JUMP JUMPDEST DUP3 DUP6 DUP6 PUSH2 0x77A SWAP2 SWAP1 PUSH2 0x2189 JUMP JUMPDEST PUSH2 0x784 SWAP2 SWAP1 PUSH2 0x2212 JUMP JUMPDEST JUMPDEST SWAP1 POP DUP1 DUP5 DUP5 SWAP9 POP SWAP9 POP SWAP9 POP POP POP POP POP POP POP SWAP4 POP SWAP4 POP SWAP4 SWAP1 POP JUMP JUMPDEST PUSH1 0x0 DUP1 DUP3 PUSH20 0xFFFFFFFFFFFFFFFFFFFFFFFFFFFFFFFFFFFFFFFF AND DUP5 PUSH20 0xFFFFFFFFFFFFFFFFFFFFFFFFFFFFFFFFFFFFFFFF AND SUB PUSH2 0x810 JUMPI PUSH1 0x40 MLOAD PUSH32 0x8C379A000000000000000000000000000000000000000000000000000000000 DUP2 MSTORE PUSH1 0x4 ADD PUSH2 0x807 SWAP1 PUSH2 0x2437 JUMP JUMPDEST PUSH1 0x40 MLOAD DUP1 SWAP2 SUB SWAP1 REVERT JUMPDEST DUP3 PUSH20 0xFFFFFFFFFFFFFFFFFFFFFFFFFFFFFFFFFFFFFFFF AND DUP5 PUSH20 0xFFFFFFFFFFFFFFFFFFFFFFFFFFFFFFFFFFFFFFFF AND LT PUSH2 0x84A JUMPI DUP3 DUP5 PUSH2 0x84D JUMP JUMPDEST DUP4 DUP4 JUMPDEST DUP1 SWAP3 POP DUP2 SWAP4 POP POP POP PUSH1 0x0 PUSH20 0xFFFFFFFFFFFFFFFFFFFFFFFFFFFFFFFFFFFFFFFF AND DUP3 PUSH20 0xFFFFFFFFFFFFFFFFFFFFFFFFFFFFFFFFFFFFFFFF AND SUB PUSH2 0x8C4 JUMPI PUSH1 0x40 MLOAD PUSH32 0x8C379A000000000000000000000000000000000000000000000000000000000 DUP2 MSTORE PUSH1 0x4 ADD PUSH2 0x8BB SWAP1 PUSH2 0x24A3 JUMP JUMPDEST PUSH1 0x40 MLOAD DUP1 SWAP2 SUB SWAP1 REVERT JUMPDEST SWAP3 POP SWAP3 SWAP1 POP JUMP JUMPDEST PUSH1 0x0 DUP1 PUSH1 0x0 DUP1 PUSH1 0x0 DUP1 PUSH1 0x0 DUP1 PUSH32 0x0 PUSH20 0xFFFFFFFFFFFFFFFFFFFFFFFFFFFFFFFFFFFFFFFF AND PUSH4 0x4C1EE03E DUP14 DUP14 DUP14 PUSH1 0x40 MLOAD DUP5 PUSH4 0xFFFFFFFF AND PUSH1 0xE0 SHL DUP2 MSTORE PUSH1 0x4 ADD PUSH2 0x934 SWAP4 SWAP3 SWAP2 SWAP1 PUSH2 0x2015 JUMP JUMPDEST PUSH1 0x20 PUSH1 0x40 MLOAD DUP1 DUP4 SUB DUP2 DUP7 GAS STATICCALL ISZERO DUP1 ISZERO PUSH2 0x951 JUMPI RETURNDATASIZE PUSH1 0x0 DUP1 RETURNDATACOPY RETURNDATASIZE PUSH1 0x0 REVERT JUMPDEST POP POP POP POP PUSH1 0x40 MLOAD RETURNDATASIZE PUSH1 0x1F NOT PUSH1 0x1F DUP3 ADD AND DUP3 ADD DUP1 PUSH1 0x40 MSTORE POP DUP2 ADD SWAP1 PUSH2 0x975 SWAP2 SWAP1 PUSH2 0x2061 JUMP JUMPDEST PUSH20 0xFFFFFFFFFFFFFFFFFFFFFFFFFFFFFFFFFFFFFFFF AND PUSH4 0x392F37E9 PUSH1 0x40 MLOAD DUP2 PUSH4 0xFFFFFFFF AND PUSH1 0xE0 SHL DUP2 MSTORE PUSH1 0x4 ADD PUSH1 0xE0 PUSH1 0x40 MLOAD DUP1 DUP4 SUB DUP2 DUP7 GAS STATICCALL ISZERO DUP1 ISZERO PUSH2 0x9BF JUMPI RETURNDATASIZE PUSH1 0x0 DUP1 RETURNDATACOPY RETURNDATASIZE PUSH1 0x0 REVERT JUMPDEST POP POP POP POP PUSH1 0x40 MLOAD RETURNDATASIZE PUSH1 0x1F NOT PUSH1 0x1F DUP3 ADD AND DUP3 ADD DUP1 PUSH1 0x40 MSTORE POP DUP2 ADD SWAP1 PUSH2 0x9E3 SWAP2 SWAP1 PUSH2 0x20B8 JUMP JUMPDEST POP SWAP6 POP SWAP6 POP SWAP6 POP SWAP6 POP SWAP6 POP SWAP6 POP PUSH1 0x0 DUP10 SUB PUSH2 0xA07 JUMPI PUSH2 0xA04 DUP13 DUP3 DUP9 DUP9 PUSH2 0x1595 JUMP JUMPDEST SWAP9 POP JUMPDEST DUP9 PUSH8 0xDE0B6B3A7640000 PUSH2 0xA21 DUP12 DUP16 DUP9 DUP9 DUP8 DUP14 DUP14 DUP12 PUSH2 0x1668 JUMP JUMPDEST PUSH2 0xA2B SWAP2 SWAP1 PUSH2 0x2189 JUMP JUMPDEST PUSH2 0xA35 SWAP2 SWAP1 PUSH2 0x2212 JUMP JUMPDEST SWAP8 POP DUP13 PUSH8 0xDE0B6B3A7640000 PUSH2 0xA51 DUP16 DUP16 DUP9 DUP9 DUP8 DUP14 DUP14 DUP12 PUSH2 0x1668 JUMP JUMPDEST PUSH2 0xA5B SWAP2 SWAP1 PUSH2 0x2189 JUMP JUMPDEST PUSH2 0xA65 SWAP2 SWAP1 PUSH2 0x2212 JUMP JUMPDEST SWAP7 POP POP POP POP POP POP POP SWAP6 POP SWAP6 SWAP4 POP POP POP POP JUMP JUMPDEST PUSH1 0x0 DUP1 PUSH1 0x0 DUP1 PUSH1 0x0 DUP1 PUSH1 0x0 DUP1 PUSH32 0x0 PUSH20 0xFFFFFFFFFFFFFFFFFFFFFFFFFFFFFFFFFFFFFFFF AND PUSH4 0x4C1EE03E DUP13 DUP13 DUP13 PUSH1 0x40 MLOAD DUP5 PUSH4 0xFFFFFFFF AND PUSH1 0xE0 SHL DUP2 MSTORE PUSH1 0x4 ADD PUSH2 0xAE0 SWAP4 SWAP3 SWAP2 SWAP1 PUSH2 0x2015 JUMP JUMPDEST PUSH1 0x20 PUSH1 0x40 MLOAD DUP1 DUP4 SUB DUP2 DUP7 GAS STATICCALL ISZERO DUP1 ISZERO PUSH2 0xAFD JUMPI RETURNDATASIZE PUSH1 0x0 DUP1 RETURNDATACOPY RETURNDATASIZE PUSH1 0x0 REVERT JUMPDEST POP POP POP POP PUSH1 0x40 MLOAD RETURNDATASIZE PUSH1 0x1F NOT PUSH1 0x1F DUP3 ADD AND DUP3 ADD DUP1 PUSH1 0x40 MSTORE POP DUP2 ADD SWAP1 PUSH2 0xB21 SWAP2 SWAP1 PUSH2 0x2061 JUMP JUMPDEST PUSH20 0xFFFFFFFFFFFFFFFFFFFFFFFFFFFFFFFFFFFFFFFF AND PUSH4 0x392F37E9 PUSH1 0x40 MLOAD DUP2 PUSH4 0xFFFFFFFF AND PUSH1 0xE0 SHL DUP2 MSTORE PUSH1 0x4 ADD PUSH1 0xE0 PUSH1 0x40 MLOAD DUP1 DUP4 SUB DUP2 DUP7 GAS STATICCALL ISZERO DUP1 ISZERO PUSH2 0xB6B JUMPI RETURNDATASIZE PUSH1 0x0 DUP1 RETURNDATACOPY RETURNDATASIZE PUSH1 0x0 REVERT JUMPDEST POP POP POP POP PUSH1 0x40 MLOAD RETURNDATASIZE PUSH1 0x1F NOT PUSH1 0x1F DUP3 ADD AND DUP3 ADD DUP1 PUSH1 0x40 MSTORE POP DUP2 ADD SWAP1 PUSH2 0xB8F SWAP2 SWAP1 PUSH2 0x20B8 JUMP JUMPDEST POP SWAP6 POP SWAP6 POP SWAP6 POP SWAP6 POP SWAP6 POP SWAP6 POP PUSH1 0x0 DUP2 PUSH20 0xFFFFFFFFFFFFFFFFFFFFFFFFFFFFFFFFFFFFFFFF AND DUP13 PUSH20 0xFFFFFFFFFFFFFFFFFFFFFFFFFFFFFFFFFFFFFFFF AND EQ PUSH2 0xBED JUMPI DUP5 DUP8 DUP6 PUSH2 0xBDE SWAP2 SWAP1 PUSH2 0x2189 JUMP JUMPDEST PUSH2 0xBE8 SWAP2 SWAP1 PUSH2 0x2212 JUMP JUMPDEST PUSH2 0xC05 JUMP JUMPDEST DUP4 DUP7 DUP7 PUSH2 0xBFA SWAP2 SWAP1 PUSH2 0x2189 JUMP JUMPDEST PUSH2 0xC04 SWAP2 SWAP1 PUSH2 0x2212 JUMP JUMPDEST JUMPDEST SWAP1 POP DUP1 PUSH8 0xDE0B6B3A7640000 PUSH2 0xC21 DUP4 DUP16 DUP10 DUP10 DUP9 DUP15 DUP15 DUP13 PUSH2 0x1668 JUMP JUMPDEST PUSH2 0xC2B SWAP2 SWAP1 PUSH2 0x2189 JUMP JUMPDEST PUSH2 0xC35 SWAP2 SWAP1 PUSH2 0x2212 JUMP JUMPDEST SWAP9 POP DUP13 PUSH8 0xDE0B6B3A7640000 PUSH2 0xC51 DUP16 DUP16 DUP10 DUP10 DUP9 DUP15 DUP15 DUP13 PUSH2 0x1668 JUMP JUMPDEST PUSH2 0xC5B SWAP2 SWAP1 PUSH2 0x2189 JUMP JUMPDEST PUSH2 0xC65 SWAP2 SWAP1 PUSH2 0x2212 JUMP JUMPDEST SWAP8 POP POP POP POP POP POP POP POP SWAP5 POP SWAP5 SWAP3 POP POP POP JUMP JUMPDEST PUSH1 0x0 DUP1 PUSH1 0x0 DUP1 PUSH1 0x0 DUP1 PUSH1 0x0 DUP1 PUSH32 0x0 PUSH20 0xFFFFFFFFFFFFFFFFFFFFFFFFFFFFFFFFFFFFFFFF AND PUSH4 0x4C1EE03E DUP13 DUP13 DUP13 PUSH1 0x40 MLOAD DUP5 PUSH4 0xFFFFFFFF AND PUSH1 0xE0 SHL DUP2 MSTORE PUSH1 0x4 ADD PUSH2 0xCE0 SWAP4 SWAP3 SWAP2 SWAP1 PUSH2 0x2015 JUMP JUMPDEST PUSH1 0x20 PUSH1 0x40 MLOAD DUP1 DUP4 SUB DUP2 DUP7 GAS STATICCALL ISZERO DUP1 ISZERO PUSH2 0xCFD JUMPI RETURNDATASIZE PUSH1 0x0 DUP1 RETURNDATACOPY RETURNDATASIZE PUSH1 0x0 REVERT JUMPDEST POP POP POP POP PUSH1 0x40 MLOAD RETURNDATASIZE PUSH1 0x1F NOT PUSH1 0x1F DUP3 ADD AND DUP3 ADD DUP1 PUSH1 0x40 MSTORE POP DUP2 ADD SWAP1 PUSH2 0xD21 SWAP2 SWAP1 PUSH2 0x2061 JUMP JUMPDEST PUSH20 0xFFFFFFFFFFFFFFFFFFFFFFFFFFFFFFFFFFFFFFFF AND PUSH4 0x392F37E9 PUSH1 0x40 MLOAD DUP2 PUSH4 0xFFFFFFFF AND PUSH1 0xE0 SHL DUP2 MSTORE PUSH1 0x4 ADD PUSH1 0xE0 PUSH1 0x40 MLOAD DUP1 DUP4 SUB DUP2 DUP7 GAS STATICCALL ISZERO DUP1 ISZERO PUSH2 0xD6B JUMPI RETURNDATASIZE PUSH1 0x0 DUP1 RETURNDATACOPY RETURNDATASIZE PUSH1 0x0 REVERT JUMPDEST POP POP POP POP PUSH1 0x40 MLOAD RETURNDATASIZE PUSH1 0x1F NOT PUSH1 0x1F DUP3 ADD AND DUP3 ADD DUP1 PUSH1 0x40 MSTORE POP DUP2 ADD SWAP1 PUSH2 0xD8F SWAP2 SWAP1 PUSH2 0x20B8 JUMP JUMPDEST POP SWAP6 POP SWAP6 POP SWAP6 POP SWAP6 POP SWAP6 POP SWAP6 POP PUSH1 0x0 DUP10 PUSH2 0xE3F JUMPI DUP2 PUSH20 0xFFFFFFFFFFFFFFFFFFFFFFFFFFFFFFFFFFFFFFFF AND DUP13 PUSH20 0xFFFFFFFFFFFFFFFFFFFFFFFFFFFFFFFFFFFFFFFF AND EQ PUSH2 0xDFA JUMPI DUP5 PUSH8 0xDE0B6B3A7640000 DUP6 PUSH2 0xDEB SWAP2 SWAP1 PUSH2 0x2189 JUMP JUMPDEST PUSH2 0xDF5 SWAP2 SWAP1 PUSH2 0x2212 JUMP JUMPDEST PUSH2 0xE1A JUMP JUMPDEST DUP4 PUSH8 0xDE0B6B3A7640000 DUP7 PUSH2 0xE0F SWAP2 SWAP1 PUSH2 0x2189 JUMP JUMPDEST PUSH2 0xE19 SWAP2 SWAP1 PUSH2 0x2212 JUMP JUMPDEST JUMPDEST PUSH8 0xDE0B6B3A7640000 DUP15 PUSH2 0xE2E SWAP2 SWAP1 PUSH2 0x2189 JUMP JUMPDEST PUSH2 0xE38 SWAP2 SWAP1 PUSH2 0x2212 JUMP JUMPDEST SWAP9 POP PUSH2 0xE76 JUMP JUMPDEST PUSH2 0xE4B DUP13 DUP4 DUP10 DUP10 PUSH2 0x1595 JUMP JUMPDEST SWAP1 POP DUP1 DUP14 PUSH2 0xE5F DUP4 DUP16 DUP10 DUP10 DUP9 DUP15 DUP15 DUP13 PUSH2 0x1668 JUMP JUMPDEST PUSH2 0xE69 SWAP2 SWAP1 PUSH2 0x2189 JUMP JUMPDEST PUSH2 0xE73 SWAP2 SWAP1 PUSH2 0x2212 JUMP JUMPDEST SWAP9 POP JUMPDEST PUSH2 0xE86 DUP14 DUP14 DUP8 DUP8 DUP7 DUP13 DUP13 DUP11 PUSH2 0x1668 JUMP JUMPDEST SWAP8 POP POP POP POP POP POP POP POP SWAP5 POP SWAP5 SWAP3 POP POP POP JUMP JUMPDEST PUSH1 0x0 DUP1 PUSH1 0x0 PUSH2 0xEA8 DUP7 DUP7 DUP7 PUSH2 0x542 JUMP JUMPDEST SWAP1 POP PUSH1 0x0 PUSH20 0xFFFFFFFFFFFFFFFFFFFFFFFFFFFFFFFFFFFFFFFF AND DUP2 PUSH20 0xFFFFFFFFFFFFFFFFFFFFFFFFFFFFFFFFFFFFFFFF AND SUB PUSH2 0xEEB JUMPI PUSH1 0x0 DUP1 SWAP3 POP SWAP3 POP POP PUSH2 0x10B4 JUMP JUMPDEST PUSH1 0x0 DUP1 PUSH1 0x0 DUP1 PUSH1 0x0 DUP1 DUP7 PUSH20 0xFFFFFFFFFFFFFFFFFFFFFFFFFFFFFFFFFFFFFFFF AND PUSH4 0x392F37E9 PUSH1 0x40 MLOAD DUP2 PUSH4 0xFFFFFFFF AND PUSH1 0xE0 SHL DUP2 MSTORE PUSH1 0x4 ADD PUSH1 0xE0 PUSH1 0x40 MLOAD DUP1 DUP4 SUB DUP2 DUP7 GAS STATICCALL ISZERO DUP1 ISZERO PUSH2 0xF3F JUMPI RETURNDATASIZE PUSH1 0x0 DUP1 RETURNDATACOPY RETURNDATASIZE PUSH1 0x0 REVERT JUMPDEST POP POP POP POP PUSH1 0x40 MLOAD RETURNDATASIZE PUSH1 0x1F NOT PUSH1 0x1F DUP3 ADD AND DUP3 ADD DUP1 PUSH1 0x40 MSTORE POP DUP2 ADD SWAP1 PUSH2 0xF63 SWAP2 SWAP1 PUSH2 0x20B8 JUMP JUMPDEST SWAP7 POP SWAP7 POP POP SWAP6 POP SWAP6 POP SWAP6 POP SWAP6 POP DUP2 PUSH20 0xFFFFFFFFFFFFFFFFFFFFFFFFFFFFFFFFFFFFFFFF AND DUP13 PUSH20 0xFFFFFFFFFFFFFFFFFFFFFFFFFFFFFFFFFFFFFFFF AND EQ PUSH2 0xFA9 JUMPI DUP3 PUSH2 0xFAB JUMP JUMPDEST DUP4 JUMPDEST SWAP9 POP DUP1 PUSH20 0xFFFFFFFFFFFFFFFFFFFFFFFFFFFFFFFFFFFFFFFF AND DUP13 PUSH20 0xFFFFFFFFFFFFFFFFFFFFFFFFFFFFFFFFFFFFFFFF AND EQ PUSH2 0xFE6 JUMPI DUP3 PUSH2 0xFE8 JUMP JUMPDEST DUP4 JUMPDEST SWAP8 POP PUSH1 0x0 DUP3 PUSH20 0xFFFFFFFFFFFFFFFFFFFFFFFFFFFFFFFFFFFFFFFF AND DUP14 PUSH20 0xFFFFFFFFFFFFFFFFFFFFFFFFFFFFFFFFFFFFFFFF AND EQ PUSH2 0x1025 JUMPI DUP6 PUSH2 0x1027 JUMP JUMPDEST DUP7 JUMPDEST SWAP1 POP PUSH1 0x0 DUP3 PUSH20 0xFFFFFFFFFFFFFFFFFFFFFFFFFFFFFFFFFFFFFFFF AND DUP15 PUSH20 0xFFFFFFFFFFFFFFFFFFFFFFFFFFFFFFFFFFFFFFFF AND EQ PUSH2 0x1064 JUMPI DUP7 PUSH2 0x1066 JUMP JUMPDEST DUP8 JUMPDEST SWAP1 POP DUP2 PUSH8 0xDE0B6B3A7640000 DUP13 PUSH2 0x107D SWAP2 SWAP1 PUSH2 0x2189 JUMP JUMPDEST PUSH2 0x1087 SWAP2 SWAP1 PUSH2 0x2212 JUMP JUMPDEST SWAP11 POP DUP1 PUSH8 0xDE0B6B3A7640000 DUP12 PUSH2 0x109E SWAP2 SWAP1 PUSH2 0x2189 JUMP JUMPDEST PUSH2 0x10A8 SWAP2 SWAP1 PUSH2 0x2212 JUMP JUMPDEST SWAP10 POP POP POP POP POP POP POP POP POP POP JUMPDEST SWAP4 POP SWAP4 SWAP2 POP POP JUMP JUMPDEST PUSH1 0x0 DUP1 PUSH1 0x0 DUP1 PUSH1 0x0 DUP1 PUSH1 0x0 PUSH32 0x0 PUSH20 0xFFFFFFFFFFFFFFFFFFFFFFFFFFFFFFFFFFFFFFFF AND PUSH4 0x4C1EE03E DUP12 DUP12 DUP12 PUSH1 0x40 MLOAD DUP5 PUSH4 0xFFFFFFFF AND PUSH1 0xE0 SHL DUP2 MSTORE PUSH1 0x4 ADD PUSH2 0x1124 SWAP4 SWAP3 SWAP2 SWAP1 PUSH2 0x2015 JUMP JUMPDEST PUSH1 0x20 PUSH1 0x40 MLOAD DUP1 DUP4 SUB DUP2 DUP7 GAS STATICCALL ISZERO DUP1 ISZERO PUSH2 0x1141 JUMPI RETURNDATASIZE PUSH1 0x0 DUP1 RETURNDATACOPY RETURNDATASIZE PUSH1 0x0 REVERT JUMPDEST POP POP POP POP PUSH1 0x40 MLOAD RETURNDATASIZE PUSH1 0x1F NOT PUSH1 0x1F DUP3 ADD AND DUP3 ADD DUP1 PUSH1 0x40 MSTORE POP DUP2 ADD SWAP1 PUSH2 0x1165 SWAP2 SWAP1 PUSH2 0x2061 JUMP JUMPDEST PUSH20 0xFFFFFFFFFFFFFFFFFFFFFFFFFFFFFFFFFFFFFFFF AND PUSH4 0x392F37E9 PUSH1 0x40 MLOAD DUP2 PUSH4 0xFFFFFFFF AND PUSH1 0xE0 SHL DUP2 MSTORE PUSH1 0x4 ADD PUSH1 0xE0 PUSH1 0x40 MLOAD DUP1 DUP4 SUB DUP2 DUP7 GAS STATICCALL ISZERO DUP1 ISZERO PUSH2 0x11AF JUMPI RETURNDATASIZE PUSH1 0x0 DUP1 RETURNDATACOPY RETURNDATASIZE PUSH1 0x0 REVERT JUMPDEST POP POP POP POP PUSH1 0x40 MLOAD RETURNDATASIZE PUSH1 0x1F NOT PUSH1 0x1F DUP3 ADD AND DUP3 ADD DUP1 PUSH1 0x40 MSTORE POP DUP2 ADD SWAP1 PUSH2 0x11D3 SWAP2 SWAP1 PUSH2 0x20B8 JUMP JUMPDEST POP SWAP6 POP SWAP6 POP SWAP6 POP SWAP6 POP SWAP6 POP SWAP6 POP PUSH1 0x0 DUP2 PUSH20 0xFFFFFFFFFFFFFFFFFFFFFFFFFFFFFFFFFFFFFFFF AND DUP12 PUSH20 0xFFFFFFFFFFFFFFFFFFFFFFFFFFFFFFFFFFFFFFFF AND EQ PUSH2 0x1231 JUMPI DUP5 DUP8 DUP6 PUSH2 0x1222 SWAP2 SWAP1 PUSH2 0x2189 JUMP JUMPDEST PUSH2 0x122C SWAP2 SWAP1 PUSH2 0x2212 JUMP JUMPDEST PUSH2 0x1249 JUMP JUMPDEST DUP4 DUP7 DUP7 PUSH2 0x123E SWAP2 SWAP1 PUSH2 0x2189 JUMP JUMPDEST PUSH2 0x1248 SWAP2 SWAP1 PUSH2 0x2212 JUMP JUMPDEST JUMPDEST SWAP1 POP DUP1 PUSH8 0xDE0B6B3A7640000 PUSH2 0x1265 DUP4 DUP15 DUP10 DUP10 DUP9 DUP15 DUP15 DUP13 PUSH2 0x1668 JUMP JUMPDEST PUSH2 0x126F SWAP2 SWAP1 PUSH2 0x2189 JUMP JUMPDEST PUSH2 0x1279 SWAP2 SWAP1 PUSH2 0x2212 JUMP JUMPDEST SWAP8 POP POP POP POP POP POP POP POP SWAP4 SWAP3 POP POP POP JUMP JUMPDEST PUSH32 0x0 DUP2 JUMP JUMPDEST PUSH1 0x0 DUP1 PUSH1 0x0 DUP1 PUSH1 0x0 DUP1 PUSH1 0x0 PUSH32 0x0 PUSH20 0xFFFFFFFFFFFFFFFFFFFFFFFFFFFFFFFFFFFFFFFF AND PUSH4 0x4C1EE03E DUP12 DUP12 DUP12 PUSH1 0x40 MLOAD DUP5 PUSH4 0xFFFFFFFF AND PUSH1 0xE0 SHL DUP2 MSTORE PUSH1 0x4 ADD PUSH2 0x1315 SWAP4 SWAP3 SWAP2 SWAP1 PUSH2 0x2015 JUMP JUMPDEST PUSH1 0x20 PUSH1 0x40 MLOAD DUP1 DUP4 SUB DUP2 DUP7 GAS STATICCALL ISZERO DUP1 ISZERO PUSH2 0x1332 JUMPI RETURNDATASIZE PUSH1 0x0 DUP1 RETURNDATACOPY RETURNDATASIZE PUSH1 0x0 REVERT JUMPDEST POP POP POP POP PUSH1 0x40 MLOAD RETURNDATASIZE PUSH1 0x1F NOT PUSH1 0x1F DUP3 ADD AND DUP3 ADD DUP1 PUSH1 0x40 MSTORE POP DUP2 ADD SWAP1 PUSH2 0x1356 SWAP2 SWAP1 PUSH2 0x2061 JUMP JUMPDEST PUSH20 0xFFFFFFFFFFFFFFFFFFFFFFFFFFFFFFFFFFFFFFFF AND PUSH4 0x392F37E9 PUSH1 0x40 MLOAD DUP2 PUSH4 0xFFFFFFFF AND PUSH1 0xE0 SHL DUP2 MSTORE PUSH1 0x4 ADD PUSH1 0xE0 PUSH1 0x40 MLOAD DUP1 DUP4 SUB DUP2 DUP7 GAS STATICCALL ISZERO DUP1 ISZERO PUSH2 0x13A0 JUMPI RETURNDATASIZE PUSH1 0x0 DUP1 RETURNDATACOPY RETURNDATASIZE PUSH1 0x0 REVERT JUMPDEST POP POP POP POP PUSH1 0x40 MLOAD RETURNDATASIZE PUSH1 0x1F NOT PUSH1 0x1F DUP3 ADD AND DUP3 ADD DUP1 PUSH1 0x40 MSTORE POP DUP2 ADD SWAP1 PUSH2 0x13C4 SWAP2 SWAP1 PUSH2 0x20B8 JUMP JUMPDEST POP SWAP6 POP SWAP6 POP SWAP6 POP SWAP6 POP SWAP6 POP SWAP6 POP DUP11 PUSH8 0xDE0B6B3A7640000 PUSH2 0x13EB DUP14 DUP14 DUP9 DUP9 DUP8 DUP14 DUP14 DUP12 PUSH2 0x1668 JUMP JUMPDEST PUSH2 0x13F5 SWAP2 SWAP1 PUSH2 0x2189 JUMP JUMPDEST PUSH2 0x13FF SWAP2 SWAP1 PUSH2 0x2212 JUMP JUMPDEST SWAP7 POP POP POP POP POP POP POP SWAP5 SWAP4 POP POP POP POP JUMP JUMPDEST PUSH1 0x0 DUP1 PUSH1 0x0 DUP1 PUSH1 0x0 DUP1 PUSH1 0x0 DUP1 DUP9 PUSH20 0xFFFFFFFFFFFFFFFFFFFFFFFFFFFFFFFFFFFFFFFF AND PUSH4 0x392F37E9 PUSH1 0x40 MLOAD DUP2 PUSH4 0xFFFFFFFF AND PUSH1 0xE0 SHL DUP2 MSTORE PUSH1 0x4 ADD PUSH1 0xE0 PUSH1 0x40 MLOAD DUP1 DUP4 SUB DUP2 DUP7 GAS STATICCALL ISZERO DUP1 ISZERO PUSH2 0x1466 JUMPI RETURNDATASIZE PUSH1 0x0 DUP1 RETURNDATACOPY RETURNDATASIZE PUSH1 0x0 REVERT JUMPDEST POP POP POP POP PUSH1 0x40 MLOAD RETURNDATASIZE PUSH1 0x1F NOT PUSH1 0x1F DUP3 ADD AND DUP3 ADD DUP1 PUSH1 0x40 MSTORE POP DUP2 ADD SWAP1 PUSH2 0x148A SWAP2 SWAP1 PUSH2 0x20B8 JUMP JUMPDEST POP SWAP6 POP SWAP6 POP SWAP6 POP SWAP6 POP SWAP6 POP SWAP6 POP PUSH1 0x0 DUP2 PUSH20 0xFFFFFFFFFFFFFFFFFFFFFFFFFFFFFFFFFFFFFFFF AND DUP12 PUSH20 0xFFFFFFFFFFFFFFFFFFFFFFFFFFFFFFFFFFFFFFFF AND EQ PUSH2 0x14E8 JUMPI DUP5 DUP8 DUP6 PUSH2 0x14D9 SWAP2 SWAP1 PUSH2 0x2189 JUMP JUMPDEST PUSH2 0x14E3 SWAP2 SWAP1 PUSH2 0x2212 JUMP JUMPDEST PUSH2 0x1500 JUMP JUMPDEST DUP4 DUP7 DUP7 PUSH2 0x14F5 SWAP2 SWAP1 PUSH2 0x2189 JUMP JUMPDEST PUSH2 0x14FF SWAP2 SWAP1 PUSH2 0x2212 JUMP JUMPDEST JUMPDEST SWAP1 POP DUP1 PUSH8 0xDE0B6B3A7640000 PUSH2 0x151C DUP4 DUP15 DUP10 DUP10 DUP9 DUP15 DUP15 DUP13 PUSH2 0x1668 JUMP JUMPDEST PUSH2 0x1526 SWAP2 SWAP1 PUSH2 0x2189 JUMP JUMPDEST PUSH2 0x1530 SWAP2 SWAP1 PUSH2 0x2212 JUMP JUMPDEST SWAP9 POP DUP12 PUSH8 0xDE0B6B3A7640000 PUSH2 0x154C DUP15 DUP15 DUP10 DUP10 DUP9 DUP15 DUP15 DUP13 PUSH2 0x1668 JUMP JUMPDEST PUSH2 0x1556 SWAP2 SWAP1 PUSH2 0x2189 JUMP JUMPDEST PUSH2 0x1560 SWAP2 SWAP1 PUSH2 0x2212 JUMP JUMPDEST SWAP8 POP POP POP POP POP POP POP POP SWAP4 POP SWAP4 SWAP2 POP POP JUMP JUMPDEST PUSH32 0x0 DUP2 JUMP JUMPDEST PUSH1 0x0 DUP1 DUP5 PUSH20 0xFFFFFFFFFFFFFFFFFFFFFFFFFFFFFFFFFFFFFFFF AND DUP7 PUSH20 0xFFFFFFFFFFFFFFFFFFFFFFFFFFFFFFFFFFFFFFFF AND EQ PUSH2 0x15D1 JUMPI DUP3 PUSH2 0x15D3 JUMP JUMPDEST DUP4 JUMPDEST SWAP1 POP PUSH1 0x0 DUP6 PUSH20 0xFFFFFFFFFFFFFFFFFFFFFFFFFFFFFFFFFFFFFFFF AND DUP8 PUSH20 0xFFFFFFFFFFFFFFFFFFFFFFFFFFFFFFFFFFFFFFFF AND EQ PUSH2 0x1610 JUMPI DUP5 PUSH2 0x1612 JUMP JUMPDEST DUP4 JUMPDEST SWAP1 POP PUSH2 0x2710 PUSH2 0x1646 DUP3 DUP5 GT PUSH2 0x1632 JUMPI DUP4 DUP4 PUSH2 0x162D SWAP2 SWAP1 PUSH2 0x24C3 JUMP JUMPDEST PUSH2 0x163F JUMP JUMPDEST DUP3 DUP5 PUSH2 0x163E SWAP2 SWAP1 PUSH2 0x24C3 JUMP JUMPDEST JUMPDEST PUSH1 0x1 PUSH2 0x1880 JUMP JUMPDEST PUSH1 0xA PUSH2 0x1652 SWAP2 SWAP1 PUSH2 0x262A JUMP JUMPDEST PUSH2 0x165C SWAP2 SWAP1 PUSH2 0x2189 JUMP JUMPDEST SWAP3 POP POP POP SWAP5 SWAP4 POP POP POP POP JUMP JUMPDEST PUSH1 0x0 DUP2 ISZERO PUSH2 0x1809 JUMPI PUSH1 0x0 PUSH2 0x167F DUP9 DUP9 DUP6 DUP9 DUP9 PUSH2 0x189A JUMP JUMPDEST SWAP1 POP DUP5 PUSH8 0xDE0B6B3A7640000 DUP10 PUSH2 0x1696 SWAP2 SWAP1 PUSH2 0x2189 JUMP JUMPDEST PUSH2 0x16A0 SWAP2 SWAP1 PUSH2 0x2212 JUMP JUMPDEST SWAP8 POP DUP4 PUSH8 0xDE0B6B3A7640000 DUP9 PUSH2 0x16B7 SWAP2 SWAP1 PUSH2 0x2189 JUMP JUMPDEST PUSH2 0x16C1 SWAP2 SWAP1 PUSH2 0x2212 JUMP JUMPDEST SWAP7 POP PUSH1 0x0 DUP1 DUP8 PUSH20 0xFFFFFFFFFFFFFFFFFFFFFFFFFFFFFFFFFFFFFFFF AND DUP12 PUSH20 0xFFFFFFFFFFFFFFFFFFFFFFFFFFFFFFFFFFFFFFFF AND EQ PUSH2 0x1700 JUMPI DUP9 DUP11 PUSH2 0x1703 JUMP JUMPDEST DUP10 DUP10 JUMPDEST SWAP2 POP SWAP2 POP DUP8 PUSH20 0xFFFFFFFFFFFFFFFFFFFFFFFFFFFFFFFFFFFFFFFF AND DUP12 PUSH20 0xFFFFFFFFFFFFFFFFFFFFFFFFFFFFFFFFFFFFFFFF AND EQ PUSH2 0x175E JUMPI DUP6 PUSH8 0xDE0B6B3A7640000 DUP14 PUSH2 0x174F SWAP2 SWAP1 PUSH2 0x2189 JUMP JUMPDEST PUSH2 0x1759 SWAP2 SWAP1 PUSH2 0x2212 JUMP JUMPDEST PUSH2 0x177E JUMP JUMPDEST DUP7 PUSH8 0xDE0B6B3A7640000 DUP14 PUSH2 0x1773 SWAP2 SWAP1 PUSH2 0x2189 JUMP JUMPDEST PUSH2 0x177D SWAP2 SWAP1 PUSH2 0x2212 JUMP JUMPDEST JUMPDEST SWAP12 POP PUSH1 0x0 PUSH2 0x1798 DUP4 DUP15 PUSH2 0x1791 SWAP2 SWAP1 PUSH2 0x2675 JUMP JUMPDEST DUP6 DUP5 PUSH2 0x1999 JUMP JUMPDEST DUP3 PUSH2 0x17A3 SWAP2 SWAP1 PUSH2 0x24C3 JUMP JUMPDEST SWAP1 POP PUSH8 0xDE0B6B3A7640000 DUP10 PUSH20 0xFFFFFFFFFFFFFFFFFFFFFFFFFFFFFFFFFFFFFFFF AND DUP14 PUSH20 0xFFFFFFFFFFFFFFFFFFFFFFFFFFFFFFFFFFFFFFFF AND EQ PUSH2 0x17E7 JUMPI DUP9 PUSH2 0x17E9 JUMP JUMPDEST DUP8 JUMPDEST DUP3 PUSH2 0x17F4 SWAP2 SWAP1 PUSH2 0x2189 JUMP JUMPDEST PUSH2 0x17FE SWAP2 SWAP1 PUSH2 0x2212 JUMP JUMPDEST SWAP5 POP POP POP POP POP PUSH2 0x1874 JUMP JUMPDEST PUSH1 0x0 DUP1 DUP7 PUSH20 0xFFFFFFFFFFFFFFFFFFFFFFFFFFFFFFFFFFFFFFFF AND DUP11 PUSH20 0xFFFFFFFFFFFFFFFFFFFFFFFFFFFFFFFFFFFFFFFF AND EQ PUSH2 0x1846 JUMPI DUP8 DUP10 PUSH2 0x1849 JUMP JUMPDEST DUP9 DUP9 JUMPDEST SWAP2 POP SWAP2 POP DUP11 DUP3 PUSH2 0x1859 SWAP2 SWAP1 PUSH2 0x2675 JUMP JUMPDEST DUP2 DUP13 PUSH2 0x1865 SWAP2 SWAP1 PUSH2 0x2189 JUMP JUMPDEST PUSH2 0x186F SWAP2 SWAP1 PUSH2 0x2212 JUMP JUMPDEST SWAP3 POP POP POP JUMPDEST SWAP9 SWAP8 POP POP POP POP POP POP POP POP JUMP JUMPDEST PUSH1 0x0 DUP2 DUP4 LT ISZERO PUSH2 0x1890 JUMPI DUP2 PUSH2 0x1892 JUMP JUMPDEST DUP3 JUMPDEST SWAP1 POP SWAP3 SWAP2 POP POP JUMP JUMPDEST PUSH1 0x0 DUP4 ISZERO PUSH2 0x1981 JUMPI PUSH1 0x0 DUP4 PUSH8 0xDE0B6B3A7640000 DUP9 PUSH2 0x18B9 SWAP2 SWAP1 PUSH2 0x2189 JUMP JUMPDEST PUSH2 0x18C3 SWAP2 SWAP1 PUSH2 0x2212 JUMP JUMPDEST SWAP1 POP PUSH1 0x0 DUP4 PUSH8 0xDE0B6B3A7640000 DUP9 PUSH2 0x18DC SWAP2 SWAP1 PUSH2 0x2189 JUMP JUMPDEST PUSH2 0x18E6 SWAP2 SWAP1 PUSH2 0x2212 JUMP JUMPDEST SWAP1 POP PUSH1 0x0 PUSH8 0xDE0B6B3A7640000 DUP3 DUP5 PUSH2 0x18FF SWAP2 SWAP1 PUSH2 0x2189 JUMP JUMPDEST PUSH2 0x1909 SWAP2 SWAP1 PUSH2 0x2212 JUMP JUMPDEST SWAP1 POP PUSH1 0x0 PUSH8 0xDE0B6B3A7640000 DUP4 DUP5 PUSH2 0x1922 SWAP2 SWAP1 PUSH2 0x2189 JUMP JUMPDEST PUSH2 0x192C SWAP2 SWAP1 PUSH2 0x2212 JUMP JUMPDEST PUSH8 0xDE0B6B3A7640000 DUP6 DUP7 PUSH2 0x1941 SWAP2 SWAP1 PUSH2 0x2189 JUMP JUMPDEST PUSH2 0x194B SWAP2 SWAP1 PUSH2 0x2212 JUMP JUMPDEST PUSH2 0x1955 SWAP2 SWAP1 PUSH2 0x2675 JUMP JUMPDEST SWAP1 POP PUSH8 0xDE0B6B3A7640000 DUP2 DUP4 PUSH2 0x196C SWAP2 SWAP1 PUSH2 0x2189 JUMP JUMPDEST PUSH2 0x1976 SWAP2 SWAP1 PUSH2 0x2212 JUMP JUMPDEST SWAP5 POP POP POP POP POP PUSH2 0x1990 JUMP JUMPDEST DUP5 DUP7 PUSH2 0x198D SWAP2 SWAP1 PUSH2 0x2189 JUMP JUMPDEST SWAP1 POP JUMPDEST SWAP6 SWAP5 POP POP POP POP POP JUMP JUMPDEST PUSH1 0x0 DUP1 PUSH1 0x0 SWAP1 POP JUMPDEST PUSH1 0xFF DUP2 LT ISZERO PUSH2 0x1AB6 JUMPI PUSH1 0x0 DUP4 SWAP1 POP PUSH1 0x0 PUSH2 0x19BB DUP8 DUP7 PUSH2 0x1AC2 JUMP JUMPDEST SWAP1 POP DUP6 DUP2 LT ISZERO PUSH2 0x1A10 JUMPI PUSH1 0x0 PUSH2 0x19D1 DUP9 DUP8 PUSH2 0x1B84 JUMP JUMPDEST PUSH8 0xDE0B6B3A7640000 DUP4 DUP10 PUSH2 0x19E6 SWAP2 SWAP1 PUSH2 0x24C3 JUMP JUMPDEST PUSH2 0x19F0 SWAP2 SWAP1 PUSH2 0x2189 JUMP JUMPDEST PUSH2 0x19FA SWAP2 SWAP1 PUSH2 0x2212 JUMP JUMPDEST SWAP1 POP DUP1 DUP7 PUSH2 0x1A08 SWAP2 SWAP1 PUSH2 0x2675 JUMP JUMPDEST SWAP6 POP POP PUSH2 0x1A57 JUMP JUMPDEST PUSH1 0x0 PUSH2 0x1A1C DUP9 DUP8 PUSH2 0x1B84 JUMP JUMPDEST PUSH8 0xDE0B6B3A7640000 DUP9 DUP5 PUSH2 0x1A31 SWAP2 SWAP1 PUSH2 0x24C3 JUMP JUMPDEST PUSH2 0x1A3B SWAP2 SWAP1 PUSH2 0x2189 JUMP JUMPDEST PUSH2 0x1A45 SWAP2 SWAP1 PUSH2 0x2212 JUMP JUMPDEST SWAP1 POP DUP1 DUP7 PUSH2 0x1A53 SWAP2 SWAP1 PUSH2 0x24C3 JUMP JUMPDEST SWAP6 POP POP JUMPDEST DUP2 DUP6 GT ISZERO PUSH2 0x1A82 JUMPI PUSH1 0x1 DUP3 DUP7 PUSH2 0x1A6D SWAP2 SWAP1 PUSH2 0x24C3 JUMP JUMPDEST GT PUSH2 0x1A7D JUMPI DUP5 SWAP4 POP POP POP POP PUSH2 0x1ABB JUMP JUMPDEST PUSH2 0x1AA1 JUMP JUMPDEST PUSH1 0x1 DUP6 DUP4 PUSH2 0x1A90 SWAP2 SWAP1 PUSH2 0x24C3 JUMP JUMPDEST GT PUSH2 0x1AA0 JUMPI DUP5 SWAP4 POP POP POP POP PUSH2 0x1ABB JUMP JUMPDEST JUMPDEST POP POP DUP1 DUP1 PUSH2 0x1AAE SWAP1 PUSH2 0x26CB JUMP JUMPDEST SWAP2 POP POP PUSH2 0x19A1 JUMP JUMPDEST POP DUP2 SWAP1 POP JUMPDEST SWAP4 SWAP3 POP POP POP JUMP JUMPDEST PUSH1 0x0 PUSH8 0xDE0B6B3A7640000 DUP3 PUSH8 0xDE0B6B3A7640000 DUP6 PUSH8 0xDE0B6B3A7640000 DUP8 DUP9 PUSH2 0x1AED SWAP2 SWAP1 PUSH2 0x2189 JUMP JUMPDEST PUSH2 0x1AF7 SWAP2 SWAP1 PUSH2 0x2212 JUMP JUMPDEST PUSH2 0x1B01 SWAP2 SWAP1 PUSH2 0x2189 JUMP JUMPDEST PUSH2 0x1B0B SWAP2 SWAP1 PUSH2 0x2212 JUMP JUMPDEST PUSH2 0x1B15 SWAP2 SWAP1 PUSH2 0x2189 JUMP JUMPDEST PUSH2 0x1B1F SWAP2 SWAP1 PUSH2 0x2212 JUMP JUMPDEST PUSH8 0xDE0B6B3A7640000 DUP1 DUP5 PUSH8 0xDE0B6B3A7640000 DUP7 DUP8 PUSH2 0x1B3F SWAP2 SWAP1 PUSH2 0x2189 JUMP JUMPDEST PUSH2 0x1B49 SWAP2 SWAP1 PUSH2 0x2212 JUMP JUMPDEST PUSH2 0x1B53 SWAP2 SWAP1 PUSH2 0x2189 JUMP JUMPDEST PUSH2 0x1B5D SWAP2 SWAP1 PUSH2 0x2212 JUMP JUMPDEST DUP6 PUSH2 0x1B68 SWAP2 SWAP1 PUSH2 0x2189 JUMP JUMPDEST PUSH2 0x1B72 SWAP2 SWAP1 PUSH2 0x2212 JUMP JUMPDEST PUSH2 0x1B7C SWAP2 SWAP1 PUSH2 0x2675 JUMP JUMPDEST SWAP1 POP SWAP3 SWAP2 POP POP JUMP JUMPDEST PUSH1 0x0 PUSH8 0xDE0B6B3A7640000 DUP4 PUSH8 0xDE0B6B3A7640000 DUP6 DUP7 PUSH2 0x1BA5 SWAP2 SWAP1 PUSH2 0x2189 JUMP JUMPDEST PUSH2 0x1BAF SWAP2 SWAP1 PUSH2 0x2212 JUMP JUMPDEST PUSH2 0x1BB9 SWAP2 SWAP1 PUSH2 0x2189 JUMP JUMPDEST PUSH2 0x1BC3 SWAP2 SWAP1 PUSH2 0x2212 JUMP JUMPDEST PUSH8 0xDE0B6B3A7640000 DUP1 DUP5 DUP6 PUSH2 0x1BD9 SWAP2 SWAP1 PUSH2 0x2189 JUMP JUMPDEST PUSH2 0x1BE3 SWAP2 SWAP1 PUSH2 0x2212 JUMP JUMPDEST DUP6 PUSH1 0x3 PUSH2 0x1BF0 SWAP2 SWAP1 PUSH2 0x2189 JUMP JUMPDEST PUSH2 0x1BFA SWAP2 SWAP1 PUSH2 0x2189 JUMP JUMPDEST PUSH2 0x1C04 SWAP2 SWAP1 PUSH2 0x2212 JUMP JUMPDEST PUSH2 0x1C0E SWAP2 SWAP1 PUSH2 0x2675 JUMP JUMPDEST SWAP1 POP SWAP3 SWAP2 POP POP JUMP JUMPDEST PUSH1 0x0 DUP1 REVERT JUMPDEST PUSH1 0x0 DUP2 SWAP1 POP SWAP2 SWAP1 POP JUMP JUMPDEST PUSH2 0x1C2E DUP2 PUSH2 0x1C1B JUMP JUMPDEST DUP2 EQ PUSH2 0x1C39 JUMPI PUSH1 0x0 DUP1 REVERT JUMPDEST POP JUMP JUMPDEST PUSH1 0x0 DUP2 CALLDATALOAD SWAP1 POP PUSH2 0x1C4B DUP2 PUSH2 0x1C25 JUMP JUMPDEST SWAP3 SWAP2 POP POP JUMP JUMPDEST PUSH1 0x0 PUSH20 0xFFFFFFFFFFFFFFFFFFFFFFFFFFFFFFFFFFFFFFFF DUP3 AND SWAP1 POP SWAP2 SWAP1 POP JUMP JUMPDEST PUSH1 0x0 PUSH2 0x1C7C DUP3 PUSH2 0x1C51 JUMP JUMPDEST SWAP1 POP SWAP2 SWAP1 POP JUMP JUMPDEST PUSH2 0x1C8C DUP2 PUSH2 0x1C71 JUMP JUMPDEST DUP2 EQ PUSH2 0x1C97 JUMPI PUSH1 0x0 DUP1 REVERT JUMPDEST POP JUMP JUMPDEST PUSH1 0x0 DUP2 CALLDATALOAD SWAP1 POP PUSH2 0x1CA9 DUP2 PUSH2 0x1C83 JUMP JUMPDEST SWAP3 SWAP2 POP POP JUMP JUMPDEST PUSH1 0x0 DUP2 ISZERO ISZERO SWAP1 POP SWAP2 SWAP1 POP JUMP JUMPDEST PUSH2 0x1CC4 DUP2 PUSH2 0x1CAF JUMP JUMPDEST DUP2 EQ PUSH2 0x1CCF JUMPI PUSH1 0x0 DUP1 REVERT JUMPDEST POP JUMP JUMPDEST PUSH1 0x0 DUP2 CALLDATALOAD SWAP1 POP PUSH2 0x1CE1 DUP2 PUSH2 0x1CBB JUMP JUMPDEST SWAP3 SWAP2 POP POP JUMP JUMPDEST PUSH1 0x0 DUP1 PUSH1 0x0 DUP1 PUSH1 0x80 DUP6 DUP8 SUB SLT ISZERO PUSH2 0x1D01 JUMPI PUSH2 0x1D00 PUSH2 0x1C16 JUMP JUMPDEST JUMPDEST PUSH1 0x0 PUSH2 0x1D0F DUP8 DUP3 DUP9 ADD PUSH2 0x1C3C JUMP JUMPDEST SWAP5 POP POP PUSH1 0x20 PUSH2 0x1D20 DUP8 DUP3 DUP9 ADD PUSH2 0x1C9A JUMP JUMPDEST SWAP4 POP POP PUSH1 0x40 PUSH2 0x1D31 DUP8 DUP3 DUP9 ADD PUSH2 0x1C9A JUMP JUMPDEST SWAP3 POP POP PUSH1 0x60 PUSH2 0x1D42 DUP8 DUP3 DUP9 ADD PUSH2 0x1CD2 JUMP JUMPDEST SWAP2 POP POP SWAP3 SWAP6 SWAP2 SWAP5 POP SWAP3 POP JUMP JUMPDEST PUSH2 0x1D57 DUP2 PUSH2 0x1C1B JUMP JUMPDEST DUP3 MSTORE POP POP JUMP JUMPDEST PUSH1 0x0 PUSH1 0x40 DUP3 ADD SWAP1 POP PUSH2 0x1D72 PUSH1 0x0 DUP4 ADD DUP6 PUSH2 0x1D4E JUMP JUMPDEST PUSH2 0x1D7F PUSH1 0x20 DUP4 ADD DUP5 PUSH2 0x1D4E JUMP JUMPDEST SWAP4 SWAP3 POP POP POP JUMP JUMPDEST PUSH1 0x0 DUP1 PUSH1 0x0 PUSH1 0x60 DUP5 DUP7 SUB SLT ISZERO PUSH2 0x1D9F JUMPI PUSH2 0x1D9E PUSH2 0x1C16 JUMP JUMPDEST JUMPDEST PUSH1 0x0 PUSH2 0x1DAD DUP7 DUP3 DUP8 ADD PUSH2 0x1C9A JUMP JUMPDEST SWAP4 POP POP PUSH1 0x20 PUSH2 0x1DBE DUP7 DUP3 DUP8 ADD PUSH2 0x1C9A JUMP JUMPDEST SWAP3 POP POP PUSH1 0x40 PUSH2 0x1DCF DUP7 DUP3 DUP8 ADD PUSH2 0x1CD2 JUMP JUMPDEST SWAP2 POP POP SWAP3 POP SWAP3 POP SWAP3 JUMP JUMPDEST PUSH2 0x1DE2 DUP2 PUSH2 0x1C71 JUMP JUMPDEST DUP3 MSTORE POP POP JUMP JUMPDEST PUSH1 0x0 PUSH1 0x20 DUP3 ADD SWAP1 POP PUSH2 0x1DFD PUSH1 0x0 DUP4 ADD DUP5 PUSH2 0x1DD9 JUMP JUMPDEST SWAP3 SWAP2 POP POP JUMP JUMPDEST PUSH1 0x0 PUSH1 0x60 DUP3 ADD SWAP1 POP PUSH2 0x1E18 PUSH1 0x0 DUP4 ADD DUP7 PUSH2 0x1D4E JUMP JUMPDEST PUSH2 0x1E25 PUSH1 0x20 DUP4 ADD DUP6 PUSH2 0x1D4E JUMP JUMPDEST PUSH2 0x1E32 PUSH1 0x40 DUP4 ADD DUP5 PUSH2 0x1D4E JUMP JUMPDEST SWAP5 SWAP4 POP POP POP POP JUMP JUMPDEST PUSH1 0x0 DUP1 PUSH1 0x40 DUP4 DUP6 SUB SLT ISZERO PUSH2 0x1E51 JUMPI PUSH2 0x1E50 PUSH2 0x1C16 JUMP JUMPDEST JUMPDEST PUSH1 0x0 PUSH2 0x1E5F DUP6 DUP3 DUP7 ADD PUSH2 0x1C9A JUMP JUMPDEST SWAP3 POP POP PUSH1 0x20 PUSH2 0x1E70 DUP6 DUP3 DUP7 ADD PUSH2 0x1C9A JUMP JUMPDEST SWAP2 POP POP SWAP3 POP SWAP3 SWAP1 POP JUMP JUMPDEST PUSH1 0x0 PUSH1 0x40 DUP3 ADD SWAP1 POP PUSH2 0x1E8F PUSH1 0x0 DUP4 ADD DUP6 PUSH2 0x1DD9 JUMP JUMPDEST PUSH2 0x1E9C PUSH1 0x20 DUP4 ADD DUP5 PUSH2 0x1DD9 JUMP JUMPDEST SWAP4 SWAP3 POP POP POP JUMP JUMPDEST PUSH1 0x0 DUP1 PUSH1 0x0 DUP1 PUSH1 0x0 PUSH1 0xA0 DUP7 DUP9 SUB SLT ISZERO PUSH2 0x1EBF JUMPI PUSH2 0x1EBE PUSH2 0x1C16 JUMP JUMPDEST JUMPDEST PUSH1 0x0 PUSH2 0x1ECD DUP9 DUP3 DUP10 ADD PUSH2 0x1C3C JUMP JUMPDEST SWAP6 POP POP PUSH1 0x20 PUSH2 0x1EDE DUP9 DUP3 DUP10 ADD PUSH2 0x1C9A JUMP JUMPDEST SWAP5 POP POP PUSH1 0x40 PUSH2 0x1EEF DUP9 DUP3 DUP10 ADD PUSH2 0x1C9A JUMP JUMPDEST SWAP4 POP POP PUSH1 0x60 PUSH2 0x1F00 DUP9 DUP3 DUP10 ADD PUSH2 0x1CD2 JUMP JUMPDEST SWAP3 POP POP PUSH1 0x80 PUSH2 0x1F11 DUP9 DUP3 DUP10 ADD PUSH2 0x1C3C JUMP JUMPDEST SWAP2 POP POP SWAP3 SWAP6 POP SWAP3 SWAP6 SWAP1 SWAP4 POP JUMP JUMPDEST PUSH1 0x0 PUSH1 0x20 DUP3 ADD SWAP1 POP PUSH2 0x1F33 PUSH1 0x0 DUP4 ADD DUP5 PUSH2 0x1D4E JUMP JUMPDEST SWAP3 SWAP2 POP POP JUMP JUMPDEST PUSH1 0x0 DUP1 PUSH1 0x0 PUSH1 0x60 DUP5 DUP7 SUB SLT ISZERO PUSH2 0x1F52 JUMPI PUSH2 0x1F51 PUSH2 0x1C16 JUMP JUMPDEST JUMPDEST PUSH1 0x0 PUSH2 0x1F60 DUP7 DUP3 DUP8 ADD PUSH2 0x1C3C JUMP JUMPDEST SWAP4 POP POP PUSH1 0x20 PUSH2 0x1F71 DUP7 DUP3 DUP8 ADD PUSH2 0x1C9A JUMP JUMPDEST SWAP3 POP POP PUSH1 0x40 PUSH2 0x1F82 DUP7 DUP3 DUP8 ADD PUSH2 0x1C9A JUMP JUMPDEST SWAP2 POP POP SWAP3 POP SWAP3 POP SWAP3 JUMP JUMPDEST PUSH1 0x0 DUP2 SWAP1 POP SWAP2 SWAP1 POP JUMP JUMPDEST PUSH1 0x0 PUSH2 0x1FB1 PUSH2 0x1FAC PUSH2 0x1FA7 DUP5 PUSH2 0x1C51 JUMP JUMPDEST PUSH2 0x1F8C JUMP JUMPDEST PUSH2 0x1C51 JUMP JUMPDEST SWAP1 POP SWAP2 SWAP1 POP JUMP JUMPDEST PUSH1 0x0 PUSH2 0x1FC3 DUP3 PUSH2 0x1F96 JUMP JUMPDEST SWAP1 POP SWAP2 SWAP1 POP JUMP JUMPDEST PUSH1 0x0 PUSH2 0x1FD5 DUP3 PUSH2 0x1FB8 JUMP JUMPDEST SWAP1 POP SWAP2 SWAP1 POP JUMP JUMPDEST PUSH2 0x1FE5 DUP2 PUSH2 0x1FCA JUMP JUMPDEST DUP3 MSTORE POP POP JUMP JUMPDEST PUSH1 0x0 PUSH1 0x20 DUP3 ADD SWAP1 POP PUSH2 0x2000 PUSH1 0x0 DUP4 ADD DUP5 PUSH2 0x1FDC JUMP JUMPDEST SWAP3 SWAP2 POP POP JUMP JUMPDEST PUSH2 0x200F DUP2 PUSH2 0x1CAF JUMP JUMPDEST DUP3 MSTORE POP POP JUMP JUMPDEST PUSH1 0x0 PUSH1 0x60 DUP3 ADD SWAP1 POP PUSH2 0x202A PUSH1 0x0 DUP4 ADD DUP7 PUSH2 0x1DD9 JUMP JUMPDEST PUSH2 0x2037 PUSH1 0x20 DUP4 ADD DUP6 PUSH2 0x1DD9 JUMP JUMPDEST PUSH2 0x2044 PUSH1 0x40 DUP4 ADD DUP5 PUSH2 0x2006 JUMP JUMPDEST SWAP5 SWAP4 POP POP POP POP JUMP JUMPDEST PUSH1 0x0 DUP2 MLOAD SWAP1 POP PUSH2 0x205B DUP2 PUSH2 0x1C83 JUMP JUMPDEST SWAP3 SWAP2 POP POP JUMP JUMPDEST PUSH1 0x0 PUSH1 0x20 DUP3 DUP5 SUB SLT ISZERO PUSH2 0x2077 JUMPI PUSH2 0x2076 PUSH2 0x1C16 JUMP JUMPDEST JUMPDEST PUSH1 0x0 PUSH2 0x2085 DUP5 DUP3 DUP6 ADD PUSH2 0x204C JUMP JUMPDEST SWAP2 POP POP SWAP3 SWAP2 POP POP JUMP JUMPDEST PUSH1 0x0 DUP2 MLOAD SWAP1 POP PUSH2 0x209D DUP2 PUSH2 0x1C25 JUMP JUMPDEST SWAP3 SWAP2 POP POP JUMP JUMPDEST PUSH1 0x0 DUP2 MLOAD SWAP1 POP PUSH2 0x20B2 DUP2 PUSH2 0x1CBB JUMP JUMPDEST SWAP3 SWAP2 POP POP JUMP JUMPDEST PUSH1 0x0 DUP1 PUSH1 0x0 DUP1 PUSH1 0x0 DUP1 PUSH1 0x0 PUSH1 0xE0 DUP9 DUP11 SUB SLT ISZERO PUSH2 0x20D7 JUMPI PUSH2 0x20D6 PUSH2 0x1C16 JUMP JUMPDEST JUMPDEST PUSH1 0x0 PUSH2 0x20E5 DUP11 DUP3 DUP12 ADD PUSH2 0x208E JUMP JUMPDEST SWAP8 POP POP PUSH1 0x20 PUSH2 0x20F6 DUP11 DUP3 DUP12 ADD PUSH2 0x208E JUMP JUMPDEST SWAP7 POP POP PUSH1 0x40 PUSH2 0x2107 DUP11 DUP3 DUP12 ADD PUSH2 0x208E JUMP JUMPDEST SWAP6 POP POP PUSH1 0x60 PUSH2 0x2118 DUP11 DUP3 DUP12 ADD PUSH2 0x208E JUMP JUMPDEST SWAP5 POP POP PUSH1 0x80 PUSH2 0x2129 DUP11 DUP3 DUP12 ADD PUSH2 0x20A3 JUMP JUMPDEST SWAP4 POP POP PUSH1 0xA0 PUSH2 0x213A DUP11 DUP3 DUP12 ADD PUSH2 0x204C JUMP JUMPDEST SWAP3 POP POP PUSH1 0xC0 PUSH2 0x214B DUP11 DUP3 DUP12 ADD PUSH2 0x204C JUMP JUMPDEST SWAP2 POP POP SWAP3 SWAP6 SWAP9 SWAP2 SWAP5 SWAP8 POP SWAP3 SWAP6 POP JUMP JUMPDEST PUSH32 0x4E487B7100000000000000000000000000000000000000000000000000000000 PUSH1 0x0 MSTORE PUSH1 0x11 PUSH1 0x4 MSTORE PUSH1 0x24 PUSH1 0x0 REVERT JUMPDEST PUSH1 0x0 PUSH2 0x2194 DUP3 PUSH2 0x1C1B JUMP JUMPDEST SWAP2 POP PUSH2 0x219F DUP4 PUSH2 0x1C1B JUMP JUMPDEST SWAP3 POP DUP2 PUSH32 0xFFFFFFFFFFFFFFFFFFFFFFFFFFFFFFFFFFFFFFFFFFFFFFFFFFFFFFFFFFFFFFFF DIV DUP4 GT DUP3 ISZERO ISZERO AND ISZERO PUSH2 0x21D8 JUMPI PUSH2 0x21D7 PUSH2 0x215A JUMP JUMPDEST JUMPDEST DUP3 DUP3 MUL SWAP1 POP SWAP3 SWAP2 POP POP JUMP JUMPDEST PUSH32 0x4E487B7100000000000000000000000000000000000000000000000000000000 PUSH1 0x0 MSTORE PUSH1 0x12 PUSH1 0x4 MSTORE PUSH1 0x24 PUSH1 0x0 REVERT JUMPDEST PUSH1 0x0 PUSH2 0x221D DUP3 PUSH2 0x1C1B JUMP JUMPDEST SWAP2 POP PUSH2 0x2228 DUP4 PUSH2 0x1C1B JUMP JUMPDEST SWAP3 POP DUP3 PUSH2 0x2238 JUMPI PUSH2 0x2237 PUSH2 0x21E3 JUMP JUMPDEST JUMPDEST DUP3 DUP3 DIV SWAP1 POP SWAP3 SWAP2 POP POP JUMP JUMPDEST PUSH1 0x0 DUP2 PUSH1 0x60 SHL SWAP1 POP SWAP2 SWAP1 POP JUMP JUMPDEST PUSH1 0x0 PUSH2 0x225B DUP3 PUSH2 0x2243 JUMP JUMPDEST SWAP1 POP SWAP2 SWAP1 POP JUMP JUMPDEST PUSH1 0x0 PUSH2 0x226D DUP3 PUSH2 0x2250 JUMP JUMPDEST SWAP1 POP SWAP2 SWAP1 POP JUMP JUMPDEST PUSH2 0x2285 PUSH2 0x2280 DUP3 PUSH2 0x1C71 JUMP JUMPDEST PUSH2 0x2262 JUMP JUMPDEST DUP3 MSTORE POP POP JUMP JUMPDEST PUSH1 0x0 DUP2 PUSH1 0xF8 SHL SWAP1 POP SWAP2 SWAP1 POP JUMP JUMPDEST PUSH1 0x0 PUSH2 0x22A3 DUP3 PUSH2 0x228B JUMP JUMPDEST SWAP1 POP SWAP2 SWAP1 POP JUMP JUMPDEST PUSH1 0x0 PUSH2 0x22B5 DUP3 PUSH2 0x2298 JUMP JUMPDEST SWAP1 POP SWAP2 SWAP1 POP JUMP JUMPDEST PUSH2 0x22CD PUSH2 0x22C8 DUP3 PUSH2 0x1CAF JUMP JUMPDEST PUSH2 0x22AA JUMP JUMPDEST DUP3 MSTORE POP POP JUMP JUMPDEST PUSH1 0x0 PUSH2 0x22DF DUP3 DUP7 PUSH2 0x2274 JUMP JUMPDEST PUSH1 0x14 DUP3 ADD SWAP2 POP PUSH2 0x22EF DUP3 DUP6 PUSH2 0x2274 JUMP JUMPDEST PUSH1 0x14 DUP3 ADD SWAP2 POP PUSH2 0x22FF DUP3 DUP5 PUSH2 0x22BC JUMP JUMPDEST PUSH1 0x1 DUP3 ADD SWAP2 POP DUP2 SWAP1 POP SWAP5 SWAP4 POP POP POP POP JUMP JUMPDEST PUSH1 0x0 DUP2 SWAP1 POP SWAP3 SWAP2 POP POP JUMP JUMPDEST PUSH32 0xFF00000000000000000000000000000000000000000000000000000000000000 PUSH1 0x0 DUP3 ADD MSTORE POP JUMP JUMPDEST PUSH1 0x0 PUSH2 0x2351 PUSH1 0x1 DUP4 PUSH2 0x2310 JUMP JUMPDEST SWAP2 POP PUSH2 0x235C DUP3 PUSH2 0x231B JUMP JUMPDEST PUSH1 0x1 DUP3 ADD SWAP1 POP SWAP2 SWAP1 POP JUMP JUMPDEST PUSH1 0x0 DUP2 SWAP1 POP SWAP2 SWAP1 POP JUMP JUMPDEST PUSH1 0x0 DUP2 SWAP1 POP SWAP2 SWAP1 POP JUMP JUMPDEST PUSH2 0x238C PUSH2 0x2387 DUP3 PUSH2 0x2367 JUMP JUMPDEST PUSH2 0x2371 JUMP JUMPDEST DUP3 MSTORE POP POP JUMP JUMPDEST PUSH1 0x0 PUSH2 0x239D DUP3 PUSH2 0x2344 JUMP JUMPDEST SWAP2 POP PUSH2 0x23A9 DUP3 DUP7 PUSH2 0x2274 JUMP JUMPDEST PUSH1 0x14 DUP3 ADD SWAP2 POP PUSH2 0x23B9 DUP3 DUP6 PUSH2 0x237B JUMP JUMPDEST PUSH1 0x20 DUP3 ADD SWAP2 POP PUSH2 0x23C9 DUP3 DUP5 PUSH2 0x237B JUMP JUMPDEST PUSH1 0x20 DUP3 ADD SWAP2 POP DUP2 SWAP1 POP SWAP5 SWAP4 POP POP POP POP JUMP JUMPDEST PUSH1 0x0 DUP3 DUP3 MSTORE PUSH1 0x20 DUP3 ADD SWAP1 POP SWAP3 SWAP2 POP POP JUMP JUMPDEST PUSH32 0x4944454E544943414C5F41444452455353455300000000000000000000000000 PUSH1 0x0 DUP3 ADD MSTORE POP JUMP JUMPDEST PUSH1 0x0 PUSH2 0x2421 PUSH1 0x13 DUP4 PUSH2 0x23DA JUMP JUMPDEST SWAP2 POP PUSH2 0x242C DUP3 PUSH2 0x23EB JUMP JUMPDEST PUSH1 0x20 DUP3 ADD SWAP1 POP SWAP2 SWAP1 POP JUMP JUMPDEST PUSH1 0x0 PUSH1 0x20 DUP3 ADD SWAP1 POP DUP2 DUP2 SUB PUSH1 0x0 DUP4 ADD MSTORE PUSH2 0x2450 DUP2 PUSH2 0x2414 JUMP JUMPDEST SWAP1 POP SWAP2 SWAP1 POP JUMP JUMPDEST PUSH32 0x5A45524F5F414444524553530000000000000000000000000000000000000000 PUSH1 0x0 DUP3 ADD MSTORE POP JUMP JUMPDEST PUSH1 0x0 PUSH2 0x248D PUSH1 0xC DUP4 PUSH2 0x23DA JUMP JUMPDEST SWAP2 POP PUSH2 0x2498 DUP3 PUSH2 0x2457 JUMP JUMPDEST PUSH1 0x20 DUP3 ADD SWAP1 POP SWAP2 SWAP1 POP JUMP JUMPDEST PUSH1 0x0 PUSH1 0x20 DUP3 ADD SWAP1 POP DUP2 DUP2 SUB PUSH1 0x0 DUP4 ADD MSTORE PUSH2 0x24BC DUP2 PUSH2 0x2480 JUMP JUMPDEST SWAP1 POP SWAP2 SWAP1 POP JUMP JUMPDEST PUSH1 0x0 PUSH2 0x24CE DUP3 PUSH2 0x1C1B JUMP JUMPDEST SWAP2 POP PUSH2 0x24D9 DUP4 PUSH2 0x1C1B JUMP JUMPDEST SWAP3 POP DUP3 DUP3 LT ISZERO PUSH2 0x24EC JUMPI PUSH2 0x24EB PUSH2 0x215A JUMP JUMPDEST JUMPDEST DUP3 DUP3 SUB SWAP1 POP SWAP3 SWAP2 POP POP JUMP JUMPDEST PUSH1 0x0 DUP2 PUSH1 0x1 SHR SWAP1 POP SWAP2 SWAP1 POP JUMP JUMPDEST PUSH1 0x0 DUP1 DUP3 SWAP2 POP DUP4 SWAP1 POP JUMPDEST PUSH1 0x1 DUP6 GT ISZERO PUSH2 0x254E JUMPI DUP1 DUP7 DIV DUP2 GT ISZERO PUSH2 0x252A JUMPI PUSH2 0x2529 PUSH2 0x215A JUMP JUMPDEST JUMPDEST PUSH1 0x1 DUP6 AND ISZERO PUSH2 0x2539 JUMPI DUP1 DUP3 MUL SWAP2 POP JUMPDEST DUP1 DUP2 MUL SWAP1 POP PUSH2 0x2547 DUP6 PUSH2 0x24F7 JUMP JUMPDEST SWAP5 POP PUSH2 0x250E JUMP JUMPDEST SWAP5 POP SWAP5 SWAP3 POP POP POP JUMP JUMPDEST PUSH1 0x0 DUP3 PUSH2 0x2567 JUMPI PUSH1 0x1 SWAP1 POP PUSH2 0x2623 JUMP JUMPDEST DUP2 PUSH2 0x2575 JUMPI PUSH1 0x0 SWAP1 POP PUSH2 0x2623 JUMP JUMPDEST DUP2 PUSH1 0x1 DUP2 EQ PUSH2 0x258B JUMPI PUSH1 0x2 DUP2 EQ PUSH2 0x2595 JUMPI PUSH2 0x25C4 JUMP JUMPDEST PUSH1 0x1 SWAP2 POP POP PUSH2 0x2623 JUMP JUMPDEST PUSH1 0xFF DUP5 GT ISZERO PUSH2 0x25A7 JUMPI PUSH2 0x25A6 PUSH2 0x215A JUMP JUMPDEST JUMPDEST DUP4 PUSH1 0x2 EXP SWAP2 POP DUP5 DUP3 GT ISZERO PUSH2 0x25BE JUMPI PUSH2 0x25BD PUSH2 0x215A JUMP JUMPDEST JUMPDEST POP PUSH2 0x2623 JUMP JUMPDEST POP PUSH1 0x20 DUP4 LT PUSH2 0x133 DUP4 LT AND PUSH1 0x4E DUP5 LT PUSH1 0xB DUP5 LT AND OR ISZERO PUSH2 0x25F9 JUMPI DUP3 DUP3 EXP SWAP1 POP DUP4 DUP2 GT ISZERO PUSH2 0x25F4 JUMPI PUSH2 0x25F3 PUSH2 0x215A JUMP JUMPDEST JUMPDEST PUSH2 0x2623 JUMP JUMPDEST PUSH2 0x2606 DUP5 DUP5 DUP5 PUSH1 0x1 PUSH2 0x2504 JUMP JUMPDEST SWAP3 POP SWAP1 POP DUP2 DUP5 DIV DUP2 GT ISZERO PUSH2 0x261D JUMPI PUSH2 0x261C PUSH2 0x215A JUMP JUMPDEST JUMPDEST DUP2 DUP2 MUL SWAP1 POP JUMPDEST SWAP4 SWAP3 POP POP POP JUMP JUMPDEST PUSH1 0x0 PUSH2 0x2635 DUP3 PUSH2 0x1C1B JUMP JUMPDEST SWAP2 POP PUSH2 0x2640 DUP4 PUSH2 0x1C1B JUMP JUMPDEST SWAP3 POP PUSH2 0x266D PUSH32 0xFFFFFFFFFFFFFFFFFFFFFFFFFFFFFFFFFFFFFFFFFFFFFFFFFFFFFFFFFFFFFFFF DUP5 DUP5 PUSH2 0x2557 JUMP JUMPDEST SWAP1 POP SWAP3 SWAP2 POP POP JUMP JUMPDEST PUSH1 0x0 PUSH2 0x2680 DUP3 PUSH2 0x1C1B JUMP JUMPDEST SWAP2 POP PUSH2 0x268B DUP4 PUSH2 0x1C1B JUMP JUMPDEST SWAP3 POP DUP3 PUSH32 0xFFFFFFFFFFFFFFFFFFFFFFFFFFFFFFFFFFFFFFFFFFFFFFFFFFFFFFFFFFFFFFFF SUB DUP3 GT ISZERO PUSH2 0x26C0 JUMPI PUSH2 0x26BF PUSH2 0x215A JUMP JUMPDEST JUMPDEST DUP3 DUP3 ADD SWAP1 POP SWAP3 SWAP2 POP POP JUMP JUMPDEST PUSH1 0x0 PUSH2 0x26D6 DUP3 PUSH2 0x1C1B JUMP JUMPDEST SWAP2 POP PUSH32 0xFFFFFFFFFFFFFFFFFFFFFFFFFFFFFFFFFFFFFFFFFFFFFFFFFFFFFFFFFFFFFFFF DUP3 SUB PUSH2 0x2708 JUMPI PUSH2 0x2707 PUSH2 0x215A JUMP JUMPDEST JUMPDEST PUSH1 0x1 DUP3 ADD SWAP1 POP SWAP2 SWAP1 POP JUMP INVALID LOG2 PUSH5 0x6970667358 0x22 SLT KECCAK256 ISZERO 0xBB PUSH4 0x6387D135 0x22 0xAF PUSH26 0x6B703ADB7004DB2D51EA3D9D3FE88C7D909D326A4E4164736F6C PUSH4 0x4300080F STOP CALLER "
		},
		"gasEstimates": {
			"creation": {
				"codeDepositCost": "2011400",
				"executionCost": "infinite",
				"totalCost": "infinite"
			},
			"external": {
				"factory()": "infinite",
				"getAmountOut(uint256,address,address,bool)": "infinite",
				"getMinimumValue(address,address,bool)": "infinite",
				"getNormalizedReserves(address,address,bool)": "infinite",
				"getSample(address,address,bool)": "infinite",
				"getTradeDiff(uint256,address,address)": "infinite",
				"getTradeDiff(uint256,address,address,bool)": "infinite",
				"getTradeDiff2(uint256,address,address,bool)": "infinite",
				"getTradeDiff3(uint256,address,address,bool)": "infinite",
				"getTradeDiffSimple(uint256,address,address,bool,uint256)": "infinite",
				"pairFor(address,address,bool)": "infinite",
				"router()": "infinite",
				"sortTokens(address,address)": "infinite"
			},
			"internal": {
				"_calcSample(address,address,uint256,uint256)": "infinite",
				"_d(uint256,uint256)": "infinite",
				"_f(uint256,uint256)": "infinite",
				"_getAmountOut(uint256,address,uint256,uint256,address,uint256,uint256,bool)": "infinite",
				"_get_y(uint256,uint256,uint256)": "infinite",
				"_k(uint256,uint256,bool,uint256,uint256)": "infinite"
			}
		},
		"methodIdentifiers": {
			"factory()": "c45a0155",
			"getAmountOut(uint256,address,address,bool)": "da214231",
			"getMinimumValue(address,address,bool)": "52500733",
			"getNormalizedReserves(address,address,bool)": "bdefde18",
			"getSample(address,address,bool)": "be3b428e",
			"getTradeDiff(uint256,address,address)": "ec323c00",
			"getTradeDiff(uint256,address,address,bool)": "865db5e2",
			"getTradeDiff2(uint256,address,address,bool)": "400b4829",
			"getTradeDiff3(uint256,address,address,bool)": "bc113036",
			"getTradeDiffSimple(uint256,address,address,bool,uint256)": "70550835",
			"pairFor(address,address,bool)": "4c1ee03e",
			"router()": "f887ea40",
			"sortTokens(address,address)": "544caa56"
		}
	},
	"abi": [
		{
			"inputs": [
				{
					"internalType": "address",
					"name": "_router",
					"type": "address"
				}
			],
			"stateMutability": "nonpayable",
			"type": "constructor"
		},
		{
			"inputs": [],
			"name": "factory",
			"outputs": [
				{
					"internalType": "address",
					"name": "",
					"type": "address"
				}
			],
			"stateMutability": "view",
			"type": "function"
		},
		{
			"inputs": [
				{
					"internalType": "uint256",
					"name": "amountIn",
					"type": "uint256"
				},
				{
					"internalType": "address",
					"name": "tokenIn",
					"type": "address"
				},
				{
					"internalType": "address",
					"name": "tokenOut",
					"type": "address"
				},
				{
					"internalType": "bool",
					"name": "stable",
					"type": "bool"
				}
			],
			"name": "getAmountOut",
			"outputs": [
				{
					"internalType": "uint256",
					"name": "",
					"type": "uint256"
				}
			],
			"stateMutability": "view",
			"type": "function"
		},
		{
			"inputs": [
				{
					"internalType": "address",
					"name": "tokenIn",
					"type": "address"
				},
				{
					"internalType": "address",
					"name": "tokenOut",
					"type": "address"
				},
				{
					"internalType": "bool",
					"name": "stable",
					"type": "bool"
				}
			],
			"name": "getMinimumValue",
			"outputs": [
				{
					"internalType": "uint256",
					"name": "",
					"type": "uint256"
				},
				{
					"internalType": "uint256",
					"name": "",
					"type": "uint256"
				},
				{
					"internalType": "uint256",
					"name": "",
					"type": "uint256"
				}
			],
			"stateMutability": "view",
			"type": "function"
		},
		{
			"inputs": [
				{
					"internalType": "address",
					"name": "tokenA",
					"type": "address"
				},
				{
					"internalType": "address",
					"name": "tokenB",
					"type": "address"
				},
				{
					"internalType": "bool",
					"name": "stable",
					"type": "bool"
				}
			],
			"name": "getNormalizedReserves",
			"outputs": [
				{
					"internalType": "uint256",
					"name": "reserveA",
					"type": "uint256"
				},
				{
					"internalType": "uint256",
					"name": "reserveB",
					"type": "uint256"
				}
			],
			"stateMutability": "view",
			"type": "function"
		},
		{
			"inputs": [
				{
					"internalType": "address",
					"name": "tokenIn",
					"type": "address"
				},
				{
					"internalType": "address",
					"name": "tokenOut",
					"type": "address"
				},
				{
					"internalType": "bool",
					"name": "stable",
					"type": "bool"
				}
			],
			"name": "getSample",
			"outputs": [
				{
					"internalType": "uint256",
					"name": "",
					"type": "uint256"
				}
			],
			"stateMutability": "view",
			"type": "function"
		},
		{
			"inputs": [
				{
					"internalType": "uint256",
					"name": "amountIn",
					"type": "uint256"
				},
				{
					"internalType": "address",
					"name": "tokenIn",
					"type": "address"
				},
				{
					"internalType": "address",
					"name": "tokenOut",
					"type": "address"
				},
				{
					"internalType": "bool",
					"name": "stable",
					"type": "bool"
				}
			],
			"name": "getTradeDiff",
			"outputs": [
				{
					"internalType": "uint256",
					"name": "a",
					"type": "uint256"
				},
				{
					"internalType": "uint256",
					"name": "b",
					"type": "uint256"
				}
			],
			"stateMutability": "view",
			"type": "function"
		},
		{
			"inputs": [
				{
					"internalType": "uint256",
					"name": "amountIn",
					"type": "uint256"
				},
				{
					"internalType": "address",
					"name": "tokenIn",
					"type": "address"
				},
				{
					"internalType": "address",
					"name": "pair",
					"type": "address"
				}
			],
			"name": "getTradeDiff",
			"outputs": [
				{
					"internalType": "uint256",
					"name": "a",
					"type": "uint256"
				},
				{
					"internalType": "uint256",
					"name": "b",
					"type": "uint256"
				}
			],
			"stateMutability": "view",
			"type": "function"
		},
		{
			"inputs": [
				{
					"internalType": "uint256",
					"name": "amountIn",
					"type": "uint256"
				},
				{
					"internalType": "address",
					"name": "tokenIn",
					"type": "address"
				},
				{
					"internalType": "address",
					"name": "tokenOut",
					"type": "address"
				},
				{
					"internalType": "bool",
					"name": "stable",
					"type": "bool"
				}
			],
			"name": "getTradeDiff2",
			"outputs": [
				{
					"internalType": "uint256",
					"name": "a",
					"type": "uint256"
				},
				{
					"internalType": "uint256",
					"name": "b",
					"type": "uint256"
				}
			],
			"stateMutability": "view",
			"type": "function"
		},
		{
			"inputs": [
				{
					"internalType": "uint256",
					"name": "amountIn",
					"type": "uint256"
				},
				{
					"internalType": "address",
					"name": "tokenIn",
					"type": "address"
				},
				{
					"internalType": "address",
					"name": "tokenOut",
					"type": "address"
				},
				{
					"internalType": "bool",
					"name": "stable",
					"type": "bool"
				}
			],
			"name": "getTradeDiff3",
			"outputs": [
				{
					"internalType": "uint256",
					"name": "a",
					"type": "uint256"
				},
				{
					"internalType": "uint256",
					"name": "b",
					"type": "uint256"
				}
			],
			"stateMutability": "view",
			"type": "function"
		},
		{
			"inputs": [
				{
					"internalType": "uint256",
					"name": "amountIn",
					"type": "uint256"
				},
				{
					"internalType": "address",
					"name": "tokenIn",
					"type": "address"
				},
				{
					"internalType": "address",
					"name": "tokenOut",
					"type": "address"
				},
				{
					"internalType": "bool",
					"name": "stable",
					"type": "bool"
				},
				{
					"internalType": "uint256",
					"name": "sample",
					"type": "uint256"
				}
			],
			"name": "getTradeDiffSimple",
			"outputs": [
				{
					"internalType": "uint256",
					"name": "a",
					"type": "uint256"
				},
				{
					"internalType": "uint256",
					"name": "b",
					"type": "uint256"
				}
			],
			"stateMutability": "view",
			"type": "function"
		},
		{
			"inputs": [
				{
					"internalType": "address",
					"name": "tokenA",
					"type": "address"
				},
				{
					"internalType": "address",
					"name": "tokenB",
					"type": "address"
				},
				{
					"internalType": "bool",
					"name": "stable",
					"type": "bool"
				}
			],
			"name": "pairFor",
			"outputs": [
				{
					"internalType": "address",
					"name": "pair",
					"type": "address"
				}
			],
			"stateMutability": "view",
			"type": "function"
		},
		{
			"inputs": [],
			"name": "router",
			"outputs": [
				{
					"internalType": "contract IRouter",
					"name": "",
					"type": "address"
				}
			],
			"stateMutability": "view",
			"type": "function"
		},
		{
			"inputs": [
				{
					"internalType": "address",
					"name": "tokenA",
					"type": "address"
				},
				{
					"internalType": "address",
					"name": "tokenB",
					"type": "address"
				}
			],
			"name": "sortTokens",
			"outputs": [
				{
					"internalType": "address",
					"name": "token0",
					"type": "address"
				},
				{
					"internalType": "address",
					"name": "token1",
					"type": "address"
				}
			],
			"stateMutability": "pure",
			"type": "function"
		}
	]
}