{
	"SwapLibrary.sol": {
		"SwapLibrary": {
			"abi": [
				{
					"inputs": [
						{
							"internalType": "address",
							"name": "_router",
							"type": "address"
						}
					],
					"stateMutability": "nonpayable",
					"type": "constructor"
				},
				{
					"inputs": [],
					"name": "factory",
					"outputs": [
						{
							"internalType": "address",
							"name": "",
							"type": "address"
						}
					],
					"stateMutability": "view",
					"type": "function"
				},
				{
					"inputs": [
						{
							"internalType": "uint256",
							"name": "amountIn",
							"type": "uint256"
						},
						{
							"internalType": "address",
							"name": "tokenIn",
							"type": "address"
						},
						{
							"internalType": "address",
							"name": "tokenOut",
							"type": "address"
						},
						{
							"internalType": "bool",
							"name": "stable",
							"type": "bool"
						}
					],
					"name": "getAmountOut",
					"outputs": [
						{
							"internalType": "uint256",
							"name": "",
							"type": "uint256"
						}
					],
					"stateMutability": "view",
					"type": "function"
				},
				{
					"inputs": [
						{
							"internalType": "address",
							"name": "tokenIn",
							"type": "address"
						},
						{
							"internalType": "address",
							"name": "tokenOut",
							"type": "address"
						},
						{
							"internalType": "bool",
							"name": "stable",
							"type": "bool"
						}
					],
					"name": "getMinimumValue",
					"outputs": [
						{
							"internalType": "uint256",
							"name": "",
							"type": "uint256"
						},
						{
							"internalType": "uint256",
							"name": "",
							"type": "uint256"
						},
						{
							"internalType": "uint256",
							"name": "",
							"type": "uint256"
						}
					],
					"stateMutability": "view",
					"type": "function"
				},
				{
					"inputs": [
						{
							"internalType": "address",
							"name": "tokenA",
							"type": "address"
						},
						{
							"internalType": "address",
							"name": "tokenB",
							"type": "address"
						},
						{
							"internalType": "bool",
							"name": "stable",
							"type": "bool"
						}
					],
					"name": "getNormalizedReserves",
					"outputs": [
						{
							"internalType": "uint256",
							"name": "reserveA",
							"type": "uint256"
						},
						{
							"internalType": "uint256",
							"name": "reserveB",
							"type": "uint256"
						}
					],
					"stateMutability": "view",
					"type": "function"
				},
				{
					"inputs": [
						{
							"internalType": "address",
							"name": "tokenIn",
							"type": "address"
						},
						{
							"internalType": "address",
							"name": "tokenOut",
							"type": "address"
						},
						{
							"internalType": "bool",
							"name": "stable",
							"type": "bool"
						}
					],
					"name": "getSample",
					"outputs": [
						{
							"internalType": "uint256",
							"name": "",
							"type": "uint256"
						}
					],
					"stateMutability": "view",
					"type": "function"
				},
				{
					"inputs": [
						{
							"internalType": "uint256",
							"name": "amountIn",
							"type": "uint256"
						},
						{
							"internalType": "address",
							"name": "tokenIn",
							"type": "address"
						},
						{
							"internalType": "address",
							"name": "tokenOut",
							"type": "address"
						},
						{
							"internalType": "bool",
							"name": "stable",
							"type": "bool"
						}
					],
					"name": "getTradeDiff",
					"outputs": [
						{
							"internalType": "uint256",
							"name": "a",
							"type": "uint256"
						},
						{
							"internalType": "uint256",
							"name": "b",
							"type": "uint256"
						}
					],
					"stateMutability": "view",
					"type": "function"
				},
				{
					"inputs": [
						{
							"internalType": "uint256",
							"name": "amountIn",
							"type": "uint256"
						},
						{
							"internalType": "address",
							"name": "tokenIn",
							"type": "address"
						},
						{
							"internalType": "address",
							"name": "pair",
							"type": "address"
						}
					],
					"name": "getTradeDiff",
					"outputs": [
						{
							"internalType": "uint256",
							"name": "a",
							"type": "uint256"
						},
						{
							"internalType": "uint256",
							"name": "b",
							"type": "uint256"
						}
					],
					"stateMutability": "view",
					"type": "function"
				},
				{
					"inputs": [
						{
							"internalType": "uint256",
							"name": "amountIn",
							"type": "uint256"
						},
						{
							"internalType": "address",
							"name": "tokenIn",
							"type": "address"
						},
						{
							"internalType": "address",
							"name": "tokenOut",
							"type": "address"
						},
						{
							"internalType": "bool",
							"name": "stable",
							"type": "bool"
						}
					],
					"name": "getTradeDiff2",
					"outputs": [
						{
							"internalType": "uint256",
							"name": "a",
							"type": "uint256"
						},
						{
							"internalType": "uint256",
							"name": "b",
							"type": "uint256"
						}
					],
					"stateMutability": "view",
					"type": "function"
				},
				{
					"inputs": [
						{
							"internalType": "uint256",
							"name": "amountIn",
							"type": "uint256"
						},
						{
							"internalType": "address",
							"name": "tokenIn",
							"type": "address"
						},
						{
							"internalType": "address",
							"name": "tokenOut",
							"type": "address"
						},
						{
							"internalType": "bool",
							"name": "stable",
							"type": "bool"
						}
					],
					"name": "getTradeDiff3",
					"outputs": [
						{
							"internalType": "uint256",
							"name": "a",
							"type": "uint256"
						},
						{
							"internalType": "uint256",
							"name": "b",
							"type": "uint256"
						}
					],
					"stateMutability": "view",
					"type": "function"
				},
				{
					"inputs": [
						{
							"internalType": "uint256",
							"name": "amountIn",
							"type": "uint256"
						},
						{
							"internalType": "address",
							"name": "tokenIn",
							"type": "address"
						},
						{
							"internalType": "address",
							"name": "tokenOut",
							"type": "address"
						},
						{
							"internalType": "bool",
							"name": "stable",
							"type": "bool"
						},
						{
							"internalType": "uint256",
							"name": "sample",
							"type": "uint256"
						}
					],
					"name": "getTradeDiffSimple",
					"outputs": [
						{
							"internalType": "uint256",
							"name": "a",
							"type": "uint256"
						},
						{
							"internalType": "uint256",
							"name": "b",
							"type": "uint256"
						}
					],
					"stateMutability": "view",
					"type": "function"
				},
				{
					"inputs": [
						{
							"internalType": "address",
							"name": "tokenA",
							"type": "address"
						},
						{
							"internalType": "address",
							"name": "tokenB",
							"type": "address"
						},
						{
							"internalType": "bool",
							"name": "stable",
							"type": "bool"
						}
					],
					"name": "pairFor",
					"outputs": [
						{
							"internalType": "address",
							"name": "pair",
							"type": "address"
						}
					],
					"stateMutability": "view",
					"type": "function"
				},
				{
					"inputs": [],
					"name": "router",
					"outputs": [
						{
							"internalType": "contract IRouter",
							"name": "",
							"type": "address"
						}
					],
					"stateMutability": "view",
					"type": "function"
				},
				{
					"inputs": [
						{
							"internalType": "address",
							"name": "tokenA",
							"type": "address"
						},
						{
							"internalType": "address",
							"name": "tokenB",
							"type": "address"
						}
					],
					"name": "sortTokens",
					"outputs": [
						{
							"internalType": "address",
							"name": "token0",
							"type": "address"
						},
						{
							"internalType": "address",
							"name": "token1",
							"type": "address"
						}
					],
					"stateMutability": "pure",
					"type": "function"
				}
			],
			"devdoc": {
				"kind": "dev",
				"methods": {
					"pairFor(address,address,bool)": {
						"details": "Calculates the CREATE2 address for a pair without making any external calls."
					}
				},
				"version": 1
			},
			"evm": {
				"assembly": "    /* \"SwapLibrary.sol\":160:8396  contract SwapLibrary {... */\n  mstore(0x40, 0xe0)\n    /* \"SwapLibrary.sol\":299:482  constructor(address _router) {... */\n  callvalue\n  dup1\n  iszero\n  tag_1\n  jumpi\n  0x00\n  dup1\n  revert\ntag_1:\n  pop\n  mload(0x40)\n  sub(codesize, bytecodeSize)\n  dup1\n  bytecodeSize\n  dup4\n  codecopy\n  dup2\n  dup2\n  add\n  0x40\n  mstore\n  dup2\n  add\n  swap1\n  tag_2\n  swap2\n  swap1\n  tag_3\n  jump\t// in\ntag_2:\n    /* \"SwapLibrary.sol\":352:359  _router */\n  dup1\n    /* \"SwapLibrary.sol\":335:360  router = IRouter(_router) */\n  0xffffffffffffffffffffffffffffffffffffffff\n  and\n  0xa0\n  dup2\n  0xffffffffffffffffffffffffffffffffffffffff\n  and\n  dup2\n  mstore\n  pop\n  pop\n    /* \"SwapLibrary.sol\":385:392  _router */\n  dup1\n    /* \"SwapLibrary.sol\":377:401  IRouter(_router).factory */\n  0xffffffffffffffffffffffffffffffffffffffff\n  and\n  0xc45a0155\n    /* \"SwapLibrary.sol\":377:403  IRouter(_router).factory() */\n  mload(0x40)\n  dup2\n  0xffffffff\n  and\n  0xe0\n  shl\n  dup2\n  mstore\n  0x04\n  add\n  0x20\n  mload(0x40)\n  dup1\n  dup4\n  sub\n  dup2\n  dup7\n  gas\n  staticcall\n  iszero\n  dup1\n  iszero\n  tag_7\n  jumpi\n  returndatasize\n  0x00\n  dup1\n  returndatacopy\n  revert(0x00, returndatasize)\ntag_7:\n  pop\n  pop\n  pop\n  pop\n  mload(0x40)\n  returndatasize\n  not(0x1f)\n  0x1f\n  dup3\n  add\n  and\n  dup3\n  add\n  dup1\n  0x40\n  mstore\n  pop\n  dup2\n  add\n  swap1\n  tag_8\n  swap2\n  swap1\n  tag_3\n  jump\t// in\ntag_8:\n    /* \"SwapLibrary.sol\":367:403  factory = IRouter(_router).factory() */\n  0xffffffffffffffffffffffffffffffffffffffff\n  and\n  0x80\n  dup2\n  0xffffffffffffffffffffffffffffffffffffffff\n  and\n  dup2\n  mstore\n  pop\n  pop\n    /* \"SwapLibrary.sol\":442:449  _router */\n  dup1\n    /* \"SwapLibrary.sol\":434:458  IRouter(_router).factory */\n  0xffffffffffffffffffffffffffffffffffffffff\n  and\n  0xc45a0155\n    /* \"SwapLibrary.sol\":434:460  IRouter(_router).factory() */\n  mload(0x40)\n  dup2\n  0xffffffff\n  and\n  0xe0\n  shl\n  dup2\n  mstore\n  0x04\n  add\n  0x20\n  mload(0x40)\n  dup1\n  dup4\n  sub\n  dup2\n  dup7\n  gas\n  staticcall\n  iszero\n  dup1\n  iszero\n  tag_10\n  jumpi\n  returndatasize\n  0x00\n  dup1\n  returndatacopy\n  revert(0x00, returndatasize)\ntag_10:\n  pop\n  pop\n  pop\n  pop\n  mload(0x40)\n  returndatasize\n  not(0x1f)\n  0x1f\n  dup3\n  add\n  and\n  dup3\n  add\n  dup1\n  0x40\n  mstore\n  pop\n  dup2\n  add\n  swap1\n  tag_11\n  swap2\n  swap1\n  tag_3\n  jump\t// in\ntag_11:\n    /* \"SwapLibrary.sol\":425:474  IFactory(IRouter(_router).factory()).pairCodeHash */\n  0xffffffffffffffffffffffffffffffffffffffff\n  and\n  0x9aab9248\n    /* \"SwapLibrary.sol\":425:476  IFactory(IRouter(_router).factory()).pairCodeHash() */\n  mload(0x40)\n  dup2\n  0xffffffff\n  and\n  0xe0\n  shl\n  dup2\n  mstore\n  0x04\n  add\n  0x20\n  mload(0x40)\n  dup1\n  dup4\n  sub\n  dup2\n  dup7\n  gas\n  staticcall\n  iszero\n  dup1\n  iszero\n  tag_13\n  jumpi\n  returndatasize\n  0x00\n  dup1\n  returndatacopy\n  revert(0x00, returndatasize)\ntag_13:\n  pop\n  pop\n  pop\n  pop\n  mload(0x40)\n  returndatasize\n  not(0x1f)\n  0x1f\n  dup3\n  add\n  and\n  dup3\n  add\n  dup1\n  0x40\n  mstore\n  pop\n  dup2\n  add\n  swap1\n  tag_14\n  swap2\n  swap1\n  tag_15\n  jump\t// in\ntag_14:\n    /* \"SwapLibrary.sol\":410:476  pairCodeHash = IFactory(IRouter(_router).factory()).pairCodeHash() */\n  0xc0\n  dup2\n  dup2\n  mstore\n  pop\n  pop\n    /* \"SwapLibrary.sol\":299:482  constructor(address _router) {... */\n  pop\n    /* \"SwapLibrary.sol\":160:8396  contract SwapLibrary {... */\n  jump(tag_16)\n    /* \"#utility.yul\":88:205   */\ntag_18:\n    /* \"#utility.yul\":197:198   */\n  0x00\n    /* \"#utility.yul\":194:195   */\n  dup1\n    /* \"#utility.yul\":187:199   */\n  revert\n    /* \"#utility.yul\":334:460   */\ntag_20:\n    /* \"#utility.yul\":371:378   */\n  0x00\n    /* \"#utility.yul\":411:453   */\n  0xffffffffffffffffffffffffffffffffffffffff\n    /* \"#utility.yul\":404:409   */\n  dup3\n    /* \"#utility.yul\":400:454   */\n  and\n    /* \"#utility.yul\":389:454   */\n  swap1\n  pop\n    /* \"#utility.yul\":334:460   */\n  swap2\n  swap1\n  pop\n  jump\t// out\n    /* \"#utility.yul\":466:562   */\ntag_21:\n    /* \"#utility.yul\":503:510   */\n  0x00\n    /* \"#utility.yul\":532:556   */\n  tag_33\n    /* \"#utility.yul\":550:555   */\n  dup3\n    /* \"#utility.yul\":532:556   */\n  tag_20\n  jump\t// in\ntag_33:\n    /* \"#utility.yul\":521:556   */\n  swap1\n  pop\n    /* \"#utility.yul\":466:562   */\n  swap2\n  swap1\n  pop\n  jump\t// out\n    /* \"#utility.yul\":568:690   */\ntag_22:\n    /* \"#utility.yul\":641:665   */\n  tag_35\n    /* \"#utility.yul\":659:664   */\n  dup2\n    /* \"#utility.yul\":641:665   */\n  tag_21\n  jump\t// in\ntag_35:\n    /* \"#utility.yul\":634:639   */\n  dup2\n    /* \"#utility.yul\":631:666   */\n  eq\n    /* \"#utility.yul\":621:684   */\n  tag_36\n  jumpi\n    /* \"#utility.yul\":680:681   */\n  0x00\n    /* \"#utility.yul\":677:678   */\n  dup1\n    /* \"#utility.yul\":670:682   */\n  revert\n    /* \"#utility.yul\":621:684   */\ntag_36:\n    /* \"#utility.yul\":568:690   */\n  pop\n  jump\t// out\n    /* \"#utility.yul\":696:839   */\ntag_23:\n    /* \"#utility.yul\":753:758   */\n  0x00\n    /* \"#utility.yul\":784:790   */\n  dup2\n    /* \"#utility.yul\":778:791   */\n  mload\n    /* \"#utility.yul\":769:791   */\n  swap1\n  pop\n    /* \"#utility.yul\":800:833   */\n  tag_38\n    /* \"#utility.yul\":827:832   */\n  dup2\n    /* \"#utility.yul\":800:833   */\n  tag_22\n  jump\t// in\ntag_38:\n    /* \"#utility.yul\":696:839   */\n  swap3\n  swap2\n  pop\n  pop\n  jump\t// out\n    /* \"#utility.yul\":845:1196   */\ntag_3:\n    /* \"#utility.yul\":915:921   */\n  0x00\n    /* \"#utility.yul\":964:966   */\n  0x20\n    /* \"#utility.yul\":952:961   */\n  dup3\n    /* \"#utility.yul\":943:950   */\n  dup5\n    /* \"#utility.yul\":939:962   */\n  sub\n    /* \"#utility.yul\":935:967   */\n  slt\n    /* \"#utility.yul\":932:1051   */\n  iszero\n  tag_40\n  jumpi\n    /* \"#utility.yul\":970:1049   */\n  tag_41\n  tag_18\n  jump\t// in\ntag_41:\n    /* \"#utility.yul\":932:1051   */\ntag_40:\n    /* \"#utility.yul\":1090:1091   */\n  0x00\n    /* \"#utility.yul\":1115:1179   */\n  tag_42\n    /* \"#utility.yul\":1171:1178   */\n  dup5\n    /* \"#utility.yul\":1162:1168   */\n  dup3\n    /* \"#utility.yul\":1151:1160   */\n  dup6\n    /* \"#utility.yul\":1147:1169   */\n  add\n    /* \"#utility.yul\":1115:1179   */\n  tag_23\n  jump\t// in\ntag_42:\n    /* \"#utility.yul\":1105:1179   */\n  swap2\n  pop\n    /* \"#utility.yul\":1061:1189   */\n  pop\n    /* \"#utility.yul\":845:1196   */\n  swap3\n  swap2\n  pop\n  pop\n  jump\t// out\n    /* \"#utility.yul\":1202:1279   */\ntag_24:\n    /* \"#utility.yul\":1239:1246   */\n  0x00\n    /* \"#utility.yul\":1268:1273   */\n  dup2\n    /* \"#utility.yul\":1257:1273   */\n  swap1\n  pop\n    /* \"#utility.yul\":1202:1279   */\n  swap2\n  swap1\n  pop\n  jump\t// out\n    /* \"#utility.yul\":1285:1407   */\ntag_25:\n    /* \"#utility.yul\":1358:1382   */\n  tag_45\n    /* \"#utility.yul\":1376:1381   */\n  dup2\n    /* \"#utility.yul\":1358:1382   */\n  tag_24\n  jump\t// in\ntag_45:\n    /* \"#utility.yul\":1351:1356   */\n  dup2\n    /* \"#utility.yul\":1348:1383   */\n  eq\n    /* \"#utility.yul\":1338:1401   */\n  tag_46\n  jumpi\n    /* \"#utility.yul\":1397:1398   */\n  0x00\n    /* \"#utility.yul\":1394:1395   */\n  dup1\n    /* \"#utility.yul\":1387:1399   */\n  revert\n    /* \"#utility.yul\":1338:1401   */\ntag_46:\n    /* \"#utility.yul\":1285:1407   */\n  pop\n  jump\t// out\n    /* \"#utility.yul\":1413:1556   */\ntag_26:\n    /* \"#utility.yul\":1470:1475   */\n  0x00\n    /* \"#utility.yul\":1501:1507   */\n  dup2\n    /* \"#utility.yul\":1495:1508   */\n  mload\n    /* \"#utility.yul\":1486:1508   */\n  swap1\n  pop\n    /* \"#utility.yul\":1517:1550   */\n  tag_48\n    /* \"#utility.yul\":1544:1549   */\n  dup2\n    /* \"#utility.yul\":1517:1550   */\n  tag_25\n  jump\t// in\ntag_48:\n    /* \"#utility.yul\":1413:1556   */\n  swap3\n  swap2\n  pop\n  pop\n  jump\t// out\n    /* \"#utility.yul\":1562:1913   */\ntag_15:\n    /* \"#utility.yul\":1632:1638   */\n  0x00\n    /* \"#utility.yul\":1681:1683   */\n  0x20\n    /* \"#utility.yul\":1669:1678   */\n  dup3\n    /* \"#utility.yul\":1660:1667   */\n  dup5\n    /* \"#utility.yul\":1656:1679   */\n  sub\n    /* \"#utility.yul\":1652:1684   */\n  slt\n    /* \"#utility.yul\":1649:1768   */\n  iszero\n  tag_50\n  jumpi\n    /* \"#utility.yul\":1687:1766   */\n  tag_51\n  tag_18\n  jump\t// in\ntag_51:\n    /* \"#utility.yul\":1649:1768   */\ntag_50:\n    /* \"#utility.yul\":1807:1808   */\n  0x00\n    /* \"#utility.yul\":1832:1896   */\n  tag_52\n    /* \"#utility.yul\":1888:1895   */\n  dup5\n    /* \"#utility.yul\":1879:1885   */\n  dup3\n    /* \"#utility.yul\":1868:1877   */\n  dup6\n    /* \"#utility.yul\":1864:1886   */\n  add\n    /* \"#utility.yul\":1832:1896   */\n  tag_26\n  jump\t// in\ntag_52:\n    /* \"#utility.yul\":1822:1896   */\n  swap2\n  pop\n    /* \"#utility.yul\":1778:1906   */\n  pop\n    /* \"#utility.yul\":1562:1913   */\n  swap3\n  swap2\n  pop\n  pop\n  jump\t// out\n    /* \"SwapLibrary.sol\":160:8396  contract SwapLibrary {... */\ntag_16:\n  mload(0x80)\n  mload(0xa0)\n  mload(0xc0)\n  codecopy(0x00, dataOffset(sub_0), dataSize(sub_0))\n  0x00\n  assignImmutable(\"0x02f6903e55725b8fb1e67e68fc4dfbf8e90ced5ec278dfd2021debfe4c69d139\")\n  0x00\n  assignImmutable(\"0x2d33c78d31145fca68253afe9b24c771b7d614064b9f8dc2c55b30419d3466f1\")\n  0x00\n  assignImmutable(\"0x0bf130d09ff5f4b6139a92ba375974bc03314776406dd3b463c5d5893e064a66\")\n  return(0x00, dataSize(sub_0))\nstop\n\nsub_0: assembly {\n        /* \"SwapLibrary.sol\":160:8396  contract SwapLibrary {... */\n      mstore(0x40, 0x80)\n      callvalue\n      dup1\n      iszero\n      tag_1\n      jumpi\n      0x00\n      dup1\n      revert\n    tag_1:\n      pop\n      jumpi(tag_2, lt(calldatasize, 0x04))\n      shr(0xe0, calldataload(0x00))\n      dup1\n      0xbc113036\n      gt\n      tag_16\n      jumpi\n      dup1\n      0xc45a0155\n      gt\n      tag_17\n      jumpi\n      dup1\n      0xc45a0155\n      eq\n      tag_12\n      jumpi\n      dup1\n      0xda214231\n      eq\n      tag_13\n      jumpi\n      dup1\n      0xec323c00\n      eq\n      tag_14\n      jumpi\n      dup1\n      0xf887ea40\n      eq\n      tag_15\n      jumpi\n      jump(tag_2)\n    tag_17:\n      dup1\n      0xbc113036\n      eq\n      tag_9\n      jumpi\n      dup1\n      0xbdefde18\n      eq\n      tag_10\n      jumpi\n      dup1\n      0xbe3b428e\n      eq\n      tag_11\n      jumpi\n      jump(tag_2)\n    tag_16:\n      dup1\n      0x400b4829\n      eq\n      tag_3\n      jumpi\n      dup1\n      0x4c1ee03e\n      eq\n      tag_4\n      jumpi\n      dup1\n      0x52500733\n      eq\n      tag_5\n      jumpi\n      dup1\n      0x544caa56\n      eq\n      tag_6\n      jumpi\n      dup1\n      0x70550835\n      eq\n      tag_7\n      jumpi\n      dup1\n      0x865db5e2\n      eq\n      tag_8\n      jumpi\n    tag_2:\n      0x00\n      dup1\n      revert\n        /* \"SwapLibrary.sol\":2406:3020  function getTradeDiff2(uint amountIn, address tokenIn, address tokenOut, bool stable) external view returns (uint a, uint b) {... */\n    tag_3:\n      tag_18\n      0x04\n      dup1\n      calldatasize\n      sub\n      dup2\n      add\n      swap1\n      tag_19\n      swap2\n      swap1\n      tag_20\n      jump\t// in\n    tag_19:\n      tag_21\n      jump\t// in\n    tag_18:\n      mload(0x40)\n      tag_22\n      swap3\n      swap2\n      swap1\n      tag_23\n      jump\t// in\n    tag_22:\n      mload(0x40)\n      dup1\n      swap2\n      sub\n      swap1\n      return\n        /* \"SwapLibrary.sol\":7704:8088  function pairFor(address tokenA, address tokenB, bool stable) public view returns (address pair) {... */\n    tag_4:\n      tag_24\n      0x04\n      dup1\n      calldatasize\n      sub\n      dup2\n      add\n      swap1\n      tag_25\n      swap2\n      swap1\n      tag_26\n      jump\t// in\n    tag_25:\n      tag_27\n      jump\t// in\n    tag_24:\n      mload(0x40)\n      tag_28\n      swap2\n      swap1\n      tag_29\n      jump\t// in\n    tag_28:\n      mload(0x40)\n      dup1\n      swap2\n      sub\n      swap1\n      return\n        /* \"SwapLibrary.sol\":4902:5243  function getMinimumValue(address tokenIn, address tokenOut, bool stable) external view returns (uint, uint, uint) {... */\n    tag_5:\n      tag_30\n      0x04\n      dup1\n      calldatasize\n      sub\n      dup2\n      add\n      swap1\n      tag_31\n      swap2\n      swap1\n      tag_26\n      jump\t// in\n    tag_31:\n      tag_32\n      jump\t// in\n    tag_30:\n      mload(0x40)\n      tag_33\n      swap4\n      swap3\n      swap2\n      swap1\n      tag_34\n      jump\t// in\n    tag_33:\n      mload(0x40)\n      dup1\n      swap2\n      sub\n      swap1\n      return\n        /* \"SwapLibrary.sol\":8094:8391  function sortTokens(address tokenA, address tokenB) public pure returns (address token0, address token1) {... */\n    tag_6:\n      tag_35\n      0x04\n      dup1\n      calldatasize\n      sub\n      dup2\n      add\n      swap1\n      tag_36\n      swap2\n      swap1\n      tag_37\n      jump\t// in\n    tag_36:\n      tag_38\n      jump\t// in\n    tag_35:\n      mload(0x40)\n      tag_39\n      swap3\n      swap2\n      swap1\n      tag_40\n      jump\t// in\n    tag_39:\n      mload(0x40)\n      dup1\n      swap2\n      sub\n      swap1\n      return\n        /* \"SwapLibrary.sol\":1861:2400  function getTradeDiffSimple(uint amountIn, address tokenIn, address tokenOut, bool stable, uint sample) external view returns (uint a, uint b) {... */\n    tag_7:\n      tag_41\n      0x04\n      dup1\n      calldatasize\n      sub\n      dup2\n      add\n      swap1\n      tag_42\n      swap2\n      swap1\n      tag_43\n      jump\t// in\n    tag_42:\n      tag_44\n      jump\t// in\n    tag_41:\n      mload(0x40)\n      tag_45\n      swap3\n      swap2\n      swap1\n      tag_23\n      jump\t// in\n    tag_45:\n      mload(0x40)\n      dup1\n      swap2\n      sub\n      swap1\n      return\n        /* \"SwapLibrary.sol\":1352:1855  function getTradeDiff(uint amountIn, address tokenIn, address tokenOut, bool stable) external view returns (uint a, uint b) {... */\n    tag_8:\n      tag_46\n      0x04\n      dup1\n      calldatasize\n      sub\n      dup2\n      add\n      swap1\n      tag_47\n      swap2\n      swap1\n      tag_20\n      jump\t// in\n    tag_47:\n      tag_48\n      jump\t// in\n    tag_46:\n      mload(0x40)\n      tag_49\n      swap3\n      swap2\n      swap1\n      tag_23\n      jump\t// in\n    tag_49:\n      mload(0x40)\n      dup1\n      swap2\n      sub\n      swap1\n      return\n        /* \"SwapLibrary.sol\":3026:3643  function getTradeDiff3(uint amountIn, address tokenIn, address tokenOut, bool stable) external view returns (uint a, uint b) {... */\n    tag_9:\n      tag_50\n      0x04\n      dup1\n      calldatasize\n      sub\n      dup2\n      add\n      swap1\n      tag_51\n      swap2\n      swap1\n      tag_20\n      jump\t// in\n    tag_51:\n      tag_52\n      jump\t// in\n    tag_50:\n      mload(0x40)\n      tag_53\n      swap3\n      swap2\n      swap1\n      tag_23\n      jump\t// in\n    tag_53:\n      mload(0x40)\n      dup1\n      swap2\n      sub\n      swap1\n      return\n        /* \"SwapLibrary.sol\":6927:7609  function getNormalizedReserves(address tokenA, address tokenB, bool stable) external view returns (uint reserveA, uint reserveB){... */\n    tag_10:\n      tag_54\n      0x04\n      dup1\n      calldatasize\n      sub\n      dup2\n      add\n      swap1\n      tag_55\n      swap2\n      swap1\n      tag_26\n      jump\t// in\n    tag_55:\n      tag_56\n      jump\t// in\n    tag_54:\n      mload(0x40)\n      tag_57\n      swap3\n      swap2\n      swap1\n      tag_23\n      jump\t// in\n    tag_57:\n      mload(0x40)\n      dup1\n      swap2\n      sub\n      swap1\n      return\n        /* \"SwapLibrary.sol\":4507:4896  function getSample(address tokenIn, address tokenOut, bool stable) external view returns (uint) {... */\n    tag_11:\n      tag_58\n      0x04\n      dup1\n      calldatasize\n      sub\n      dup2\n      add\n      swap1\n      tag_59\n      swap2\n      swap1\n      tag_26\n      jump\t// in\n    tag_59:\n      tag_60\n      jump\t// in\n    tag_58:\n      mload(0x40)\n      tag_61\n      swap2\n      swap1\n      tag_62\n      jump\t// in\n    tag_61:\n      mload(0x40)\n      dup1\n      swap2\n      sub\n      swap1\n      return\n        /* \"SwapLibrary.sol\":188:221  address  immutable public factory */\n    tag_12:\n      tag_63\n      tag_64\n      jump\t// in\n    tag_63:\n      mload(0x40)\n      tag_65\n      swap2\n      swap1\n      tag_29\n      jump\t// in\n    tag_65:\n      mload(0x40)\n      dup1\n      swap2\n      sub\n      swap1\n      return\n        /* \"SwapLibrary.sol\":5249:5592  function getAmountOut(uint amountIn, address tokenIn, address tokenOut, bool stable) external view returns (uint) {... */\n    tag_13:\n      tag_66\n      0x04\n      dup1\n      calldatasize\n      sub\n      dup2\n      add\n      swap1\n      tag_67\n      swap2\n      swap1\n      tag_20\n      jump\t// in\n    tag_67:\n      tag_68\n      jump\t// in\n    tag_66:\n      mload(0x40)\n      tag_69\n      swap2\n      swap1\n      tag_62\n      jump\t// in\n    tag_69:\n      mload(0x40)\n      dup1\n      swap2\n      sub\n      swap1\n      return\n        /* \"SwapLibrary.sol\":4052:4501  function getTradeDiff(uint amountIn, address tokenIn, address pair) external view returns (uint a, uint b) {... */\n    tag_14:\n      tag_70\n      0x04\n      dup1\n      calldatasize\n      sub\n      dup2\n      add\n      swap1\n      tag_71\n      swap2\n      swap1\n      tag_72\n      jump\t// in\n    tag_71:\n      tag_73\n      jump\t// in\n    tag_70:\n      mload(0x40)\n      tag_74\n      swap3\n      swap2\n      swap1\n      tag_23\n      jump\t// in\n    tag_74:\n      mload(0x40)\n      dup1\n      swap2\n      sub\n      swap1\n      return\n        /* \"SwapLibrary.sol\":226:257  IRouter immutable public router */\n    tag_15:\n      tag_75\n      tag_76\n      jump\t// in\n    tag_75:\n      mload(0x40)\n      tag_77\n      swap2\n      swap1\n      tag_78\n      jump\t// in\n    tag_77:\n      mload(0x40)\n      dup1\n      swap2\n      sub\n      swap1\n      return\n        /* \"SwapLibrary.sol\":2406:3020  function getTradeDiff2(uint amountIn, address tokenIn, address tokenOut, bool stable) external view returns (uint a, uint b) {... */\n    tag_21:\n        /* \"SwapLibrary.sol\":2515:2521  uint a */\n      0x00\n        /* \"SwapLibrary.sol\":2523:2529  uint b */\n      dup1\n        /* \"SwapLibrary.sol\":2539:2548  uint dec0 */\n      0x00\n        /* \"SwapLibrary.sol\":2550:2559  uint dec1 */\n      dup1\n        /* \"SwapLibrary.sol\":2561:2568  uint r0 */\n      0x00\n        /* \"SwapLibrary.sol\":2570:2577  uint r1 */\n      dup1\n        /* \"SwapLibrary.sol\":2579:2586  bool st */\n      0x00\n        /* \"SwapLibrary.sol\":2588:2598  address t0 */\n      dup1\n        /* \"SwapLibrary.sol\":2609:2615  router */\n      immutable(\"0x2d33c78d31145fca68253afe9b24c771b7d614064b9f8dc2c55b30419d3466f1\")\n        /* \"SwapLibrary.sol\":2609:2623  router.pairFor */\n      0xffffffffffffffffffffffffffffffffffffffff\n      and\n      0x4c1ee03e\n        /* \"SwapLibrary.sol\":2624:2631  tokenIn */\n      dup13\n        /* \"SwapLibrary.sol\":2633:2641  tokenOut */\n      dup13\n        /* \"SwapLibrary.sol\":2643:2649  stable */\n      dup13\n        /* \"SwapLibrary.sol\":2609:2650  router.pairFor(tokenIn, tokenOut, stable) */\n      mload(0x40)\n      dup5\n      0xffffffff\n      and\n      0xe0\n      shl\n      dup2\n      mstore\n      0x04\n      add\n      tag_80\n      swap4\n      swap3\n      swap2\n      swap1\n      tag_81\n      jump\t// in\n    tag_80:\n      0x20\n      mload(0x40)\n      dup1\n      dup4\n      sub\n      dup2\n      dup7\n      gas\n      staticcall\n      iszero\n      dup1\n      iszero\n      tag_83\n      jumpi\n      returndatasize\n      0x00\n      dup1\n      returndatacopy\n      revert(0x00, returndatasize)\n    tag_83:\n      pop\n      pop\n      pop\n      pop\n      mload(0x40)\n      returndatasize\n      not(0x1f)\n      0x1f\n      dup3\n      add\n      and\n      dup3\n      add\n      dup1\n      0x40\n      mstore\n      pop\n      dup2\n      add\n      swap1\n      tag_84\n      swap2\n      swap1\n      tag_85\n      jump\t// in\n    tag_84:\n        /* \"SwapLibrary.sol\":2603:2660  IPair(router.pairFor(tokenIn, tokenOut, stable)).metadata */\n      0xffffffffffffffffffffffffffffffffffffffff\n      and\n      0x392f37e9\n        /* \"SwapLibrary.sol\":2603:2662  IPair(router.pairFor(tokenIn, tokenOut, stable)).metadata() */\n      mload(0x40)\n      dup2\n      0xffffffff\n      and\n      0xe0\n      shl\n      dup2\n      mstore\n      0x04\n      add\n      0xe0\n      mload(0x40)\n      dup1\n      dup4\n      sub\n      dup2\n      dup7\n      gas\n      staticcall\n      iszero\n      dup1\n      iszero\n      tag_87\n      jumpi\n      returndatasize\n      0x00\n      dup1\n      returndatacopy\n      revert(0x00, returndatasize)\n    tag_87:\n      pop\n      pop\n      pop\n      pop\n      mload(0x40)\n      returndatasize\n      not(0x1f)\n      0x1f\n      dup3\n      add\n      and\n      dup3\n      add\n      dup1\n      0x40\n      mstore\n      pop\n      dup2\n      add\n      swap1\n      tag_88\n      swap2\n      swap1\n      tag_89\n      jump\t// in\n    tag_88:\n        /* \"SwapLibrary.sol\":2538:2662  (uint dec0, uint dec1, uint r0, uint r1, bool st, address t0,) = IPair(router.pairFor(tokenIn, tokenOut, stable)).metadata() */\n      pop\n      swap6\n      pop\n      swap6\n      pop\n      swap6\n      pop\n      swap6\n      pop\n      swap6\n      pop\n      swap6\n      pop\n        /* \"SwapLibrary.sol\":2669:2680  uint sample */\n      0x00\n        /* \"SwapLibrary.sol\":2692:2698  stable */\n      dup10\n        /* \"SwapLibrary.sol\":2687:2841  if (!stable) {... */\n      tag_90\n      jumpi\n        /* \"SwapLibrary.sol\":2729:2731  t0 */\n      dup2\n        /* \"SwapLibrary.sol\":2718:2731  tokenIn == t0 */\n      0xffffffffffffffffffffffffffffffffffffffff\n      and\n        /* \"SwapLibrary.sol\":2718:2725  tokenIn */\n      dup13\n        /* \"SwapLibrary.sol\":2718:2731  tokenIn == t0 */\n      0xffffffffffffffffffffffffffffffffffffffff\n      and\n      eq\n        /* \"SwapLibrary.sol\":2718:2765  tokenIn == t0 ? r0 * dec1 / r1 : r1 * dec0 / r0 */\n      tag_91\n      jumpi\n        /* \"SwapLibrary.sol\":2763:2765  r0 */\n      dup5\n        /* \"SwapLibrary.sol\":2756:2760  dec0 */\n      dup8\n        /* \"SwapLibrary.sol\":2751:2753  r1 */\n      dup6\n        /* \"SwapLibrary.sol\":2751:2760  r1 * dec0 */\n      tag_92\n      swap2\n      swap1\n      tag_93\n      jump\t// in\n    tag_92:\n        /* \"SwapLibrary.sol\":2751:2765  r1 * dec0 / r0 */\n      tag_94\n      swap2\n      swap1\n      tag_95\n      jump\t// in\n    tag_94:\n        /* \"SwapLibrary.sol\":2718:2765  tokenIn == t0 ? r0 * dec1 / r1 : r1 * dec0 / r0 */\n      jump(tag_96)\n    tag_91:\n        /* \"SwapLibrary.sol\":2746:2748  r1 */\n      dup4\n        /* \"SwapLibrary.sol\":2739:2743  dec1 */\n      dup7\n        /* \"SwapLibrary.sol\":2734:2736  r0 */\n      dup7\n        /* \"SwapLibrary.sol\":2734:2743  r0 * dec1 */\n      tag_97\n      swap2\n      swap1\n      tag_93\n      jump\t// in\n    tag_97:\n        /* \"SwapLibrary.sol\":2734:2748  r0 * dec1 / r1 */\n      tag_98\n      swap2\n      swap1\n      tag_95\n      jump\t// in\n    tag_98:\n        /* \"SwapLibrary.sol\":2718:2765  tokenIn == t0 ? r0 * dec1 / r1 : r1 * dec0 / r0 */\n    tag_96:\n        /* \"SwapLibrary.sol\":2709:2765  sample = tokenIn == t0 ? r0 * dec1 / r1 : r1 * dec0 / r0 */\n      swap1\n      pop\n        /* \"SwapLibrary.sol\":2687:2841  if (!stable) {... */\n      jump(tag_99)\n    tag_90:\n        /* \"SwapLibrary.sol\":2797:2833  _calcSample(tokenIn, t0, dec0, dec1) */\n      tag_100\n        /* \"SwapLibrary.sol\":2809:2816  tokenIn */\n      dup13\n        /* \"SwapLibrary.sol\":2818:2820  t0 */\n      dup4\n        /* \"SwapLibrary.sol\":2822:2826  dec0 */\n      dup10\n        /* \"SwapLibrary.sol\":2828:2832  dec1 */\n      dup10\n        /* \"SwapLibrary.sol\":2797:2808  _calcSample */\n      tag_101\n        /* \"SwapLibrary.sol\":2797:2833  _calcSample(tokenIn, t0, dec0, dec1) */\n      jump\t// in\n    tag_100:\n        /* \"SwapLibrary.sol\":2788:2833  sample = _calcSample(tokenIn, t0, dec0, dec1) */\n      swap1\n      pop\n        /* \"SwapLibrary.sol\":2687:2841  if (!stable) {... */\n    tag_99:\n        /* \"SwapLibrary.sol\":2919:2925  sample */\n      dup1\n        /* \"SwapLibrary.sol\":2912:2916  1e18 */\n      0x0de0b6b3a7640000\n        /* \"SwapLibrary.sol\":2851:2909  _getAmountOut(sample, tokenIn, r0, r1, t0, dec0, dec1, st) */\n      tag_102\n        /* \"SwapLibrary.sol\":2865:2871  sample */\n      dup4\n        /* \"SwapLibrary.sol\":2873:2880  tokenIn */\n      dup16\n        /* \"SwapLibrary.sol\":2882:2884  r0 */\n      dup10\n        /* \"SwapLibrary.sol\":2886:2888  r1 */\n      dup10\n        /* \"SwapLibrary.sol\":2890:2892  t0 */\n      dup9\n        /* \"SwapLibrary.sol\":2894:2898  dec0 */\n      dup15\n        /* \"SwapLibrary.sol\":2900:2904  dec1 */\n      dup15\n        /* \"SwapLibrary.sol\":2906:2908  st */\n      dup13\n        /* \"SwapLibrary.sol\":2851:2864  _getAmountOut */\n      tag_103\n        /* \"SwapLibrary.sol\":2851:2909  _getAmountOut(sample, tokenIn, r0, r1, t0, dec0, dec1, st) */\n      jump\t// in\n    tag_102:\n        /* \"SwapLibrary.sol\":2851:2916  _getAmountOut(sample, tokenIn, r0, r1, t0, dec0, dec1, st) * 1e18 */\n      tag_104\n      swap2\n      swap1\n      tag_93\n      jump\t// in\n    tag_104:\n        /* \"SwapLibrary.sol\":2851:2925  _getAmountOut(sample, tokenIn, r0, r1, t0, dec0, dec1, st) * 1e18 / sample */\n      tag_105\n      swap2\n      swap1\n      tag_95\n      jump\t// in\n    tag_105:\n        /* \"SwapLibrary.sol\":2847:2925  a = _getAmountOut(sample, tokenIn, r0, r1, t0, dec0, dec1, st) * 1e18 / sample */\n      swap9\n      pop\n        /* \"SwapLibrary.sol\":3006:3014  amountIn */\n      dup13\n        /* \"SwapLibrary.sol\":2999:3003  1e18 */\n      0x0de0b6b3a7640000\n        /* \"SwapLibrary.sol\":2936:2996  _getAmountOut(amountIn, tokenIn, r0, r1, t0, dec0, dec1, st) */\n      tag_106\n        /* \"SwapLibrary.sol\":2950:2958  amountIn */\n      dup16\n        /* \"SwapLibrary.sol\":2960:2967  tokenIn */\n      dup16\n        /* \"SwapLibrary.sol\":2969:2971  r0 */\n      dup10\n        /* \"SwapLibrary.sol\":2973:2975  r1 */\n      dup10\n        /* \"SwapLibrary.sol\":2977:2979  t0 */\n      dup9\n        /* \"SwapLibrary.sol\":2981:2985  dec0 */\n      dup15\n        /* \"SwapLibrary.sol\":2987:2991  dec1 */\n      dup15\n        /* \"SwapLibrary.sol\":2993:2995  st */\n      dup13\n        /* \"SwapLibrary.sol\":2936:2949  _getAmountOut */\n      tag_103\n        /* \"SwapLibrary.sol\":2936:2996  _getAmountOut(amountIn, tokenIn, r0, r1, t0, dec0, dec1, st) */\n      jump\t// in\n    tag_106:\n        /* \"SwapLibrary.sol\":2936:3003  _getAmountOut(amountIn, tokenIn, r0, r1, t0, dec0, dec1, st) * 1e18 */\n      tag_107\n      swap2\n      swap1\n      tag_93\n      jump\t// in\n    tag_107:\n        /* \"SwapLibrary.sol\":2936:3014  _getAmountOut(amountIn, tokenIn, r0, r1, t0, dec0, dec1, st) * 1e18 / amountIn */\n      tag_108\n      swap2\n      swap1\n      tag_95\n      jump\t// in\n    tag_108:\n        /* \"SwapLibrary.sol\":2932:3014  b = _getAmountOut(amountIn, tokenIn, r0, r1, t0, dec0, dec1, st) * 1e18 / amountIn */\n      swap8\n      pop\n        /* \"SwapLibrary.sol\":2531:3020  {... */\n      pop\n      pop\n      pop\n      pop\n      pop\n      pop\n      pop\n        /* \"SwapLibrary.sol\":2406:3020  function getTradeDiff2(uint amountIn, address tokenIn, address tokenOut, bool stable) external view returns (uint a, uint b) {... */\n      swap5\n      pop\n      swap5\n      swap3\n      pop\n      pop\n      pop\n      jump\t// out\n        /* \"SwapLibrary.sol\":7704:8088  function pairFor(address tokenA, address tokenB, bool stable) public view returns (address pair) {... */\n    tag_27:\n        /* \"SwapLibrary.sol\":7787:7799  address pair */\n      0x00\n        /* \"SwapLibrary.sol\":7809:7823  address token0 */\n      dup1\n        /* \"SwapLibrary.sol\":7825:7839  address token1 */\n      0x00\n        /* \"SwapLibrary.sol\":7843:7869  sortTokens(tokenA, tokenB) */\n      tag_110\n        /* \"SwapLibrary.sol\":7854:7860  tokenA */\n      dup7\n        /* \"SwapLibrary.sol\":7862:7868  tokenB */\n      dup7\n        /* \"SwapLibrary.sol\":7843:7853  sortTokens */\n      tag_38\n        /* \"SwapLibrary.sol\":7843:7869  sortTokens(tokenA, tokenB) */\n      jump\t// in\n    tag_110:\n        /* \"SwapLibrary.sol\":7808:7869  (address token0, address token1) = sortTokens(tokenA, tokenB) */\n      swap2\n      pop\n      swap2\n      pop\n        /* \"SwapLibrary.sol\":7959:7966  factory */\n      immutable(\"0x0bf130d09ff5f4b6139a92ba375974bc03314776406dd3b463c5d5893e064a66\")\n        /* \"SwapLibrary.sol\":8004:8010  token0 */\n      dup3\n        /* \"SwapLibrary.sol\":8012:8018  token1 */\n      dup3\n        /* \"SwapLibrary.sol\":8020:8026  stable */\n      dup7\n        /* \"SwapLibrary.sol\":7987:8027  abi.encodePacked(token0, token1, stable) */\n      add(0x20, mload(0x40))\n      tag_111\n      swap4\n      swap3\n      swap2\n      swap1\n      tag_112\n      jump\t// in\n    tag_111:\n      mload(0x40)\n      0x20\n      dup2\n      dup4\n      sub\n      sub\n      dup2\n      mstore\n      swap1\n      0x40\n      mstore\n        /* \"SwapLibrary.sol\":7977:8028  keccak256(abi.encodePacked(token0, token1, stable)) */\n      dup1\n      mload\n      swap1\n      0x20\n      add\n      keccak256\n        /* \"SwapLibrary.sol\":8039:8051  pairCodeHash */\n      immutable(\"0x02f6903e55725b8fb1e67e68fc4dfbf8e90ced5ec278dfd2021debfe4c69d139\")\n        /* \"SwapLibrary.sol\":7914:8078  abi.encodePacked(... */\n      add(0x20, mload(0x40))\n      tag_113\n      swap4\n      swap3\n      swap2\n      swap1\n      tag_114\n      jump\t// in\n    tag_113:\n      mload(0x40)\n      0x20\n      dup2\n      dup4\n      sub\n      sub\n      dup2\n      mstore\n      swap1\n      0x40\n      mstore\n        /* \"SwapLibrary.sol\":7904:8079  keccak256(abi.encodePacked(... */\n      dup1\n      mload\n      swap1\n      0x20\n      add\n      keccak256\n        /* \"SwapLibrary.sol\":7899:8080  uint(keccak256(abi.encodePacked(... */\n      0x00\n      shr\n        /* \"SwapLibrary.sol\":7876:8082  pair = address(uint160(uint(keccak256(abi.encodePacked(... */\n      swap3\n      pop\n        /* \"SwapLibrary.sol\":7801:8088  {... */\n      pop\n      pop\n        /* \"SwapLibrary.sol\":7704:8088  function pairFor(address tokenA, address tokenB, bool stable) public view returns (address pair) {... */\n      swap4\n      swap3\n      pop\n      pop\n      pop\n      jump\t// out\n        /* \"SwapLibrary.sol\":4902:5243  function getMinimumValue(address tokenIn, address tokenOut, bool stable) external view returns (uint, uint, uint) {... */\n    tag_32:\n        /* \"SwapLibrary.sol\":4998:5002  uint */\n      0x00\n        /* \"SwapLibrary.sol\":5004:5008  uint */\n      dup1\n        /* \"SwapLibrary.sol\":5010:5014  uint */\n      0x00\n        /* \"SwapLibrary.sol\":5024:5033  uint dec0 */\n      dup1\n        /* \"SwapLibrary.sol\":5035:5044  uint dec1 */\n      0x00\n        /* \"SwapLibrary.sol\":5046:5053  uint r0 */\n      dup1\n        /* \"SwapLibrary.sol\":5055:5062  uint r1 */\n      0x00\n        /* \"SwapLibrary.sol\":5065:5075  address t0 */\n      dup1\n        /* \"SwapLibrary.sol\":5086:5092  router */\n      immutable(\"0x2d33c78d31145fca68253afe9b24c771b7d614064b9f8dc2c55b30419d3466f1\")\n        /* \"SwapLibrary.sol\":5086:5100  router.pairFor */\n      0xffffffffffffffffffffffffffffffffffffffff\n      and\n      0x4c1ee03e\n        /* \"SwapLibrary.sol\":5101:5108  tokenIn */\n      dup13\n        /* \"SwapLibrary.sol\":5110:5118  tokenOut */\n      dup13\n        /* \"SwapLibrary.sol\":5120:5126  stable */\n      dup13\n        /* \"SwapLibrary.sol\":5086:5127  router.pairFor(tokenIn, tokenOut, stable) */\n      mload(0x40)\n      dup5\n      0xffffffff\n      and\n      0xe0\n      shl\n      dup2\n      mstore\n      0x04\n      add\n      tag_116\n      swap4\n      swap3\n      swap2\n      swap1\n      tag_81\n      jump\t// in\n    tag_116:\n      0x20\n      mload(0x40)\n      dup1\n      dup4\n      sub\n      dup2\n      dup7\n      gas\n      staticcall\n      iszero\n      dup1\n      iszero\n      tag_118\n      jumpi\n      returndatasize\n      0x00\n      dup1\n      returndatacopy\n      revert(0x00, returndatasize)\n    tag_118:\n      pop\n      pop\n      pop\n      pop\n      mload(0x40)\n      returndatasize\n      not(0x1f)\n      0x1f\n      dup3\n      add\n      and\n      dup3\n      add\n      dup1\n      0x40\n      mstore\n      pop\n      dup2\n      add\n      swap1\n      tag_119\n      swap2\n      swap1\n      tag_85\n      jump\t// in\n    tag_119:\n        /* \"SwapLibrary.sol\":5080:5137  IPair(router.pairFor(tokenIn, tokenOut, stable)).metadata */\n      0xffffffffffffffffffffffffffffffffffffffff\n      and\n      0x392f37e9\n        /* \"SwapLibrary.sol\":5080:5139  IPair(router.pairFor(tokenIn, tokenOut, stable)).metadata() */\n      mload(0x40)\n      dup2\n      0xffffffff\n      and\n      0xe0\n      shl\n      dup2\n      mstore\n      0x04\n      add\n      0xe0\n      mload(0x40)\n      dup1\n      dup4\n      sub\n      dup2\n      dup7\n      gas\n      staticcall\n      iszero\n      dup1\n      iszero\n      tag_121\n      jumpi\n      returndatasize\n      0x00\n      dup1\n      returndatacopy\n      revert(0x00, returndatasize)\n    tag_121:\n      pop\n      pop\n      pop\n      pop\n      mload(0x40)\n      returndatasize\n      not(0x1f)\n      0x1f\n      dup3\n      add\n      and\n      dup3\n      add\n      dup1\n      0x40\n      mstore\n      pop\n      dup2\n      add\n      swap1\n      tag_122\n      swap2\n      swap1\n      tag_89\n      jump\t// in\n    tag_122:\n        /* \"SwapLibrary.sol\":5023:5139  (uint dec0, uint dec1, uint r0, uint r1,, address t0,) = IPair(router.pairFor(tokenIn, tokenOut, stable)).metadata() */\n      pop\n      swap6\n      pop\n      pop\n      swap5\n      pop\n      swap5\n      pop\n      swap5\n      pop\n      swap5\n      pop\n        /* \"SwapLibrary.sol\":5146:5157  uint sample */\n      0x00\n        /* \"SwapLibrary.sol\":5171:5173  t0 */\n      dup2\n        /* \"SwapLibrary.sol\":5160:5173  tokenIn == t0 */\n      0xffffffffffffffffffffffffffffffffffffffff\n      and\n        /* \"SwapLibrary.sol\":5160:5167  tokenIn */\n      dup13\n        /* \"SwapLibrary.sol\":5160:5173  tokenIn == t0 */\n      0xffffffffffffffffffffffffffffffffffffffff\n      and\n      eq\n        /* \"SwapLibrary.sol\":5160:5207  tokenIn == t0 ? r0 * dec1 / r1 : r1 * dec0 / r0 */\n      tag_123\n      jumpi\n        /* \"SwapLibrary.sol\":5205:5207  r0 */\n      dup4\n        /* \"SwapLibrary.sol\":5198:5202  dec0 */\n      dup7\n        /* \"SwapLibrary.sol\":5193:5195  r1 */\n      dup5\n        /* \"SwapLibrary.sol\":5193:5202  r1 * dec0 */\n      tag_124\n      swap2\n      swap1\n      tag_93\n      jump\t// in\n    tag_124:\n        /* \"SwapLibrary.sol\":5193:5207  r1 * dec0 / r0 */\n      tag_125\n      swap2\n      swap1\n      tag_95\n      jump\t// in\n    tag_125:\n        /* \"SwapLibrary.sol\":5160:5207  tokenIn == t0 ? r0 * dec1 / r1 : r1 * dec0 / r0 */\n      jump(tag_126)\n    tag_123:\n        /* \"SwapLibrary.sol\":5188:5190  r1 */\n      dup3\n        /* \"SwapLibrary.sol\":5181:5185  dec1 */\n      dup6\n        /* \"SwapLibrary.sol\":5176:5178  r0 */\n      dup6\n        /* \"SwapLibrary.sol\":5176:5185  r0 * dec1 */\n      tag_127\n      swap2\n      swap1\n      tag_93\n      jump\t// in\n    tag_127:\n        /* \"SwapLibrary.sol\":5176:5190  r0 * dec1 / r1 */\n      tag_128\n      swap2\n      swap1\n      tag_95\n      jump\t// in\n    tag_128:\n        /* \"SwapLibrary.sol\":5160:5207  tokenIn == t0 ? r0 * dec1 / r1 : r1 * dec0 / r0 */\n    tag_126:\n        /* \"SwapLibrary.sol\":5146:5207  uint sample = tokenIn == t0 ? r0 * dec1 / r1 : r1 * dec0 / r0 */\n      swap1\n      pop\n        /* \"SwapLibrary.sol\":5222:5228  sample */\n      dup1\n        /* \"SwapLibrary.sol\":5230:5232  r0 */\n      dup5\n        /* \"SwapLibrary.sol\":5234:5236  r1 */\n      dup5\n        /* \"SwapLibrary.sol\":5214:5237  return (sample, r0, r1) */\n      swap9\n      pop\n      swap9\n      pop\n      swap9\n      pop\n      pop\n      pop\n      pop\n      pop\n      pop\n      pop\n        /* \"SwapLibrary.sol\":4902:5243  function getMinimumValue(address tokenIn, address tokenOut, bool stable) external view returns (uint, uint, uint) {... */\n      swap4\n      pop\n      swap4\n      pop\n      swap4\n      swap1\n      pop\n      jump\t// out\n        /* \"SwapLibrary.sol\":8094:8391  function sortTokens(address tokenA, address tokenB) public pure returns (address token0, address token1) {... */\n    tag_38:\n        /* \"SwapLibrary.sol\":8167:8181  address token0 */\n      0x00\n        /* \"SwapLibrary.sol\":8183:8197  address token1 */\n      dup1\n        /* \"SwapLibrary.sol\":8224:8230  tokenB */\n      dup3\n        /* \"SwapLibrary.sol\":8214:8230  tokenA != tokenB */\n      0xffffffffffffffffffffffffffffffffffffffff\n      and\n        /* \"SwapLibrary.sol\":8214:8220  tokenA */\n      dup5\n        /* \"SwapLibrary.sol\":8214:8230  tokenA != tokenB */\n      0xffffffffffffffffffffffffffffffffffffffff\n      and\n      sub\n        /* \"SwapLibrary.sol\":8206:8254  require(tokenA != tokenB, 'IDENTICAL_ADDRESSES') */\n      tag_130\n      jumpi\n      mload(0x40)\n      0x08c379a000000000000000000000000000000000000000000000000000000000\n      dup2\n      mstore\n      0x04\n      add\n      tag_131\n      swap1\n      tag_132\n      jump\t// in\n    tag_131:\n      mload(0x40)\n      dup1\n      swap2\n      sub\n      swap1\n      revert\n    tag_130:\n        /* \"SwapLibrary.sol\":8289:8295  tokenB */\n      dup3\n        /* \"SwapLibrary.sol\":8280:8295  tokenA < tokenB */\n      0xffffffffffffffffffffffffffffffffffffffff\n      and\n        /* \"SwapLibrary.sol\":8280:8286  tokenA */\n      dup5\n        /* \"SwapLibrary.sol\":8280:8295  tokenA < tokenB */\n      0xffffffffffffffffffffffffffffffffffffffff\n      and\n      lt\n        /* \"SwapLibrary.sol\":8280:8333  tokenA < tokenB ? (tokenA, tokenB) : (tokenB, tokenA) */\n      tag_133\n      jumpi\n        /* \"SwapLibrary.sol\":8318:8324  tokenB */\n      dup3\n        /* \"SwapLibrary.sol\":8326:8332  tokenA */\n      dup5\n        /* \"SwapLibrary.sol\":8280:8333  tokenA < tokenB ? (tokenA, tokenB) : (tokenB, tokenA) */\n      jump(tag_134)\n    tag_133:\n        /* \"SwapLibrary.sol\":8299:8305  tokenA */\n      dup4\n        /* \"SwapLibrary.sol\":8307:8313  tokenB */\n      dup4\n        /* \"SwapLibrary.sol\":8280:8333  tokenA < tokenB ? (tokenA, tokenB) : (tokenB, tokenA) */\n    tag_134:\n        /* \"SwapLibrary.sol\":8261:8333  (token0, token1) = tokenA < tokenB ? (tokenA, tokenB) : (tokenB, tokenA) */\n      dup1\n      swap3\n      pop\n      dup2\n      swap4\n      pop\n      pop\n      pop\n        /* \"SwapLibrary.sol\":8366:8367  0 */\n      0x00\n        /* \"SwapLibrary.sol\":8348:8368  token0 != address(0) */\n      0xffffffffffffffffffffffffffffffffffffffff\n      and\n        /* \"SwapLibrary.sol\":8348:8354  token0 */\n      dup3\n        /* \"SwapLibrary.sol\":8348:8368  token0 != address(0) */\n      0xffffffffffffffffffffffffffffffffffffffff\n      and\n      sub\n        /* \"SwapLibrary.sol\":8340:8385  require(token0 != address(0), 'ZERO_ADDRESS') */\n      tag_135\n      jumpi\n      mload(0x40)\n      0x08c379a000000000000000000000000000000000000000000000000000000000\n      dup2\n      mstore\n      0x04\n      add\n      tag_136\n      swap1\n      tag_137\n      jump\t// in\n    tag_136:\n      mload(0x40)\n      dup1\n      swap2\n      sub\n      swap1\n      revert\n    tag_135:\n        /* \"SwapLibrary.sol\":8094:8391  function sortTokens(address tokenA, address tokenB) public pure returns (address token0, address token1) {... */\n      swap3\n      pop\n      swap3\n      swap1\n      pop\n      jump\t// out\n        /* \"SwapLibrary.sol\":1861:2400  function getTradeDiffSimple(uint amountIn, address tokenIn, address tokenOut, bool stable, uint sample) external view returns (uint a, uint b) {... */\n    tag_44:\n        /* \"SwapLibrary.sol\":1988:1994  uint a */\n      0x00\n        /* \"SwapLibrary.sol\":1996:2002  uint b */\n      dup1\n        /* \"SwapLibrary.sol\":2012:2021  uint dec0 */\n      0x00\n        /* \"SwapLibrary.sol\":2023:2032  uint dec1 */\n      dup1\n        /* \"SwapLibrary.sol\":2034:2041  uint r0 */\n      0x00\n        /* \"SwapLibrary.sol\":2043:2050  uint r1 */\n      dup1\n        /* \"SwapLibrary.sol\":2052:2059  bool st */\n      0x00\n        /* \"SwapLibrary.sol\":2061:2071  address t0 */\n      dup1\n        /* \"SwapLibrary.sol\":2082:2088  router */\n      immutable(\"0x2d33c78d31145fca68253afe9b24c771b7d614064b9f8dc2c55b30419d3466f1\")\n        /* \"SwapLibrary.sol\":2082:2096  router.pairFor */\n      0xffffffffffffffffffffffffffffffffffffffff\n      and\n      0x4c1ee03e\n        /* \"SwapLibrary.sol\":2097:2104  tokenIn */\n      dup14\n        /* \"SwapLibrary.sol\":2106:2114  tokenOut */\n      dup14\n        /* \"SwapLibrary.sol\":2116:2122  stable */\n      dup14\n        /* \"SwapLibrary.sol\":2082:2123  router.pairFor(tokenIn, tokenOut, stable) */\n      mload(0x40)\n      dup5\n      0xffffffff\n      and\n      0xe0\n      shl\n      dup2\n      mstore\n      0x04\n      add\n      tag_139\n      swap4\n      swap3\n      swap2\n      swap1\n      tag_81\n      jump\t// in\n    tag_139:\n      0x20\n      mload(0x40)\n      dup1\n      dup4\n      sub\n      dup2\n      dup7\n      gas\n      staticcall\n      iszero\n      dup1\n      iszero\n      tag_141\n      jumpi\n      returndatasize\n      0x00\n      dup1\n      returndatacopy\n      revert(0x00, returndatasize)\n    tag_141:\n      pop\n      pop\n      pop\n      pop\n      mload(0x40)\n      returndatasize\n      not(0x1f)\n      0x1f\n      dup3\n      add\n      and\n      dup3\n      add\n      dup1\n      0x40\n      mstore\n      pop\n      dup2\n      add\n      swap1\n      tag_142\n      swap2\n      swap1\n      tag_85\n      jump\t// in\n    tag_142:\n        /* \"SwapLibrary.sol\":2076:2133  IPair(router.pairFor(tokenIn, tokenOut, stable)).metadata */\n      0xffffffffffffffffffffffffffffffffffffffff\n      and\n      0x392f37e9\n        /* \"SwapLibrary.sol\":2076:2135  IPair(router.pairFor(tokenIn, tokenOut, stable)).metadata() */\n      mload(0x40)\n      dup2\n      0xffffffff\n      and\n      0xe0\n      shl\n      dup2\n      mstore\n      0x04\n      add\n      0xe0\n      mload(0x40)\n      dup1\n      dup4\n      sub\n      dup2\n      dup7\n      gas\n      staticcall\n      iszero\n      dup1\n      iszero\n      tag_144\n      jumpi\n      returndatasize\n      0x00\n      dup1\n      returndatacopy\n      revert(0x00, returndatasize)\n    tag_144:\n      pop\n      pop\n      pop\n      pop\n      mload(0x40)\n      returndatasize\n      not(0x1f)\n      0x1f\n      dup3\n      add\n      and\n      dup3\n      add\n      dup1\n      0x40\n      mstore\n      pop\n      dup2\n      add\n      swap1\n      tag_145\n      swap2\n      swap1\n      tag_89\n      jump\t// in\n    tag_145:\n        /* \"SwapLibrary.sol\":2011:2135  (uint dec0, uint dec1, uint r0, uint r1, bool st, address t0,) = IPair(router.pairFor(tokenIn, tokenOut, stable)).metadata() */\n      pop\n      swap6\n      pop\n      swap6\n      pop\n      swap6\n      pop\n      swap6\n      pop\n      swap6\n      pop\n      swap6\n      pop\n        /* \"SwapLibrary.sol\":2156:2157  0 */\n      0x00\n        /* \"SwapLibrary.sol\":2146:2152  sample */\n      dup10\n        /* \"SwapLibrary.sol\":2146:2157  sample == 0 */\n      sub\n        /* \"SwapLibrary.sol\":2142:2221  if (sample == 0) {... */\n      tag_146\n      jumpi\n        /* \"SwapLibrary.sol\":2177:2213  _calcSample(tokenIn, t0, dec0, dec1) */\n      tag_147\n        /* \"SwapLibrary.sol\":2189:2196  tokenIn */\n      dup13\n        /* \"SwapLibrary.sol\":2198:2200  t0 */\n      dup3\n        /* \"SwapLibrary.sol\":2202:2206  dec0 */\n      dup9\n        /* \"SwapLibrary.sol\":2208:2212  dec1 */\n      dup9\n        /* \"SwapLibrary.sol\":2177:2188  _calcSample */\n      tag_101\n        /* \"SwapLibrary.sol\":2177:2213  _calcSample(tokenIn, t0, dec0, dec1) */\n      jump\t// in\n    tag_147:\n        /* \"SwapLibrary.sol\":2168:2213  sample = _calcSample(tokenIn, t0, dec0, dec1) */\n      swap9\n      pop\n        /* \"SwapLibrary.sol\":2142:2221  if (sample == 0) {... */\n    tag_146:\n        /* \"SwapLibrary.sol\":2299:2305  sample */\n      dup9\n        /* \"SwapLibrary.sol\":2292:2296  1e18 */\n      0x0de0b6b3a7640000\n        /* \"SwapLibrary.sol\":2231:2289  _getAmountOut(sample, tokenIn, r0, r1, t0, dec0, dec1, st) */\n      tag_148\n        /* \"SwapLibrary.sol\":2245:2251  sample */\n      dup12\n        /* \"SwapLibrary.sol\":2253:2260  tokenIn */\n      dup16\n        /* \"SwapLibrary.sol\":2262:2264  r0 */\n      dup9\n        /* \"SwapLibrary.sol\":2266:2268  r1 */\n      dup9\n        /* \"SwapLibrary.sol\":2270:2272  t0 */\n      dup8\n        /* \"SwapLibrary.sol\":2274:2278  dec0 */\n      dup14\n        /* \"SwapLibrary.sol\":2280:2284  dec1 */\n      dup14\n        /* \"SwapLibrary.sol\":2286:2288  st */\n      dup12\n        /* \"SwapLibrary.sol\":2231:2244  _getAmountOut */\n      tag_103\n        /* \"SwapLibrary.sol\":2231:2289  _getAmountOut(sample, tokenIn, r0, r1, t0, dec0, dec1, st) */\n      jump\t// in\n    tag_148:\n        /* \"SwapLibrary.sol\":2231:2296  _getAmountOut(sample, tokenIn, r0, r1, t0, dec0, dec1, st) * 1e18 */\n      tag_149\n      swap2\n      swap1\n      tag_93\n      jump\t// in\n    tag_149:\n        /* \"SwapLibrary.sol\":2231:2305  _getAmountOut(sample, tokenIn, r0, r1, t0, dec0, dec1, st) * 1e18 / sample */\n      tag_150\n      swap2\n      swap1\n      tag_95\n      jump\t// in\n    tag_150:\n        /* \"SwapLibrary.sol\":2227:2305  a = _getAmountOut(sample, tokenIn, r0, r1, t0, dec0, dec1, st) * 1e18 / sample */\n      swap8\n      pop\n        /* \"SwapLibrary.sol\":2386:2394  amountIn */\n      dup13\n        /* \"SwapLibrary.sol\":2379:2383  1e18 */\n      0x0de0b6b3a7640000\n        /* \"SwapLibrary.sol\":2316:2376  _getAmountOut(amountIn, tokenIn, r0, r1, t0, dec0, dec1, st) */\n      tag_151\n        /* \"SwapLibrary.sol\":2330:2338  amountIn */\n      dup16\n        /* \"SwapLibrary.sol\":2340:2347  tokenIn */\n      dup16\n        /* \"SwapLibrary.sol\":2349:2351  r0 */\n      dup9\n        /* \"SwapLibrary.sol\":2353:2355  r1 */\n      dup9\n        /* \"SwapLibrary.sol\":2357:2359  t0 */\n      dup8\n        /* \"SwapLibrary.sol\":2361:2365  dec0 */\n      dup14\n        /* \"SwapLibrary.sol\":2367:2371  dec1 */\n      dup14\n        /* \"SwapLibrary.sol\":2373:2375  st */\n      dup12\n        /* \"SwapLibrary.sol\":2316:2329  _getAmountOut */\n      tag_103\n        /* \"SwapLibrary.sol\":2316:2376  _getAmountOut(amountIn, tokenIn, r0, r1, t0, dec0, dec1, st) */\n      jump\t// in\n    tag_151:\n        /* \"SwapLibrary.sol\":2316:2383  _getAmountOut(amountIn, tokenIn, r0, r1, t0, dec0, dec1, st) * 1e18 */\n      tag_152\n      swap2\n      swap1\n      tag_93\n      jump\t// in\n    tag_152:\n        /* \"SwapLibrary.sol\":2316:2394  _getAmountOut(amountIn, tokenIn, r0, r1, t0, dec0, dec1, st) * 1e18 / amountIn */\n      tag_153\n      swap2\n      swap1\n      tag_95\n      jump\t// in\n    tag_153:\n        /* \"SwapLibrary.sol\":2312:2394  b = _getAmountOut(amountIn, tokenIn, r0, r1, t0, dec0, dec1, st) * 1e18 / amountIn */\n      swap7\n      pop\n        /* \"SwapLibrary.sol\":2004:2400  {... */\n      pop\n      pop\n      pop\n      pop\n      pop\n      pop\n        /* \"SwapLibrary.sol\":1861:2400  function getTradeDiffSimple(uint amountIn, address tokenIn, address tokenOut, bool stable, uint sample) external view returns (uint a, uint b) {... */\n      swap6\n      pop\n      swap6\n      swap4\n      pop\n      pop\n      pop\n      pop\n      jump\t// out\n        /* \"SwapLibrary.sol\":1352:1855  function getTradeDiff(uint amountIn, address tokenIn, address tokenOut, bool stable) external view returns (uint a, uint b) {... */\n    tag_48:\n        /* \"SwapLibrary.sol\":1460:1466  uint a */\n      0x00\n        /* \"SwapLibrary.sol\":1468:1474  uint b */\n      dup1\n        /* \"SwapLibrary.sol\":1484:1493  uint dec0 */\n      0x00\n        /* \"SwapLibrary.sol\":1495:1504  uint dec1 */\n      dup1\n        /* \"SwapLibrary.sol\":1506:1513  uint r0 */\n      0x00\n        /* \"SwapLibrary.sol\":1515:1522  uint r1 */\n      dup1\n        /* \"SwapLibrary.sol\":1524:1531  bool st */\n      0x00\n        /* \"SwapLibrary.sol\":1533:1543  address t0 */\n      dup1\n        /* \"SwapLibrary.sol\":1554:1560  router */\n      immutable(\"0x2d33c78d31145fca68253afe9b24c771b7d614064b9f8dc2c55b30419d3466f1\")\n        /* \"SwapLibrary.sol\":1554:1568  router.pairFor */\n      0xffffffffffffffffffffffffffffffffffffffff\n      and\n      0x4c1ee03e\n        /* \"SwapLibrary.sol\":1569:1576  tokenIn */\n      dup13\n        /* \"SwapLibrary.sol\":1578:1586  tokenOut */\n      dup13\n        /* \"SwapLibrary.sol\":1588:1594  stable */\n      dup13\n        /* \"SwapLibrary.sol\":1554:1595  router.pairFor(tokenIn, tokenOut, stable) */\n      mload(0x40)\n      dup5\n      0xffffffff\n      and\n      0xe0\n      shl\n      dup2\n      mstore\n      0x04\n      add\n      tag_155\n      swap4\n      swap3\n      swap2\n      swap1\n      tag_81\n      jump\t// in\n    tag_155:\n      0x20\n      mload(0x40)\n      dup1\n      dup4\n      sub\n      dup2\n      dup7\n      gas\n      staticcall\n      iszero\n      dup1\n      iszero\n      tag_157\n      jumpi\n      returndatasize\n      0x00\n      dup1\n      returndatacopy\n      revert(0x00, returndatasize)\n    tag_157:\n      pop\n      pop\n      pop\n      pop\n      mload(0x40)\n      returndatasize\n      not(0x1f)\n      0x1f\n      dup3\n      add\n      and\n      dup3\n      add\n      dup1\n      0x40\n      mstore\n      pop\n      dup2\n      add\n      swap1\n      tag_158\n      swap2\n      swap1\n      tag_85\n      jump\t// in\n    tag_158:\n        /* \"SwapLibrary.sol\":1548:1605  IPair(router.pairFor(tokenIn, tokenOut, stable)).metadata */\n      0xffffffffffffffffffffffffffffffffffffffff\n      and\n      0x392f37e9\n        /* \"SwapLibrary.sol\":1548:1607  IPair(router.pairFor(tokenIn, tokenOut, stable)).metadata() */\n      mload(0x40)\n      dup2\n      0xffffffff\n      and\n      0xe0\n      shl\n      dup2\n      mstore\n      0x04\n      add\n      0xe0\n      mload(0x40)\n      dup1\n      dup4\n      sub\n      dup2\n      dup7\n      gas\n      staticcall\n      iszero\n      dup1\n      iszero\n      tag_160\n      jumpi\n      returndatasize\n      0x00\n      dup1\n      returndatacopy\n      revert(0x00, returndatasize)\n    tag_160:\n      pop\n      pop\n      pop\n      pop\n      mload(0x40)\n      returndatasize\n      not(0x1f)\n      0x1f\n      dup3\n      add\n      and\n      dup3\n      add\n      dup1\n      0x40\n      mstore\n      pop\n      dup2\n      add\n      swap1\n      tag_161\n      swap2\n      swap1\n      tag_89\n      jump\t// in\n    tag_161:\n        /* \"SwapLibrary.sol\":1483:1607  (uint dec0, uint dec1, uint r0, uint r1, bool st, address t0,) = IPair(router.pairFor(tokenIn, tokenOut, stable)).metadata() */\n      pop\n      swap6\n      pop\n      swap6\n      pop\n      swap6\n      pop\n      swap6\n      pop\n      swap6\n      pop\n      swap6\n      pop\n        /* \"SwapLibrary.sol\":1614:1625  uint sample */\n      0x00\n        /* \"SwapLibrary.sol\":1639:1641  t0 */\n      dup2\n        /* \"SwapLibrary.sol\":1628:1641  tokenIn == t0 */\n      0xffffffffffffffffffffffffffffffffffffffff\n      and\n        /* \"SwapLibrary.sol\":1628:1635  tokenIn */\n      dup13\n        /* \"SwapLibrary.sol\":1628:1641  tokenIn == t0 */\n      0xffffffffffffffffffffffffffffffffffffffff\n      and\n      eq\n        /* \"SwapLibrary.sol\":1628:1675  tokenIn == t0 ? r0 * dec1 / r1 : r1 * dec0 / r0 */\n      tag_162\n      jumpi\n        /* \"SwapLibrary.sol\":1673:1675  r0 */\n      dup5\n        /* \"SwapLibrary.sol\":1666:1670  dec0 */\n      dup8\n        /* \"SwapLibrary.sol\":1661:1663  r1 */\n      dup6\n        /* \"SwapLibrary.sol\":1661:1670  r1 * dec0 */\n      tag_163\n      swap2\n      swap1\n      tag_93\n      jump\t// in\n    tag_163:\n        /* \"SwapLibrary.sol\":1661:1675  r1 * dec0 / r0 */\n      tag_164\n      swap2\n      swap1\n      tag_95\n      jump\t// in\n    tag_164:\n        /* \"SwapLibrary.sol\":1628:1675  tokenIn == t0 ? r0 * dec1 / r1 : r1 * dec0 / r0 */\n      jump(tag_165)\n    tag_162:\n        /* \"SwapLibrary.sol\":1656:1658  r1 */\n      dup4\n        /* \"SwapLibrary.sol\":1649:1653  dec1 */\n      dup7\n        /* \"SwapLibrary.sol\":1644:1646  r0 */\n      dup7\n        /* \"SwapLibrary.sol\":1644:1653  r0 * dec1 */\n      tag_166\n      swap2\n      swap1\n      tag_93\n      jump\t// in\n    tag_166:\n        /* \"SwapLibrary.sol\":1644:1658  r0 * dec1 / r1 */\n      tag_167\n      swap2\n      swap1\n      tag_95\n      jump\t// in\n    tag_167:\n        /* \"SwapLibrary.sol\":1628:1675  tokenIn == t0 ? r0 * dec1 / r1 : r1 * dec0 / r0 */\n    tag_165:\n        /* \"SwapLibrary.sol\":1614:1675  uint sample = tokenIn == t0 ? r0 * dec1 / r1 : r1 * dec0 / r0 */\n      swap1\n      pop\n        /* \"SwapLibrary.sol\":1754:1760  sample */\n      dup1\n        /* \"SwapLibrary.sol\":1747:1751  1e18 */\n      0x0de0b6b3a7640000\n        /* \"SwapLibrary.sol\":1686:1744  _getAmountOut(sample, tokenIn, r0, r1, t0, dec0, dec1, st) */\n      tag_168\n        /* \"SwapLibrary.sol\":1700:1706  sample */\n      dup4\n        /* \"SwapLibrary.sol\":1708:1715  tokenIn */\n      dup16\n        /* \"SwapLibrary.sol\":1717:1719  r0 */\n      dup10\n        /* \"SwapLibrary.sol\":1721:1723  r1 */\n      dup10\n        /* \"SwapLibrary.sol\":1725:1727  t0 */\n      dup9\n        /* \"SwapLibrary.sol\":1729:1733  dec0 */\n      dup15\n        /* \"SwapLibrary.sol\":1735:1739  dec1 */\n      dup15\n        /* \"SwapLibrary.sol\":1741:1743  st */\n      dup13\n        /* \"SwapLibrary.sol\":1686:1699  _getAmountOut */\n      tag_103\n        /* \"SwapLibrary.sol\":1686:1744  _getAmountOut(sample, tokenIn, r0, r1, t0, dec0, dec1, st) */\n      jump\t// in\n    tag_168:\n        /* \"SwapLibrary.sol\":1686:1751  _getAmountOut(sample, tokenIn, r0, r1, t0, dec0, dec1, st) * 1e18 */\n      tag_169\n      swap2\n      swap1\n      tag_93\n      jump\t// in\n    tag_169:\n        /* \"SwapLibrary.sol\":1686:1760  _getAmountOut(sample, tokenIn, r0, r1, t0, dec0, dec1, st) * 1e18 / sample */\n      tag_170\n      swap2\n      swap1\n      tag_95\n      jump\t// in\n    tag_170:\n        /* \"SwapLibrary.sol\":1682:1760  a = _getAmountOut(sample, tokenIn, r0, r1, t0, dec0, dec1, st) * 1e18 / sample */\n      swap9\n      pop\n        /* \"SwapLibrary.sol\":1841:1849  amountIn */\n      dup13\n        /* \"SwapLibrary.sol\":1834:1838  1e18 */\n      0x0de0b6b3a7640000\n        /* \"SwapLibrary.sol\":1771:1831  _getAmountOut(amountIn, tokenIn, r0, r1, t0, dec0, dec1, st) */\n      tag_171\n        /* \"SwapLibrary.sol\":1785:1793  amountIn */\n      dup16\n        /* \"SwapLibrary.sol\":1795:1802  tokenIn */\n      dup16\n        /* \"SwapLibrary.sol\":1804:1806  r0 */\n      dup10\n        /* \"SwapLibrary.sol\":1808:1810  r1 */\n      dup10\n        /* \"SwapLibrary.sol\":1812:1814  t0 */\n      dup9\n        /* \"SwapLibrary.sol\":1816:1820  dec0 */\n      dup15\n        /* \"SwapLibrary.sol\":1822:1826  dec1 */\n      dup15\n        /* \"SwapLibrary.sol\":1828:1830  st */\n      dup13\n        /* \"SwapLibrary.sol\":1771:1784  _getAmountOut */\n      tag_103\n        /* \"SwapLibrary.sol\":1771:1831  _getAmountOut(amountIn, tokenIn, r0, r1, t0, dec0, dec1, st) */\n      jump\t// in\n    tag_171:\n        /* \"SwapLibrary.sol\":1771:1838  _getAmountOut(amountIn, tokenIn, r0, r1, t0, dec0, dec1, st) * 1e18 */\n      tag_172\n      swap2\n      swap1\n      tag_93\n      jump\t// in\n    tag_172:\n        /* \"SwapLibrary.sol\":1771:1849  _getAmountOut(amountIn, tokenIn, r0, r1, t0, dec0, dec1, st) * 1e18 / amountIn */\n      tag_173\n      swap2\n      swap1\n      tag_95\n      jump\t// in\n    tag_173:\n        /* \"SwapLibrary.sol\":1767:1849  b = _getAmountOut(amountIn, tokenIn, r0, r1, t0, dec0, dec1, st) * 1e18 / amountIn */\n      swap8\n      pop\n        /* \"SwapLibrary.sol\":1476:1855  {... */\n      pop\n      pop\n      pop\n      pop\n      pop\n      pop\n      pop\n        /* \"SwapLibrary.sol\":1352:1855  function getTradeDiff(uint amountIn, address tokenIn, address tokenOut, bool stable) external view returns (uint a, uint b) {... */\n      swap5\n      pop\n      swap5\n      swap3\n      pop\n      pop\n      pop\n      jump\t// out\n        /* \"SwapLibrary.sol\":3026:3643  function getTradeDiff3(uint amountIn, address tokenIn, address tokenOut, bool stable) external view returns (uint a, uint b) {... */\n    tag_52:\n        /* \"SwapLibrary.sol\":3135:3141  uint a */\n      0x00\n        /* \"SwapLibrary.sol\":3143:3149  uint b */\n      dup1\n        /* \"SwapLibrary.sol\":3159:3168  uint dec0 */\n      0x00\n        /* \"SwapLibrary.sol\":3170:3179  uint dec1 */\n      dup1\n        /* \"SwapLibrary.sol\":3181:3188  uint r0 */\n      0x00\n        /* \"SwapLibrary.sol\":3190:3197  uint r1 */\n      dup1\n        /* \"SwapLibrary.sol\":3199:3206  bool st */\n      0x00\n        /* \"SwapLibrary.sol\":3208:3218  address t0 */\n      dup1\n        /* \"SwapLibrary.sol\":3229:3235  router */\n      immutable(\"0x2d33c78d31145fca68253afe9b24c771b7d614064b9f8dc2c55b30419d3466f1\")\n        /* \"SwapLibrary.sol\":3229:3243  router.pairFor */\n      0xffffffffffffffffffffffffffffffffffffffff\n      and\n      0x4c1ee03e\n        /* \"SwapLibrary.sol\":3244:3251  tokenIn */\n      dup13\n        /* \"SwapLibrary.sol\":3253:3261  tokenOut */\n      dup13\n        /* \"SwapLibrary.sol\":3263:3269  stable */\n      dup13\n        /* \"SwapLibrary.sol\":3229:3270  router.pairFor(tokenIn, tokenOut, stable) */\n      mload(0x40)\n      dup5\n      0xffffffff\n      and\n      0xe0\n      shl\n      dup2\n      mstore\n      0x04\n      add\n      tag_175\n      swap4\n      swap3\n      swap2\n      swap1\n      tag_81\n      jump\t// in\n    tag_175:\n      0x20\n      mload(0x40)\n      dup1\n      dup4\n      sub\n      dup2\n      dup7\n      gas\n      staticcall\n      iszero\n      dup1\n      iszero\n      tag_177\n      jumpi\n      returndatasize\n      0x00\n      dup1\n      returndatacopy\n      revert(0x00, returndatasize)\n    tag_177:\n      pop\n      pop\n      pop\n      pop\n      mload(0x40)\n      returndatasize\n      not(0x1f)\n      0x1f\n      dup3\n      add\n      and\n      dup3\n      add\n      dup1\n      0x40\n      mstore\n      pop\n      dup2\n      add\n      swap1\n      tag_178\n      swap2\n      swap1\n      tag_85\n      jump\t// in\n    tag_178:\n        /* \"SwapLibrary.sol\":3223:3280  IPair(router.pairFor(tokenIn, tokenOut, stable)).metadata */\n      0xffffffffffffffffffffffffffffffffffffffff\n      and\n      0x392f37e9\n        /* \"SwapLibrary.sol\":3223:3282  IPair(router.pairFor(tokenIn, tokenOut, stable)).metadata() */\n      mload(0x40)\n      dup2\n      0xffffffff\n      and\n      0xe0\n      shl\n      dup2\n      mstore\n      0x04\n      add\n      0xe0\n      mload(0x40)\n      dup1\n      dup4\n      sub\n      dup2\n      dup7\n      gas\n      staticcall\n      iszero\n      dup1\n      iszero\n      tag_180\n      jumpi\n      returndatasize\n      0x00\n      dup1\n      returndatacopy\n      revert(0x00, returndatasize)\n    tag_180:\n      pop\n      pop\n      pop\n      pop\n      mload(0x40)\n      returndatasize\n      not(0x1f)\n      0x1f\n      dup3\n      add\n      and\n      dup3\n      add\n      dup1\n      0x40\n      mstore\n      pop\n      dup2\n      add\n      swap1\n      tag_181\n      swap2\n      swap1\n      tag_89\n      jump\t// in\n    tag_181:\n        /* \"SwapLibrary.sol\":3158:3282  (uint dec0, uint dec1, uint r0, uint r1, bool st, address t0,) = IPair(router.pairFor(tokenIn, tokenOut, stable)).metadata() */\n      pop\n      swap6\n      pop\n      swap6\n      pop\n      swap6\n      pop\n      swap6\n      pop\n      swap6\n      pop\n      swap6\n      pop\n        /* \"SwapLibrary.sol\":3289:3300  uint sample */\n      0x00\n        /* \"SwapLibrary.sol\":3312:3318  stable */\n      dup10\n        /* \"SwapLibrary.sol\":3307:3567  if (!stable) {... */\n      tag_182\n      jumpi\n        /* \"SwapLibrary.sol\":3363:3365  t0 */\n      dup2\n        /* \"SwapLibrary.sol\":3352:3365  tokenIn == t0 */\n      0xffffffffffffffffffffffffffffffffffffffff\n      and\n        /* \"SwapLibrary.sol\":3352:3359  tokenIn */\n      dup13\n        /* \"SwapLibrary.sol\":3352:3365  tokenIn == t0 */\n      0xffffffffffffffffffffffffffffffffffffffff\n      and\n      eq\n        /* \"SwapLibrary.sol\":3352:3399  tokenIn == t0 ? r0 * 1e18 / r1 : r1 * 1e18 / r0 */\n      tag_183\n      jumpi\n        /* \"SwapLibrary.sol\":3397:3399  r0 */\n      dup5\n        /* \"SwapLibrary.sol\":3390:3394  1e18 */\n      0x0de0b6b3a7640000\n        /* \"SwapLibrary.sol\":3385:3387  r1 */\n      dup6\n        /* \"SwapLibrary.sol\":3385:3394  r1 * 1e18 */\n      tag_184\n      swap2\n      swap1\n      tag_93\n      jump\t// in\n    tag_184:\n        /* \"SwapLibrary.sol\":3385:3399  r1 * 1e18 / r0 */\n      tag_185\n      swap2\n      swap1\n      tag_95\n      jump\t// in\n    tag_185:\n        /* \"SwapLibrary.sol\":3352:3399  tokenIn == t0 ? r0 * 1e18 / r1 : r1 * 1e18 / r0 */\n      jump(tag_186)\n    tag_183:\n        /* \"SwapLibrary.sol\":3380:3382  r1 */\n      dup4\n        /* \"SwapLibrary.sol\":3373:3377  1e18 */\n      0x0de0b6b3a7640000\n        /* \"SwapLibrary.sol\":3368:3370  r0 */\n      dup7\n        /* \"SwapLibrary.sol\":3368:3377  r0 * 1e18 */\n      tag_187\n      swap2\n      swap1\n      tag_93\n      jump\t// in\n    tag_187:\n        /* \"SwapLibrary.sol\":3368:3382  r0 * 1e18 / r1 */\n      tag_188\n      swap2\n      swap1\n      tag_95\n      jump\t// in\n    tag_188:\n        /* \"SwapLibrary.sol\":3352:3399  tokenIn == t0 ? r0 * 1e18 / r1 : r1 * 1e18 / r0 */\n    tag_186:\n        /* \"SwapLibrary.sol\":3344:3348  1e18 */\n      0x0de0b6b3a7640000\n        /* \"SwapLibrary.sol\":3333:3341  amountIn */\n      dup15\n        /* \"SwapLibrary.sol\":3333:3348  amountIn * 1e18 */\n      tag_189\n      swap2\n      swap1\n      tag_93\n      jump\t// in\n    tag_189:\n        /* \"SwapLibrary.sol\":3333:3400  amountIn * 1e18 / (tokenIn == t0 ? r0 * 1e18 / r1 : r1 * 1e18 / r0) */\n      tag_190\n      swap2\n      swap1\n      tag_95\n      jump\t// in\n    tag_190:\n        /* \"SwapLibrary.sol\":3329:3400  a = amountIn * 1e18 / (tokenIn == t0 ? r0 * 1e18 / r1 : r1 * 1e18 / r0) */\n      swap9\n      pop\n        /* \"SwapLibrary.sol\":3307:3567  if (!stable) {... */\n      jump(tag_191)\n    tag_182:\n        /* \"SwapLibrary.sol\":3432:3468  _calcSample(tokenIn, t0, dec0, dec1) */\n      tag_192\n        /* \"SwapLibrary.sol\":3444:3451  tokenIn */\n      dup13\n        /* \"SwapLibrary.sol\":3453:3455  t0 */\n      dup4\n        /* \"SwapLibrary.sol\":3457:3461  dec0 */\n      dup10\n        /* \"SwapLibrary.sol\":3463:3467  dec1 */\n      dup10\n        /* \"SwapLibrary.sol\":3432:3443  _calcSample */\n      tag_101\n        /* \"SwapLibrary.sol\":3432:3468  _calcSample(tokenIn, t0, dec0, dec1) */\n      jump\t// in\n    tag_192:\n        /* \"SwapLibrary.sol\":3423:3468  sample = _calcSample(tokenIn, t0, dec0, dec1) */\n      swap1\n      pop\n        /* \"SwapLibrary.sol\":3553:3559  sample */\n      dup1\n        /* \"SwapLibrary.sol\":3542:3550  amountIn */\n      dup14\n        /* \"SwapLibrary.sol\":3481:3539  _getAmountOut(sample, tokenIn, r0, r1, t0, dec0, dec1, st) */\n      tag_193\n        /* \"SwapLibrary.sol\":3495:3501  sample */\n      dup4\n        /* \"SwapLibrary.sol\":3503:3510  tokenIn */\n      dup16\n        /* \"SwapLibrary.sol\":3512:3514  r0 */\n      dup10\n        /* \"SwapLibrary.sol\":3516:3518  r1 */\n      dup10\n        /* \"SwapLibrary.sol\":3520:3522  t0 */\n      dup9\n        /* \"SwapLibrary.sol\":3524:3528  dec0 */\n      dup15\n        /* \"SwapLibrary.sol\":3530:3534  dec1 */\n      dup15\n        /* \"SwapLibrary.sol\":3536:3538  st */\n      dup13\n        /* \"SwapLibrary.sol\":3481:3494  _getAmountOut */\n      tag_103\n        /* \"SwapLibrary.sol\":3481:3539  _getAmountOut(sample, tokenIn, r0, r1, t0, dec0, dec1, st) */\n      jump\t// in\n    tag_193:\n        /* \"SwapLibrary.sol\":3481:3550  _getAmountOut(sample, tokenIn, r0, r1, t0, dec0, dec1, st) * amountIn */\n      tag_194\n      swap2\n      swap1\n      tag_93\n      jump\t// in\n    tag_194:\n        /* \"SwapLibrary.sol\":3481:3559  _getAmountOut(sample, tokenIn, r0, r1, t0, dec0, dec1, st) * amountIn / sample */\n      tag_195\n      swap2\n      swap1\n      tag_95\n      jump\t// in\n    tag_195:\n        /* \"SwapLibrary.sol\":3477:3559  a = _getAmountOut(sample, tokenIn, r0, r1, t0, dec0, dec1, st) * amountIn / sample */\n      swap9\n      pop\n        /* \"SwapLibrary.sol\":3307:3567  if (!stable) {... */\n    tag_191:\n        /* \"SwapLibrary.sol\":3577:3637  _getAmountOut(amountIn, tokenIn, r0, r1, t0, dec0, dec1, st) */\n      tag_196\n        /* \"SwapLibrary.sol\":3591:3599  amountIn */\n      dup14\n        /* \"SwapLibrary.sol\":3601:3608  tokenIn */\n      dup14\n        /* \"SwapLibrary.sol\":3610:3612  r0 */\n      dup8\n        /* \"SwapLibrary.sol\":3614:3616  r1 */\n      dup8\n        /* \"SwapLibrary.sol\":3618:3620  t0 */\n      dup7\n        /* \"SwapLibrary.sol\":3622:3626  dec0 */\n      dup13\n        /* \"SwapLibrary.sol\":3628:3632  dec1 */\n      dup13\n        /* \"SwapLibrary.sol\":3634:3636  st */\n      dup11\n        /* \"SwapLibrary.sol\":3577:3590  _getAmountOut */\n      tag_103\n        /* \"SwapLibrary.sol\":3577:3637  _getAmountOut(amountIn, tokenIn, r0, r1, t0, dec0, dec1, st) */\n      jump\t// in\n    tag_196:\n        /* \"SwapLibrary.sol\":3573:3637  b = _getAmountOut(amountIn, tokenIn, r0, r1, t0, dec0, dec1, st) */\n      swap8\n      pop\n        /* \"SwapLibrary.sol\":3151:3643  {... */\n      pop\n      pop\n      pop\n      pop\n      pop\n      pop\n      pop\n        /* \"SwapLibrary.sol\":3026:3643  function getTradeDiff3(uint amountIn, address tokenIn, address tokenOut, bool stable) external view returns (uint a, uint b) {... */\n      swap5\n      pop\n      swap5\n      swap3\n      pop\n      pop\n      pop\n      jump\t// out\n        /* \"SwapLibrary.sol\":6927:7609  function getNormalizedReserves(address tokenA, address tokenB, bool stable) external view returns (uint reserveA, uint reserveB){... */\n    tag_56:\n        /* \"SwapLibrary.sol\":7026:7039  uint reserveA */\n      0x00\n        /* \"SwapLibrary.sol\":7041:7054  uint reserveB */\n      dup1\n        /* \"SwapLibrary.sol\":7062:7074  address pair */\n      0x00\n        /* \"SwapLibrary.sol\":7077:7108  pairFor(tokenA, tokenB, stable) */\n      tag_198\n        /* \"SwapLibrary.sol\":7085:7091  tokenA */\n      dup7\n        /* \"SwapLibrary.sol\":7093:7099  tokenB */\n      dup7\n        /* \"SwapLibrary.sol\":7101:7107  stable */\n      dup7\n        /* \"SwapLibrary.sol\":7077:7084  pairFor */\n      tag_27\n        /* \"SwapLibrary.sol\":7077:7108  pairFor(tokenA, tokenB, stable) */\n      jump\t// in\n    tag_198:\n        /* \"SwapLibrary.sol\":7062:7108  address pair = pairFor(tokenA, tokenB, stable) */\n      swap1\n      pop\n        /* \"SwapLibrary.sol\":7135:7136  0 */\n      0x00\n        /* \"SwapLibrary.sol\":7119:7137  pair == address(0) */\n      0xffffffffffffffffffffffffffffffffffffffff\n      and\n        /* \"SwapLibrary.sol\":7119:7123  pair */\n      dup2\n        /* \"SwapLibrary.sol\":7119:7137  pair == address(0) */\n      0xffffffffffffffffffffffffffffffffffffffff\n      and\n      sub\n        /* \"SwapLibrary.sol\":7115:7169  if (pair == address(0)) {... */\n      tag_199\n      jumpi\n        /* \"SwapLibrary.sol\":7156:7157  0 */\n      0x00\n        /* \"SwapLibrary.sol\":7159:7160  0 */\n      dup1\n        /* \"SwapLibrary.sol\":7148:7161  return (0, 0) */\n      swap3\n      pop\n      swap3\n      pop\n      pop\n      jump(tag_197)\n        /* \"SwapLibrary.sol\":7115:7169  if (pair == address(0)) {... */\n    tag_199:\n        /* \"SwapLibrary.sol\":7176:7190  uint decimals0 */\n      0x00\n        /* \"SwapLibrary.sol\":7192:7206  uint decimals1 */\n      dup1\n        /* \"SwapLibrary.sol\":7208:7221  uint reserve0 */\n      0x00\n        /* \"SwapLibrary.sol\":7223:7236  uint reserve1 */\n      dup1\n        /* \"SwapLibrary.sol\":7239:7249  address t0 */\n      0x00\n        /* \"SwapLibrary.sol\":7251:7261  address t1 */\n      dup1\n        /* \"SwapLibrary.sol\":7271:7275  pair */\n      dup7\n        /* \"SwapLibrary.sol\":7265:7285  IPair(pair).metadata */\n      0xffffffffffffffffffffffffffffffffffffffff\n      and\n      0x392f37e9\n        /* \"SwapLibrary.sol\":7265:7287  IPair(pair).metadata() */\n      mload(0x40)\n      dup2\n      0xffffffff\n      and\n      0xe0\n      shl\n      dup2\n      mstore\n      0x04\n      add\n      0xe0\n      mload(0x40)\n      dup1\n      dup4\n      sub\n      dup2\n      dup7\n      gas\n      staticcall\n      iszero\n      dup1\n      iszero\n      tag_201\n      jumpi\n      returndatasize\n      0x00\n      dup1\n      returndatacopy\n      revert(0x00, returndatasize)\n    tag_201:\n      pop\n      pop\n      pop\n      pop\n      mload(0x40)\n      returndatasize\n      not(0x1f)\n      0x1f\n      dup3\n      add\n      and\n      dup3\n      add\n      dup1\n      0x40\n      mstore\n      pop\n      dup2\n      add\n      swap1\n      tag_202\n      swap2\n      swap1\n      tag_89\n      jump\t// in\n    tag_202:\n        /* \"SwapLibrary.sol\":7175:7287  (uint decimals0, uint decimals1, uint reserve0, uint reserve1,, address t0, address t1) = IPair(pair).metadata() */\n      swap7\n      pop\n      swap7\n      pop\n      pop\n      swap6\n      pop\n      swap6\n      pop\n      swap6\n      pop\n      swap6\n      pop\n        /* \"SwapLibrary.sol\":7317:7319  t0 */\n      dup2\n        /* \"SwapLibrary.sol\":7307:7319  tokenA == t0 */\n      0xffffffffffffffffffffffffffffffffffffffff\n      and\n        /* \"SwapLibrary.sol\":7307:7313  tokenA */\n      dup13\n        /* \"SwapLibrary.sol\":7307:7319  tokenA == t0 */\n      0xffffffffffffffffffffffffffffffffffffffff\n      and\n      eq\n        /* \"SwapLibrary.sol\":7307:7341  tokenA == t0 ? reserve0 : reserve1 */\n      tag_203\n      jumpi\n        /* \"SwapLibrary.sol\":7333:7341  reserve1 */\n      dup3\n        /* \"SwapLibrary.sol\":7307:7341  tokenA == t0 ? reserve0 : reserve1 */\n      jump(tag_204)\n    tag_203:\n        /* \"SwapLibrary.sol\":7322:7330  reserve0 */\n      dup4\n        /* \"SwapLibrary.sol\":7307:7341  tokenA == t0 ? reserve0 : reserve1 */\n    tag_204:\n        /* \"SwapLibrary.sol\":7296:7341  reserveA = tokenA == t0 ? reserve0 : reserve1 */\n      swap9\n      pop\n        /* \"SwapLibrary.sol\":7369:7371  t1 */\n      dup1\n        /* \"SwapLibrary.sol\":7359:7371  tokenA == t1 */\n      0xffffffffffffffffffffffffffffffffffffffff\n      and\n        /* \"SwapLibrary.sol\":7359:7365  tokenA */\n      dup13\n        /* \"SwapLibrary.sol\":7359:7371  tokenA == t1 */\n      0xffffffffffffffffffffffffffffffffffffffff\n      and\n      eq\n        /* \"SwapLibrary.sol\":7359:7393  tokenA == t1 ? reserve0 : reserve1 */\n      tag_205\n      jumpi\n        /* \"SwapLibrary.sol\":7385:7393  reserve1 */\n      dup3\n        /* \"SwapLibrary.sol\":7359:7393  tokenA == t1 ? reserve0 : reserve1 */\n      jump(tag_206)\n    tag_205:\n        /* \"SwapLibrary.sol\":7374:7382  reserve0 */\n      dup4\n        /* \"SwapLibrary.sol\":7359:7393  tokenA == t1 ? reserve0 : reserve1 */\n    tag_206:\n        /* \"SwapLibrary.sol\":7348:7393  reserveB = tokenA == t1 ? reserve0 : reserve1 */\n      swap8\n      pop\n        /* \"SwapLibrary.sol\":7400:7414  uint decimalsA */\n      0x00\n        /* \"SwapLibrary.sol\":7427:7429  t0 */\n      dup3\n        /* \"SwapLibrary.sol\":7417:7429  tokenA == t0 */\n      0xffffffffffffffffffffffffffffffffffffffff\n      and\n        /* \"SwapLibrary.sol\":7417:7423  tokenA */\n      dup14\n        /* \"SwapLibrary.sol\":7417:7429  tokenA == t0 */\n      0xffffffffffffffffffffffffffffffffffffffff\n      and\n      eq\n        /* \"SwapLibrary.sol\":7417:7453  tokenA == t0 ? decimals0 : decimals1 */\n      tag_207\n      jumpi\n        /* \"SwapLibrary.sol\":7444:7453  decimals1 */\n      dup6\n        /* \"SwapLibrary.sol\":7417:7453  tokenA == t0 ? decimals0 : decimals1 */\n      jump(tag_208)\n    tag_207:\n        /* \"SwapLibrary.sol\":7432:7441  decimals0 */\n      dup7\n        /* \"SwapLibrary.sol\":7417:7453  tokenA == t0 ? decimals0 : decimals1 */\n    tag_208:\n        /* \"SwapLibrary.sol\":7400:7453  uint decimalsA = tokenA == t0 ? decimals0 : decimals1 */\n      swap1\n      pop\n        /* \"SwapLibrary.sol\":7460:7474  uint decimalsB */\n      0x00\n        /* \"SwapLibrary.sol\":7487:7489  t1 */\n      dup3\n        /* \"SwapLibrary.sol\":7477:7489  tokenA == t1 */\n      0xffffffffffffffffffffffffffffffffffffffff\n      and\n        /* \"SwapLibrary.sol\":7477:7483  tokenA */\n      dup15\n        /* \"SwapLibrary.sol\":7477:7489  tokenA == t1 */\n      0xffffffffffffffffffffffffffffffffffffffff\n      and\n      eq\n        /* \"SwapLibrary.sol\":7477:7513  tokenA == t1 ? decimals0 : decimals1 */\n      tag_209\n      jumpi\n        /* \"SwapLibrary.sol\":7504:7513  decimals1 */\n      dup7\n        /* \"SwapLibrary.sol\":7477:7513  tokenA == t1 ? decimals0 : decimals1 */\n      jump(tag_210)\n    tag_209:\n        /* \"SwapLibrary.sol\":7492:7501  decimals0 */\n      dup8\n        /* \"SwapLibrary.sol\":7477:7513  tokenA == t1 ? decimals0 : decimals1 */\n    tag_210:\n        /* \"SwapLibrary.sol\":7460:7513  uint decimalsB = tokenA == t1 ? decimals0 : decimals1 */\n      swap1\n      pop\n        /* \"SwapLibrary.sol\":7549:7558  decimalsA */\n      dup2\n        /* \"SwapLibrary.sol\":7542:7546  1e18 */\n      0x0de0b6b3a7640000\n        /* \"SwapLibrary.sol\":7531:7539  reserveA */\n      dup13\n        /* \"SwapLibrary.sol\":7531:7546  reserveA * 1e18 */\n      tag_211\n      swap2\n      swap1\n      tag_93\n      jump\t// in\n    tag_211:\n        /* \"SwapLibrary.sol\":7531:7558  reserveA * 1e18 / decimalsA */\n      tag_212\n      swap2\n      swap1\n      tag_95\n      jump\t// in\n    tag_212:\n        /* \"SwapLibrary.sol\":7520:7558  reserveA = reserveA * 1e18 / decimalsA */\n      swap11\n      pop\n        /* \"SwapLibrary.sol\":7594:7603  decimalsB */\n      dup1\n        /* \"SwapLibrary.sol\":7587:7591  1e18 */\n      0x0de0b6b3a7640000\n        /* \"SwapLibrary.sol\":7576:7584  reserveB */\n      dup12\n        /* \"SwapLibrary.sol\":7576:7591  reserveB * 1e18 */\n      tag_213\n      swap2\n      swap1\n      tag_93\n      jump\t// in\n    tag_213:\n        /* \"SwapLibrary.sol\":7576:7603  reserveB * 1e18 / decimalsB */\n      tag_214\n      swap2\n      swap1\n      tag_95\n      jump\t// in\n    tag_214:\n        /* \"SwapLibrary.sol\":7565:7603  reserveB = reserveB * 1e18 / decimalsB */\n      swap10\n      pop\n        /* \"SwapLibrary.sol\":7055:7609  {... */\n      pop\n      pop\n      pop\n      pop\n      pop\n      pop\n      pop\n      pop\n      pop\n        /* \"SwapLibrary.sol\":6927:7609  function getNormalizedReserves(address tokenA, address tokenB, bool stable) external view returns (uint reserveA, uint reserveB){... */\n    tag_197:\n      swap4\n      pop\n      swap4\n      swap2\n      pop\n      pop\n      jump\t// out\n        /* \"SwapLibrary.sol\":4507:4896  function getSample(address tokenIn, address tokenOut, bool stable) external view returns (uint) {... */\n    tag_60:\n        /* \"SwapLibrary.sol\":4597:4601  uint */\n      0x00\n        /* \"SwapLibrary.sol\":4611:4620  uint dec0 */\n      dup1\n        /* \"SwapLibrary.sol\":4622:4631  uint dec1 */\n      0x00\n        /* \"SwapLibrary.sol\":4633:4640  uint r0 */\n      dup1\n        /* \"SwapLibrary.sol\":4642:4649  uint r1 */\n      0x00\n        /* \"SwapLibrary.sol\":4651:4658  bool st */\n      dup1\n        /* \"SwapLibrary.sol\":4660:4670  address t0 */\n      0x00\n        /* \"SwapLibrary.sol\":4681:4687  router */\n      immutable(\"0x2d33c78d31145fca68253afe9b24c771b7d614064b9f8dc2c55b30419d3466f1\")\n        /* \"SwapLibrary.sol\":4681:4695  router.pairFor */\n      0xffffffffffffffffffffffffffffffffffffffff\n      and\n      0x4c1ee03e\n        /* \"SwapLibrary.sol\":4696:4703  tokenIn */\n      dup12\n        /* \"SwapLibrary.sol\":4705:4713  tokenOut */\n      dup12\n        /* \"SwapLibrary.sol\":4715:4721  stable */\n      dup12\n        /* \"SwapLibrary.sol\":4681:4722  router.pairFor(tokenIn, tokenOut, stable) */\n      mload(0x40)\n      dup5\n      0xffffffff\n      and\n      0xe0\n      shl\n      dup2\n      mstore\n      0x04\n      add\n      tag_216\n      swap4\n      swap3\n      swap2\n      swap1\n      tag_81\n      jump\t// in\n    tag_216:\n      0x20\n      mload(0x40)\n      dup1\n      dup4\n      sub\n      dup2\n      dup7\n      gas\n      staticcall\n      iszero\n      dup1\n      iszero\n      tag_218\n      jumpi\n      returndatasize\n      0x00\n      dup1\n      returndatacopy\n      revert(0x00, returndatasize)\n    tag_218:\n      pop\n      pop\n      pop\n      pop\n      mload(0x40)\n      returndatasize\n      not(0x1f)\n      0x1f\n      dup3\n      add\n      and\n      dup3\n      add\n      dup1\n      0x40\n      mstore\n      pop\n      dup2\n      add\n      swap1\n      tag_219\n      swap2\n      swap1\n      tag_85\n      jump\t// in\n    tag_219:\n        /* \"SwapLibrary.sol\":4675:4732  IPair(router.pairFor(tokenIn, tokenOut, stable)).metadata */\n      0xffffffffffffffffffffffffffffffffffffffff\n      and\n      0x392f37e9\n        /* \"SwapLibrary.sol\":4675:4734  IPair(router.pairFor(tokenIn, tokenOut, stable)).metadata() */\n      mload(0x40)\n      dup2\n      0xffffffff\n      and\n      0xe0\n      shl\n      dup2\n      mstore\n      0x04\n      add\n      0xe0\n      mload(0x40)\n      dup1\n      dup4\n      sub\n      dup2\n      dup7\n      gas\n      staticcall\n      iszero\n      dup1\n      iszero\n      tag_221\n      jumpi\n      returndatasize\n      0x00\n      dup1\n      returndatacopy\n      revert(0x00, returndatasize)\n    tag_221:\n      pop\n      pop\n      pop\n      pop\n      mload(0x40)\n      returndatasize\n      not(0x1f)\n      0x1f\n      dup3\n      add\n      and\n      dup3\n      add\n      dup1\n      0x40\n      mstore\n      pop\n      dup2\n      add\n      swap1\n      tag_222\n      swap2\n      swap1\n      tag_89\n      jump\t// in\n    tag_222:\n        /* \"SwapLibrary.sol\":4610:4734  (uint dec0, uint dec1, uint r0, uint r1, bool st, address t0,) = IPair(router.pairFor(tokenIn, tokenOut, stable)).metadata() */\n      pop\n      swap6\n      pop\n      swap6\n      pop\n      swap6\n      pop\n      swap6\n      pop\n      swap6\n      pop\n      swap6\n      pop\n        /* \"SwapLibrary.sol\":4741:4752  uint sample */\n      0x00\n        /* \"SwapLibrary.sol\":4766:4768  t0 */\n      dup2\n        /* \"SwapLibrary.sol\":4755:4768  tokenIn == t0 */\n      0xffffffffffffffffffffffffffffffffffffffff\n      and\n        /* \"SwapLibrary.sol\":4755:4762  tokenIn */\n      dup12\n        /* \"SwapLibrary.sol\":4755:4768  tokenIn == t0 */\n      0xffffffffffffffffffffffffffffffffffffffff\n      and\n      eq\n        /* \"SwapLibrary.sol\":4755:4802  tokenIn == t0 ? r0 * dec1 / r1 : r1 * dec0 / r0 */\n      tag_223\n      jumpi\n        /* \"SwapLibrary.sol\":4800:4802  r0 */\n      dup5\n        /* \"SwapLibrary.sol\":4793:4797  dec0 */\n      dup8\n        /* \"SwapLibrary.sol\":4788:4790  r1 */\n      dup6\n        /* \"SwapLibrary.sol\":4788:4797  r1 * dec0 */\n      tag_224\n      swap2\n      swap1\n      tag_93\n      jump\t// in\n    tag_224:\n        /* \"SwapLibrary.sol\":4788:4802  r1 * dec0 / r0 */\n      tag_225\n      swap2\n      swap1\n      tag_95\n      jump\t// in\n    tag_225:\n        /* \"SwapLibrary.sol\":4755:4802  tokenIn == t0 ? r0 * dec1 / r1 : r1 * dec0 / r0 */\n      jump(tag_226)\n    tag_223:\n        /* \"SwapLibrary.sol\":4783:4785  r1 */\n      dup4\n        /* \"SwapLibrary.sol\":4776:4780  dec1 */\n      dup7\n        /* \"SwapLibrary.sol\":4771:4773  r0 */\n      dup7\n        /* \"SwapLibrary.sol\":4771:4780  r0 * dec1 */\n      tag_227\n      swap2\n      swap1\n      tag_93\n      jump\t// in\n    tag_227:\n        /* \"SwapLibrary.sol\":4771:4785  r0 * dec1 / r1 */\n      tag_228\n      swap2\n      swap1\n      tag_95\n      jump\t// in\n    tag_228:\n        /* \"SwapLibrary.sol\":4755:4802  tokenIn == t0 ? r0 * dec1 / r1 : r1 * dec0 / r0 */\n    tag_226:\n        /* \"SwapLibrary.sol\":4741:4802  uint sample = tokenIn == t0 ? r0 * dec1 / r1 : r1 * dec0 / r0 */\n      swap1\n      pop\n        /* \"SwapLibrary.sol\":4884:4890  sample */\n      dup1\n        /* \"SwapLibrary.sol\":4877:4881  1e18 */\n      0x0de0b6b3a7640000\n        /* \"SwapLibrary.sol\":4816:4874  _getAmountOut(sample, tokenIn, r0, r1, t0, dec0, dec1, st) */\n      tag_229\n        /* \"SwapLibrary.sol\":4830:4836  sample */\n      dup4\n        /* \"SwapLibrary.sol\":4838:4845  tokenIn */\n      dup15\n        /* \"SwapLibrary.sol\":4847:4849  r0 */\n      dup10\n        /* \"SwapLibrary.sol\":4851:4853  r1 */\n      dup10\n        /* \"SwapLibrary.sol\":4855:4857  t0 */\n      dup9\n        /* \"SwapLibrary.sol\":4859:4863  dec0 */\n      dup15\n        /* \"SwapLibrary.sol\":4865:4869  dec1 */\n      dup15\n        /* \"SwapLibrary.sol\":4871:4873  st */\n      dup13\n        /* \"SwapLibrary.sol\":4816:4829  _getAmountOut */\n      tag_103\n        /* \"SwapLibrary.sol\":4816:4874  _getAmountOut(sample, tokenIn, r0, r1, t0, dec0, dec1, st) */\n      jump\t// in\n    tag_229:\n        /* \"SwapLibrary.sol\":4816:4881  _getAmountOut(sample, tokenIn, r0, r1, t0, dec0, dec1, st) * 1e18 */\n      tag_230\n      swap2\n      swap1\n      tag_93\n      jump\t// in\n    tag_230:\n        /* \"SwapLibrary.sol\":4816:4890  _getAmountOut(sample, tokenIn, r0, r1, t0, dec0, dec1, st) * 1e18 / sample */\n      tag_231\n      swap2\n      swap1\n      tag_95\n      jump\t// in\n    tag_231:\n        /* \"SwapLibrary.sol\":4809:4890  return _getAmountOut(sample, tokenIn, r0, r1, t0, dec0, dec1, st) * 1e18 / sample */\n      swap8\n      pop\n      pop\n      pop\n      pop\n      pop\n      pop\n      pop\n      pop\n        /* \"SwapLibrary.sol\":4507:4896  function getSample(address tokenIn, address tokenOut, bool stable) external view returns (uint) {... */\n      swap4\n      swap3\n      pop\n      pop\n      pop\n      jump\t// out\n        /* \"SwapLibrary.sol\":188:221  address  immutable public factory */\n    tag_64:\n      immutable(\"0x0bf130d09ff5f4b6139a92ba375974bc03314776406dd3b463c5d5893e064a66\")\n      dup2\n      jump\t// out\n        /* \"SwapLibrary.sol\":5249:5592  function getAmountOut(uint amountIn, address tokenIn, address tokenOut, bool stable) external view returns (uint) {... */\n    tag_68:\n        /* \"SwapLibrary.sol\":5357:5361  uint */\n      0x00\n        /* \"SwapLibrary.sol\":5371:5380  uint dec0 */\n      dup1\n        /* \"SwapLibrary.sol\":5382:5391  uint dec1 */\n      0x00\n        /* \"SwapLibrary.sol\":5393:5400  uint r0 */\n      dup1\n        /* \"SwapLibrary.sol\":5402:5409  uint r1 */\n      0x00\n        /* \"SwapLibrary.sol\":5411:5418  bool st */\n      dup1\n        /* \"SwapLibrary.sol\":5420:5430  address t0 */\n      0x00\n        /* \"SwapLibrary.sol\":5441:5447  router */\n      immutable(\"0x2d33c78d31145fca68253afe9b24c771b7d614064b9f8dc2c55b30419d3466f1\")\n        /* \"SwapLibrary.sol\":5441:5455  router.pairFor */\n      0xffffffffffffffffffffffffffffffffffffffff\n      and\n      0x4c1ee03e\n        /* \"SwapLibrary.sol\":5456:5463  tokenIn */\n      dup12\n        /* \"SwapLibrary.sol\":5465:5473  tokenOut */\n      dup12\n        /* \"SwapLibrary.sol\":5475:5481  stable */\n      dup12\n        /* \"SwapLibrary.sol\":5441:5482  router.pairFor(tokenIn, tokenOut, stable) */\n      mload(0x40)\n      dup5\n      0xffffffff\n      and\n      0xe0\n      shl\n      dup2\n      mstore\n      0x04\n      add\n      tag_233\n      swap4\n      swap3\n      swap2\n      swap1\n      tag_81\n      jump\t// in\n    tag_233:\n      0x20\n      mload(0x40)\n      dup1\n      dup4\n      sub\n      dup2\n      dup7\n      gas\n      staticcall\n      iszero\n      dup1\n      iszero\n      tag_235\n      jumpi\n      returndatasize\n      0x00\n      dup1\n      returndatacopy\n      revert(0x00, returndatasize)\n    tag_235:\n      pop\n      pop\n      pop\n      pop\n      mload(0x40)\n      returndatasize\n      not(0x1f)\n      0x1f\n      dup3\n      add\n      and\n      dup3\n      add\n      dup1\n      0x40\n      mstore\n      pop\n      dup2\n      add\n      swap1\n      tag_236\n      swap2\n      swap1\n      tag_85\n      jump\t// in\n    tag_236:\n        /* \"SwapLibrary.sol\":5435:5492  IPair(router.pairFor(tokenIn, tokenOut, stable)).metadata */\n      0xffffffffffffffffffffffffffffffffffffffff\n      and\n      0x392f37e9\n        /* \"SwapLibrary.sol\":5435:5494  IPair(router.pairFor(tokenIn, tokenOut, stable)).metadata() */\n      mload(0x40)\n      dup2\n      0xffffffff\n      and\n      0xe0\n      shl\n      dup2\n      mstore\n      0x04\n      add\n      0xe0\n      mload(0x40)\n      dup1\n      dup4\n      sub\n      dup2\n      dup7\n      gas\n      staticcall\n      iszero\n      dup1\n      iszero\n      tag_238\n      jumpi\n      returndatasize\n      0x00\n      dup1\n      returndatacopy\n      revert(0x00, returndatasize)\n    tag_238:\n      pop\n      pop\n      pop\n      pop\n      mload(0x40)\n      returndatasize\n      not(0x1f)\n      0x1f\n      dup3\n      add\n      and\n      dup3\n      add\n      dup1\n      0x40\n      mstore\n      pop\n      dup2\n      add\n      swap1\n      tag_239\n      swap2\n      swap1\n      tag_89\n      jump\t// in\n    tag_239:\n        /* \"SwapLibrary.sol\":5370:5494  (uint dec0, uint dec1, uint r0, uint r1, bool st, address t0,) = IPair(router.pairFor(tokenIn, tokenOut, stable)).metadata() */\n      pop\n      swap6\n      pop\n      swap6\n      pop\n      swap6\n      pop\n      swap6\n      pop\n      swap6\n      pop\n      swap6\n      pop\n        /* \"SwapLibrary.sol\":5578:5586  amountIn */\n      dup11\n        /* \"SwapLibrary.sol\":5571:5575  1e18 */\n      0x0de0b6b3a7640000\n        /* \"SwapLibrary.sol\":5508:5568  _getAmountOut(amountIn, tokenIn, r0, r1, t0, dec0, dec1, st) */\n      tag_240\n        /* \"SwapLibrary.sol\":5522:5530  amountIn */\n      dup14\n        /* \"SwapLibrary.sol\":5532:5539  tokenIn */\n      dup14\n        /* \"SwapLibrary.sol\":5541:5543  r0 */\n      dup9\n        /* \"SwapLibrary.sol\":5545:5547  r1 */\n      dup9\n        /* \"SwapLibrary.sol\":5549:5551  t0 */\n      dup8\n        /* \"SwapLibrary.sol\":5553:5557  dec0 */\n      dup14\n        /* \"SwapLibrary.sol\":5559:5563  dec1 */\n      dup14\n        /* \"SwapLibrary.sol\":5565:5567  st */\n      dup12\n        /* \"SwapLibrary.sol\":5508:5521  _getAmountOut */\n      tag_103\n        /* \"SwapLibrary.sol\":5508:5568  _getAmountOut(amountIn, tokenIn, r0, r1, t0, dec0, dec1, st) */\n      jump\t// in\n    tag_240:\n        /* \"SwapLibrary.sol\":5508:5575  _getAmountOut(amountIn, tokenIn, r0, r1, t0, dec0, dec1, st) * 1e18 */\n      tag_241\n      swap2\n      swap1\n      tag_93\n      jump\t// in\n    tag_241:\n        /* \"SwapLibrary.sol\":5508:5586  _getAmountOut(amountIn, tokenIn, r0, r1, t0, dec0, dec1, st) * 1e18 / amountIn */\n      tag_242\n      swap2\n      swap1\n      tag_95\n      jump\t// in\n    tag_242:\n        /* \"SwapLibrary.sol\":5501:5586  return _getAmountOut(amountIn, tokenIn, r0, r1, t0, dec0, dec1, st) * 1e18 / amountIn */\n      swap7\n      pop\n      pop\n      pop\n      pop\n      pop\n      pop\n      pop\n        /* \"SwapLibrary.sol\":5249:5592  function getAmountOut(uint amountIn, address tokenIn, address tokenOut, bool stable) external view returns (uint) {... */\n      swap5\n      swap4\n      pop\n      pop\n      pop\n      pop\n      jump\t// out\n        /* \"SwapLibrary.sol\":4052:4501  function getTradeDiff(uint amountIn, address tokenIn, address pair) external view returns (uint a, uint b) {... */\n    tag_73:\n        /* \"SwapLibrary.sol\":4143:4149  uint a */\n      0x00\n        /* \"SwapLibrary.sol\":4151:4157  uint b */\n      dup1\n        /* \"SwapLibrary.sol\":4167:4176  uint dec0 */\n      0x00\n        /* \"SwapLibrary.sol\":4178:4187  uint dec1 */\n      dup1\n        /* \"SwapLibrary.sol\":4189:4196  uint r0 */\n      0x00\n        /* \"SwapLibrary.sol\":4198:4205  uint r1 */\n      dup1\n        /* \"SwapLibrary.sol\":4207:4214  bool st */\n      0x00\n        /* \"SwapLibrary.sol\":4216:4226  address t0 */\n      dup1\n        /* \"SwapLibrary.sol\":4237:4241  pair */\n      dup9\n        /* \"SwapLibrary.sol\":4231:4251  IPair(pair).metadata */\n      0xffffffffffffffffffffffffffffffffffffffff\n      and\n      0x392f37e9\n        /* \"SwapLibrary.sol\":4231:4253  IPair(pair).metadata() */\n      mload(0x40)\n      dup2\n      0xffffffff\n      and\n      0xe0\n      shl\n      dup2\n      mstore\n      0x04\n      add\n      0xe0\n      mload(0x40)\n      dup1\n      dup4\n      sub\n      dup2\n      dup7\n      gas\n      staticcall\n      iszero\n      dup1\n      iszero\n      tag_245\n      jumpi\n      returndatasize\n      0x00\n      dup1\n      returndatacopy\n      revert(0x00, returndatasize)\n    tag_245:\n      pop\n      pop\n      pop\n      pop\n      mload(0x40)\n      returndatasize\n      not(0x1f)\n      0x1f\n      dup3\n      add\n      and\n      dup3\n      add\n      dup1\n      0x40\n      mstore\n      pop\n      dup2\n      add\n      swap1\n      tag_246\n      swap2\n      swap1\n      tag_89\n      jump\t// in\n    tag_246:\n        /* \"SwapLibrary.sol\":4166:4253  (uint dec0, uint dec1, uint r0, uint r1, bool st, address t0,) = IPair(pair).metadata() */\n      pop\n      swap6\n      pop\n      swap6\n      pop\n      swap6\n      pop\n      swap6\n      pop\n      swap6\n      pop\n      swap6\n      pop\n        /* \"SwapLibrary.sol\":4260:4271  uint sample */\n      0x00\n        /* \"SwapLibrary.sol\":4285:4287  t0 */\n      dup2\n        /* \"SwapLibrary.sol\":4274:4287  tokenIn == t0 */\n      0xffffffffffffffffffffffffffffffffffffffff\n      and\n        /* \"SwapLibrary.sol\":4274:4281  tokenIn */\n      dup12\n        /* \"SwapLibrary.sol\":4274:4287  tokenIn == t0 */\n      0xffffffffffffffffffffffffffffffffffffffff\n      and\n      eq\n        /* \"SwapLibrary.sol\":4274:4321  tokenIn == t0 ? r0 * dec1 / r1 : r1 * dec0 / r0 */\n      tag_247\n      jumpi\n        /* \"SwapLibrary.sol\":4319:4321  r0 */\n      dup5\n        /* \"SwapLibrary.sol\":4312:4316  dec0 */\n      dup8\n        /* \"SwapLibrary.sol\":4307:4309  r1 */\n      dup6\n        /* \"SwapLibrary.sol\":4307:4316  r1 * dec0 */\n      tag_248\n      swap2\n      swap1\n      tag_93\n      jump\t// in\n    tag_248:\n        /* \"SwapLibrary.sol\":4307:4321  r1 * dec0 / r0 */\n      tag_249\n      swap2\n      swap1\n      tag_95\n      jump\t// in\n    tag_249:\n        /* \"SwapLibrary.sol\":4274:4321  tokenIn == t0 ? r0 * dec1 / r1 : r1 * dec0 / r0 */\n      jump(tag_250)\n    tag_247:\n        /* \"SwapLibrary.sol\":4302:4304  r1 */\n      dup4\n        /* \"SwapLibrary.sol\":4295:4299  dec1 */\n      dup7\n        /* \"SwapLibrary.sol\":4290:4292  r0 */\n      dup7\n        /* \"SwapLibrary.sol\":4290:4299  r0 * dec1 */\n      tag_251\n      swap2\n      swap1\n      tag_93\n      jump\t// in\n    tag_251:\n        /* \"SwapLibrary.sol\":4290:4304  r0 * dec1 / r1 */\n      tag_252\n      swap2\n      swap1\n      tag_95\n      jump\t// in\n    tag_252:\n        /* \"SwapLibrary.sol\":4274:4321  tokenIn == t0 ? r0 * dec1 / r1 : r1 * dec0 / r0 */\n    tag_250:\n        /* \"SwapLibrary.sol\":4260:4321  uint sample = tokenIn == t0 ? r0 * dec1 / r1 : r1 * dec0 / r0 */\n      swap1\n      pop\n        /* \"SwapLibrary.sol\":4400:4406  sample */\n      dup1\n        /* \"SwapLibrary.sol\":4393:4397  1e18 */\n      0x0de0b6b3a7640000\n        /* \"SwapLibrary.sol\":4332:4390  _getAmountOut(sample, tokenIn, r0, r1, t0, dec0, dec1, st) */\n      tag_253\n        /* \"SwapLibrary.sol\":4346:4352  sample */\n      dup4\n        /* \"SwapLibrary.sol\":4354:4361  tokenIn */\n      dup15\n        /* \"SwapLibrary.sol\":4363:4365  r0 */\n      dup10\n        /* \"SwapLibrary.sol\":4367:4369  r1 */\n      dup10\n        /* \"SwapLibrary.sol\":4371:4373  t0 */\n      dup9\n        /* \"SwapLibrary.sol\":4375:4379  dec0 */\n      dup15\n        /* \"SwapLibrary.sol\":4381:4385  dec1 */\n      dup15\n        /* \"SwapLibrary.sol\":4387:4389  st */\n      dup13\n        /* \"SwapLibrary.sol\":4332:4345  _getAmountOut */\n      tag_103\n        /* \"SwapLibrary.sol\":4332:4390  _getAmountOut(sample, tokenIn, r0, r1, t0, dec0, dec1, st) */\n      jump\t// in\n    tag_253:\n        /* \"SwapLibrary.sol\":4332:4397  _getAmountOut(sample, tokenIn, r0, r1, t0, dec0, dec1, st) * 1e18 */\n      tag_254\n      swap2\n      swap1\n      tag_93\n      jump\t// in\n    tag_254:\n        /* \"SwapLibrary.sol\":4332:4406  _getAmountOut(sample, tokenIn, r0, r1, t0, dec0, dec1, st) * 1e18 / sample */\n      tag_255\n      swap2\n      swap1\n      tag_95\n      jump\t// in\n    tag_255:\n        /* \"SwapLibrary.sol\":4328:4406  a = _getAmountOut(sample, tokenIn, r0, r1, t0, dec0, dec1, st) * 1e18 / sample */\n      swap9\n      pop\n        /* \"SwapLibrary.sol\":4487:4495  amountIn */\n      dup12\n        /* \"SwapLibrary.sol\":4480:4484  1e18 */\n      0x0de0b6b3a7640000\n        /* \"SwapLibrary.sol\":4417:4477  _getAmountOut(amountIn, tokenIn, r0, r1, t0, dec0, dec1, st) */\n      tag_256\n        /* \"SwapLibrary.sol\":4431:4439  amountIn */\n      dup15\n        /* \"SwapLibrary.sol\":4441:4448  tokenIn */\n      dup15\n        /* \"SwapLibrary.sol\":4450:4452  r0 */\n      dup10\n        /* \"SwapLibrary.sol\":4454:4456  r1 */\n      dup10\n        /* \"SwapLibrary.sol\":4458:4460  t0 */\n      dup9\n        /* \"SwapLibrary.sol\":4462:4466  dec0 */\n      dup15\n        /* \"SwapLibrary.sol\":4468:4472  dec1 */\n      dup15\n        /* \"SwapLibrary.sol\":4474:4476  st */\n      dup13\n        /* \"SwapLibrary.sol\":4417:4430  _getAmountOut */\n      tag_103\n        /* \"SwapLibrary.sol\":4417:4477  _getAmountOut(amountIn, tokenIn, r0, r1, t0, dec0, dec1, st) */\n      jump\t// in\n    tag_256:\n        /* \"SwapLibrary.sol\":4417:4484  _getAmountOut(amountIn, tokenIn, r0, r1, t0, dec0, dec1, st) * 1e18 */\n      tag_257\n      swap2\n      swap1\n      tag_93\n      jump\t// in\n    tag_257:\n        /* \"SwapLibrary.sol\":4417:4495  _getAmountOut(amountIn, tokenIn, r0, r1, t0, dec0, dec1, st) * 1e18 / amountIn */\n      tag_258\n      swap2\n      swap1\n      tag_95\n      jump\t// in\n    tag_258:\n        /* \"SwapLibrary.sol\":4413:4495  b = _getAmountOut(amountIn, tokenIn, r0, r1, t0, dec0, dec1, st) * 1e18 / amountIn */\n      swap8\n      pop\n        /* \"SwapLibrary.sol\":4159:4501  {... */\n      pop\n      pop\n      pop\n      pop\n      pop\n      pop\n      pop\n        /* \"SwapLibrary.sol\":4052:4501  function getTradeDiff(uint amountIn, address tokenIn, address pair) external view returns (uint a, uint b) {... */\n      swap4\n      pop\n      swap4\n      swap2\n      pop\n      pop\n      jump\t// out\n        /* \"SwapLibrary.sol\":226:257  IRouter immutable public router */\n    tag_76:\n      immutable(\"0x2d33c78d31145fca68253afe9b24c771b7d614064b9f8dc2c55b30419d3466f1\")\n      dup2\n      jump\t// out\n        /* \"SwapLibrary.sol\":3649:4046  function _calcSample(address tokenIn, address t0, uint dec0, uint dec1) internal pure returns (uint){... */\n    tag_101:\n        /* \"SwapLibrary.sol\":3744:3748  uint */\n      0x00\n        /* \"SwapLibrary.sol\":3756:3776  uint tokenInDecimals */\n      dup1\n        /* \"SwapLibrary.sol\":3790:3792  t0 */\n      dup5\n        /* \"SwapLibrary.sol\":3779:3792  tokenIn == t0 */\n      0xffffffffffffffffffffffffffffffffffffffff\n      and\n        /* \"SwapLibrary.sol\":3779:3786  tokenIn */\n      dup7\n        /* \"SwapLibrary.sol\":3779:3792  tokenIn == t0 */\n      0xffffffffffffffffffffffffffffffffffffffff\n      and\n      eq\n        /* \"SwapLibrary.sol\":3779:3806  tokenIn == t0 ? dec0 : dec1 */\n      tag_260\n      jumpi\n        /* \"SwapLibrary.sol\":3802:3806  dec1 */\n      dup3\n        /* \"SwapLibrary.sol\":3779:3806  tokenIn == t0 ? dec0 : dec1 */\n      jump(tag_261)\n    tag_260:\n        /* \"SwapLibrary.sol\":3795:3799  dec0 */\n      dup4\n        /* \"SwapLibrary.sol\":3779:3806  tokenIn == t0 ? dec0 : dec1 */\n    tag_261:\n        /* \"SwapLibrary.sol\":3756:3806  uint tokenInDecimals = tokenIn == t0 ? dec0 : dec1 */\n      swap1\n      pop\n        /* \"SwapLibrary.sol\":3813:3834  uint tokenOutDecimals */\n      0x00\n        /* \"SwapLibrary.sol\":3848:3850  t0 */\n      dup6\n        /* \"SwapLibrary.sol\":3837:3850  tokenIn == t0 */\n      0xffffffffffffffffffffffffffffffffffffffff\n      and\n        /* \"SwapLibrary.sol\":3837:3844  tokenIn */\n      dup8\n        /* \"SwapLibrary.sol\":3837:3850  tokenIn == t0 */\n      0xffffffffffffffffffffffffffffffffffffffff\n      and\n      eq\n        /* \"SwapLibrary.sol\":3837:3864  tokenIn == t0 ? dec1 : dec0 */\n      tag_262\n      jumpi\n        /* \"SwapLibrary.sol\":3860:3864  dec0 */\n      dup5\n        /* \"SwapLibrary.sol\":3837:3864  tokenIn == t0 ? dec1 : dec0 */\n      jump(tag_263)\n    tag_262:\n        /* \"SwapLibrary.sol\":3853:3857  dec1 */\n      dup4\n        /* \"SwapLibrary.sol\":3837:3864  tokenIn == t0 ? dec1 : dec0 */\n    tag_263:\n        /* \"SwapLibrary.sol\":3813:3864  uint tokenOutDecimals = tokenIn == t0 ? dec1 : dec0 */\n      swap1\n      pop\n        /* \"SwapLibrary.sol\":4034:4040  10_000 */\n      0x2710\n        /* \"SwapLibrary.sol\":3884:4031  Math.max(... */\n      tag_264\n        /* \"SwapLibrary.sol\":3920:3936  tokenOutDecimals */\n      dup3\n        /* \"SwapLibrary.sol\":3902:3917  tokenInDecimals */\n      dup5\n        /* \"SwapLibrary.sol\":3902:3936  tokenInDecimals > tokenOutDecimals */\n      gt\n        /* \"SwapLibrary.sol\":3902:4020  tokenInDecimals > tokenOutDecimals ?... */\n      tag_265\n      jumpi\n        /* \"SwapLibrary.sol\":4005:4020  tokenInDecimals */\n      dup4\n        /* \"SwapLibrary.sol\":3986:4002  tokenOutDecimals */\n      dup4\n        /* \"SwapLibrary.sol\":3986:4020  tokenOutDecimals - tokenInDecimals */\n      tag_266\n      swap2\n      swap1\n      tag_267\n      jump\t// in\n    tag_266:\n        /* \"SwapLibrary.sol\":3902:4020  tokenInDecimals > tokenOutDecimals ?... */\n      jump(tag_268)\n    tag_265:\n        /* \"SwapLibrary.sol\":3962:3978  tokenOutDecimals */\n      dup3\n        /* \"SwapLibrary.sol\":3944:3959  tokenInDecimals */\n      dup5\n        /* \"SwapLibrary.sol\":3944:3978  tokenInDecimals - tokenOutDecimals */\n      tag_269\n      swap2\n      swap1\n      tag_267\n      jump\t// in\n    tag_269:\n        /* \"SwapLibrary.sol\":3902:4020  tokenInDecimals > tokenOutDecimals ?... */\n    tag_268:\n        /* \"SwapLibrary.sol\":4029:4030  1 */\n      0x01\n        /* \"SwapLibrary.sol\":3884:3892  Math.max */\n      tag_270\n        /* \"SwapLibrary.sol\":3884:4031  Math.max(... */\n      jump\t// in\n    tag_264:\n        /* \"SwapLibrary.sol\":3878:3880  10 */\n      0x0a\n        /* \"SwapLibrary.sol\":3878:4031  10 ** Math.max(... */\n      tag_271\n      swap2\n      swap1\n      tag_272\n      jump\t// in\n    tag_271:\n        /* \"SwapLibrary.sol\":3878:4040  10 ** Math.max(... */\n      tag_273\n      swap2\n      swap1\n      tag_93\n      jump\t// in\n    tag_273:\n        /* \"SwapLibrary.sol\":3871:4040  return 10 ** Math.max(... */\n      swap3\n      pop\n      pop\n      pop\n        /* \"SwapLibrary.sol\":3649:4046  function _calcSample(address tokenIn, address t0, uint dec0, uint dec1) internal pure returns (uint){... */\n      swap5\n      swap4\n      pop\n      pop\n      pop\n      pop\n      jump\t// out\n        /* \"SwapLibrary.sol\":5598:6506  function _getAmountOut(uint amountIn, address tokenIn, uint _reserve0, uint _reserve1, address token0, uint decimals0, uint decimals1, bool stable) internal pure returns (uint) {... */\n    tag_103:\n        /* \"SwapLibrary.sol\":5769:5773  uint */\n      0x00\n        /* \"SwapLibrary.sol\":5786:5792  stable */\n      dup2\n        /* \"SwapLibrary.sol\":5782:6501  if (stable) {... */\n      iszero\n      tag_275\n      jumpi\n        /* \"SwapLibrary.sol\":5803:5810  uint xy */\n      0x00\n        /* \"SwapLibrary.sol\":5813:5867  _k(_reserve0, _reserve1, stable, decimals0, decimals1) */\n      tag_276\n        /* \"SwapLibrary.sol\":5816:5825  _reserve0 */\n      dup9\n        /* \"SwapLibrary.sol\":5827:5836  _reserve1 */\n      dup9\n        /* \"SwapLibrary.sol\":5838:5844  stable */\n      dup6\n        /* \"SwapLibrary.sol\":5846:5855  decimals0 */\n      dup9\n        /* \"SwapLibrary.sol\":5857:5866  decimals1 */\n      dup9\n        /* \"SwapLibrary.sol\":5813:5815  _k */\n      tag_277\n        /* \"SwapLibrary.sol\":5813:5867  _k(_reserve0, _reserve1, stable, decimals0, decimals1) */\n      jump\t// in\n    tag_276:\n        /* \"SwapLibrary.sol\":5803:5867  uint xy = _k(_reserve0, _reserve1, stable, decimals0, decimals1) */\n      swap1\n      pop\n        /* \"SwapLibrary.sol\":5907:5916  decimals0 */\n      dup5\n        /* \"SwapLibrary.sol\":5900:5904  1e18 */\n      0x0de0b6b3a7640000\n        /* \"SwapLibrary.sol\":5888:5897  _reserve0 */\n      dup10\n        /* \"SwapLibrary.sol\":5888:5904  _reserve0 * 1e18 */\n      tag_278\n      swap2\n      swap1\n      tag_93\n      jump\t// in\n    tag_278:\n        /* \"SwapLibrary.sol\":5888:5916  _reserve0 * 1e18 / decimals0 */\n      tag_279\n      swap2\n      swap1\n      tag_95\n      jump\t// in\n    tag_279:\n        /* \"SwapLibrary.sol\":5876:5916  _reserve0 = _reserve0 * 1e18 / decimals0 */\n      swap8\n      pop\n        /* \"SwapLibrary.sol\":5956:5965  decimals1 */\n      dup4\n        /* \"SwapLibrary.sol\":5949:5953  1e18 */\n      0x0de0b6b3a7640000\n        /* \"SwapLibrary.sol\":5937:5946  _reserve1 */\n      dup9\n        /* \"SwapLibrary.sol\":5937:5953  _reserve1 * 1e18 */\n      tag_280\n      swap2\n      swap1\n      tag_93\n      jump\t// in\n    tag_280:\n        /* \"SwapLibrary.sol\":5937:5965  _reserve1 * 1e18 / decimals1 */\n      tag_281\n      swap2\n      swap1\n      tag_95\n      jump\t// in\n    tag_281:\n        /* \"SwapLibrary.sol\":5925:5965  _reserve1 = _reserve1 * 1e18 / decimals1 */\n      swap7\n      pop\n        /* \"SwapLibrary.sol\":5975:5988  uint reserveA */\n      0x00\n        /* \"SwapLibrary.sol\":5990:6003  uint reserveB */\n      dup1\n        /* \"SwapLibrary.sol\":6018:6024  token0 */\n      dup8\n        /* \"SwapLibrary.sol\":6007:6024  tokenIn == token0 */\n      0xffffffffffffffffffffffffffffffffffffffff\n      and\n        /* \"SwapLibrary.sol\":6007:6014  tokenIn */\n      dup12\n        /* \"SwapLibrary.sol\":6007:6024  tokenIn == token0 */\n      0xffffffffffffffffffffffffffffffffffffffff\n      and\n      eq\n        /* \"SwapLibrary.sol\":6007:6074  tokenIn == token0 ? (_reserve0, _reserve1) : (_reserve1, _reserve0) */\n      tag_282\n      jumpi\n        /* \"SwapLibrary.sol\":6053:6062  _reserve1 */\n      dup9\n        /* \"SwapLibrary.sol\":6064:6073  _reserve0 */\n      dup11\n        /* \"SwapLibrary.sol\":6007:6074  tokenIn == token0 ? (_reserve0, _reserve1) : (_reserve1, _reserve0) */\n      jump(tag_283)\n    tag_282:\n        /* \"SwapLibrary.sol\":6028:6037  _reserve0 */\n      dup10\n        /* \"SwapLibrary.sol\":6039:6048  _reserve1 */\n      dup10\n        /* \"SwapLibrary.sol\":6007:6074  tokenIn == token0 ? (_reserve0, _reserve1) : (_reserve1, _reserve0) */\n    tag_283:\n        /* \"SwapLibrary.sol\":5974:6074  (uint reserveA, uint reserveB) = tokenIn == token0 ? (_reserve0, _reserve1) : (_reserve1, _reserve0) */\n      swap2\n      pop\n      swap2\n      pop\n        /* \"SwapLibrary.sol\":6105:6111  token0 */\n      dup8\n        /* \"SwapLibrary.sol\":6094:6111  tokenIn == token0 */\n      0xffffffffffffffffffffffffffffffffffffffff\n      and\n        /* \"SwapLibrary.sol\":6094:6101  tokenIn */\n      dup12\n        /* \"SwapLibrary.sol\":6094:6111  tokenIn == token0 */\n      0xffffffffffffffffffffffffffffffffffffffff\n      and\n      eq\n        /* \"SwapLibrary.sol\":6094:6171  tokenIn == token0 ? amountIn * 1e18 / decimals0 : amountIn * 1e18 / decimals1 */\n      tag_284\n      jumpi\n        /* \"SwapLibrary.sol\":6162:6171  decimals1 */\n      dup6\n        /* \"SwapLibrary.sol\":6155:6159  1e18 */\n      0x0de0b6b3a7640000\n        /* \"SwapLibrary.sol\":6144:6152  amountIn */\n      dup14\n        /* \"SwapLibrary.sol\":6144:6159  amountIn * 1e18 */\n      tag_285\n      swap2\n      swap1\n      tag_93\n      jump\t// in\n    tag_285:\n        /* \"SwapLibrary.sol\":6144:6171  amountIn * 1e18 / decimals1 */\n      tag_286\n      swap2\n      swap1\n      tag_95\n      jump\t// in\n    tag_286:\n        /* \"SwapLibrary.sol\":6094:6171  tokenIn == token0 ? amountIn * 1e18 / decimals0 : amountIn * 1e18 / decimals1 */\n      jump(tag_287)\n    tag_284:\n        /* \"SwapLibrary.sol\":6132:6141  decimals0 */\n      dup7\n        /* \"SwapLibrary.sol\":6125:6129  1e18 */\n      0x0de0b6b3a7640000\n        /* \"SwapLibrary.sol\":6114:6122  amountIn */\n      dup14\n        /* \"SwapLibrary.sol\":6114:6129  amountIn * 1e18 */\n      tag_288\n      swap2\n      swap1\n      tag_93\n      jump\t// in\n    tag_288:\n        /* \"SwapLibrary.sol\":6114:6141  amountIn * 1e18 / decimals0 */\n      tag_289\n      swap2\n      swap1\n      tag_95\n      jump\t// in\n    tag_289:\n        /* \"SwapLibrary.sol\":6094:6171  tokenIn == token0 ? amountIn * 1e18 / decimals0 : amountIn * 1e18 / decimals1 */\n    tag_287:\n        /* \"SwapLibrary.sol\":6083:6171  amountIn = tokenIn == token0 ? amountIn * 1e18 / decimals0 : amountIn * 1e18 / decimals1 */\n      swap12\n      pop\n        /* \"SwapLibrary.sol\":6180:6186  uint y */\n      0x00\n        /* \"SwapLibrary.sol\":6200:6241  _get_y(amountIn + reserveA, xy, reserveB) */\n      tag_290\n        /* \"SwapLibrary.sol\":6218:6226  reserveA */\n      dup4\n        /* \"SwapLibrary.sol\":6207:6215  amountIn */\n      dup15\n        /* \"SwapLibrary.sol\":6207:6226  amountIn + reserveA */\n      tag_291\n      swap2\n      swap1\n      tag_292\n      jump\t// in\n    tag_291:\n        /* \"SwapLibrary.sol\":6228:6230  xy */\n      dup6\n        /* \"SwapLibrary.sol\":6232:6240  reserveB */\n      dup5\n        /* \"SwapLibrary.sol\":6200:6206  _get_y */\n      tag_293\n        /* \"SwapLibrary.sol\":6200:6241  _get_y(amountIn + reserveA, xy, reserveB) */\n      jump\t// in\n    tag_290:\n        /* \"SwapLibrary.sol\":6189:6197  reserveB */\n      dup3\n        /* \"SwapLibrary.sol\":6189:6241  reserveB - _get_y(amountIn + reserveA, xy, reserveB) */\n      tag_294\n      swap2\n      swap1\n      tag_267\n      jump\t// in\n    tag_294:\n        /* \"SwapLibrary.sol\":6180:6241  uint y = reserveB - _get_y(amountIn + reserveA, xy, reserveB) */\n      swap1\n      pop\n        /* \"SwapLibrary.sol\":6307:6311  1e18 */\n      0x0de0b6b3a7640000\n        /* \"SwapLibrary.sol\":6273:6279  token0 */\n      dup10\n        /* \"SwapLibrary.sol\":6262:6279  tokenIn == token0 */\n      0xffffffffffffffffffffffffffffffffffffffff\n      and\n        /* \"SwapLibrary.sol\":6262:6269  tokenIn */\n      dup14\n        /* \"SwapLibrary.sol\":6262:6279  tokenIn == token0 */\n      0xffffffffffffffffffffffffffffffffffffffff\n      and\n      eq\n        /* \"SwapLibrary.sol\":6262:6303  tokenIn == token0 ? decimals1 : decimals0 */\n      tag_295\n      jumpi\n        /* \"SwapLibrary.sol\":6294:6303  decimals0 */\n      dup9\n        /* \"SwapLibrary.sol\":6262:6303  tokenIn == token0 ? decimals1 : decimals0 */\n      jump(tag_296)\n    tag_295:\n        /* \"SwapLibrary.sol\":6282:6291  decimals1 */\n      dup8\n        /* \"SwapLibrary.sol\":6262:6303  tokenIn == token0 ? decimals1 : decimals0 */\n    tag_296:\n        /* \"SwapLibrary.sol\":6257:6258  y */\n      dup3\n        /* \"SwapLibrary.sol\":6257:6304  y * (tokenIn == token0 ? decimals1 : decimals0) */\n      tag_297\n      swap2\n      swap1\n      tag_93\n      jump\t// in\n    tag_297:\n        /* \"SwapLibrary.sol\":6257:6311  y * (tokenIn == token0 ? decimals1 : decimals0) / 1e18 */\n      tag_298\n      swap2\n      swap1\n      tag_95\n      jump\t// in\n    tag_298:\n        /* \"SwapLibrary.sol\":6250:6311  return y * (tokenIn == token0 ? decimals1 : decimals0) / 1e18 */\n      swap5\n      pop\n      pop\n      pop\n      pop\n      pop\n      jump(tag_274)\n        /* \"SwapLibrary.sol\":5782:6501  if (stable) {... */\n    tag_275:\n        /* \"SwapLibrary.sol\":6335:6348  uint reserveA */\n      0x00\n        /* \"SwapLibrary.sol\":6350:6363  uint reserveB */\n      dup1\n        /* \"SwapLibrary.sol\":6378:6384  token0 */\n      dup7\n        /* \"SwapLibrary.sol\":6367:6384  tokenIn == token0 */\n      0xffffffffffffffffffffffffffffffffffffffff\n      and\n        /* \"SwapLibrary.sol\":6367:6374  tokenIn */\n      dup11\n        /* \"SwapLibrary.sol\":6367:6384  tokenIn == token0 */\n      0xffffffffffffffffffffffffffffffffffffffff\n      and\n      eq\n        /* \"SwapLibrary.sol\":6367:6434  tokenIn == token0 ? (_reserve0, _reserve1) : (_reserve1, _reserve0) */\n      tag_300\n      jumpi\n        /* \"SwapLibrary.sol\":6413:6422  _reserve1 */\n      dup8\n        /* \"SwapLibrary.sol\":6424:6433  _reserve0 */\n      dup10\n        /* \"SwapLibrary.sol\":6367:6434  tokenIn == token0 ? (_reserve0, _reserve1) : (_reserve1, _reserve0) */\n      jump(tag_301)\n    tag_300:\n        /* \"SwapLibrary.sol\":6388:6397  _reserve0 */\n      dup9\n        /* \"SwapLibrary.sol\":6399:6408  _reserve1 */\n      dup9\n        /* \"SwapLibrary.sol\":6367:6434  tokenIn == token0 ? (_reserve0, _reserve1) : (_reserve1, _reserve0) */\n    tag_301:\n        /* \"SwapLibrary.sol\":6334:6434  (uint reserveA, uint reserveB) = tokenIn == token0 ? (_reserve0, _reserve1) : (_reserve1, _reserve0) */\n      swap2\n      pop\n      swap2\n      pop\n        /* \"SwapLibrary.sol\":6484:6492  amountIn */\n      dup11\n        /* \"SwapLibrary.sol\":6473:6481  reserveA */\n      dup3\n        /* \"SwapLibrary.sol\":6473:6492  reserveA + amountIn */\n      tag_302\n      swap2\n      swap1\n      tag_292\n      jump\t// in\n    tag_302:\n        /* \"SwapLibrary.sol\":6461:6469  reserveB */\n      dup2\n        /* \"SwapLibrary.sol\":6450:6458  amountIn */\n      dup13\n        /* \"SwapLibrary.sol\":6450:6469  amountIn * reserveB */\n      tag_303\n      swap2\n      swap1\n      tag_93\n      jump\t// in\n    tag_303:\n        /* \"SwapLibrary.sol\":6450:6493  amountIn * reserveB / (reserveA + amountIn) */\n      tag_304\n      swap2\n      swap1\n      tag_95\n      jump\t// in\n    tag_304:\n        /* \"SwapLibrary.sol\":6443:6493  return amountIn * reserveB / (reserveA + amountIn) */\n      swap3\n      pop\n      pop\n      pop\n        /* \"SwapLibrary.sol\":5598:6506  function _getAmountOut(uint amountIn, address tokenIn, uint _reserve0, uint _reserve1, address token0, uint decimals0, uint decimals1, bool stable) internal pure returns (uint) {... */\n    tag_274:\n      swap9\n      swap8\n      pop\n      pop\n      pop\n      pop\n      pop\n      pop\n      pop\n      pop\n      jump\t// out\n        /* \"Math.sol\":82:174  function max(uint a, uint b) internal pure returns (uint) {... */\n    tag_270:\n        /* \"Math.sol\":134:138  uint */\n      0x00\n        /* \"Math.sol\":159:160  b */\n      dup2\n        /* \"Math.sol\":154:155  a */\n      dup4\n        /* \"Math.sol\":154:160  a >= b */\n      lt\n      iszero\n        /* \"Math.sol\":154:168  a >= b ? a : b */\n      tag_306\n      jumpi\n        /* \"Math.sol\":167:168  b */\n      dup2\n        /* \"Math.sol\":154:168  a >= b ? a : b */\n      jump(tag_307)\n    tag_306:\n        /* \"Math.sol\":163:164  a */\n      dup3\n        /* \"Math.sol\":154:168  a >= b ? a : b */\n    tag_307:\n        /* \"Math.sol\":147:168  return a >= b ? a : b */\n      swap1\n      pop\n        /* \"Math.sol\":82:174  function max(uint a, uint b) internal pure returns (uint) {... */\n      swap3\n      swap2\n      pop\n      pop\n      jump\t// out\n        /* \"SwapLibrary.sol\":6512:6921  function _k(uint x, uint y, bool stable, uint decimals0, uint decimals1) internal pure returns (uint) {... */\n    tag_277:\n        /* \"SwapLibrary.sol\":6608:6612  uint */\n      0x00\n        /* \"SwapLibrary.sol\":6625:6631  stable */\n      dup4\n        /* \"SwapLibrary.sol\":6621:6916  if (stable) {... */\n      iszero\n      tag_309\n      jumpi\n        /* \"SwapLibrary.sol\":6642:6649  uint _x */\n      0x00\n        /* \"SwapLibrary.sol\":6663:6672  decimals0 */\n      dup4\n        /* \"SwapLibrary.sol\":6656:6660  1e18 */\n      0x0de0b6b3a7640000\n        /* \"SwapLibrary.sol\":6652:6653  x */\n      dup9\n        /* \"SwapLibrary.sol\":6652:6660  x * 1e18 */\n      tag_310\n      swap2\n      swap1\n      tag_93\n      jump\t// in\n    tag_310:\n        /* \"SwapLibrary.sol\":6652:6672  x * 1e18 / decimals0 */\n      tag_311\n      swap2\n      swap1\n      tag_95\n      jump\t// in\n    tag_311:\n        /* \"SwapLibrary.sol\":6642:6672  uint _x = x * 1e18 / decimals0 */\n      swap1\n      pop\n        /* \"SwapLibrary.sol\":6681:6688  uint _y */\n      0x00\n        /* \"SwapLibrary.sol\":6702:6711  decimals1 */\n      dup4\n        /* \"SwapLibrary.sol\":6695:6699  1e18 */\n      0x0de0b6b3a7640000\n        /* \"SwapLibrary.sol\":6691:6692  y */\n      dup9\n        /* \"SwapLibrary.sol\":6691:6699  y * 1e18 */\n      tag_312\n      swap2\n      swap1\n      tag_93\n      jump\t// in\n    tag_312:\n        /* \"SwapLibrary.sol\":6691:6711  y * 1e18 / decimals1 */\n      tag_313\n      swap2\n      swap1\n      tag_95\n      jump\t// in\n    tag_313:\n        /* \"SwapLibrary.sol\":6681:6711  uint _y = y * 1e18 / decimals1 */\n      swap1\n      pop\n        /* \"SwapLibrary.sol\":6720:6727  uint _a */\n      0x00\n        /* \"SwapLibrary.sol\":6742:6746  1e18 */\n      0x0de0b6b3a7640000\n        /* \"SwapLibrary.sol\":6736:6738  _y */\n      dup3\n        /* \"SwapLibrary.sol\":6731:6733  _x */\n      dup5\n        /* \"SwapLibrary.sol\":6731:6738  _x * _y */\n      tag_314\n      swap2\n      swap1\n      tag_93\n      jump\t// in\n    tag_314:\n        /* \"SwapLibrary.sol\":6730:6746  (_x * _y) / 1e18 */\n      tag_315\n      swap2\n      swap1\n      tag_95\n      jump\t// in\n    tag_315:\n        /* \"SwapLibrary.sol\":6720:6746  uint _a = (_x * _y) / 1e18 */\n      swap1\n      pop\n        /* \"SwapLibrary.sol\":6755:6762  uint _b */\n      0x00\n        /* \"SwapLibrary.sol\":6797:6801  1e18 */\n      0x0de0b6b3a7640000\n        /* \"SwapLibrary.sol\":6791:6793  _y */\n      dup4\n        /* \"SwapLibrary.sol\":6786:6788  _y */\n      dup5\n        /* \"SwapLibrary.sol\":6786:6793  _y * _y */\n      tag_316\n      swap2\n      swap1\n      tag_93\n      jump\t// in\n    tag_316:\n        /* \"SwapLibrary.sol\":6785:6801  (_y * _y) / 1e18 */\n      tag_317\n      swap2\n      swap1\n      tag_95\n      jump\t// in\n    tag_317:\n        /* \"SwapLibrary.sol\":6778:6782  1e18 */\n      0x0de0b6b3a7640000\n        /* \"SwapLibrary.sol\":6772:6774  _x */\n      dup6\n        /* \"SwapLibrary.sol\":6767:6769  _x */\n      dup7\n        /* \"SwapLibrary.sol\":6767:6774  _x * _x */\n      tag_318\n      swap2\n      swap1\n      tag_93\n      jump\t// in\n    tag_318:\n        /* \"SwapLibrary.sol\":6766:6782  (_x * _x) / 1e18 */\n      tag_319\n      swap2\n      swap1\n      tag_95\n      jump\t// in\n    tag_319:\n        /* \"SwapLibrary.sol\":6766:6801  (_x * _x) / 1e18 + (_y * _y) / 1e18 */\n      tag_320\n      swap2\n      swap1\n      tag_292\n      jump\t// in\n    tag_320:\n        /* \"SwapLibrary.sol\":6755:6802  uint _b = ((_x * _x) / 1e18 + (_y * _y) / 1e18) */\n      swap1\n      pop\n        /* \"SwapLibrary.sol\":6828:6832  1e18 */\n      0x0de0b6b3a7640000\n        /* \"SwapLibrary.sol\":6823:6825  _b */\n      dup2\n        /* \"SwapLibrary.sol\":6818:6820  _a */\n      dup4\n        /* \"SwapLibrary.sol\":6818:6825  _a * _b */\n      tag_321\n      swap2\n      swap1\n      tag_93\n      jump\t// in\n    tag_321:\n        /* \"SwapLibrary.sol\":6818:6832  _a * _b / 1e18 */\n      tag_322\n      swap2\n      swap1\n      tag_95\n      jump\t// in\n    tag_322:\n        /* \"SwapLibrary.sol\":6811:6832  return _a * _b / 1e18 */\n      swap5\n      pop\n      pop\n      pop\n      pop\n      pop\n      jump(tag_308)\n        /* \"SwapLibrary.sol\":6621:6916  if (stable) {... */\n    tag_309:\n        /* \"SwapLibrary.sol\":6889:6890  y */\n      dup5\n        /* \"SwapLibrary.sol\":6885:6886  x */\n      dup7\n        /* \"SwapLibrary.sol\":6885:6890  x * y */\n      tag_324\n      swap2\n      swap1\n      tag_93\n      jump\t// in\n    tag_324:\n        /* \"SwapLibrary.sol\":6878:6890  return x * y */\n      swap1\n      pop\n        /* \"SwapLibrary.sol\":6512:6921  function _k(uint x, uint y, bool stable, uint decimals0, uint decimals1) internal pure returns (uint) {... */\n    tag_308:\n      swap6\n      swap5\n      pop\n      pop\n      pop\n      pop\n      pop\n      jump\t// out\n        /* \"SwapLibrary.sol\":796:1346  function _get_y(uint x0, uint xy, uint y) internal pure returns (uint) {... */\n    tag_293:\n        /* \"SwapLibrary.sol\":861:865  uint */\n      0x00\n        /* \"SwapLibrary.sol\":879:885  uint i */\n      dup1\n        /* \"SwapLibrary.sol\":888:889  0 */\n      0x00\n        /* \"SwapLibrary.sol\":879:889  uint i = 0 */\n      swap1\n      pop\n        /* \"SwapLibrary.sol\":874:1326  for (uint i = 0; i < 255; i++) {... */\n    tag_326:\n        /* \"SwapLibrary.sol\":895:898  255 */\n      0xff\n        /* \"SwapLibrary.sol\":891:892  i */\n      dup2\n        /* \"SwapLibrary.sol\":891:898  i < 255 */\n      lt\n        /* \"SwapLibrary.sol\":874:1326  for (uint i = 0; i < 255; i++) {... */\n      iszero\n      tag_327\n      jumpi\n        /* \"SwapLibrary.sol\":914:925  uint y_prev */\n      0x00\n        /* \"SwapLibrary.sol\":928:929  y */\n      dup4\n        /* \"SwapLibrary.sol\":914:929  uint y_prev = y */\n      swap1\n      pop\n        /* \"SwapLibrary.sol\":938:944  uint k */\n      0x00\n        /* \"SwapLibrary.sol\":947:956  _f(x0, y) */\n      tag_329\n        /* \"SwapLibrary.sol\":950:952  x0 */\n      dup8\n        /* \"SwapLibrary.sol\":954:955  y */\n      dup7\n        /* \"SwapLibrary.sol\":947:949  _f */\n      tag_330\n        /* \"SwapLibrary.sol\":947:956  _f(x0, y) */\n      jump\t// in\n    tag_329:\n        /* \"SwapLibrary.sol\":938:956  uint k = _f(x0, y) */\n      swap1\n      pop\n        /* \"SwapLibrary.sol\":973:975  xy */\n      dup6\n        /* \"SwapLibrary.sol\":969:970  k */\n      dup2\n        /* \"SwapLibrary.sol\":969:975  k < xy */\n      lt\n        /* \"SwapLibrary.sol\":965:1141  if (k < xy) {... */\n      iszero\n      tag_331\n      jumpi\n        /* \"SwapLibrary.sol\":988:995  uint dy */\n      0x00\n        /* \"SwapLibrary.sol\":1016:1025  _d(x0, y) */\n      tag_332\n        /* \"SwapLibrary.sol\":1019:1021  x0 */\n      dup9\n        /* \"SwapLibrary.sol\":1023:1024  y */\n      dup8\n        /* \"SwapLibrary.sol\":1016:1018  _d */\n      tag_333\n        /* \"SwapLibrary.sol\":1016:1025  _d(x0, y) */\n      jump\t// in\n    tag_332:\n        /* \"SwapLibrary.sol\":1009:1013  1e18 */\n      0x0de0b6b3a7640000\n        /* \"SwapLibrary.sol\":1004:1005  k */\n      dup4\n        /* \"SwapLibrary.sol\":999:1001  xy */\n      dup10\n        /* \"SwapLibrary.sol\":999:1005  xy - k */\n      tag_334\n      swap2\n      swap1\n      tag_267\n      jump\t// in\n    tag_334:\n        /* \"SwapLibrary.sol\":998:1013  (xy - k) * 1e18 */\n      tag_335\n      swap2\n      swap1\n      tag_93\n      jump\t// in\n    tag_335:\n        /* \"SwapLibrary.sol\":998:1025  (xy - k) * 1e18 / _d(x0, y) */\n      tag_336\n      swap2\n      swap1\n      tag_95\n      jump\t// in\n    tag_336:\n        /* \"SwapLibrary.sol\":988:1025  uint dy = (xy - k) * 1e18 / _d(x0, y) */\n      swap1\n      pop\n        /* \"SwapLibrary.sol\":1044:1046  dy */\n      dup1\n        /* \"SwapLibrary.sol\":1040:1041  y */\n      dup7\n        /* \"SwapLibrary.sol\":1040:1046  y + dy */\n      tag_337\n      swap2\n      swap1\n      tag_292\n      jump\t// in\n    tag_337:\n        /* \"SwapLibrary.sol\":1036:1046  y = y + dy */\n      swap6\n      pop\n        /* \"SwapLibrary.sol\":977:1056  {... */\n      pop\n        /* \"SwapLibrary.sol\":965:1141  if (k < xy) {... */\n      jump(tag_338)\n    tag_331:\n        /* \"SwapLibrary.sol\":1073:1080  uint dy */\n      0x00\n        /* \"SwapLibrary.sol\":1101:1110  _d(x0, y) */\n      tag_339\n        /* \"SwapLibrary.sol\":1104:1106  x0 */\n      dup9\n        /* \"SwapLibrary.sol\":1108:1109  y */\n      dup8\n        /* \"SwapLibrary.sol\":1101:1103  _d */\n      tag_333\n        /* \"SwapLibrary.sol\":1101:1110  _d(x0, y) */\n      jump\t// in\n    tag_339:\n        /* \"SwapLibrary.sol\":1094:1098  1e18 */\n      0x0de0b6b3a7640000\n        /* \"SwapLibrary.sol\":1088:1090  xy */\n      dup9\n        /* \"SwapLibrary.sol\":1084:1085  k */\n      dup5\n        /* \"SwapLibrary.sol\":1084:1090  k - xy */\n      tag_340\n      swap2\n      swap1\n      tag_267\n      jump\t// in\n    tag_340:\n        /* \"SwapLibrary.sol\":1083:1098  (k - xy) * 1e18 */\n      tag_341\n      swap2\n      swap1\n      tag_93\n      jump\t// in\n    tag_341:\n        /* \"SwapLibrary.sol\":1083:1110  (k - xy) * 1e18 / _d(x0, y) */\n      tag_342\n      swap2\n      swap1\n      tag_95\n      jump\t// in\n    tag_342:\n        /* \"SwapLibrary.sol\":1073:1110  uint dy = (k - xy) * 1e18 / _d(x0, y) */\n      swap1\n      pop\n        /* \"SwapLibrary.sol\":1129:1131  dy */\n      dup1\n        /* \"SwapLibrary.sol\":1125:1126  y */\n      dup7\n        /* \"SwapLibrary.sol\":1125:1131  y - dy */\n      tag_343\n      swap2\n      swap1\n      tag_267\n      jump\t// in\n    tag_343:\n        /* \"SwapLibrary.sol\":1121:1131  y = y - dy */\n      swap6\n      pop\n        /* \"SwapLibrary.sol\":1062:1141  {... */\n      pop\n        /* \"SwapLibrary.sol\":965:1141  if (k < xy) {... */\n    tag_338:\n        /* \"SwapLibrary.sol\":1157:1163  y_prev */\n      dup2\n        /* \"SwapLibrary.sol\":1153:1154  y */\n      dup6\n        /* \"SwapLibrary.sol\":1153:1163  y > y_prev */\n      gt\n        /* \"SwapLibrary.sol\":1149:1319  if (y > y_prev) {... */\n      iszero\n      tag_344\n      jumpi\n        /* \"SwapLibrary.sol\":1194:1195  1 */\n      0x01\n        /* \"SwapLibrary.sol\":1184:1190  y_prev */\n      dup3\n        /* \"SwapLibrary.sol\":1180:1181  y */\n      dup7\n        /* \"SwapLibrary.sol\":1180:1190  y - y_prev */\n      tag_345\n      swap2\n      swap1\n      tag_267\n      jump\t// in\n    tag_345:\n        /* \"SwapLibrary.sol\":1180:1195  y - y_prev <= 1 */\n      gt\n        /* \"SwapLibrary.sol\":1176:1230  if (y - y_prev <= 1) {... */\n      tag_346\n      jumpi\n        /* \"SwapLibrary.sol\":1217:1218  y */\n      dup5\n        /* \"SwapLibrary.sol\":1210:1218  return y */\n      swap4\n      pop\n      pop\n      pop\n      pop\n      jump(tag_325)\n        /* \"SwapLibrary.sol\":1176:1230  if (y - y_prev <= 1) {... */\n    tag_346:\n        /* \"SwapLibrary.sol\":1149:1319  if (y > y_prev) {... */\n      jump(tag_347)\n    tag_344:\n        /* \"SwapLibrary.sol\":1274:1275  1 */\n      0x01\n        /* \"SwapLibrary.sol\":1269:1270  y */\n      dup6\n        /* \"SwapLibrary.sol\":1260:1266  y_prev */\n      dup4\n        /* \"SwapLibrary.sol\":1260:1270  y_prev - y */\n      tag_348\n      swap2\n      swap1\n      tag_267\n      jump\t// in\n    tag_348:\n        /* \"SwapLibrary.sol\":1260:1275  y_prev - y <= 1 */\n      gt\n        /* \"SwapLibrary.sol\":1256:1310  if (y_prev - y <= 1) {... */\n      tag_349\n      jumpi\n        /* \"SwapLibrary.sol\":1297:1298  y */\n      dup5\n        /* \"SwapLibrary.sol\":1290:1298  return y */\n      swap4\n      pop\n      pop\n      pop\n      pop\n      jump(tag_325)\n        /* \"SwapLibrary.sol\":1256:1310  if (y_prev - y <= 1) {... */\n    tag_349:\n        /* \"SwapLibrary.sol\":1149:1319  if (y > y_prev) {... */\n    tag_347:\n        /* \"SwapLibrary.sol\":905:1326  {... */\n      pop\n      pop\n        /* \"SwapLibrary.sol\":900:903  i++ */\n      dup1\n      dup1\n      tag_350\n      swap1\n      tag_351\n      jump\t// in\n    tag_350:\n      swap2\n      pop\n      pop\n        /* \"SwapLibrary.sol\":874:1326  for (uint i = 0; i < 255; i++) {... */\n      jump(tag_326)\n    tag_327:\n      pop\n        /* \"SwapLibrary.sol\":1339:1340  y */\n      dup2\n        /* \"SwapLibrary.sol\":1332:1340  return y */\n      swap1\n      pop\n        /* \"SwapLibrary.sol\":796:1346  function _get_y(uint x0, uint xy, uint y) internal pure returns (uint) {... */\n    tag_325:\n      swap4\n      swap3\n      pop\n      pop\n      pop\n      jump\t// out\n        /* \"SwapLibrary.sol\":488:645  function _f(uint x0, uint y) internal pure returns (uint) {... */\n    tag_330:\n        /* \"SwapLibrary.sol\":540:544  uint */\n      0x00\n        /* \"SwapLibrary.sol\":635:639  1e18 */\n      0x0de0b6b3a7640000\n        /* \"SwapLibrary.sol\":631:632  y */\n      dup3\n        /* \"SwapLibrary.sol\":623:627  1e18 */\n      0x0de0b6b3a7640000\n        /* \"SwapLibrary.sol\":618:620  x0 */\n      dup6\n        /* \"SwapLibrary.sol\":611:615  1e18 */\n      0x0de0b6b3a7640000\n        /* \"SwapLibrary.sol\":606:608  x0 */\n      dup8\n        /* \"SwapLibrary.sol\":601:603  x0 */\n      dup9\n        /* \"SwapLibrary.sol\":601:608  x0 * x0 */\n      tag_353\n      swap2\n      swap1\n      tag_93\n      jump\t// in\n    tag_353:\n        /* \"SwapLibrary.sol\":601:615  x0 * x0 / 1e18 */\n      tag_354\n      swap2\n      swap1\n      tag_95\n      jump\t// in\n    tag_354:\n        /* \"SwapLibrary.sol\":601:620  x0 * x0 / 1e18 * x0 */\n      tag_355\n      swap2\n      swap1\n      tag_93\n      jump\t// in\n    tag_355:\n        /* \"SwapLibrary.sol\":601:627  x0 * x0 / 1e18 * x0 / 1e18 */\n      tag_356\n      swap2\n      swap1\n      tag_95\n      jump\t// in\n    tag_356:\n        /* \"SwapLibrary.sol\":600:632  (x0 * x0 / 1e18 * x0 / 1e18) * y */\n      tag_357\n      swap2\n      swap1\n      tag_93\n      jump\t// in\n    tag_357:\n        /* \"SwapLibrary.sol\":600:639  (x0 * x0 / 1e18 * x0 / 1e18) * y / 1e18 */\n      tag_358\n      swap2\n      swap1\n      tag_95\n      jump\t// in\n    tag_358:\n        /* \"SwapLibrary.sol\":593:597  1e18 */\n      0x0de0b6b3a7640000\n        /* \"SwapLibrary.sol\":585:589  1e18 */\n      dup1\n        /* \"SwapLibrary.sol\":581:582  y */\n      dup5\n        /* \"SwapLibrary.sol\":574:578  1e18 */\n      0x0de0b6b3a7640000\n        /* \"SwapLibrary.sol\":570:571  y */\n      dup7\n        /* \"SwapLibrary.sol\":566:567  y */\n      dup8\n        /* \"SwapLibrary.sol\":566:571  y * y */\n      tag_359\n      swap2\n      swap1\n      tag_93\n      jump\t// in\n    tag_359:\n        /* \"SwapLibrary.sol\":566:578  y * y / 1e18 */\n      tag_360\n      swap2\n      swap1\n      tag_95\n      jump\t// in\n    tag_360:\n        /* \"SwapLibrary.sol\":566:582  y * y / 1e18 * y */\n      tag_361\n      swap2\n      swap1\n      tag_93\n      jump\t// in\n    tag_361:\n        /* \"SwapLibrary.sol\":566:589  y * y / 1e18 * y / 1e18 */\n      tag_362\n      swap2\n      swap1\n      tag_95\n      jump\t// in\n    tag_362:\n        /* \"SwapLibrary.sol\":560:562  x0 */\n      dup6\n        /* \"SwapLibrary.sol\":560:590  x0 * (y * y / 1e18 * y / 1e18) */\n      tag_363\n      swap2\n      swap1\n      tag_93\n      jump\t// in\n    tag_363:\n        /* \"SwapLibrary.sol\":560:597  x0 * (y * y / 1e18 * y / 1e18) / 1e18 */\n      tag_364\n      swap2\n      swap1\n      tag_95\n      jump\t// in\n    tag_364:\n        /* \"SwapLibrary.sol\":560:639  x0 * (y * y / 1e18 * y / 1e18) / 1e18 + (x0 * x0 / 1e18 * x0 / 1e18) * y / 1e18 */\n      tag_365\n      swap2\n      swap1\n      tag_292\n      jump\t// in\n    tag_365:\n        /* \"SwapLibrary.sol\":553:639  return x0 * (y * y / 1e18 * y / 1e18) / 1e18 + (x0 * x0 / 1e18 * x0 / 1e18) * y / 1e18 */\n      swap1\n      pop\n        /* \"SwapLibrary.sol\":488:645  function _f(uint x0, uint y) internal pure returns (uint) {... */\n      swap3\n      swap2\n      pop\n      pop\n      jump\t// out\n        /* \"SwapLibrary.sol\":651:790  function _d(uint x0, uint y) internal pure returns (uint) {... */\n    tag_333:\n        /* \"SwapLibrary.sol\":703:707  uint */\n      0x00\n        /* \"SwapLibrary.sol\":779:783  1e18 */\n      0x0de0b6b3a7640000\n        /* \"SwapLibrary.sol\":774:776  x0 */\n      dup4\n        /* \"SwapLibrary.sol\":767:771  1e18 */\n      0x0de0b6b3a7640000\n        /* \"SwapLibrary.sol\":762:764  x0 */\n      dup6\n        /* \"SwapLibrary.sol\":757:759  x0 */\n      dup7\n        /* \"SwapLibrary.sol\":757:764  x0 * x0 */\n      tag_367\n      swap2\n      swap1\n      tag_93\n      jump\t// in\n    tag_367:\n        /* \"SwapLibrary.sol\":757:771  x0 * x0 / 1e18 */\n      tag_368\n      swap2\n      swap1\n      tag_95\n      jump\t// in\n    tag_368:\n        /* \"SwapLibrary.sol\":757:776  x0 * x0 / 1e18 * x0 */\n      tag_369\n      swap2\n      swap1\n      tag_93\n      jump\t// in\n    tag_369:\n        /* \"SwapLibrary.sol\":757:783  x0 * x0 / 1e18 * x0 / 1e18 */\n      tag_370\n      swap2\n      swap1\n      tag_95\n      jump\t// in\n    tag_370:\n        /* \"SwapLibrary.sol\":749:753  1e18 */\n      0x0de0b6b3a7640000\n        /* \"SwapLibrary.sol\":741:745  1e18 */\n      dup1\n        /* \"SwapLibrary.sol\":737:738  y */\n      dup5\n        /* \"SwapLibrary.sol\":733:734  y */\n      dup6\n        /* \"SwapLibrary.sol\":733:738  y * y */\n      tag_371\n      swap2\n      swap1\n      tag_93\n      jump\t// in\n    tag_371:\n        /* \"SwapLibrary.sol\":733:745  y * y / 1e18 */\n      tag_372\n      swap2\n      swap1\n      tag_95\n      jump\t// in\n    tag_372:\n        /* \"SwapLibrary.sol\":727:729  x0 */\n      dup6\n        /* \"SwapLibrary.sol\":723:724  3 */\n      0x03\n        /* \"SwapLibrary.sol\":723:729  3 * x0 */\n      tag_373\n      swap2\n      swap1\n      tag_93\n      jump\t// in\n    tag_373:\n        /* \"SwapLibrary.sol\":723:746  3 * x0 * (y * y / 1e18) */\n      tag_374\n      swap2\n      swap1\n      tag_93\n      jump\t// in\n    tag_374:\n        /* \"SwapLibrary.sol\":723:753  3 * x0 * (y * y / 1e18) / 1e18 */\n      tag_375\n      swap2\n      swap1\n      tag_95\n      jump\t// in\n    tag_375:\n        /* \"SwapLibrary.sol\":723:784  3 * x0 * (y * y / 1e18) / 1e18 + (x0 * x0 / 1e18 * x0 / 1e18) */\n      tag_376\n      swap2\n      swap1\n      tag_292\n      jump\t// in\n    tag_376:\n        /* \"SwapLibrary.sol\":716:784  return 3 * x0 * (y * y / 1e18) / 1e18 + (x0 * x0 / 1e18 * x0 / 1e18) */\n      swap1\n      pop\n        /* \"SwapLibrary.sol\":651:790  function _d(uint x0, uint y) internal pure returns (uint) {... */\n      swap3\n      swap2\n      pop\n      pop\n      jump\t// out\n        /* \"#utility.yul\":88:205   */\n    tag_378:\n        /* \"#utility.yul\":197:198   */\n      0x00\n        /* \"#utility.yul\":194:195   */\n      dup1\n        /* \"#utility.yul\":187:199   */\n      revert\n        /* \"#utility.yul\":334:411   */\n    tag_380:\n        /* \"#utility.yul\":371:378   */\n      0x00\n        /* \"#utility.yul\":400:405   */\n      dup2\n        /* \"#utility.yul\":389:405   */\n      swap1\n      pop\n        /* \"#utility.yul\":334:411   */\n      swap2\n      swap1\n      pop\n      jump\t// out\n        /* \"#utility.yul\":417:539   */\n    tag_381:\n        /* \"#utility.yul\":490:514   */\n      tag_431\n        /* \"#utility.yul\":508:513   */\n      dup2\n        /* \"#utility.yul\":490:514   */\n      tag_380\n      jump\t// in\n    tag_431:\n        /* \"#utility.yul\":483:488   */\n      dup2\n        /* \"#utility.yul\":480:515   */\n      eq\n        /* \"#utility.yul\":470:533   */\n      tag_432\n      jumpi\n        /* \"#utility.yul\":529:530   */\n      0x00\n        /* \"#utility.yul\":526:527   */\n      dup1\n        /* \"#utility.yul\":519:531   */\n      revert\n        /* \"#utility.yul\":470:533   */\n    tag_432:\n        /* \"#utility.yul\":417:539   */\n      pop\n      jump\t// out\n        /* \"#utility.yul\":545:684   */\n    tag_382:\n        /* \"#utility.yul\":591:596   */\n      0x00\n        /* \"#utility.yul\":629:635   */\n      dup2\n        /* \"#utility.yul\":616:636   */\n      calldataload\n        /* \"#utility.yul\":607:636   */\n      swap1\n      pop\n        /* \"#utility.yul\":645:678   */\n      tag_434\n        /* \"#utility.yul\":672:677   */\n      dup2\n        /* \"#utility.yul\":645:678   */\n      tag_381\n      jump\t// in\n    tag_434:\n        /* \"#utility.yul\":545:684   */\n      swap3\n      swap2\n      pop\n      pop\n      jump\t// out\n        /* \"#utility.yul\":690:816   */\n    tag_383:\n        /* \"#utility.yul\":727:734   */\n      0x00\n        /* \"#utility.yul\":767:809   */\n      0xffffffffffffffffffffffffffffffffffffffff\n        /* \"#utility.yul\":760:765   */\n      dup3\n        /* \"#utility.yul\":756:810   */\n      and\n        /* \"#utility.yul\":745:810   */\n      swap1\n      pop\n        /* \"#utility.yul\":690:816   */\n      swap2\n      swap1\n      pop\n      jump\t// out\n        /* \"#utility.yul\":822:918   */\n    tag_384:\n        /* \"#utility.yul\":859:866   */\n      0x00\n        /* \"#utility.yul\":888:912   */\n      tag_437\n        /* \"#utility.yul\":906:911   */\n      dup3\n        /* \"#utility.yul\":888:912   */\n      tag_383\n      jump\t// in\n    tag_437:\n        /* \"#utility.yul\":877:912   */\n      swap1\n      pop\n        /* \"#utility.yul\":822:918   */\n      swap2\n      swap1\n      pop\n      jump\t// out\n        /* \"#utility.yul\":924:1046   */\n    tag_385:\n        /* \"#utility.yul\":997:1021   */\n      tag_439\n        /* \"#utility.yul\":1015:1020   */\n      dup2\n        /* \"#utility.yul\":997:1021   */\n      tag_384\n      jump\t// in\n    tag_439:\n        /* \"#utility.yul\":990:995   */\n      dup2\n        /* \"#utility.yul\":987:1022   */\n      eq\n        /* \"#utility.yul\":977:1040   */\n      tag_440\n      jumpi\n        /* \"#utility.yul\":1036:1037   */\n      0x00\n        /* \"#utility.yul\":1033:1034   */\n      dup1\n        /* \"#utility.yul\":1026:1038   */\n      revert\n        /* \"#utility.yul\":977:1040   */\n    tag_440:\n        /* \"#utility.yul\":924:1046   */\n      pop\n      jump\t// out\n        /* \"#utility.yul\":1052:1191   */\n    tag_386:\n        /* \"#utility.yul\":1098:1103   */\n      0x00\n        /* \"#utility.yul\":1136:1142   */\n      dup2\n        /* \"#utility.yul\":1123:1143   */\n      calldataload\n        /* \"#utility.yul\":1114:1143   */\n      swap1\n      pop\n        /* \"#utility.yul\":1152:1185   */\n      tag_442\n        /* \"#utility.yul\":1179:1184   */\n      dup2\n        /* \"#utility.yul\":1152:1185   */\n      tag_385\n      jump\t// in\n    tag_442:\n        /* \"#utility.yul\":1052:1191   */\n      swap3\n      swap2\n      pop\n      pop\n      jump\t// out\n        /* \"#utility.yul\":1197:1287   */\n    tag_387:\n        /* \"#utility.yul\":1231:1238   */\n      0x00\n        /* \"#utility.yul\":1274:1279   */\n      dup2\n        /* \"#utility.yul\":1267:1280   */\n      iszero\n        /* \"#utility.yul\":1260:1281   */\n      iszero\n        /* \"#utility.yul\":1249:1281   */\n      swap1\n      pop\n        /* \"#utility.yul\":1197:1287   */\n      swap2\n      swap1\n      pop\n      jump\t// out\n        /* \"#utility.yul\":1293:1409   */\n    tag_388:\n        /* \"#utility.yul\":1363:1384   */\n      tag_445\n        /* \"#utility.yul\":1378:1383   */\n      dup2\n        /* \"#utility.yul\":1363:1384   */\n      tag_387\n      jump\t// in\n    tag_445:\n        /* \"#utility.yul\":1356:1361   */\n      dup2\n        /* \"#utility.yul\":1353:1385   */\n      eq\n        /* \"#utility.yul\":1343:1403   */\n      tag_446\n      jumpi\n        /* \"#utility.yul\":1399:1400   */\n      0x00\n        /* \"#utility.yul\":1396:1397   */\n      dup1\n        /* \"#utility.yul\":1389:1401   */\n      revert\n        /* \"#utility.yul\":1343:1403   */\n    tag_446:\n        /* \"#utility.yul\":1293:1409   */\n      pop\n      jump\t// out\n        /* \"#utility.yul\":1415:1548   */\n    tag_389:\n        /* \"#utility.yul\":1458:1463   */\n      0x00\n        /* \"#utility.yul\":1496:1502   */\n      dup2\n        /* \"#utility.yul\":1483:1503   */\n      calldataload\n        /* \"#utility.yul\":1474:1503   */\n      swap1\n      pop\n        /* \"#utility.yul\":1512:1542   */\n      tag_448\n        /* \"#utility.yul\":1536:1541   */\n      dup2\n        /* \"#utility.yul\":1512:1542   */\n      tag_388\n      jump\t// in\n    tag_448:\n        /* \"#utility.yul\":1415:1548   */\n      swap3\n      swap2\n      pop\n      pop\n      jump\t// out\n        /* \"#utility.yul\":1554:2313   */\n    tag_20:\n        /* \"#utility.yul\":1637:1643   */\n      0x00\n        /* \"#utility.yul\":1645:1651   */\n      dup1\n        /* \"#utility.yul\":1653:1659   */\n      0x00\n        /* \"#utility.yul\":1661:1667   */\n      dup1\n        /* \"#utility.yul\":1710:1713   */\n      0x80\n        /* \"#utility.yul\":1698:1707   */\n      dup6\n        /* \"#utility.yul\":1689:1696   */\n      dup8\n        /* \"#utility.yul\":1685:1708   */\n      sub\n        /* \"#utility.yul\":1681:1714   */\n      slt\n        /* \"#utility.yul\":1678:1798   */\n      iszero\n      tag_450\n      jumpi\n        /* \"#utility.yul\":1717:1796   */\n      tag_451\n      tag_378\n      jump\t// in\n    tag_451:\n        /* \"#utility.yul\":1678:1798   */\n    tag_450:\n        /* \"#utility.yul\":1837:1838   */\n      0x00\n        /* \"#utility.yul\":1862:1915   */\n      tag_452\n        /* \"#utility.yul\":1907:1914   */\n      dup8\n        /* \"#utility.yul\":1898:1904   */\n      dup3\n        /* \"#utility.yul\":1887:1896   */\n      dup9\n        /* \"#utility.yul\":1883:1905   */\n      add\n        /* \"#utility.yul\":1862:1915   */\n      tag_382\n      jump\t// in\n    tag_452:\n        /* \"#utility.yul\":1852:1915   */\n      swap5\n      pop\n        /* \"#utility.yul\":1808:1925   */\n      pop\n        /* \"#utility.yul\":1964:1966   */\n      0x20\n        /* \"#utility.yul\":1990:2043   */\n      tag_453\n        /* \"#utility.yul\":2035:2042   */\n      dup8\n        /* \"#utility.yul\":2026:2032   */\n      dup3\n        /* \"#utility.yul\":2015:2024   */\n      dup9\n        /* \"#utility.yul\":2011:2033   */\n      add\n        /* \"#utility.yul\":1990:2043   */\n      tag_386\n      jump\t// in\n    tag_453:\n        /* \"#utility.yul\":1980:2043   */\n      swap4\n      pop\n        /* \"#utility.yul\":1935:2053   */\n      pop\n        /* \"#utility.yul\":2092:2094   */\n      0x40\n        /* \"#utility.yul\":2118:2171   */\n      tag_454\n        /* \"#utility.yul\":2163:2170   */\n      dup8\n        /* \"#utility.yul\":2154:2160   */\n      dup3\n        /* \"#utility.yul\":2143:2152   */\n      dup9\n        /* \"#utility.yul\":2139:2161   */\n      add\n        /* \"#utility.yul\":2118:2171   */\n      tag_386\n      jump\t// in\n    tag_454:\n        /* \"#utility.yul\":2108:2171   */\n      swap3\n      pop\n        /* \"#utility.yul\":2063:2181   */\n      pop\n        /* \"#utility.yul\":2220:2222   */\n      0x60\n        /* \"#utility.yul\":2246:2296   */\n      tag_455\n        /* \"#utility.yul\":2288:2295   */\n      dup8\n        /* \"#utility.yul\":2279:2285   */\n      dup3\n        /* \"#utility.yul\":2268:2277   */\n      dup9\n        /* \"#utility.yul\":2264:2286   */\n      add\n        /* \"#utility.yul\":2246:2296   */\n      tag_389\n      jump\t// in\n    tag_455:\n        /* \"#utility.yul\":2236:2296   */\n      swap2\n      pop\n        /* \"#utility.yul\":2191:2306   */\n      pop\n        /* \"#utility.yul\":1554:2313   */\n      swap3\n      swap6\n      swap2\n      swap5\n      pop\n      swap3\n      pop\n      jump\t// out\n        /* \"#utility.yul\":2319:2437   */\n    tag_390:\n        /* \"#utility.yul\":2406:2430   */\n      tag_457\n        /* \"#utility.yul\":2424:2429   */\n      dup2\n        /* \"#utility.yul\":2406:2430   */\n      tag_380\n      jump\t// in\n    tag_457:\n        /* \"#utility.yul\":2401:2404   */\n      dup3\n        /* \"#utility.yul\":2394:2431   */\n      mstore\n        /* \"#utility.yul\":2319:2437   */\n      pop\n      pop\n      jump\t// out\n        /* \"#utility.yul\":2443:2775   */\n    tag_23:\n        /* \"#utility.yul\":2564:2568   */\n      0x00\n        /* \"#utility.yul\":2602:2604   */\n      0x40\n        /* \"#utility.yul\":2591:2600   */\n      dup3\n        /* \"#utility.yul\":2587:2605   */\n      add\n        /* \"#utility.yul\":2579:2605   */\n      swap1\n      pop\n        /* \"#utility.yul\":2615:2686   */\n      tag_459\n        /* \"#utility.yul\":2683:2684   */\n      0x00\n        /* \"#utility.yul\":2672:2681   */\n      dup4\n        /* \"#utility.yul\":2668:2685   */\n      add\n        /* \"#utility.yul\":2659:2665   */\n      dup6\n        /* \"#utility.yul\":2615:2686   */\n      tag_390\n      jump\t// in\n    tag_459:\n        /* \"#utility.yul\":2696:2768   */\n      tag_460\n        /* \"#utility.yul\":2764:2766   */\n      0x20\n        /* \"#utility.yul\":2753:2762   */\n      dup4\n        /* \"#utility.yul\":2749:2767   */\n      add\n        /* \"#utility.yul\":2740:2746   */\n      dup5\n        /* \"#utility.yul\":2696:2768   */\n      tag_390\n      jump\t// in\n    tag_460:\n        /* \"#utility.yul\":2443:2775   */\n      swap4\n      swap3\n      pop\n      pop\n      pop\n      jump\t// out\n        /* \"#utility.yul\":2781:3394   */\n    tag_26:\n        /* \"#utility.yul\":2855:2861   */\n      0x00\n        /* \"#utility.yul\":2863:2869   */\n      dup1\n        /* \"#utility.yul\":2871:2877   */\n      0x00\n        /* \"#utility.yul\":2920:2922   */\n      0x60\n        /* \"#utility.yul\":2908:2917   */\n      dup5\n        /* \"#utility.yul\":2899:2906   */\n      dup7\n        /* \"#utility.yul\":2895:2918   */\n      sub\n        /* \"#utility.yul\":2891:2923   */\n      slt\n        /* \"#utility.yul\":2888:3007   */\n      iszero\n      tag_462\n      jumpi\n        /* \"#utility.yul\":2926:3005   */\n      tag_463\n      tag_378\n      jump\t// in\n    tag_463:\n        /* \"#utility.yul\":2888:3007   */\n    tag_462:\n        /* \"#utility.yul\":3046:3047   */\n      0x00\n        /* \"#utility.yul\":3071:3124   */\n      tag_464\n        /* \"#utility.yul\":3116:3123   */\n      dup7\n        /* \"#utility.yul\":3107:3113   */\n      dup3\n        /* \"#utility.yul\":3096:3105   */\n      dup8\n        /* \"#utility.yul\":3092:3114   */\n      add\n        /* \"#utility.yul\":3071:3124   */\n      tag_386\n      jump\t// in\n    tag_464:\n        /* \"#utility.yul\":3061:3124   */\n      swap4\n      pop\n        /* \"#utility.yul\":3017:3134   */\n      pop\n        /* \"#utility.yul\":3173:3175   */\n      0x20\n        /* \"#utility.yul\":3199:3252   */\n      tag_465\n        /* \"#utility.yul\":3244:3251   */\n      dup7\n        /* \"#utility.yul\":3235:3241   */\n      dup3\n        /* \"#utility.yul\":3224:3233   */\n      dup8\n        /* \"#utility.yul\":3220:3242   */\n      add\n        /* \"#utility.yul\":3199:3252   */\n      tag_386\n      jump\t// in\n    tag_465:\n        /* \"#utility.yul\":3189:3252   */\n      swap3\n      pop\n        /* \"#utility.yul\":3144:3262   */\n      pop\n        /* \"#utility.yul\":3301:3303   */\n      0x40\n        /* \"#utility.yul\":3327:3377   */\n      tag_466\n        /* \"#utility.yul\":3369:3376   */\n      dup7\n        /* \"#utility.yul\":3360:3366   */\n      dup3\n        /* \"#utility.yul\":3349:3358   */\n      dup8\n        /* \"#utility.yul\":3345:3367   */\n      add\n        /* \"#utility.yul\":3327:3377   */\n      tag_389\n      jump\t// in\n    tag_466:\n        /* \"#utility.yul\":3317:3377   */\n      swap2\n      pop\n        /* \"#utility.yul\":3272:3387   */\n      pop\n        /* \"#utility.yul\":2781:3394   */\n      swap3\n      pop\n      swap3\n      pop\n      swap3\n      jump\t// out\n        /* \"#utility.yul\":3400:3518   */\n    tag_391:\n        /* \"#utility.yul\":3487:3511   */\n      tag_468\n        /* \"#utility.yul\":3505:3510   */\n      dup2\n        /* \"#utility.yul\":3487:3511   */\n      tag_384\n      jump\t// in\n    tag_468:\n        /* \"#utility.yul\":3482:3485   */\n      dup3\n        /* \"#utility.yul\":3475:3512   */\n      mstore\n        /* \"#utility.yul\":3400:3518   */\n      pop\n      pop\n      jump\t// out\n        /* \"#utility.yul\":3524:3746   */\n    tag_29:\n        /* \"#utility.yul\":3617:3621   */\n      0x00\n        /* \"#utility.yul\":3655:3657   */\n      0x20\n        /* \"#utility.yul\":3644:3653   */\n      dup3\n        /* \"#utility.yul\":3640:3658   */\n      add\n        /* \"#utility.yul\":3632:3658   */\n      swap1\n      pop\n        /* \"#utility.yul\":3668:3739   */\n      tag_470\n        /* \"#utility.yul\":3736:3737   */\n      0x00\n        /* \"#utility.yul\":3725:3734   */\n      dup4\n        /* \"#utility.yul\":3721:3738   */\n      add\n        /* \"#utility.yul\":3712:3718   */\n      dup5\n        /* \"#utility.yul\":3668:3739   */\n      tag_391\n      jump\t// in\n    tag_470:\n        /* \"#utility.yul\":3524:3746   */\n      swap3\n      swap2\n      pop\n      pop\n      jump\t// out\n        /* \"#utility.yul\":3752:4194   */\n    tag_34:\n        /* \"#utility.yul\":3901:3905   */\n      0x00\n        /* \"#utility.yul\":3939:3941   */\n      0x60\n        /* \"#utility.yul\":3928:3937   */\n      dup3\n        /* \"#utility.yul\":3924:3942   */\n      add\n        /* \"#utility.yul\":3916:3942   */\n      swap1\n      pop\n        /* \"#utility.yul\":3952:4023   */\n      tag_472\n        /* \"#utility.yul\":4020:4021   */\n      0x00\n        /* \"#utility.yul\":4009:4018   */\n      dup4\n        /* \"#utility.yul\":4005:4022   */\n      add\n        /* \"#utility.yul\":3996:4002   */\n      dup7\n        /* \"#utility.yul\":3952:4023   */\n      tag_390\n      jump\t// in\n    tag_472:\n        /* \"#utility.yul\":4033:4105   */\n      tag_473\n        /* \"#utility.yul\":4101:4103   */\n      0x20\n        /* \"#utility.yul\":4090:4099   */\n      dup4\n        /* \"#utility.yul\":4086:4104   */\n      add\n        /* \"#utility.yul\":4077:4083   */\n      dup6\n        /* \"#utility.yul\":4033:4105   */\n      tag_390\n      jump\t// in\n    tag_473:\n        /* \"#utility.yul\":4115:4187   */\n      tag_474\n        /* \"#utility.yul\":4183:4185   */\n      0x40\n        /* \"#utility.yul\":4172:4181   */\n      dup4\n        /* \"#utility.yul\":4168:4186   */\n      add\n        /* \"#utility.yul\":4159:4165   */\n      dup5\n        /* \"#utility.yul\":4115:4187   */\n      tag_390\n      jump\t// in\n    tag_474:\n        /* \"#utility.yul\":3752:4194   */\n      swap5\n      swap4\n      pop\n      pop\n      pop\n      pop\n      jump\t// out\n        /* \"#utility.yul\":4200:4674   */\n    tag_37:\n        /* \"#utility.yul\":4268:4274   */\n      0x00\n        /* \"#utility.yul\":4276:4282   */\n      dup1\n        /* \"#utility.yul\":4325:4327   */\n      0x40\n        /* \"#utility.yul\":4313:4322   */\n      dup4\n        /* \"#utility.yul\":4304:4311   */\n      dup6\n        /* \"#utility.yul\":4300:4323   */\n      sub\n        /* \"#utility.yul\":4296:4328   */\n      slt\n        /* \"#utility.yul\":4293:4412   */\n      iszero\n      tag_476\n      jumpi\n        /* \"#utility.yul\":4331:4410   */\n      tag_477\n      tag_378\n      jump\t// in\n    tag_477:\n        /* \"#utility.yul\":4293:4412   */\n    tag_476:\n        /* \"#utility.yul\":4451:4452   */\n      0x00\n        /* \"#utility.yul\":4476:4529   */\n      tag_478\n        /* \"#utility.yul\":4521:4528   */\n      dup6\n        /* \"#utility.yul\":4512:4518   */\n      dup3\n        /* \"#utility.yul\":4501:4510   */\n      dup7\n        /* \"#utility.yul\":4497:4519   */\n      add\n        /* \"#utility.yul\":4476:4529   */\n      tag_386\n      jump\t// in\n    tag_478:\n        /* \"#utility.yul\":4466:4529   */\n      swap3\n      pop\n        /* \"#utility.yul\":4422:4539   */\n      pop\n        /* \"#utility.yul\":4578:4580   */\n      0x20\n        /* \"#utility.yul\":4604:4657   */\n      tag_479\n        /* \"#utility.yul\":4649:4656   */\n      dup6\n        /* \"#utility.yul\":4640:4646   */\n      dup3\n        /* \"#utility.yul\":4629:4638   */\n      dup7\n        /* \"#utility.yul\":4625:4647   */\n      add\n        /* \"#utility.yul\":4604:4657   */\n      tag_386\n      jump\t// in\n    tag_479:\n        /* \"#utility.yul\":4594:4657   */\n      swap2\n      pop\n        /* \"#utility.yul\":4549:4667   */\n      pop\n        /* \"#utility.yul\":4200:4674   */\n      swap3\n      pop\n      swap3\n      swap1\n      pop\n      jump\t// out\n        /* \"#utility.yul\":4680:5012   */\n    tag_40:\n        /* \"#utility.yul\":4801:4805   */\n      0x00\n        /* \"#utility.yul\":4839:4841   */\n      0x40\n        /* \"#utility.yul\":4828:4837   */\n      dup3\n        /* \"#utility.yul\":4824:4842   */\n      add\n        /* \"#utility.yul\":4816:4842   */\n      swap1\n      pop\n        /* \"#utility.yul\":4852:4923   */\n      tag_481\n        /* \"#utility.yul\":4920:4921   */\n      0x00\n        /* \"#utility.yul\":4909:4918   */\n      dup4\n        /* \"#utility.yul\":4905:4922   */\n      add\n        /* \"#utility.yul\":4896:4902   */\n      dup6\n        /* \"#utility.yul\":4852:4923   */\n      tag_391\n      jump\t// in\n    tag_481:\n        /* \"#utility.yul\":4933:5005   */\n      tag_482\n        /* \"#utility.yul\":5001:5003   */\n      0x20\n        /* \"#utility.yul\":4990:4999   */\n      dup4\n        /* \"#utility.yul\":4986:5004   */\n      add\n        /* \"#utility.yul\":4977:4983   */\n      dup5\n        /* \"#utility.yul\":4933:5005   */\n      tag_391\n      jump\t// in\n    tag_482:\n        /* \"#utility.yul\":4680:5012   */\n      swap4\n      swap3\n      pop\n      pop\n      pop\n      jump\t// out\n        /* \"#utility.yul\":5018:5923   */\n    tag_43:\n        /* \"#utility.yul\":5110:5116   */\n      0x00\n        /* \"#utility.yul\":5118:5124   */\n      dup1\n        /* \"#utility.yul\":5126:5132   */\n      0x00\n        /* \"#utility.yul\":5134:5140   */\n      dup1\n        /* \"#utility.yul\":5142:5148   */\n      0x00\n        /* \"#utility.yul\":5191:5194   */\n      0xa0\n        /* \"#utility.yul\":5179:5188   */\n      dup7\n        /* \"#utility.yul\":5170:5177   */\n      dup9\n        /* \"#utility.yul\":5166:5189   */\n      sub\n        /* \"#utility.yul\":5162:5195   */\n      slt\n        /* \"#utility.yul\":5159:5279   */\n      iszero\n      tag_484\n      jumpi\n        /* \"#utility.yul\":5198:5277   */\n      tag_485\n      tag_378\n      jump\t// in\n    tag_485:\n        /* \"#utility.yul\":5159:5279   */\n    tag_484:\n        /* \"#utility.yul\":5318:5319   */\n      0x00\n        /* \"#utility.yul\":5343:5396   */\n      tag_486\n        /* \"#utility.yul\":5388:5395   */\n      dup9\n        /* \"#utility.yul\":5379:5385   */\n      dup3\n        /* \"#utility.yul\":5368:5377   */\n      dup10\n        /* \"#utility.yul\":5364:5386   */\n      add\n        /* \"#utility.yul\":5343:5396   */\n      tag_382\n      jump\t// in\n    tag_486:\n        /* \"#utility.yul\":5333:5396   */\n      swap6\n      pop\n        /* \"#utility.yul\":5289:5406   */\n      pop\n        /* \"#utility.yul\":5445:5447   */\n      0x20\n        /* \"#utility.yul\":5471:5524   */\n      tag_487\n        /* \"#utility.yul\":5516:5523   */\n      dup9\n        /* \"#utility.yul\":5507:5513   */\n      dup3\n        /* \"#utility.yul\":5496:5505   */\n      dup10\n        /* \"#utility.yul\":5492:5514   */\n      add\n        /* \"#utility.yul\":5471:5524   */\n      tag_386\n      jump\t// in\n    tag_487:\n        /* \"#utility.yul\":5461:5524   */\n      swap5\n      pop\n        /* \"#utility.yul\":5416:5534   */\n      pop\n        /* \"#utility.yul\":5573:5575   */\n      0x40\n        /* \"#utility.yul\":5599:5652   */\n      tag_488\n        /* \"#utility.yul\":5644:5651   */\n      dup9\n        /* \"#utility.yul\":5635:5641   */\n      dup3\n        /* \"#utility.yul\":5624:5633   */\n      dup10\n        /* \"#utility.yul\":5620:5642   */\n      add\n        /* \"#utility.yul\":5599:5652   */\n      tag_386\n      jump\t// in\n    tag_488:\n        /* \"#utility.yul\":5589:5652   */\n      swap4\n      pop\n        /* \"#utility.yul\":5544:5662   */\n      pop\n        /* \"#utility.yul\":5701:5703   */\n      0x60\n        /* \"#utility.yul\":5727:5777   */\n      tag_489\n        /* \"#utility.yul\":5769:5776   */\n      dup9\n        /* \"#utility.yul\":5760:5766   */\n      dup3\n        /* \"#utility.yul\":5749:5758   */\n      dup10\n        /* \"#utility.yul\":5745:5767   */\n      add\n        /* \"#utility.yul\":5727:5777   */\n      tag_389\n      jump\t// in\n    tag_489:\n        /* \"#utility.yul\":5717:5777   */\n      swap3\n      pop\n        /* \"#utility.yul\":5672:5787   */\n      pop\n        /* \"#utility.yul\":5826:5829   */\n      0x80\n        /* \"#utility.yul\":5853:5906   */\n      tag_490\n        /* \"#utility.yul\":5898:5905   */\n      dup9\n        /* \"#utility.yul\":5889:5895   */\n      dup3\n        /* \"#utility.yul\":5878:5887   */\n      dup10\n        /* \"#utility.yul\":5874:5896   */\n      add\n        /* \"#utility.yul\":5853:5906   */\n      tag_382\n      jump\t// in\n    tag_490:\n        /* \"#utility.yul\":5843:5906   */\n      swap2\n      pop\n        /* \"#utility.yul\":5797:5916   */\n      pop\n        /* \"#utility.yul\":5018:5923   */\n      swap3\n      swap6\n      pop\n      swap3\n      swap6\n      swap1\n      swap4\n      pop\n      jump\t// out\n        /* \"#utility.yul\":5929:6151   */\n    tag_62:\n        /* \"#utility.yul\":6022:6026   */\n      0x00\n        /* \"#utility.yul\":6060:6062   */\n      0x20\n        /* \"#utility.yul\":6049:6058   */\n      dup3\n        /* \"#utility.yul\":6045:6063   */\n      add\n        /* \"#utility.yul\":6037:6063   */\n      swap1\n      pop\n        /* \"#utility.yul\":6073:6144   */\n      tag_492\n        /* \"#utility.yul\":6141:6142   */\n      0x00\n        /* \"#utility.yul\":6130:6139   */\n      dup4\n        /* \"#utility.yul\":6126:6143   */\n      add\n        /* \"#utility.yul\":6117:6123   */\n      dup5\n        /* \"#utility.yul\":6073:6144   */\n      tag_390\n      jump\t// in\n    tag_492:\n        /* \"#utility.yul\":5929:6151   */\n      swap3\n      swap2\n      pop\n      pop\n      jump\t// out\n        /* \"#utility.yul\":6157:6776   */\n    tag_72:\n        /* \"#utility.yul\":6234:6240   */\n      0x00\n        /* \"#utility.yul\":6242:6248   */\n      dup1\n        /* \"#utility.yul\":6250:6256   */\n      0x00\n        /* \"#utility.yul\":6299:6301   */\n      0x60\n        /* \"#utility.yul\":6287:6296   */\n      dup5\n        /* \"#utility.yul\":6278:6285   */\n      dup7\n        /* \"#utility.yul\":6274:6297   */\n      sub\n        /* \"#utility.yul\":6270:6302   */\n      slt\n        /* \"#utility.yul\":6267:6386   */\n      iszero\n      tag_494\n      jumpi\n        /* \"#utility.yul\":6305:6384   */\n      tag_495\n      tag_378\n      jump\t// in\n    tag_495:\n        /* \"#utility.yul\":6267:6386   */\n    tag_494:\n        /* \"#utility.yul\":6425:6426   */\n      0x00\n        /* \"#utility.yul\":6450:6503   */\n      tag_496\n        /* \"#utility.yul\":6495:6502   */\n      dup7\n        /* \"#utility.yul\":6486:6492   */\n      dup3\n        /* \"#utility.yul\":6475:6484   */\n      dup8\n        /* \"#utility.yul\":6471:6493   */\n      add\n        /* \"#utility.yul\":6450:6503   */\n      tag_382\n      jump\t// in\n    tag_496:\n        /* \"#utility.yul\":6440:6503   */\n      swap4\n      pop\n        /* \"#utility.yul\":6396:6513   */\n      pop\n        /* \"#utility.yul\":6552:6554   */\n      0x20\n        /* \"#utility.yul\":6578:6631   */\n      tag_497\n        /* \"#utility.yul\":6623:6630   */\n      dup7\n        /* \"#utility.yul\":6614:6620   */\n      dup3\n        /* \"#utility.yul\":6603:6612   */\n      dup8\n        /* \"#utility.yul\":6599:6621   */\n      add\n        /* \"#utility.yul\":6578:6631   */\n      tag_386\n      jump\t// in\n    tag_497:\n        /* \"#utility.yul\":6568:6631   */\n      swap3\n      pop\n        /* \"#utility.yul\":6523:6641   */\n      pop\n        /* \"#utility.yul\":6680:6682   */\n      0x40\n        /* \"#utility.yul\":6706:6759   */\n      tag_498\n        /* \"#utility.yul\":6751:6758   */\n      dup7\n        /* \"#utility.yul\":6742:6748   */\n      dup3\n        /* \"#utility.yul\":6731:6740   */\n      dup8\n        /* \"#utility.yul\":6727:6749   */\n      add\n        /* \"#utility.yul\":6706:6759   */\n      tag_386\n      jump\t// in\n    tag_498:\n        /* \"#utility.yul\":6696:6759   */\n      swap2\n      pop\n        /* \"#utility.yul\":6651:6769   */\n      pop\n        /* \"#utility.yul\":6157:6776   */\n      swap3\n      pop\n      swap3\n      pop\n      swap3\n      jump\t// out\n        /* \"#utility.yul\":6782:6842   */\n    tag_392:\n        /* \"#utility.yul\":6810:6813   */\n      0x00\n        /* \"#utility.yul\":6831:6836   */\n      dup2\n        /* \"#utility.yul\":6824:6836   */\n      swap1\n      pop\n        /* \"#utility.yul\":6782:6842   */\n      swap2\n      swap1\n      pop\n      jump\t// out\n        /* \"#utility.yul\":6848:6990   */\n    tag_393:\n        /* \"#utility.yul\":6898:6907   */\n      0x00\n        /* \"#utility.yul\":6931:6984   */\n      tag_501\n        /* \"#utility.yul\":6949:6983   */\n      tag_502\n        /* \"#utility.yul\":6958:6982   */\n      tag_503\n        /* \"#utility.yul\":6976:6981   */\n      dup5\n        /* \"#utility.yul\":6958:6982   */\n      tag_383\n      jump\t// in\n    tag_503:\n        /* \"#utility.yul\":6949:6983   */\n      tag_392\n      jump\t// in\n    tag_502:\n        /* \"#utility.yul\":6931:6984   */\n      tag_383\n      jump\t// in\n    tag_501:\n        /* \"#utility.yul\":6918:6984   */\n      swap1\n      pop\n        /* \"#utility.yul\":6848:6990   */\n      swap2\n      swap1\n      pop\n      jump\t// out\n        /* \"#utility.yul\":6996:7122   */\n    tag_394:\n        /* \"#utility.yul\":7046:7055   */\n      0x00\n        /* \"#utility.yul\":7079:7116   */\n      tag_505\n        /* \"#utility.yul\":7110:7115   */\n      dup3\n        /* \"#utility.yul\":7079:7116   */\n      tag_393\n      jump\t// in\n    tag_505:\n        /* \"#utility.yul\":7066:7116   */\n      swap1\n      pop\n        /* \"#utility.yul\":6996:7122   */\n      swap2\n      swap1\n      pop\n      jump\t// out\n        /* \"#utility.yul\":7128:7269   */\n    tag_395:\n        /* \"#utility.yul\":7193:7202   */\n      0x00\n        /* \"#utility.yul\":7226:7263   */\n      tag_507\n        /* \"#utility.yul\":7257:7262   */\n      dup3\n        /* \"#utility.yul\":7226:7263   */\n      tag_394\n      jump\t// in\n    tag_507:\n        /* \"#utility.yul\":7213:7263   */\n      swap1\n      pop\n        /* \"#utility.yul\":7128:7269   */\n      swap2\n      swap1\n      pop\n      jump\t// out\n        /* \"#utility.yul\":7275:7436   */\n    tag_396:\n        /* \"#utility.yul\":7377:7429   */\n      tag_509\n        /* \"#utility.yul\":7423:7428   */\n      dup2\n        /* \"#utility.yul\":7377:7429   */\n      tag_395\n      jump\t// in\n    tag_509:\n        /* \"#utility.yul\":7372:7375   */\n      dup3\n        /* \"#utility.yul\":7365:7430   */\n      mstore\n        /* \"#utility.yul\":7275:7436   */\n      pop\n      pop\n      jump\t// out\n        /* \"#utility.yul\":7442:7694   */\n    tag_78:\n        /* \"#utility.yul\":7550:7554   */\n      0x00\n        /* \"#utility.yul\":7588:7590   */\n      0x20\n        /* \"#utility.yul\":7577:7586   */\n      dup3\n        /* \"#utility.yul\":7573:7591   */\n      add\n        /* \"#utility.yul\":7565:7591   */\n      swap1\n      pop\n        /* \"#utility.yul\":7601:7687   */\n      tag_511\n        /* \"#utility.yul\":7684:7685   */\n      0x00\n        /* \"#utility.yul\":7673:7682   */\n      dup4\n        /* \"#utility.yul\":7669:7686   */\n      add\n        /* \"#utility.yul\":7660:7666   */\n      dup5\n        /* \"#utility.yul\":7601:7687   */\n      tag_396\n      jump\t// in\n    tag_511:\n        /* \"#utility.yul\":7442:7694   */\n      swap3\n      swap2\n      pop\n      pop\n      jump\t// out\n        /* \"#utility.yul\":7700:7809   */\n    tag_397:\n        /* \"#utility.yul\":7781:7802   */\n      tag_513\n        /* \"#utility.yul\":7796:7801   */\n      dup2\n        /* \"#utility.yul\":7781:7802   */\n      tag_387\n      jump\t// in\n    tag_513:\n        /* \"#utility.yul\":7776:7779   */\n      dup3\n        /* \"#utility.yul\":7769:7803   */\n      mstore\n        /* \"#utility.yul\":7700:7809   */\n      pop\n      pop\n      jump\t// out\n        /* \"#utility.yul\":7815:8245   */\n    tag_81:\n        /* \"#utility.yul\":7958:7962   */\n      0x00\n        /* \"#utility.yul\":7996:7998   */\n      0x60\n        /* \"#utility.yul\":7985:7994   */\n      dup3\n        /* \"#utility.yul\":7981:7999   */\n      add\n        /* \"#utility.yul\":7973:7999   */\n      swap1\n      pop\n        /* \"#utility.yul\":8009:8080   */\n      tag_515\n        /* \"#utility.yul\":8077:8078   */\n      0x00\n        /* \"#utility.yul\":8066:8075   */\n      dup4\n        /* \"#utility.yul\":8062:8079   */\n      add\n        /* \"#utility.yul\":8053:8059   */\n      dup7\n        /* \"#utility.yul\":8009:8080   */\n      tag_391\n      jump\t// in\n    tag_515:\n        /* \"#utility.yul\":8090:8162   */\n      tag_516\n        /* \"#utility.yul\":8158:8160   */\n      0x20\n        /* \"#utility.yul\":8147:8156   */\n      dup4\n        /* \"#utility.yul\":8143:8161   */\n      add\n        /* \"#utility.yul\":8134:8140   */\n      dup6\n        /* \"#utility.yul\":8090:8162   */\n      tag_391\n      jump\t// in\n    tag_516:\n        /* \"#utility.yul\":8172:8238   */\n      tag_517\n        /* \"#utility.yul\":8234:8236   */\n      0x40\n        /* \"#utility.yul\":8223:8232   */\n      dup4\n        /* \"#utility.yul\":8219:8237   */\n      add\n        /* \"#utility.yul\":8210:8216   */\n      dup5\n        /* \"#utility.yul\":8172:8238   */\n      tag_397\n      jump\t// in\n    tag_517:\n        /* \"#utility.yul\":7815:8245   */\n      swap5\n      swap4\n      pop\n      pop\n      pop\n      pop\n      jump\t// out\n        /* \"#utility.yul\":8251:8394   */\n    tag_398:\n        /* \"#utility.yul\":8308:8313   */\n      0x00\n        /* \"#utility.yul\":8339:8345   */\n      dup2\n        /* \"#utility.yul\":8333:8346   */\n      mload\n        /* \"#utility.yul\":8324:8346   */\n      swap1\n      pop\n        /* \"#utility.yul\":8355:8388   */\n      tag_519\n        /* \"#utility.yul\":8382:8387   */\n      dup2\n        /* \"#utility.yul\":8355:8388   */\n      tag_385\n      jump\t// in\n    tag_519:\n        /* \"#utility.yul\":8251:8394   */\n      swap3\n      swap2\n      pop\n      pop\n      jump\t// out\n        /* \"#utility.yul\":8400:8751   */\n    tag_85:\n        /* \"#utility.yul\":8470:8476   */\n      0x00\n        /* \"#utility.yul\":8519:8521   */\n      0x20\n        /* \"#utility.yul\":8507:8516   */\n      dup3\n        /* \"#utility.yul\":8498:8505   */\n      dup5\n        /* \"#utility.yul\":8494:8517   */\n      sub\n        /* \"#utility.yul\":8490:8522   */\n      slt\n        /* \"#utility.yul\":8487:8606   */\n      iszero\n      tag_521\n      jumpi\n        /* \"#utility.yul\":8525:8604   */\n      tag_522\n      tag_378\n      jump\t// in\n    tag_522:\n        /* \"#utility.yul\":8487:8606   */\n    tag_521:\n        /* \"#utility.yul\":8645:8646   */\n      0x00\n        /* \"#utility.yul\":8670:8734   */\n      tag_523\n        /* \"#utility.yul\":8726:8733   */\n      dup5\n        /* \"#utility.yul\":8717:8723   */\n      dup3\n        /* \"#utility.yul\":8706:8715   */\n      dup6\n        /* \"#utility.yul\":8702:8724   */\n      add\n        /* \"#utility.yul\":8670:8734   */\n      tag_398\n      jump\t// in\n    tag_523:\n        /* \"#utility.yul\":8660:8734   */\n      swap2\n      pop\n        /* \"#utility.yul\":8616:8744   */\n      pop\n        /* \"#utility.yul\":8400:8751   */\n      swap3\n      swap2\n      pop\n      pop\n      jump\t// out\n        /* \"#utility.yul\":8757:8900   */\n    tag_399:\n        /* \"#utility.yul\":8814:8819   */\n      0x00\n        /* \"#utility.yul\":8845:8851   */\n      dup2\n        /* \"#utility.yul\":8839:8852   */\n      mload\n        /* \"#utility.yul\":8830:8852   */\n      swap1\n      pop\n        /* \"#utility.yul\":8861:8894   */\n      tag_525\n        /* \"#utility.yul\":8888:8893   */\n      dup2\n        /* \"#utility.yul\":8861:8894   */\n      tag_381\n      jump\t// in\n    tag_525:\n        /* \"#utility.yul\":8757:8900   */\n      swap3\n      swap2\n      pop\n      pop\n      jump\t// out\n        /* \"#utility.yul\":8906:9043   */\n    tag_400:\n        /* \"#utility.yul\":8960:8965   */\n      0x00\n        /* \"#utility.yul\":8991:8997   */\n      dup2\n        /* \"#utility.yul\":8985:8998   */\n      mload\n        /* \"#utility.yul\":8976:8998   */\n      swap1\n      pop\n        /* \"#utility.yul\":9007:9037   */\n      tag_527\n        /* \"#utility.yul\":9031:9036   */\n      dup2\n        /* \"#utility.yul\":9007:9037   */\n      tag_388\n      jump\t// in\n    tag_527:\n        /* \"#utility.yul\":8906:9043   */\n      swap3\n      swap2\n      pop\n      pop\n      jump\t// out\n        /* \"#utility.yul\":9049:10334   */\n    tag_89:\n        /* \"#utility.yul\":9170:9176   */\n      0x00\n        /* \"#utility.yul\":9178:9184   */\n      dup1\n        /* \"#utility.yul\":9186:9192   */\n      0x00\n        /* \"#utility.yul\":9194:9200   */\n      dup1\n        /* \"#utility.yul\":9202:9208   */\n      0x00\n        /* \"#utility.yul\":9210:9216   */\n      dup1\n        /* \"#utility.yul\":9218:9224   */\n      0x00\n        /* \"#utility.yul\":9267:9270   */\n      0xe0\n        /* \"#utility.yul\":9255:9264   */\n      dup9\n        /* \"#utility.yul\":9246:9253   */\n      dup11\n        /* \"#utility.yul\":9242:9265   */\n      sub\n        /* \"#utility.yul\":9238:9271   */\n      slt\n        /* \"#utility.yul\":9235:9355   */\n      iszero\n      tag_529\n      jumpi\n        /* \"#utility.yul\":9274:9353   */\n      tag_530\n      tag_378\n      jump\t// in\n    tag_530:\n        /* \"#utility.yul\":9235:9355   */\n    tag_529:\n        /* \"#utility.yul\":9394:9395   */\n      0x00\n        /* \"#utility.yul\":9419:9483   */\n      tag_531\n        /* \"#utility.yul\":9475:9482   */\n      dup11\n        /* \"#utility.yul\":9466:9472   */\n      dup3\n        /* \"#utility.yul\":9455:9464   */\n      dup12\n        /* \"#utility.yul\":9451:9473   */\n      add\n        /* \"#utility.yul\":9419:9483   */\n      tag_399\n      jump\t// in\n    tag_531:\n        /* \"#utility.yul\":9409:9483   */\n      swap8\n      pop\n        /* \"#utility.yul\":9365:9493   */\n      pop\n        /* \"#utility.yul\":9532:9534   */\n      0x20\n        /* \"#utility.yul\":9558:9622   */\n      tag_532\n        /* \"#utility.yul\":9614:9621   */\n      dup11\n        /* \"#utility.yul\":9605:9611   */\n      dup3\n        /* \"#utility.yul\":9594:9603   */\n      dup12\n        /* \"#utility.yul\":9590:9612   */\n      add\n        /* \"#utility.yul\":9558:9622   */\n      tag_399\n      jump\t// in\n    tag_532:\n        /* \"#utility.yul\":9548:9622   */\n      swap7\n      pop\n        /* \"#utility.yul\":9503:9632   */\n      pop\n        /* \"#utility.yul\":9671:9673   */\n      0x40\n        /* \"#utility.yul\":9697:9761   */\n      tag_533\n        /* \"#utility.yul\":9753:9760   */\n      dup11\n        /* \"#utility.yul\":9744:9750   */\n      dup3\n        /* \"#utility.yul\":9733:9742   */\n      dup12\n        /* \"#utility.yul\":9729:9751   */\n      add\n        /* \"#utility.yul\":9697:9761   */\n      tag_399\n      jump\t// in\n    tag_533:\n        /* \"#utility.yul\":9687:9761   */\n      swap6\n      pop\n        /* \"#utility.yul\":9642:9771   */\n      pop\n        /* \"#utility.yul\":9810:9812   */\n      0x60\n        /* \"#utility.yul\":9836:9900   */\n      tag_534\n        /* \"#utility.yul\":9892:9899   */\n      dup11\n        /* \"#utility.yul\":9883:9889   */\n      dup3\n        /* \"#utility.yul\":9872:9881   */\n      dup12\n        /* \"#utility.yul\":9868:9890   */\n      add\n        /* \"#utility.yul\":9836:9900   */\n      tag_399\n      jump\t// in\n    tag_534:\n        /* \"#utility.yul\":9826:9900   */\n      swap5\n      pop\n        /* \"#utility.yul\":9781:9910   */\n      pop\n        /* \"#utility.yul\":9949:9952   */\n      0x80\n        /* \"#utility.yul\":9976:10037   */\n      tag_535\n        /* \"#utility.yul\":10029:10036   */\n      dup11\n        /* \"#utility.yul\":10020:10026   */\n      dup3\n        /* \"#utility.yul\":10009:10018   */\n      dup12\n        /* \"#utility.yul\":10005:10027   */\n      add\n        /* \"#utility.yul\":9976:10037   */\n      tag_400\n      jump\t// in\n    tag_535:\n        /* \"#utility.yul\":9966:10037   */\n      swap4\n      pop\n        /* \"#utility.yul\":9920:10047   */\n      pop\n        /* \"#utility.yul\":10086:10089   */\n      0xa0\n        /* \"#utility.yul\":10113:10177   */\n      tag_536\n        /* \"#utility.yul\":10169:10176   */\n      dup11\n        /* \"#utility.yul\":10160:10166   */\n      dup3\n        /* \"#utility.yul\":10149:10158   */\n      dup12\n        /* \"#utility.yul\":10145:10167   */\n      add\n        /* \"#utility.yul\":10113:10177   */\n      tag_398\n      jump\t// in\n    tag_536:\n        /* \"#utility.yul\":10103:10177   */\n      swap3\n      pop\n        /* \"#utility.yul\":10057:10187   */\n      pop\n        /* \"#utility.yul\":10226:10229   */\n      0xc0\n        /* \"#utility.yul\":10253:10317   */\n      tag_537\n        /* \"#utility.yul\":10309:10316   */\n      dup11\n        /* \"#utility.yul\":10300:10306   */\n      dup3\n        /* \"#utility.yul\":10289:10298   */\n      dup12\n        /* \"#utility.yul\":10285:10307   */\n      add\n        /* \"#utility.yul\":10253:10317   */\n      tag_398\n      jump\t// in\n    tag_537:\n        /* \"#utility.yul\":10243:10317   */\n      swap2\n      pop\n        /* \"#utility.yul\":10197:10327   */\n      pop\n        /* \"#utility.yul\":9049:10334   */\n      swap3\n      swap6\n      swap9\n      swap2\n      swap5\n      swap8\n      pop\n      swap3\n      swap6\n      pop\n      jump\t// out\n        /* \"#utility.yul\":10340:10520   */\n    tag_401:\n        /* \"#utility.yul\":10388:10465   */\n      0x4e487b7100000000000000000000000000000000000000000000000000000000\n        /* \"#utility.yul\":10385:10386   */\n      0x00\n        /* \"#utility.yul\":10378:10466   */\n      mstore\n        /* \"#utility.yul\":10485:10489   */\n      0x11\n        /* \"#utility.yul\":10482:10483   */\n      0x04\n        /* \"#utility.yul\":10475:10490   */\n      mstore\n        /* \"#utility.yul\":10509:10513   */\n      0x24\n        /* \"#utility.yul\":10506:10507   */\n      0x00\n        /* \"#utility.yul\":10499:10514   */\n      revert\n        /* \"#utility.yul\":10526:10874   */\n    tag_93:\n        /* \"#utility.yul\":10566:10573   */\n      0x00\n        /* \"#utility.yul\":10589:10609   */\n      tag_540\n        /* \"#utility.yul\":10607:10608   */\n      dup3\n        /* \"#utility.yul\":10589:10609   */\n      tag_380\n      jump\t// in\n    tag_540:\n        /* \"#utility.yul\":10584:10609   */\n      swap2\n      pop\n        /* \"#utility.yul\":10623:10643   */\n      tag_541\n        /* \"#utility.yul\":10641:10642   */\n      dup4\n        /* \"#utility.yul\":10623:10643   */\n      tag_380\n      jump\t// in\n    tag_541:\n        /* \"#utility.yul\":10618:10643   */\n      swap3\n      pop\n        /* \"#utility.yul\":10811:10812   */\n      dup2\n        /* \"#utility.yul\":10743:10809   */\n      0xffffffffffffffffffffffffffffffffffffffffffffffffffffffffffffffff\n        /* \"#utility.yul\":10739:10813   */\n      div\n        /* \"#utility.yul\":10736:10737   */\n      dup4\n        /* \"#utility.yul\":10733:10814   */\n      gt\n        /* \"#utility.yul\":10728:10729   */\n      dup3\n        /* \"#utility.yul\":10721:10730   */\n      iszero\n        /* \"#utility.yul\":10714:10731   */\n      iszero\n        /* \"#utility.yul\":10710:10815   */\n      and\n        /* \"#utility.yul\":10707:10838   */\n      iszero\n      tag_542\n      jumpi\n        /* \"#utility.yul\":10818:10836   */\n      tag_543\n      tag_401\n      jump\t// in\n    tag_543:\n        /* \"#utility.yul\":10707:10838   */\n    tag_542:\n        /* \"#utility.yul\":10866:10867   */\n      dup3\n        /* \"#utility.yul\":10863:10864   */\n      dup3\n        /* \"#utility.yul\":10859:10868   */\n      mul\n        /* \"#utility.yul\":10848:10868   */\n      swap1\n      pop\n        /* \"#utility.yul\":10526:10874   */\n      swap3\n      swap2\n      pop\n      pop\n      jump\t// out\n        /* \"#utility.yul\":10880:11060   */\n    tag_402:\n        /* \"#utility.yul\":10928:11005   */\n      0x4e487b7100000000000000000000000000000000000000000000000000000000\n        /* \"#utility.yul\":10925:10926   */\n      0x00\n        /* \"#utility.yul\":10918:11006   */\n      mstore\n        /* \"#utility.yul\":11025:11029   */\n      0x12\n        /* \"#utility.yul\":11022:11023   */\n      0x04\n        /* \"#utility.yul\":11015:11030   */\n      mstore\n        /* \"#utility.yul\":11049:11053   */\n      0x24\n        /* \"#utility.yul\":11046:11047   */\n      0x00\n        /* \"#utility.yul\":11039:11054   */\n      revert\n        /* \"#utility.yul\":11066:11251   */\n    tag_95:\n        /* \"#utility.yul\":11106:11107   */\n      0x00\n        /* \"#utility.yul\":11123:11143   */\n      tag_546\n        /* \"#utility.yul\":11141:11142   */\n      dup3\n        /* \"#utility.yul\":11123:11143   */\n      tag_380\n      jump\t// in\n    tag_546:\n        /* \"#utility.yul\":11118:11143   */\n      swap2\n      pop\n        /* \"#utility.yul\":11157:11177   */\n      tag_547\n        /* \"#utility.yul\":11175:11176   */\n      dup4\n        /* \"#utility.yul\":11157:11177   */\n      tag_380\n      jump\t// in\n    tag_547:\n        /* \"#utility.yul\":11152:11177   */\n      swap3\n      pop\n        /* \"#utility.yul\":11196:11197   */\n      dup3\n        /* \"#utility.yul\":11186:11221   */\n      tag_548\n      jumpi\n        /* \"#utility.yul\":11201:11219   */\n      tag_549\n      tag_402\n      jump\t// in\n    tag_549:\n        /* \"#utility.yul\":11186:11221   */\n    tag_548:\n        /* \"#utility.yul\":11243:11244   */\n      dup3\n        /* \"#utility.yul\":11240:11241   */\n      dup3\n        /* \"#utility.yul\":11236:11245   */\n      div\n        /* \"#utility.yul\":11231:11245   */\n      swap1\n      pop\n        /* \"#utility.yul\":11066:11251   */\n      swap3\n      swap2\n      pop\n      pop\n      jump\t// out\n        /* \"#utility.yul\":11257:11351   */\n    tag_403:\n        /* \"#utility.yul\":11290:11298   */\n      0x00\n        /* \"#utility.yul\":11338:11343   */\n      dup2\n        /* \"#utility.yul\":11334:11336   */\n      0x60\n        /* \"#utility.yul\":11330:11344   */\n      shl\n        /* \"#utility.yul\":11309:11344   */\n      swap1\n      pop\n        /* \"#utility.yul\":11257:11351   */\n      swap2\n      swap1\n      pop\n      jump\t// out\n        /* \"#utility.yul\":11357:11451   */\n    tag_404:\n        /* \"#utility.yul\":11396:11403   */\n      0x00\n        /* \"#utility.yul\":11425:11445   */\n      tag_552\n        /* \"#utility.yul\":11439:11444   */\n      dup3\n        /* \"#utility.yul\":11425:11445   */\n      tag_403\n      jump\t// in\n    tag_552:\n        /* \"#utility.yul\":11414:11445   */\n      swap1\n      pop\n        /* \"#utility.yul\":11357:11451   */\n      swap2\n      swap1\n      pop\n      jump\t// out\n        /* \"#utility.yul\":11457:11557   */\n    tag_405:\n        /* \"#utility.yul\":11496:11503   */\n      0x00\n        /* \"#utility.yul\":11525:11551   */\n      tag_554\n        /* \"#utility.yul\":11545:11550   */\n      dup3\n        /* \"#utility.yul\":11525:11551   */\n      tag_404\n      jump\t// in\n    tag_554:\n        /* \"#utility.yul\":11514:11551   */\n      swap1\n      pop\n        /* \"#utility.yul\":11457:11557   */\n      swap2\n      swap1\n      pop\n      jump\t// out\n        /* \"#utility.yul\":11563:11720   */\n    tag_406:\n        /* \"#utility.yul\":11668:11713   */\n      tag_556\n        /* \"#utility.yul\":11688:11712   */\n      tag_557\n        /* \"#utility.yul\":11706:11711   */\n      dup3\n        /* \"#utility.yul\":11688:11712   */\n      tag_384\n      jump\t// in\n    tag_557:\n        /* \"#utility.yul\":11668:11713   */\n      tag_405\n      jump\t// in\n    tag_556:\n        /* \"#utility.yul\":11663:11666   */\n      dup3\n        /* \"#utility.yul\":11656:11714   */\n      mstore\n        /* \"#utility.yul\":11563:11720   */\n      pop\n      pop\n      jump\t// out\n        /* \"#utility.yul\":11726:11822   */\n    tag_407:\n        /* \"#utility.yul\":11760:11768   */\n      0x00\n        /* \"#utility.yul\":11809:11814   */\n      dup2\n        /* \"#utility.yul\":11804:11807   */\n      0xf8\n        /* \"#utility.yul\":11800:11815   */\n      shl\n        /* \"#utility.yul\":11779:11815   */\n      swap1\n      pop\n        /* \"#utility.yul\":11726:11822   */\n      swap2\n      swap1\n      pop\n      jump\t// out\n        /* \"#utility.yul\":11828:11921   */\n    tag_408:\n        /* \"#utility.yul\":11865:11872   */\n      0x00\n        /* \"#utility.yul\":11894:11915   */\n      tag_560\n        /* \"#utility.yul\":11909:11914   */\n      dup3\n        /* \"#utility.yul\":11894:11915   */\n      tag_407\n      jump\t// in\n    tag_560:\n        /* \"#utility.yul\":11883:11915   */\n      swap1\n      pop\n        /* \"#utility.yul\":11828:11921   */\n      swap2\n      swap1\n      pop\n      jump\t// out\n        /* \"#utility.yul\":11927:12022   */\n    tag_409:\n        /* \"#utility.yul\":11963:11970   */\n      0x00\n        /* \"#utility.yul\":11992:12016   */\n      tag_562\n        /* \"#utility.yul\":12010:12015   */\n      dup3\n        /* \"#utility.yul\":11992:12016   */\n      tag_408\n      jump\t// in\n    tag_562:\n        /* \"#utility.yul\":11981:12016   */\n      swap1\n      pop\n        /* \"#utility.yul\":11927:12022   */\n      swap2\n      swap1\n      pop\n      jump\t// out\n        /* \"#utility.yul\":12028:12173   */\n    tag_410:\n        /* \"#utility.yul\":12127:12166   */\n      tag_564\n        /* \"#utility.yul\":12144:12165   */\n      tag_565\n        /* \"#utility.yul\":12159:12164   */\n      dup3\n        /* \"#utility.yul\":12144:12165   */\n      tag_387\n      jump\t// in\n    tag_565:\n        /* \"#utility.yul\":12127:12166   */\n      tag_409\n      jump\t// in\n    tag_564:\n        /* \"#utility.yul\":12122:12125   */\n      dup3\n        /* \"#utility.yul\":12115:12167   */\n      mstore\n        /* \"#utility.yul\":12028:12173   */\n      pop\n      pop\n      jump\t// out\n        /* \"#utility.yul\":12179:12704   */\n    tag_112:\n        /* \"#utility.yul\":12341:12344   */\n      0x00\n        /* \"#utility.yul\":12356:12431   */\n      tag_567\n        /* \"#utility.yul\":12427:12430   */\n      dup3\n        /* \"#utility.yul\":12418:12424   */\n      dup7\n        /* \"#utility.yul\":12356:12431   */\n      tag_406\n      jump\t// in\n    tag_567:\n        /* \"#utility.yul\":12456:12458   */\n      0x14\n        /* \"#utility.yul\":12451:12454   */\n      dup3\n        /* \"#utility.yul\":12447:12459   */\n      add\n        /* \"#utility.yul\":12440:12459   */\n      swap2\n      pop\n        /* \"#utility.yul\":12469:12544   */\n      tag_568\n        /* \"#utility.yul\":12540:12543   */\n      dup3\n        /* \"#utility.yul\":12531:12537   */\n      dup6\n        /* \"#utility.yul\":12469:12544   */\n      tag_406\n      jump\t// in\n    tag_568:\n        /* \"#utility.yul\":12569:12571   */\n      0x14\n        /* \"#utility.yul\":12564:12567   */\n      dup3\n        /* \"#utility.yul\":12560:12572   */\n      add\n        /* \"#utility.yul\":12553:12572   */\n      swap2\n      pop\n        /* \"#utility.yul\":12582:12651   */\n      tag_569\n        /* \"#utility.yul\":12647:12650   */\n      dup3\n        /* \"#utility.yul\":12638:12644   */\n      dup5\n        /* \"#utility.yul\":12582:12651   */\n      tag_410\n      jump\t// in\n    tag_569:\n        /* \"#utility.yul\":12676:12677   */\n      0x01\n        /* \"#utility.yul\":12671:12674   */\n      dup3\n        /* \"#utility.yul\":12667:12678   */\n      add\n        /* \"#utility.yul\":12660:12678   */\n      swap2\n      pop\n        /* \"#utility.yul\":12695:12698   */\n      dup2\n        /* \"#utility.yul\":12688:12698   */\n      swap1\n      pop\n        /* \"#utility.yul\":12179:12704   */\n      swap5\n      swap4\n      pop\n      pop\n      pop\n      pop\n      jump\t// out\n        /* \"#utility.yul\":12710:12858   */\n    tag_411:\n        /* \"#utility.yul\":12812:12823   */\n      0x00\n        /* \"#utility.yul\":12849:12852   */\n      dup2\n        /* \"#utility.yul\":12834:12852   */\n      swap1\n      pop\n        /* \"#utility.yul\":12710:12858   */\n      swap3\n      swap2\n      pop\n      pop\n      jump\t// out\n        /* \"#utility.yul\":12864:13078   */\n    tag_412:\n        /* \"#utility.yul\":13004:13070   */\n      0xff00000000000000000000000000000000000000000000000000000000000000\n        /* \"#utility.yul\":13000:13001   */\n      0x00\n        /* \"#utility.yul\":12992:12998   */\n      dup3\n        /* \"#utility.yul\":12988:13002   */\n      add\n        /* \"#utility.yul\":12981:13071   */\n      mstore\n        /* \"#utility.yul\":12864:13078   */\n      pop\n      jump\t// out\n        /* \"#utility.yul\":13084:13484   */\n    tag_413:\n        /* \"#utility.yul\":13244:13247   */\n      0x00\n        /* \"#utility.yul\":13265:13349   */\n      tag_573\n        /* \"#utility.yul\":13347:13348   */\n      0x01\n        /* \"#utility.yul\":13342:13345   */\n      dup4\n        /* \"#utility.yul\":13265:13349   */\n      tag_411\n      jump\t// in\n    tag_573:\n        /* \"#utility.yul\":13258:13349   */\n      swap2\n      pop\n        /* \"#utility.yul\":13358:13451   */\n      tag_574\n        /* \"#utility.yul\":13447:13450   */\n      dup3\n        /* \"#utility.yul\":13358:13451   */\n      tag_412\n      jump\t// in\n    tag_574:\n        /* \"#utility.yul\":13476:13477   */\n      0x01\n        /* \"#utility.yul\":13471:13474   */\n      dup3\n        /* \"#utility.yul\":13467:13478   */\n      add\n        /* \"#utility.yul\":13460:13478   */\n      swap1\n      pop\n        /* \"#utility.yul\":13084:13484   */\n      swap2\n      swap1\n      pop\n      jump\t// out\n        /* \"#utility.yul\":13490:13567   */\n    tag_414:\n        /* \"#utility.yul\":13527:13534   */\n      0x00\n        /* \"#utility.yul\":13556:13561   */\n      dup2\n        /* \"#utility.yul\":13545:13561   */\n      swap1\n      pop\n        /* \"#utility.yul\":13490:13567   */\n      swap2\n      swap1\n      pop\n      jump\t// out\n        /* \"#utility.yul\":13573:13652   */\n    tag_415:\n        /* \"#utility.yul\":13612:13619   */\n      0x00\n        /* \"#utility.yul\":13641:13646   */\n      dup2\n        /* \"#utility.yul\":13630:13646   */\n      swap1\n      pop\n        /* \"#utility.yul\":13573:13652   */\n      swap2\n      swap1\n      pop\n      jump\t// out\n        /* \"#utility.yul\":13658:13815   */\n    tag_416:\n        /* \"#utility.yul\":13763:13808   */\n      tag_578\n        /* \"#utility.yul\":13783:13807   */\n      tag_579\n        /* \"#utility.yul\":13801:13806   */\n      dup3\n        /* \"#utility.yul\":13783:13807   */\n      tag_414\n      jump\t// in\n    tag_579:\n        /* \"#utility.yul\":13763:13808   */\n      tag_415\n      jump\t// in\n    tag_578:\n        /* \"#utility.yul\":13758:13761   */\n      dup3\n        /* \"#utility.yul\":13751:13809   */\n      mstore\n        /* \"#utility.yul\":13658:13815   */\n      pop\n      pop\n      jump\t// out\n        /* \"#utility.yul\":13821:14625   */\n    tag_114:\n        /* \"#utility.yul\":14090:14093   */\n      0x00\n        /* \"#utility.yul\":14112:14260   */\n      tag_581\n        /* \"#utility.yul\":14256:14259   */\n      dup3\n        /* \"#utility.yul\":14112:14260   */\n      tag_413\n      jump\t// in\n    tag_581:\n        /* \"#utility.yul\":14105:14260   */\n      swap2\n      pop\n        /* \"#utility.yul\":14270:14345   */\n      tag_582\n        /* \"#utility.yul\":14341:14344   */\n      dup3\n        /* \"#utility.yul\":14332:14338   */\n      dup7\n        /* \"#utility.yul\":14270:14345   */\n      tag_406\n      jump\t// in\n    tag_582:\n        /* \"#utility.yul\":14370:14372   */\n      0x14\n        /* \"#utility.yul\":14365:14368   */\n      dup3\n        /* \"#utility.yul\":14361:14373   */\n      add\n        /* \"#utility.yul\":14354:14373   */\n      swap2\n      pop\n        /* \"#utility.yul\":14383:14458   */\n      tag_583\n        /* \"#utility.yul\":14454:14457   */\n      dup3\n        /* \"#utility.yul\":14445:14451   */\n      dup6\n        /* \"#utility.yul\":14383:14458   */\n      tag_416\n      jump\t// in\n    tag_583:\n        /* \"#utility.yul\":14483:14485   */\n      0x20\n        /* \"#utility.yul\":14478:14481   */\n      dup3\n        /* \"#utility.yul\":14474:14486   */\n      add\n        /* \"#utility.yul\":14467:14486   */\n      swap2\n      pop\n        /* \"#utility.yul\":14496:14571   */\n      tag_584\n        /* \"#utility.yul\":14567:14570   */\n      dup3\n        /* \"#utility.yul\":14558:14564   */\n      dup5\n        /* \"#utility.yul\":14496:14571   */\n      tag_416\n      jump\t// in\n    tag_584:\n        /* \"#utility.yul\":14596:14598   */\n      0x20\n        /* \"#utility.yul\":14591:14594   */\n      dup3\n        /* \"#utility.yul\":14587:14599   */\n      add\n        /* \"#utility.yul\":14580:14599   */\n      swap2\n      pop\n        /* \"#utility.yul\":14616:14619   */\n      dup2\n        /* \"#utility.yul\":14609:14619   */\n      swap1\n      pop\n        /* \"#utility.yul\":13821:14625   */\n      swap5\n      swap4\n      pop\n      pop\n      pop\n      pop\n      jump\t// out\n        /* \"#utility.yul\":14631:14800   */\n    tag_417:\n        /* \"#utility.yul\":14715:14726   */\n      0x00\n        /* \"#utility.yul\":14749:14755   */\n      dup3\n        /* \"#utility.yul\":14744:14747   */\n      dup3\n        /* \"#utility.yul\":14737:14756   */\n      mstore\n        /* \"#utility.yul\":14789:14793   */\n      0x20\n        /* \"#utility.yul\":14784:14787   */\n      dup3\n        /* \"#utility.yul\":14780:14794   */\n      add\n        /* \"#utility.yul\":14765:14794   */\n      swap1\n      pop\n        /* \"#utility.yul\":14631:14800   */\n      swap3\n      swap2\n      pop\n      pop\n      jump\t// out\n        /* \"#utility.yul\":14806:14975   */\n    tag_418:\n        /* \"#utility.yul\":14946:14967   */\n      0x4944454e544943414c5f41444452455353455300000000000000000000000000\n        /* \"#utility.yul\":14942:14943   */\n      0x00\n        /* \"#utility.yul\":14934:14940   */\n      dup3\n        /* \"#utility.yul\":14930:14944   */\n      add\n        /* \"#utility.yul\":14923:14968   */\n      mstore\n        /* \"#utility.yul\":14806:14975   */\n      pop\n      jump\t// out\n        /* \"#utility.yul\":14981:15347   */\n    tag_419:\n        /* \"#utility.yul\":15123:15126   */\n      0x00\n        /* \"#utility.yul\":15144:15211   */\n      tag_588\n        /* \"#utility.yul\":15208:15210   */\n      0x13\n        /* \"#utility.yul\":15203:15206   */\n      dup4\n        /* \"#utility.yul\":15144:15211   */\n      tag_417\n      jump\t// in\n    tag_588:\n        /* \"#utility.yul\":15137:15211   */\n      swap2\n      pop\n        /* \"#utility.yul\":15220:15313   */\n      tag_589\n        /* \"#utility.yul\":15309:15312   */\n      dup3\n        /* \"#utility.yul\":15220:15313   */\n      tag_418\n      jump\t// in\n    tag_589:\n        /* \"#utility.yul\":15338:15340   */\n      0x20\n        /* \"#utility.yul\":15333:15336   */\n      dup3\n        /* \"#utility.yul\":15329:15341   */\n      add\n        /* \"#utility.yul\":15322:15341   */\n      swap1\n      pop\n        /* \"#utility.yul\":14981:15347   */\n      swap2\n      swap1\n      pop\n      jump\t// out\n        /* \"#utility.yul\":15353:15772   */\n    tag_132:\n        /* \"#utility.yul\":15519:15523   */\n      0x00\n        /* \"#utility.yul\":15557:15559   */\n      0x20\n        /* \"#utility.yul\":15546:15555   */\n      dup3\n        /* \"#utility.yul\":15542:15560   */\n      add\n        /* \"#utility.yul\":15534:15560   */\n      swap1\n      pop\n        /* \"#utility.yul\":15606:15615   */\n      dup2\n        /* \"#utility.yul\":15600:15604   */\n      dup2\n        /* \"#utility.yul\":15596:15616   */\n      sub\n        /* \"#utility.yul\":15592:15593   */\n      0x00\n        /* \"#utility.yul\":15581:15590   */\n      dup4\n        /* \"#utility.yul\":15577:15594   */\n      add\n        /* \"#utility.yul\":15570:15617   */\n      mstore\n        /* \"#utility.yul\":15634:15765   */\n      tag_591\n        /* \"#utility.yul\":15760:15764   */\n      dup2\n        /* \"#utility.yul\":15634:15765   */\n      tag_419\n      jump\t// in\n    tag_591:\n        /* \"#utility.yul\":15626:15765   */\n      swap1\n      pop\n        /* \"#utility.yul\":15353:15772   */\n      swap2\n      swap1\n      pop\n      jump\t// out\n        /* \"#utility.yul\":15778:15940   */\n    tag_420:\n        /* \"#utility.yul\":15918:15932   */\n      0x5a45524f5f414444524553530000000000000000000000000000000000000000\n        /* \"#utility.yul\":15914:15915   */\n      0x00\n        /* \"#utility.yul\":15906:15912   */\n      dup3\n        /* \"#utility.yul\":15902:15916   */\n      add\n        /* \"#utility.yul\":15895:15933   */\n      mstore\n        /* \"#utility.yul\":15778:15940   */\n      pop\n      jump\t// out\n        /* \"#utility.yul\":15946:16312   */\n    tag_421:\n        /* \"#utility.yul\":16088:16091   */\n      0x00\n        /* \"#utility.yul\":16109:16176   */\n      tag_594\n        /* \"#utility.yul\":16173:16175   */\n      0x0c\n        /* \"#utility.yul\":16168:16171   */\n      dup4\n        /* \"#utility.yul\":16109:16176   */\n      tag_417\n      jump\t// in\n    tag_594:\n        /* \"#utility.yul\":16102:16176   */\n      swap2\n      pop\n        /* \"#utility.yul\":16185:16278   */\n      tag_595\n        /* \"#utility.yul\":16274:16277   */\n      dup3\n        /* \"#utility.yul\":16185:16278   */\n      tag_420\n      jump\t// in\n    tag_595:\n        /* \"#utility.yul\":16303:16305   */\n      0x20\n        /* \"#utility.yul\":16298:16301   */\n      dup3\n        /* \"#utility.yul\":16294:16306   */\n      add\n        /* \"#utility.yul\":16287:16306   */\n      swap1\n      pop\n        /* \"#utility.yul\":15946:16312   */\n      swap2\n      swap1\n      pop\n      jump\t// out\n        /* \"#utility.yul\":16318:16737   */\n    tag_137:\n        /* \"#utility.yul\":16484:16488   */\n      0x00\n        /* \"#utility.yul\":16522:16524   */\n      0x20\n        /* \"#utility.yul\":16511:16520   */\n      dup3\n        /* \"#utility.yul\":16507:16525   */\n      add\n        /* \"#utility.yul\":16499:16525   */\n      swap1\n      pop\n        /* \"#utility.yul\":16571:16580   */\n      dup2\n        /* \"#utility.yul\":16565:16569   */\n      dup2\n        /* \"#utility.yul\":16561:16581   */\n      sub\n        /* \"#utility.yul\":16557:16558   */\n      0x00\n        /* \"#utility.yul\":16546:16555   */\n      dup4\n        /* \"#utility.yul\":16542:16559   */\n      add\n        /* \"#utility.yul\":16535:16582   */\n      mstore\n        /* \"#utility.yul\":16599:16730   */\n      tag_597\n        /* \"#utility.yul\":16725:16729   */\n      dup2\n        /* \"#utility.yul\":16599:16730   */\n      tag_421\n      jump\t// in\n    tag_597:\n        /* \"#utility.yul\":16591:16730   */\n      swap1\n      pop\n        /* \"#utility.yul\":16318:16737   */\n      swap2\n      swap1\n      pop\n      jump\t// out\n        /* \"#utility.yul\":16743:16934   */\n    tag_267:\n        /* \"#utility.yul\":16783:16787   */\n      0x00\n        /* \"#utility.yul\":16803:16823   */\n      tag_599\n        /* \"#utility.yul\":16821:16822   */\n      dup3\n        /* \"#utility.yul\":16803:16823   */\n      tag_380\n      jump\t// in\n    tag_599:\n        /* \"#utility.yul\":16798:16823   */\n      swap2\n      pop\n        /* \"#utility.yul\":16837:16857   */\n      tag_600\n        /* \"#utility.yul\":16855:16856   */\n      dup4\n        /* \"#utility.yul\":16837:16857   */\n      tag_380\n      jump\t// in\n    tag_600:\n        /* \"#utility.yul\":16832:16857   */\n      swap3\n      pop\n        /* \"#utility.yul\":16876:16877   */\n      dup3\n        /* \"#utility.yul\":16873:16874   */\n      dup3\n        /* \"#utility.yul\":16870:16878   */\n      lt\n        /* \"#utility.yul\":16867:16901   */\n      iszero\n      tag_601\n      jumpi\n        /* \"#utility.yul\":16881:16899   */\n      tag_602\n      tag_401\n      jump\t// in\n    tag_602:\n        /* \"#utility.yul\":16867:16901   */\n    tag_601:\n        /* \"#utility.yul\":16926:16927   */\n      dup3\n        /* \"#utility.yul\":16923:16924   */\n      dup3\n        /* \"#utility.yul\":16919:16928   */\n      sub\n        /* \"#utility.yul\":16911:16928   */\n      swap1\n      pop\n        /* \"#utility.yul\":16743:16934   */\n      swap3\n      swap2\n      pop\n      pop\n      jump\t// out\n        /* \"#utility.yul\":16940:17042   */\n    tag_422:\n        /* \"#utility.yul\":16982:16990   */\n      0x00\n        /* \"#utility.yul\":17029:17034   */\n      dup2\n        /* \"#utility.yul\":17026:17027   */\n      0x01\n        /* \"#utility.yul\":17022:17035   */\n      shr\n        /* \"#utility.yul\":17001:17035   */\n      swap1\n      pop\n        /* \"#utility.yul\":16940:17042   */\n      swap2\n      swap1\n      pop\n      jump\t// out\n        /* \"#utility.yul\":17048:17896   */\n    tag_423:\n        /* \"#utility.yul\":17109:17114   */\n      0x00\n        /* \"#utility.yul\":17116:17120   */\n      dup1\n        /* \"#utility.yul\":17140:17146   */\n      dup3\n        /* \"#utility.yul\":17131:17146   */\n      swap2\n      pop\n        /* \"#utility.yul\":17164:17169   */\n      dup4\n        /* \"#utility.yul\":17155:17169   */\n      swap1\n      pop\n        /* \"#utility.yul\":17178:17890   */\n    tag_605:\n        /* \"#utility.yul\":17199:17200   */\n      0x01\n        /* \"#utility.yul\":17189:17197   */\n      dup6\n        /* \"#utility.yul\":17186:17201   */\n      gt\n        /* \"#utility.yul\":17178:17890   */\n      iszero\n      tag_607\n      jumpi\n        /* \"#utility.yul\":17294:17298   */\n      dup1\n        /* \"#utility.yul\":17289:17292   */\n      dup7\n        /* \"#utility.yul\":17285:17299   */\n      div\n        /* \"#utility.yul\":17279:17283   */\n      dup2\n        /* \"#utility.yul\":17276:17300   */\n      gt\n        /* \"#utility.yul\":17273:17323   */\n      iszero\n      tag_608\n      jumpi\n        /* \"#utility.yul\":17303:17321   */\n      tag_609\n      tag_401\n      jump\t// in\n    tag_609:\n        /* \"#utility.yul\":17273:17323   */\n    tag_608:\n        /* \"#utility.yul\":17353:17354   */\n      0x01\n        /* \"#utility.yul\":17343:17351   */\n      dup6\n        /* \"#utility.yul\":17339:17355   */\n      and\n        /* \"#utility.yul\":17336:17787   */\n      iszero\n      tag_610\n      jumpi\n        /* \"#utility.yul\":17768:17772   */\n      dup1\n        /* \"#utility.yul\":17761:17766   */\n      dup3\n        /* \"#utility.yul\":17757:17773   */\n      mul\n        /* \"#utility.yul\":17748:17773   */\n      swap2\n      pop\n        /* \"#utility.yul\":17336:17787   */\n    tag_610:\n        /* \"#utility.yul\":17818:17822   */\n      dup1\n        /* \"#utility.yul\":17812:17816   */\n      dup2\n        /* \"#utility.yul\":17808:17823   */\n      mul\n        /* \"#utility.yul\":17800:17823   */\n      swap1\n      pop\n        /* \"#utility.yul\":17848:17880   */\n      tag_611\n        /* \"#utility.yul\":17871:17879   */\n      dup6\n        /* \"#utility.yul\":17848:17880   */\n      tag_422\n      jump\t// in\n    tag_611:\n        /* \"#utility.yul\":17836:17880   */\n      swap5\n      pop\n        /* \"#utility.yul\":17178:17890   */\n      jump(tag_605)\n    tag_607:\n        /* \"#utility.yul\":17048:17896   */\n      swap5\n      pop\n      swap5\n      swap3\n      pop\n      pop\n      pop\n      jump\t// out\n        /* \"#utility.yul\":17902:18975   */\n    tag_424:\n        /* \"#utility.yul\":17956:17961   */\n      0x00\n        /* \"#utility.yul\":18147:18155   */\n      dup3\n        /* \"#utility.yul\":18137:18177   */\n      tag_613\n      jumpi\n        /* \"#utility.yul\":18168:18169   */\n      0x01\n        /* \"#utility.yul\":18159:18169   */\n      swap1\n      pop\n        /* \"#utility.yul\":18170:18175   */\n      jump(tag_612)\n        /* \"#utility.yul\":18137:18177   */\n    tag_613:\n        /* \"#utility.yul\":18196:18200   */\n      dup2\n        /* \"#utility.yul\":18186:18222   */\n      tag_614\n      jumpi\n        /* \"#utility.yul\":18213:18214   */\n      0x00\n        /* \"#utility.yul\":18204:18214   */\n      swap1\n      pop\n        /* \"#utility.yul\":18215:18220   */\n      jump(tag_612)\n        /* \"#utility.yul\":18186:18222   */\n    tag_614:\n        /* \"#utility.yul\":18282:18286   */\n      dup2\n        /* \"#utility.yul\":18330:18331   */\n      0x01\n        /* \"#utility.yul\":18325:18352   */\n      dup2\n      eq\n      tag_616\n      jumpi\n        /* \"#utility.yul\":18366:18367   */\n      0x02\n        /* \"#utility.yul\":18361:18552   */\n      dup2\n      eq\n      tag_617\n      jumpi\n        /* \"#utility.yul\":18275:18552   */\n      jump(tag_615)\n        /* \"#utility.yul\":18325:18352   */\n    tag_616:\n        /* \"#utility.yul\":18343:18344   */\n      0x01\n        /* \"#utility.yul\":18334:18344   */\n      swap2\n      pop\n        /* \"#utility.yul\":18345:18350   */\n      pop\n      jump(tag_612)\n        /* \"#utility.yul\":18361:18552   */\n    tag_617:\n        /* \"#utility.yul\":18406:18409   */\n      0xff\n        /* \"#utility.yul\":18396:18404   */\n      dup5\n        /* \"#utility.yul\":18393:18410   */\n      gt\n        /* \"#utility.yul\":18390:18433   */\n      iszero\n      tag_618\n      jumpi\n        /* \"#utility.yul\":18413:18431   */\n      tag_619\n      tag_401\n      jump\t// in\n    tag_619:\n        /* \"#utility.yul\":18390:18433   */\n    tag_618:\n        /* \"#utility.yul\":18462:18470   */\n      dup4\n        /* \"#utility.yul\":18459:18460   */\n      0x02\n        /* \"#utility.yul\":18455:18471   */\n      exp\n        /* \"#utility.yul\":18446:18471   */\n      swap2\n      pop\n        /* \"#utility.yul\":18497:18500   */\n      dup5\n        /* \"#utility.yul\":18490:18495   */\n      dup3\n        /* \"#utility.yul\":18487:18501   */\n      gt\n        /* \"#utility.yul\":18484:18524   */\n      iszero\n      tag_620\n      jumpi\n        /* \"#utility.yul\":18504:18522   */\n      tag_621\n      tag_401\n      jump\t// in\n    tag_621:\n        /* \"#utility.yul\":18484:18524   */\n    tag_620:\n        /* \"#utility.yul\":18537:18542   */\n      pop\n      jump(tag_612)\n        /* \"#utility.yul\":18275:18552   */\n    tag_615:\n      pop\n        /* \"#utility.yul\":18661:18663   */\n      0x20\n        /* \"#utility.yul\":18651:18659   */\n      dup4\n        /* \"#utility.yul\":18648:18664   */\n      lt\n        /* \"#utility.yul\":18642:18645   */\n      0x0133\n        /* \"#utility.yul\":18636:18640   */\n      dup4\n        /* \"#utility.yul\":18633:18646   */\n      lt\n        /* \"#utility.yul\":18629:18665   */\n      and\n        /* \"#utility.yul\":18611:18613   */\n      0x4e\n        /* \"#utility.yul\":18601:18609   */\n      dup5\n        /* \"#utility.yul\":18598:18614   */\n      lt\n        /* \"#utility.yul\":18593:18595   */\n      0x0b\n        /* \"#utility.yul\":18587:18591   */\n      dup5\n        /* \"#utility.yul\":18584:18596   */\n      lt\n        /* \"#utility.yul\":18580:18615   */\n      and\n        /* \"#utility.yul\":18564:18675   */\n      or\n        /* \"#utility.yul\":18561:18807   */\n      iszero\n      tag_622\n      jumpi\n        /* \"#utility.yul\":18717:18725   */\n      dup3\n        /* \"#utility.yul\":18711:18715   */\n      dup3\n        /* \"#utility.yul\":18707:18726   */\n      exp\n        /* \"#utility.yul\":18698:18726   */\n      swap1\n      pop\n        /* \"#utility.yul\":18752:18755   */\n      dup4\n        /* \"#utility.yul\":18745:18750   */\n      dup2\n        /* \"#utility.yul\":18742:18756   */\n      gt\n        /* \"#utility.yul\":18739:18779   */\n      iszero\n      tag_623\n      jumpi\n        /* \"#utility.yul\":18759:18777   */\n      tag_624\n      tag_401\n      jump\t// in\n    tag_624:\n        /* \"#utility.yul\":18739:18779   */\n    tag_623:\n        /* \"#utility.yul\":18792:18797   */\n      jump(tag_612)\n        /* \"#utility.yul\":18561:18807   */\n    tag_622:\n        /* \"#utility.yul\":18832:18874   */\n      tag_625\n        /* \"#utility.yul\":18870:18873   */\n      dup5\n        /* \"#utility.yul\":18860:18868   */\n      dup5\n        /* \"#utility.yul\":18854:18858   */\n      dup5\n        /* \"#utility.yul\":18851:18852   */\n      0x01\n        /* \"#utility.yul\":18832:18874   */\n      tag_423\n      jump\t// in\n    tag_625:\n        /* \"#utility.yul\":18817:18874   */\n      swap3\n      pop\n      swap1\n      pop\n        /* \"#utility.yul\":18906:18910   */\n      dup2\n        /* \"#utility.yul\":18901:18904   */\n      dup5\n        /* \"#utility.yul\":18897:18911   */\n      div\n        /* \"#utility.yul\":18890:18895   */\n      dup2\n        /* \"#utility.yul\":18887:18912   */\n      gt\n        /* \"#utility.yul\":18884:18935   */\n      iszero\n      tag_626\n      jumpi\n        /* \"#utility.yul\":18915:18933   */\n      tag_627\n      tag_401\n      jump\t// in\n    tag_627:\n        /* \"#utility.yul\":18884:18935   */\n    tag_626:\n        /* \"#utility.yul\":18964:18968   */\n      dup2\n        /* \"#utility.yul\":18957:18962   */\n      dup2\n        /* \"#utility.yul\":18953:18969   */\n      mul\n        /* \"#utility.yul\":18944:18969   */\n      swap1\n      pop\n        /* \"#utility.yul\":17902:18975   */\n    tag_612:\n      swap4\n      swap3\n      pop\n      pop\n      pop\n      jump\t// out\n        /* \"#utility.yul\":18981:19266   */\n    tag_272:\n        /* \"#utility.yul\":19041:19046   */\n      0x00\n        /* \"#utility.yul\":19065:19088   */\n      tag_629\n        /* \"#utility.yul\":19083:19087   */\n      dup3\n        /* \"#utility.yul\":19065:19088   */\n      tag_380\n      jump\t// in\n    tag_629:\n        /* \"#utility.yul\":19057:19088   */\n      swap2\n      pop\n        /* \"#utility.yul\":19109:19136   */\n      tag_630\n        /* \"#utility.yul\":19127:19135   */\n      dup4\n        /* \"#utility.yul\":19109:19136   */\n      tag_380\n      jump\t// in\n    tag_630:\n        /* \"#utility.yul\":19097:19136   */\n      swap3\n      pop\n        /* \"#utility.yul\":19155:19259   */\n      tag_631\n        /* \"#utility.yul\":19192:19258   */\n      0xffffffffffffffffffffffffffffffffffffffffffffffffffffffffffffffff\n        /* \"#utility.yul\":19182:19190   */\n      dup5\n        /* \"#utility.yul\":19176:19180   */\n      dup5\n        /* \"#utility.yul\":19155:19259   */\n      tag_424\n      jump\t// in\n    tag_631:\n        /* \"#utility.yul\":19146:19259   */\n      swap1\n      pop\n        /* \"#utility.yul\":18981:19266   */\n      swap3\n      swap2\n      pop\n      pop\n      jump\t// out\n        /* \"#utility.yul\":19272:19577   */\n    tag_292:\n        /* \"#utility.yul\":19312:19315   */\n      0x00\n        /* \"#utility.yul\":19331:19351   */\n      tag_633\n        /* \"#utility.yul\":19349:19350   */\n      dup3\n        /* \"#utility.yul\":19331:19351   */\n      tag_380\n      jump\t// in\n    tag_633:\n        /* \"#utility.yul\":19326:19351   */\n      swap2\n      pop\n        /* \"#utility.yul\":19365:19385   */\n      tag_634\n        /* \"#utility.yul\":19383:19384   */\n      dup4\n        /* \"#utility.yul\":19365:19385   */\n      tag_380\n      jump\t// in\n    tag_634:\n        /* \"#utility.yul\":19360:19385   */\n      swap3\n      pop\n        /* \"#utility.yul\":19519:19520   */\n      dup3\n        /* \"#utility.yul\":19451:19517   */\n      0xffffffffffffffffffffffffffffffffffffffffffffffffffffffffffffffff\n        /* \"#utility.yul\":19447:19521   */\n      sub\n        /* \"#utility.yul\":19444:19445   */\n      dup3\n        /* \"#utility.yul\":19441:19522   */\n      gt\n        /* \"#utility.yul\":19438:19545   */\n      iszero\n      tag_635\n      jumpi\n        /* \"#utility.yul\":19525:19543   */\n      tag_636\n      tag_401\n      jump\t// in\n    tag_636:\n        /* \"#utility.yul\":19438:19545   */\n    tag_635:\n        /* \"#utility.yul\":19569:19570   */\n      dup3\n        /* \"#utility.yul\":19566:19567   */\n      dup3\n        /* \"#utility.yul\":19562:19571   */\n      add\n        /* \"#utility.yul\":19555:19571   */\n      swap1\n      pop\n        /* \"#utility.yul\":19272:19577   */\n      swap3\n      swap2\n      pop\n      pop\n      jump\t// out\n        /* \"#utility.yul\":19583:19816   */\n    tag_351:\n        /* \"#utility.yul\":19622:19625   */\n      0x00\n        /* \"#utility.yul\":19645:19669   */\n      tag_638\n        /* \"#utility.yul\":19663:19668   */\n      dup3\n        /* \"#utility.yul\":19645:19669   */\n      tag_380\n      jump\t// in\n    tag_638:\n        /* \"#utility.yul\":19636:19669   */\n      swap2\n      pop\n        /* \"#utility.yul\":19691:19757   */\n      0xffffffffffffffffffffffffffffffffffffffffffffffffffffffffffffffff\n        /* \"#utility.yul\":19684:19689   */\n      dup3\n        /* \"#utility.yul\":19681:19758   */\n      sub\n        /* \"#utility.yul\":19678:19781   */\n      tag_639\n      jumpi\n        /* \"#utility.yul\":19761:19779   */\n      tag_640\n      tag_401\n      jump\t// in\n    tag_640:\n        /* \"#utility.yul\":19678:19781   */\n    tag_639:\n        /* \"#utility.yul\":19808:19809   */\n      0x01\n        /* \"#utility.yul\":19801:19806   */\n      dup3\n        /* \"#utility.yul\":19797:19810   */\n      add\n        /* \"#utility.yul\":19790:19810   */\n      swap1\n      pop\n        /* \"#utility.yul\":19583:19816   */\n      swap2\n      swap1\n      pop\n      jump\t// out\n\n    auxdata: 0xa264697066735822122015bb636387d13522af796b703adb7004db2d51ea3d9d3fe88c7d909d326a4e4164736f6c634300080f0033\n}\n",
				"bytecode": {
					"linkReferences": {},
					"object": "60e06040523480156200001157600080fd5b5060405162002abb38038062002abb83398181016040528101906200003791906200026b565b8073ffffffffffffffffffffffffffffffffffffffff1660a08173ffffffffffffffffffffffffffffffffffffffff16815250508073ffffffffffffffffffffffffffffffffffffffff1663c45a01556040518163ffffffff1660e01b8152600401602060405180830381865afa158015620000b7573d6000803e3d6000fd5b505050506040513d601f19601f82011682018060405250810190620000dd91906200026b565b73ffffffffffffffffffffffffffffffffffffffff1660808173ffffffffffffffffffffffffffffffffffffffff16815250508073ffffffffffffffffffffffffffffffffffffffff1663c45a01556040518163ffffffff1660e01b8152600401602060405180830381865afa1580156200015c573d6000803e3d6000fd5b505050506040513d601f19601f820116820180604052508101906200018291906200026b565b73ffffffffffffffffffffffffffffffffffffffff16639aab92486040518163ffffffff1660e01b8152600401602060405180830381865afa158015620001cd573d6000803e3d6000fd5b505050506040513d601f19601f82011682018060405250810190620001f39190620002d8565b60c08181525050506200030a565b600080fd5b600073ffffffffffffffffffffffffffffffffffffffff82169050919050565b6000620002338262000206565b9050919050565b620002458162000226565b81146200025157600080fd5b50565b60008151905062000265816200023a565b92915050565b60006020828403121562000284576200028362000201565b5b6000620002948482850162000254565b91505092915050565b6000819050919050565b620002b2816200029d565b8114620002be57600080fd5b50565b600081519050620002d281620002a7565b92915050565b600060208284031215620002f157620002f062000201565b5b60006200030184828501620002c1565b91505092915050565b60805160a05160c0516127496200037260003960006105a301526000818161033701528181610606015281816108d901528181610a8501528181610c85015281816110c9015281816112ba0152611573015260008181610557015261128b01526127496000f3fe608060405234801561001057600080fd5b50600436106100cf5760003560e01c8063bc1130361161008c578063c45a015511610066578063c45a01551461028c578063da214231146102aa578063ec323c00146102da578063f887ea401461030b576100cf565b8063bc113036146101fa578063bdefde181461022b578063be3b428e1461025c576100cf565b8063400b4829146100d45780634c1ee03e146101055780635250073314610135578063544caa56146101675780637055083514610198578063865db5e2146101c9575b600080fd5b6100ee60048036038101906100e99190611ce7565b610329565b6040516100fc929190611d5d565b60405180910390f35b61011f600480360381019061011a9190611d86565b610542565b60405161012c9190611de8565b60405180910390f35b61014f600480360381019061014a9190611d86565b6105f8565b60405161015e93929190611e03565b60405180910390f35b610181600480360381019061017c9190611e3a565b61079f565b60405161018f929190611e7a565b60405180910390f35b6101b260048036038101906101ad9190611ea3565b6108cb565b6040516101c0929190611d5d565b60405180910390f35b6101e360048036038101906101de9190611ce7565b610a77565b6040516101f1929190611d5d565b60405180910390f35b610214600480360381019061020f9190611ce7565b610c77565b604051610222929190611d5d565b60405180910390f35b61024560048036038101906102409190611d86565b610e98565b604051610253929190611d5d565b60405180910390f35b61027660048036038101906102719190611d86565b6110bc565b6040516102839190611f1e565b60405180910390f35b610294611289565b6040516102a19190611de8565b60405180910390f35b6102c460048036038101906102bf9190611ce7565b6112ad565b6040516102d19190611f1e565b60405180910390f35b6102f460048036038101906102ef9190611f39565b61140f565b604051610302929190611d5d565b60405180910390f35b610313611571565b6040516103209190611feb565b60405180910390f35b6000806000806000806000807f000000000000000000000000000000000000000000000000000000000000000073ffffffffffffffffffffffffffffffffffffffff16634c1ee03e8c8c8c6040518463ffffffff1660e01b815260040161039293929190612015565b602060405180830381865afa1580156103af573d6000803e3d6000fd5b505050506040513d601f19601f820116820180604052508101906103d39190612061565b73ffffffffffffffffffffffffffffffffffffffff1663392f37e96040518163ffffffff1660e01b815260040160e060405180830381865afa15801561041d573d6000803e3d6000fd5b505050506040513d601f19601f8201168201806040525081019061044191906120b8565b509550955095509550955095506000896104c3578173ffffffffffffffffffffffffffffffffffffffff168c73ffffffffffffffffffffffffffffffffffffffff16146104a4578487856104959190612189565b61049f9190612212565b6104bc565b8386866104b19190612189565b6104bb9190612212565b5b90506104d2565b6104cf8c838989611595565b90505b80670de0b6b3a76400006104ec838f8989888e8e8c611668565b6104f69190612189565b6105009190612212565b98508c670de0b6b3a764000061051c8f8f8989888e8e8c611668565b6105269190612189565b6105309190612212565b97505050505050505094509492505050565b6000806000610551868661079f565b915091507f000000000000000000000000000000000000000000000000000000000000000082828660405160200161058b939291906122d3565b604051602081830303815290604052805190602001207f00000000000000000000000000000000000000000000000000000000000000006040516020016105d493929190612392565b6040516020818303038152906040528051906020012060001c925050509392505050565b6000806000806000806000807f000000000000000000000000000000000000000000000000000000000000000073ffffffffffffffffffffffffffffffffffffffff16634c1ee03e8c8c8c6040518463ffffffff1660e01b815260040161066193929190612015565b602060405180830381865afa15801561067e573d6000803e3d6000fd5b505050506040513d601f19601f820116820180604052508101906106a29190612061565b73ffffffffffffffffffffffffffffffffffffffff1663392f37e96040518163ffffffff1660e01b815260040160e060405180830381865afa1580156106ec573d6000803e3d6000fd5b505050506040513d601f19601f8201168201806040525081019061071091906120b8565b50955050945094509450945060008173ffffffffffffffffffffffffffffffffffffffff168c73ffffffffffffffffffffffffffffffffffffffff161461076d5783868461075e9190612189565b6107689190612212565b610785565b82858561077a9190612189565b6107849190612212565b5b905080848498509850985050505050505093509350939050565b6000808273ffffffffffffffffffffffffffffffffffffffff168473ffffffffffffffffffffffffffffffffffffffff1603610810576040517f08c379a000000000000000000000000000000000000000000000000000000000815260040161080790612437565b60405180910390fd5b8273ffffffffffffffffffffffffffffffffffffffff168473ffffffffffffffffffffffffffffffffffffffff161061084a57828461084d565b83835b8092508193505050600073ffffffffffffffffffffffffffffffffffffffff168273ffffffffffffffffffffffffffffffffffffffff16036108c4576040517f08c379a00000000000000000000000000000000000000000000000000000000081526004016108bb906124a3565b60405180910390fd5b9250929050565b6000806000806000806000807f000000000000000000000000000000000000000000000000000000000000000073ffffffffffffffffffffffffffffffffffffffff16634c1ee03e8d8d8d6040518463ffffffff1660e01b815260040161093493929190612015565b602060405180830381865afa158015610951573d6000803e3d6000fd5b505050506040513d601f19601f820116820180604052508101906109759190612061565b73ffffffffffffffffffffffffffffffffffffffff1663392f37e96040518163ffffffff1660e01b815260040160e060405180830381865afa1580156109bf573d6000803e3d6000fd5b505050506040513d601f19601f820116820180604052508101906109e391906120b8565b5095509550955095509550955060008903610a0757610a048c828888611595565b98505b88670de0b6b3a7640000610a218b8f8888878d8d8b611668565b610a2b9190612189565b610a359190612212565b97508c670de0b6b3a7640000610a518f8f8888878d8d8b611668565b610a5b9190612189565b610a659190612212565b96505050505050509550959350505050565b6000806000806000806000807f000000000000000000000000000000000000000000000000000000000000000073ffffffffffffffffffffffffffffffffffffffff16634c1ee03e8c8c8c6040518463ffffffff1660e01b8152600401610ae093929190612015565b602060405180830381865afa158015610afd573d6000803e3d6000fd5b505050506040513d601f19601f82011682018060405250810190610b219190612061565b73ffffffffffffffffffffffffffffffffffffffff1663392f37e96040518163ffffffff1660e01b815260040160e060405180830381865afa158015610b6b573d6000803e3d6000fd5b505050506040513d601f19601f82011682018060405250810190610b8f91906120b8565b5095509550955095509550955060008173ffffffffffffffffffffffffffffffffffffffff168c73ffffffffffffffffffffffffffffffffffffffff1614610bed57848785610bde9190612189565b610be89190612212565b610c05565b838686610bfa9190612189565b610c049190612212565b5b905080670de0b6b3a7640000610c21838f8989888e8e8c611668565b610c2b9190612189565b610c359190612212565b98508c670de0b6b3a7640000610c518f8f8989888e8e8c611668565b610c5b9190612189565b610c659190612212565b97505050505050505094509492505050565b6000806000806000806000807f000000000000000000000000000000000000000000000000000000000000000073ffffffffffffffffffffffffffffffffffffffff16634c1ee03e8c8c8c6040518463ffffffff1660e01b8152600401610ce093929190612015565b602060405180830381865afa158015610cfd573d6000803e3d6000fd5b505050506040513d601f19601f82011682018060405250810190610d219190612061565b73ffffffffffffffffffffffffffffffffffffffff1663392f37e96040518163ffffffff1660e01b815260040160e060405180830381865afa158015610d6b573d6000803e3d6000fd5b505050506040513d601f19601f82011682018060405250810190610d8f91906120b8565b50955095509550955095509550600089610e3f578173ffffffffffffffffffffffffffffffffffffffff168c73ffffffffffffffffffffffffffffffffffffffff1614610dfa5784670de0b6b3a764000085610deb9190612189565b610df59190612212565b610e1a565b83670de0b6b3a764000086610e0f9190612189565b610e199190612212565b5b670de0b6b3a76400008e610e2e9190612189565b610e389190612212565b9850610e76565b610e4b8c838989611595565b9050808d610e5f838f8989888e8e8c611668565b610e699190612189565b610e739190612212565b98505b610e868d8d8787868c8c8a611668565b97505050505050505094509492505050565b6000806000610ea8868686610542565b9050600073ffffffffffffffffffffffffffffffffffffffff168173ffffffffffffffffffffffffffffffffffffffff1603610eeb5760008092509250506110b4565b6000806000806000808673ffffffffffffffffffffffffffffffffffffffff1663392f37e96040518163ffffffff1660e01b815260040160e060405180830381865afa158015610f3f573d6000803e3d6000fd5b505050506040513d601f19601f82011682018060405250810190610f6391906120b8565b965096505095509550955095508173ffffffffffffffffffffffffffffffffffffffff168c73ffffffffffffffffffffffffffffffffffffffff1614610fa95782610fab565b835b98508073ffffffffffffffffffffffffffffffffffffffff168c73ffffffffffffffffffffffffffffffffffffffff1614610fe65782610fe8565b835b975060008273ffffffffffffffffffffffffffffffffffffffff168d73ffffffffffffffffffffffffffffffffffffffff16146110255785611027565b865b905060008273ffffffffffffffffffffffffffffffffffffffff168e73ffffffffffffffffffffffffffffffffffffffff16146110645786611066565b875b905081670de0b6b3a76400008c61107d9190612189565b6110879190612212565b9a5080670de0b6b3a76400008b61109e9190612189565b6110a89190612212565b99505050505050505050505b935093915050565b60008060008060008060007f000000000000000000000000000000000000000000000000000000000000000073ffffffffffffffffffffffffffffffffffffffff16634c1ee03e8b8b8b6040518463ffffffff1660e01b815260040161112493929190612015565b602060405180830381865afa158015611141573d6000803e3d6000fd5b505050506040513d601f19601f820116820180604052508101906111659190612061565b73ffffffffffffffffffffffffffffffffffffffff1663392f37e96040518163ffffffff1660e01b815260040160e060405180830381865afa1580156111af573d6000803e3d6000fd5b505050506040513d601f19601f820116820180604052508101906111d391906120b8565b5095509550955095509550955060008173ffffffffffffffffffffffffffffffffffffffff168b73ffffffffffffffffffffffffffffffffffffffff1614611231578487856112229190612189565b61122c9190612212565b611249565b83868661123e9190612189565b6112489190612212565b5b905080670de0b6b3a7640000611265838e8989888e8e8c611668565b61126f9190612189565b6112799190612212565b9750505050505050509392505050565b7f000000000000000000000000000000000000000000000000000000000000000081565b60008060008060008060007f000000000000000000000000000000000000000000000000000000000000000073ffffffffffffffffffffffffffffffffffffffff16634c1ee03e8b8b8b6040518463ffffffff1660e01b815260040161131593929190612015565b602060405180830381865afa158015611332573d6000803e3d6000fd5b505050506040513d601f19601f820116820180604052508101906113569190612061565b73ffffffffffffffffffffffffffffffffffffffff1663392f37e96040518163ffffffff1660e01b815260040160e060405180830381865afa1580156113a0573d6000803e3d6000fd5b505050506040513d601f19601f820116820180604052508101906113c491906120b8565b509550955095509550955095508a670de0b6b3a76400006113eb8d8d8888878d8d8b611668565b6113f59190612189565b6113ff9190612212565b9650505050505050949350505050565b6000806000806000806000808873ffffffffffffffffffffffffffffffffffffffff1663392f37e96040518163ffffffff1660e01b815260040160e060405180830381865afa158015611466573d6000803e3d6000fd5b505050506040513d601f19601f8201168201806040525081019061148a91906120b8565b5095509550955095509550955060008173ffffffffffffffffffffffffffffffffffffffff168b73ffffffffffffffffffffffffffffffffffffffff16146114e8578487856114d99190612189565b6114e39190612212565b611500565b8386866114f59190612189565b6114ff9190612212565b5b905080670de0b6b3a764000061151c838e8989888e8e8c611668565b6115269190612189565b6115309190612212565b98508b670de0b6b3a764000061154c8e8e8989888e8e8c611668565b6115569190612189565b6115609190612212565b975050505050505050935093915050565b7f000000000000000000000000000000000000000000000000000000000000000081565b6000808473ffffffffffffffffffffffffffffffffffffffff168673ffffffffffffffffffffffffffffffffffffffff16146115d157826115d3565b835b905060008573ffffffffffffffffffffffffffffffffffffffff168773ffffffffffffffffffffffffffffffffffffffff16146116105784611612565b835b905061271061164682841161163257838361162d91906124c3565b61163f565b828461163e91906124c3565b5b6001611880565b600a611652919061262a565b61165c9190612189565b92505050949350505050565b6000811561180957600061167f888885888861189a565b905084670de0b6b3a7640000896116969190612189565b6116a09190612212565b975083670de0b6b3a7640000886116b79190612189565b6116c19190612212565b96506000808773ffffffffffffffffffffffffffffffffffffffff168b73ffffffffffffffffffffffffffffffffffffffff161461170057888a611703565b89895b915091508773ffffffffffffffffffffffffffffffffffffffff168b73ffffffffffffffffffffffffffffffffffffffff161461175e5785670de0b6b3a76400008d61174f9190612189565b6117599190612212565b61177e565b86670de0b6b3a76400008d6117739190612189565b61177d9190612212565b5b9b506000611798838e6117919190612675565b8584611999565b826117a391906124c3565b9050670de0b6b3a76400008973ffffffffffffffffffffffffffffffffffffffff168d73ffffffffffffffffffffffffffffffffffffffff16146117e757886117e9565b875b826117f49190612189565b6117fe9190612212565b945050505050611874565b6000808673ffffffffffffffffffffffffffffffffffffffff168a73ffffffffffffffffffffffffffffffffffffffff1614611846578789611849565b88885b915091508a826118599190612675565b818c6118659190612189565b61186f9190612212565b925050505b98975050505050505050565b6000818310156118905781611892565b825b905092915050565b6000831561198157600083670de0b6b3a7640000886118b99190612189565b6118c39190612212565b9050600083670de0b6b3a7640000886118dc9190612189565b6118e69190612212565b90506000670de0b6b3a764000082846118ff9190612189565b6119099190612212565b90506000670de0b6b3a764000083846119229190612189565b61192c9190612212565b670de0b6b3a764000085866119419190612189565b61194b9190612212565b6119559190612675565b9050670de0b6b3a7640000818361196c9190612189565b6119769190612212565b945050505050611990565b848661198d9190612189565b90505b95945050505050565b600080600090505b60ff811015611ab657600083905060006119bb8786611ac2565b905085811015611a105760006119d18887611b84565b670de0b6b3a764000083896119e691906124c3565b6119f09190612189565b6119fa9190612212565b90508086611a089190612675565b955050611a57565b6000611a1c8887611b84565b670de0b6b3a76400008884611a3191906124c3565b611a3b9190612189565b611a459190612212565b90508086611a5391906124c3565b9550505b81851115611a825760018286611a6d91906124c3565b11611a7d57849350505050611abb565b611aa1565b60018583611a9091906124c3565b11611aa057849350505050611abb565b5b50508080611aae906126cb565b9150506119a1565b508190505b9392505050565b6000670de0b6b3a764000082670de0b6b3a764000085670de0b6b3a76400008788611aed9190612189565b611af79190612212565b611b019190612189565b611b0b9190612212565b611b159190612189565b611b1f9190612212565b670de0b6b3a76400008084670de0b6b3a76400008687611b3f9190612189565b611b499190612212565b611b539190612189565b611b5d9190612212565b85611b689190612189565b611b729190612212565b611b7c9190612675565b905092915050565b6000670de0b6b3a764000083670de0b6b3a76400008586611ba59190612189565b611baf9190612212565b611bb99190612189565b611bc39190612212565b670de0b6b3a7640000808485611bd99190612189565b611be39190612212565b856003611bf09190612189565b611bfa9190612189565b611c049190612212565b611c0e9190612675565b905092915050565b600080fd5b6000819050919050565b611c2e81611c1b565b8114611c3957600080fd5b50565b600081359050611c4b81611c25565b92915050565b600073ffffffffffffffffffffffffffffffffffffffff82169050919050565b6000611c7c82611c51565b9050919050565b611c8c81611c71565b8114611c9757600080fd5b50565b600081359050611ca981611c83565b92915050565b60008115159050919050565b611cc481611caf565b8114611ccf57600080fd5b50565b600081359050611ce181611cbb565b92915050565b60008060008060808587031215611d0157611d00611c16565b5b6000611d0f87828801611c3c565b9450506020611d2087828801611c9a565b9350506040611d3187828801611c9a565b9250506060611d4287828801611cd2565b91505092959194509250565b611d5781611c1b565b82525050565b6000604082019050611d726000830185611d4e565b611d7f6020830184611d4e565b9392505050565b600080600060608486031215611d9f57611d9e611c16565b5b6000611dad86828701611c9a565b9350506020611dbe86828701611c9a565b9250506040611dcf86828701611cd2565b9150509250925092565b611de281611c71565b82525050565b6000602082019050611dfd6000830184611dd9565b92915050565b6000606082019050611e186000830186611d4e565b611e256020830185611d4e565b611e326040830184611d4e565b949350505050565b60008060408385031215611e5157611e50611c16565b5b6000611e5f85828601611c9a565b9250506020611e7085828601611c9a565b9150509250929050565b6000604082019050611e8f6000830185611dd9565b611e9c6020830184611dd9565b9392505050565b600080600080600060a08688031215611ebf57611ebe611c16565b5b6000611ecd88828901611c3c565b9550506020611ede88828901611c9a565b9450506040611eef88828901611c9a565b9350506060611f0088828901611cd2565b9250506080611f1188828901611c3c565b9150509295509295909350565b6000602082019050611f336000830184611d4e565b92915050565b600080600060608486031215611f5257611f51611c16565b5b6000611f6086828701611c3c565b9350506020611f7186828701611c9a565b9250506040611f8286828701611c9a565b9150509250925092565b6000819050919050565b6000611fb1611fac611fa784611c51565b611f8c565b611c51565b9050919050565b6000611fc382611f96565b9050919050565b6000611fd582611fb8565b9050919050565b611fe581611fca565b82525050565b60006020820190506120006000830184611fdc565b92915050565b61200f81611caf565b82525050565b600060608201905061202a6000830186611dd9565b6120376020830185611dd9565b6120446040830184612006565b949350505050565b60008151905061205b81611c83565b92915050565b60006020828403121561207757612076611c16565b5b60006120858482850161204c565b91505092915050565b60008151905061209d81611c25565b92915050565b6000815190506120b281611cbb565b92915050565b600080600080600080600060e0888a0312156120d7576120d6611c16565b5b60006120e58a828b0161208e565b97505060206120f68a828b0161208e565b96505060406121078a828b0161208e565b95505060606121188a828b0161208e565b94505060806121298a828b016120a3565b93505060a061213a8a828b0161204c565b92505060c061214b8a828b0161204c565b91505092959891949750929550565b7f4e487b7100000000000000000000000000000000000000000000000000000000600052601160045260246000fd5b600061219482611c1b565b915061219f83611c1b565b9250817fffffffffffffffffffffffffffffffffffffffffffffffffffffffffffffffff04831182151516156121d8576121d761215a565b5b828202905092915050565b7f4e487b7100000000000000000000000000000000000000000000000000000000600052601260045260246000fd5b600061221d82611c1b565b915061222883611c1b565b925082612238576122376121e3565b5b828204905092915050565b60008160601b9050919050565b600061225b82612243565b9050919050565b600061226d82612250565b9050919050565b61228561228082611c71565b612262565b82525050565b60008160f81b9050919050565b60006122a38261228b565b9050919050565b60006122b582612298565b9050919050565b6122cd6122c882611caf565b6122aa565b82525050565b60006122df8286612274565b6014820191506122ef8285612274565b6014820191506122ff82846122bc565b600182019150819050949350505050565b600081905092915050565b7fff00000000000000000000000000000000000000000000000000000000000000600082015250565b6000612351600183612310565b915061235c8261231b565b600182019050919050565b6000819050919050565b6000819050919050565b61238c61238782612367565b612371565b82525050565b600061239d82612344565b91506123a98286612274565b6014820191506123b9828561237b565b6020820191506123c9828461237b565b602082019150819050949350505050565b600082825260208201905092915050565b7f4944454e544943414c5f41444452455353455300000000000000000000000000600082015250565b60006124216013836123da565b915061242c826123eb565b602082019050919050565b6000602082019050818103600083015261245081612414565b9050919050565b7f5a45524f5f414444524553530000000000000000000000000000000000000000600082015250565b600061248d600c836123da565b915061249882612457565b602082019050919050565b600060208201905081810360008301526124bc81612480565b9050919050565b60006124ce82611c1b565b91506124d983611c1b565b9250828210156124ec576124eb61215a565b5b828203905092915050565b60008160011c9050919050565b6000808291508390505b600185111561254e5780860481111561252a5761252961215a565b5b60018516156125395780820291505b8081029050612547856124f7565b945061250e565b94509492505050565b6000826125675760019050612623565b816125755760009050612623565b816001811461258b5760028114612595576125c4565b6001915050612623565b60ff8411156125a7576125a661215a565b5b8360020a9150848211156125be576125bd61215a565b5b50612623565b5060208310610133831016604e8410600b84101617156125f95782820a9050838111156125f4576125f361215a565b5b612623565b6126068484846001612504565b9250905081840481111561261d5761261c61215a565b5b81810290505b9392505050565b600061263582611c1b565b915061264083611c1b565b925061266d7fffffffffffffffffffffffffffffffffffffffffffffffffffffffffffffffff8484612557565b905092915050565b600061268082611c1b565b915061268b83611c1b565b9250827fffffffffffffffffffffffffffffffffffffffffffffffffffffffffffffffff038211156126c0576126bf61215a565b5b828201905092915050565b60006126d682611c1b565b91507fffffffffffffffffffffffffffffffffffffffffffffffffffffffffffffffff82036127085761270761215a565b5b60018201905091905056fea264697066735822122015bb636387d13522af796b703adb7004db2d51ea3d9d3fe88c7d909d326a4e4164736f6c634300080f0033",
					"opcodes": "PUSH1 0xE0 PUSH1 0x40 MSTORE CALLVALUE DUP1 ISZERO PUSH3 0x11 JUMPI PUSH1 0x0 DUP1 REVERT JUMPDEST POP PUSH1 0x40 MLOAD PUSH3 0x2ABB CODESIZE SUB DUP1 PUSH3 0x2ABB DUP4 CODECOPY DUP2 DUP2 ADD PUSH1 0x40 MSTORE DUP2 ADD SWAP1 PUSH3 0x37 SWAP2 SWAP1 PUSH3 0x26B JUMP JUMPDEST DUP1 PUSH20 0xFFFFFFFFFFFFFFFFFFFFFFFFFFFFFFFFFFFFFFFF AND PUSH1 0xA0 DUP2 PUSH20 0xFFFFFFFFFFFFFFFFFFFFFFFFFFFFFFFFFFFFFFFF AND DUP2 MSTORE POP POP DUP1 PUSH20 0xFFFFFFFFFFFFFFFFFFFFFFFFFFFFFFFFFFFFFFFF AND PUSH4 0xC45A0155 PUSH1 0x40 MLOAD DUP2 PUSH4 0xFFFFFFFF AND PUSH1 0xE0 SHL DUP2 MSTORE PUSH1 0x4 ADD PUSH1 0x20 PUSH1 0x40 MLOAD DUP1 DUP4 SUB DUP2 DUP7 GAS STATICCALL ISZERO DUP1 ISZERO PUSH3 0xB7 JUMPI RETURNDATASIZE PUSH1 0x0 DUP1 RETURNDATACOPY RETURNDATASIZE PUSH1 0x0 REVERT JUMPDEST POP POP POP POP PUSH1 0x40 MLOAD RETURNDATASIZE PUSH1 0x1F NOT PUSH1 0x1F DUP3 ADD AND DUP3 ADD DUP1 PUSH1 0x40 MSTORE POP DUP2 ADD SWAP1 PUSH3 0xDD SWAP2 SWAP1 PUSH3 0x26B JUMP JUMPDEST PUSH20 0xFFFFFFFFFFFFFFFFFFFFFFFFFFFFFFFFFFFFFFFF AND PUSH1 0x80 DUP2 PUSH20 0xFFFFFFFFFFFFFFFFFFFFFFFFFFFFFFFFFFFFFFFF AND DUP2 MSTORE POP POP DUP1 PUSH20 0xFFFFFFFFFFFFFFFFFFFFFFFFFFFFFFFFFFFFFFFF AND PUSH4 0xC45A0155 PUSH1 0x40 MLOAD DUP2 PUSH4 0xFFFFFFFF AND PUSH1 0xE0 SHL DUP2 MSTORE PUSH1 0x4 ADD PUSH1 0x20 PUSH1 0x40 MLOAD DUP1 DUP4 SUB DUP2 DUP7 GAS STATICCALL ISZERO DUP1 ISZERO PUSH3 0x15C JUMPI RETURNDATASIZE PUSH1 0x0 DUP1 RETURNDATACOPY RETURNDATASIZE PUSH1 0x0 REVERT JUMPDEST POP POP POP POP PUSH1 0x40 MLOAD RETURNDATASIZE PUSH1 0x1F NOT PUSH1 0x1F DUP3 ADD AND DUP3 ADD DUP1 PUSH1 0x40 MSTORE POP DUP2 ADD SWAP1 PUSH3 0x182 SWAP2 SWAP1 PUSH3 0x26B JUMP JUMPDEST PUSH20 0xFFFFFFFFFFFFFFFFFFFFFFFFFFFFFFFFFFFFFFFF AND PUSH4 0x9AAB9248 PUSH1 0x40 MLOAD DUP2 PUSH4 0xFFFFFFFF AND PUSH1 0xE0 SHL DUP2 MSTORE PUSH1 0x4 ADD PUSH1 0x20 PUSH1 0x40 MLOAD DUP1 DUP4 SUB DUP2 DUP7 GAS STATICCALL ISZERO DUP1 ISZERO PUSH3 0x1CD JUMPI RETURNDATASIZE PUSH1 0x0 DUP1 RETURNDATACOPY RETURNDATASIZE PUSH1 0x0 REVERT JUMPDEST POP POP POP POP PUSH1 0x40 MLOAD RETURNDATASIZE PUSH1 0x1F NOT PUSH1 0x1F DUP3 ADD AND DUP3 ADD DUP1 PUSH1 0x40 MSTORE POP DUP2 ADD SWAP1 PUSH3 0x1F3 SWAP2 SWAP1 PUSH3 0x2D8 JUMP JUMPDEST PUSH1 0xC0 DUP2 DUP2 MSTORE POP POP POP PUSH3 0x30A JUMP JUMPDEST PUSH1 0x0 DUP1 REVERT JUMPDEST PUSH1 0x0 PUSH20 0xFFFFFFFFFFFFFFFFFFFFFFFFFFFFFFFFFFFFFFFF DUP3 AND SWAP1 POP SWAP2 SWAP1 POP JUMP JUMPDEST PUSH1 0x0 PUSH3 0x233 DUP3 PUSH3 0x206 JUMP JUMPDEST SWAP1 POP SWAP2 SWAP1 POP JUMP JUMPDEST PUSH3 0x245 DUP2 PUSH3 0x226 JUMP JUMPDEST DUP2 EQ PUSH3 0x251 JUMPI PUSH1 0x0 DUP1 REVERT JUMPDEST POP JUMP JUMPDEST PUSH1 0x0 DUP2 MLOAD SWAP1 POP PUSH3 0x265 DUP2 PUSH3 0x23A JUMP JUMPDEST SWAP3 SWAP2 POP POP JUMP JUMPDEST PUSH1 0x0 PUSH1 0x20 DUP3 DUP5 SUB SLT ISZERO PUSH3 0x284 JUMPI PUSH3 0x283 PUSH3 0x201 JUMP JUMPDEST JUMPDEST PUSH1 0x0 PUSH3 0x294 DUP5 DUP3 DUP6 ADD PUSH3 0x254 JUMP JUMPDEST SWAP2 POP POP SWAP3 SWAP2 POP POP JUMP JUMPDEST PUSH1 0x0 DUP2 SWAP1 POP SWAP2 SWAP1 POP JUMP JUMPDEST PUSH3 0x2B2 DUP2 PUSH3 0x29D JUMP JUMPDEST DUP2 EQ PUSH3 0x2BE JUMPI PUSH1 0x0 DUP1 REVERT JUMPDEST POP JUMP JUMPDEST PUSH1 0x0 DUP2 MLOAD SWAP1 POP PUSH3 0x2D2 DUP2 PUSH3 0x2A7 JUMP JUMPDEST SWAP3 SWAP2 POP POP JUMP JUMPDEST PUSH1 0x0 PUSH1 0x20 DUP3 DUP5 SUB SLT ISZERO PUSH3 0x2F1 JUMPI PUSH3 0x2F0 PUSH3 0x201 JUMP JUMPDEST JUMPDEST PUSH1 0x0 PUSH3 0x301 DUP5 DUP3 DUP6 ADD PUSH3 0x2C1 JUMP JUMPDEST SWAP2 POP POP SWAP3 SWAP2 POP POP JUMP JUMPDEST PUSH1 0x80 MLOAD PUSH1 0xA0 MLOAD PUSH1 0xC0 MLOAD PUSH2 0x2749 PUSH3 0x372 PUSH1 0x0 CODECOPY PUSH1 0x0 PUSH2 0x5A3 ADD MSTORE PUSH1 0x0 DUP2 DUP2 PUSH2 0x337 ADD MSTORE DUP2 DUP2 PUSH2 0x606 ADD MSTORE DUP2 DUP2 PUSH2 0x8D9 ADD MSTORE DUP2 DUP2 PUSH2 0xA85 ADD MSTORE DUP2 DUP2 PUSH2 0xC85 ADD MSTORE DUP2 DUP2 PUSH2 0x10C9 ADD MSTORE DUP2 DUP2 PUSH2 0x12BA ADD MSTORE PUSH2 0x1573 ADD MSTORE PUSH1 0x0 DUP2 DUP2 PUSH2 0x557 ADD MSTORE PUSH2 0x128B ADD MSTORE PUSH2 0x2749 PUSH1 0x0 RETURN INVALID PUSH1 0x80 PUSH1 0x40 MSTORE CALLVALUE DUP1 ISZERO PUSH2 0x10 JUMPI PUSH1 0x0 DUP1 REVERT JUMPDEST POP PUSH1 0x4 CALLDATASIZE LT PUSH2 0xCF JUMPI PUSH1 0x0 CALLDATALOAD PUSH1 0xE0 SHR DUP1 PUSH4 0xBC113036 GT PUSH2 0x8C JUMPI DUP1 PUSH4 0xC45A0155 GT PUSH2 0x66 JUMPI DUP1 PUSH4 0xC45A0155 EQ PUSH2 0x28C JUMPI DUP1 PUSH4 0xDA214231 EQ PUSH2 0x2AA JUMPI DUP1 PUSH4 0xEC323C00 EQ PUSH2 0x2DA JUMPI DUP1 PUSH4 0xF887EA40 EQ PUSH2 0x30B JUMPI PUSH2 0xCF JUMP JUMPDEST DUP1 PUSH4 0xBC113036 EQ PUSH2 0x1FA JUMPI DUP1 PUSH4 0xBDEFDE18 EQ PUSH2 0x22B JUMPI DUP1 PUSH4 0xBE3B428E EQ PUSH2 0x25C JUMPI PUSH2 0xCF JUMP JUMPDEST DUP1 PUSH4 0x400B4829 EQ PUSH2 0xD4 JUMPI DUP1 PUSH4 0x4C1EE03E EQ PUSH2 0x105 JUMPI DUP1 PUSH4 0x52500733 EQ PUSH2 0x135 JUMPI DUP1 PUSH4 0x544CAA56 EQ PUSH2 0x167 JUMPI DUP1 PUSH4 0x70550835 EQ PUSH2 0x198 JUMPI DUP1 PUSH4 0x865DB5E2 EQ PUSH2 0x1C9 JUMPI JUMPDEST PUSH1 0x0 DUP1 REVERT JUMPDEST PUSH2 0xEE PUSH1 0x4 DUP1 CALLDATASIZE SUB DUP2 ADD SWAP1 PUSH2 0xE9 SWAP2 SWAP1 PUSH2 0x1CE7 JUMP JUMPDEST PUSH2 0x329 JUMP JUMPDEST PUSH1 0x40 MLOAD PUSH2 0xFC SWAP3 SWAP2 SWAP1 PUSH2 0x1D5D JUMP JUMPDEST PUSH1 0x40 MLOAD DUP1 SWAP2 SUB SWAP1 RETURN JUMPDEST PUSH2 0x11F PUSH1 0x4 DUP1 CALLDATASIZE SUB DUP2 ADD SWAP1 PUSH2 0x11A SWAP2 SWAP1 PUSH2 0x1D86 JUMP JUMPDEST PUSH2 0x542 JUMP JUMPDEST PUSH1 0x40 MLOAD PUSH2 0x12C SWAP2 SWAP1 PUSH2 0x1DE8 JUMP JUMPDEST PUSH1 0x40 MLOAD DUP1 SWAP2 SUB SWAP1 RETURN JUMPDEST PUSH2 0x14F PUSH1 0x4 DUP1 CALLDATASIZE SUB DUP2 ADD SWAP1 PUSH2 0x14A SWAP2 SWAP1 PUSH2 0x1D86 JUMP JUMPDEST PUSH2 0x5F8 JUMP JUMPDEST PUSH1 0x40 MLOAD PUSH2 0x15E SWAP4 SWAP3 SWAP2 SWAP1 PUSH2 0x1E03 JUMP JUMPDEST PUSH1 0x40 MLOAD DUP1 SWAP2 SUB SWAP1 RETURN JUMPDEST PUSH2 0x181 PUSH1 0x4 DUP1 CALLDATASIZE SUB DUP2 ADD SWAP1 PUSH2 0x17C SWAP2 SWAP1 PUSH2 0x1E3A JUMP JUMPDEST PUSH2 0x79F JUMP JUMPDEST PUSH1 0x40 MLOAD PUSH2 0x18F SWAP3 SWAP2 SWAP1 PUSH2 0x1E7A JUMP JUMPDEST PUSH1 0x40 MLOAD DUP1 SWAP2 SUB SWAP1 RETURN JUMPDEST PUSH2 0x1B2 PUSH1 0x4 DUP1 CALLDATASIZE SUB DUP2 ADD SWAP1 PUSH2 0x1AD SWAP2 SWAP1 PUSH2 0x1EA3 JUMP JUMPDEST PUSH2 0x8CB JUMP JUMPDEST PUSH1 0x40 MLOAD PUSH2 0x1C0 SWAP3 SWAP2 SWAP1 PUSH2 0x1D5D JUMP JUMPDEST PUSH1 0x40 MLOAD DUP1 SWAP2 SUB SWAP1 RETURN JUMPDEST PUSH2 0x1E3 PUSH1 0x4 DUP1 CALLDATASIZE SUB DUP2 ADD SWAP1 PUSH2 0x1DE SWAP2 SWAP1 PUSH2 0x1CE7 JUMP JUMPDEST PUSH2 0xA77 JUMP JUMPDEST PUSH1 0x40 MLOAD PUSH2 0x1F1 SWAP3 SWAP2 SWAP1 PUSH2 0x1D5D JUMP JUMPDEST PUSH1 0x40 MLOAD DUP1 SWAP2 SUB SWAP1 RETURN JUMPDEST PUSH2 0x214 PUSH1 0x4 DUP1 CALLDATASIZE SUB DUP2 ADD SWAP1 PUSH2 0x20F SWAP2 SWAP1 PUSH2 0x1CE7 JUMP JUMPDEST PUSH2 0xC77 JUMP JUMPDEST PUSH1 0x40 MLOAD PUSH2 0x222 SWAP3 SWAP2 SWAP1 PUSH2 0x1D5D JUMP JUMPDEST PUSH1 0x40 MLOAD DUP1 SWAP2 SUB SWAP1 RETURN JUMPDEST PUSH2 0x245 PUSH1 0x4 DUP1 CALLDATASIZE SUB DUP2 ADD SWAP1 PUSH2 0x240 SWAP2 SWAP1 PUSH2 0x1D86 JUMP JUMPDEST PUSH2 0xE98 JUMP JUMPDEST PUSH1 0x40 MLOAD PUSH2 0x253 SWAP3 SWAP2 SWAP1 PUSH2 0x1D5D JUMP JUMPDEST PUSH1 0x40 MLOAD DUP1 SWAP2 SUB SWAP1 RETURN JUMPDEST PUSH2 0x276 PUSH1 0x4 DUP1 CALLDATASIZE SUB DUP2 ADD SWAP1 PUSH2 0x271 SWAP2 SWAP1 PUSH2 0x1D86 JUMP JUMPDEST PUSH2 0x10BC JUMP JUMPDEST PUSH1 0x40 MLOAD PUSH2 0x283 SWAP2 SWAP1 PUSH2 0x1F1E JUMP JUMPDEST PUSH1 0x40 MLOAD DUP1 SWAP2 SUB SWAP1 RETURN JUMPDEST PUSH2 0x294 PUSH2 0x1289 JUMP JUMPDEST PUSH1 0x40 MLOAD PUSH2 0x2A1 SWAP2 SWAP1 PUSH2 0x1DE8 JUMP JUMPDEST PUSH1 0x40 MLOAD DUP1 SWAP2 SUB SWAP1 RETURN JUMPDEST PUSH2 0x2C4 PUSH1 0x4 DUP1 CALLDATASIZE SUB DUP2 ADD SWAP1 PUSH2 0x2BF SWAP2 SWAP1 PUSH2 0x1CE7 JUMP JUMPDEST PUSH2 0x12AD JUMP JUMPDEST PUSH1 0x40 MLOAD PUSH2 0x2D1 SWAP2 SWAP1 PUSH2 0x1F1E JUMP JUMPDEST PUSH1 0x40 MLOAD DUP1 SWAP2 SUB SWAP1 RETURN JUMPDEST PUSH2 0x2F4 PUSH1 0x4 DUP1 CALLDATASIZE SUB DUP2 ADD SWAP1 PUSH2 0x2EF SWAP2 SWAP1 PUSH2 0x1F39 JUMP JUMPDEST PUSH2 0x140F JUMP JUMPDEST PUSH1 0x40 MLOAD PUSH2 0x302 SWAP3 SWAP2 SWAP1 PUSH2 0x1D5D JUMP JUMPDEST PUSH1 0x40 MLOAD DUP1 SWAP2 SUB SWAP1 RETURN JUMPDEST PUSH2 0x313 PUSH2 0x1571 JUMP JUMPDEST PUSH1 0x40 MLOAD PUSH2 0x320 SWAP2 SWAP1 PUSH2 0x1FEB JUMP JUMPDEST PUSH1 0x40 MLOAD DUP1 SWAP2 SUB SWAP1 RETURN JUMPDEST PUSH1 0x0 DUP1 PUSH1 0x0 DUP1 PUSH1 0x0 DUP1 PUSH1 0x0 DUP1 PUSH32 0x0 PUSH20 0xFFFFFFFFFFFFFFFFFFFFFFFFFFFFFFFFFFFFFFFF AND PUSH4 0x4C1EE03E DUP13 DUP13 DUP13 PUSH1 0x40 MLOAD DUP5 PUSH4 0xFFFFFFFF AND PUSH1 0xE0 SHL DUP2 MSTORE PUSH1 0x4 ADD PUSH2 0x392 SWAP4 SWAP3 SWAP2 SWAP1 PUSH2 0x2015 JUMP JUMPDEST PUSH1 0x20 PUSH1 0x40 MLOAD DUP1 DUP4 SUB DUP2 DUP7 GAS STATICCALL ISZERO DUP1 ISZERO PUSH2 0x3AF JUMPI RETURNDATASIZE PUSH1 0x0 DUP1 RETURNDATACOPY RETURNDATASIZE PUSH1 0x0 REVERT JUMPDEST POP POP POP POP PUSH1 0x40 MLOAD RETURNDATASIZE PUSH1 0x1F NOT PUSH1 0x1F DUP3 ADD AND DUP3 ADD DUP1 PUSH1 0x40 MSTORE POP DUP2 ADD SWAP1 PUSH2 0x3D3 SWAP2 SWAP1 PUSH2 0x2061 JUMP JUMPDEST PUSH20 0xFFFFFFFFFFFFFFFFFFFFFFFFFFFFFFFFFFFFFFFF AND PUSH4 0x392F37E9 PUSH1 0x40 MLOAD DUP2 PUSH4 0xFFFFFFFF AND PUSH1 0xE0 SHL DUP2 MSTORE PUSH1 0x4 ADD PUSH1 0xE0 PUSH1 0x40 MLOAD DUP1 DUP4 SUB DUP2 DUP7 GAS STATICCALL ISZERO DUP1 ISZERO PUSH2 0x41D JUMPI RETURNDATASIZE PUSH1 0x0 DUP1 RETURNDATACOPY RETURNDATASIZE PUSH1 0x0 REVERT JUMPDEST POP POP POP POP PUSH1 0x40 MLOAD RETURNDATASIZE PUSH1 0x1F NOT PUSH1 0x1F DUP3 ADD AND DUP3 ADD DUP1 PUSH1 0x40 MSTORE POP DUP2 ADD SWAP1 PUSH2 0x441 SWAP2 SWAP1 PUSH2 0x20B8 JUMP JUMPDEST POP SWAP6 POP SWAP6 POP SWAP6 POP SWAP6 POP SWAP6 POP SWAP6 POP PUSH1 0x0 DUP10 PUSH2 0x4C3 JUMPI DUP2 PUSH20 0xFFFFFFFFFFFFFFFFFFFFFFFFFFFFFFFFFFFFFFFF AND DUP13 PUSH20 0xFFFFFFFFFFFFFFFFFFFFFFFFFFFFFFFFFFFFFFFF AND EQ PUSH2 0x4A4 JUMPI DUP5 DUP8 DUP6 PUSH2 0x495 SWAP2 SWAP1 PUSH2 0x2189 JUMP JUMPDEST PUSH2 0x49F SWAP2 SWAP1 PUSH2 0x2212 JUMP JUMPDEST PUSH2 0x4BC JUMP JUMPDEST DUP4 DUP7 DUP7 PUSH2 0x4B1 SWAP2 SWAP1 PUSH2 0x2189 JUMP JUMPDEST PUSH2 0x4BB SWAP2 SWAP1 PUSH2 0x2212 JUMP JUMPDEST JUMPDEST SWAP1 POP PUSH2 0x4D2 JUMP JUMPDEST PUSH2 0x4CF DUP13 DUP4 DUP10 DUP10 PUSH2 0x1595 JUMP JUMPDEST SWAP1 POP JUMPDEST DUP1 PUSH8 0xDE0B6B3A7640000 PUSH2 0x4EC DUP4 DUP16 DUP10 DUP10 DUP9 DUP15 DUP15 DUP13 PUSH2 0x1668 JUMP JUMPDEST PUSH2 0x4F6 SWAP2 SWAP1 PUSH2 0x2189 JUMP JUMPDEST PUSH2 0x500 SWAP2 SWAP1 PUSH2 0x2212 JUMP JUMPDEST SWAP9 POP DUP13 PUSH8 0xDE0B6B3A7640000 PUSH2 0x51C DUP16 DUP16 DUP10 DUP10 DUP9 DUP15 DUP15 DUP13 PUSH2 0x1668 JUMP JUMPDEST PUSH2 0x526 SWAP2 SWAP1 PUSH2 0x2189 JUMP JUMPDEST PUSH2 0x530 SWAP2 SWAP1 PUSH2 0x2212 JUMP JUMPDEST SWAP8 POP POP POP POP POP POP POP POP SWAP5 POP SWAP5 SWAP3 POP POP POP JUMP JUMPDEST PUSH1 0x0 DUP1 PUSH1 0x0 PUSH2 0x551 DUP7 DUP7 PUSH2 0x79F JUMP JUMPDEST SWAP2 POP SWAP2 POP PUSH32 0x0 DUP3 DUP3 DUP7 PUSH1 0x40 MLOAD PUSH1 0x20 ADD PUSH2 0x58B SWAP4 SWAP3 SWAP2 SWAP1 PUSH2 0x22D3 JUMP JUMPDEST PUSH1 0x40 MLOAD PUSH1 0x20 DUP2 DUP4 SUB SUB DUP2 MSTORE SWAP1 PUSH1 0x40 MSTORE DUP1 MLOAD SWAP1 PUSH1 0x20 ADD KECCAK256 PUSH32 0x0 PUSH1 0x40 MLOAD PUSH1 0x20 ADD PUSH2 0x5D4 SWAP4 SWAP3 SWAP2 SWAP1 PUSH2 0x2392 JUMP JUMPDEST PUSH1 0x40 MLOAD PUSH1 0x20 DUP2 DUP4 SUB SUB DUP2 MSTORE SWAP1 PUSH1 0x40 MSTORE DUP1 MLOAD SWAP1 PUSH1 0x20 ADD KECCAK256 PUSH1 0x0 SHR SWAP3 POP POP POP SWAP4 SWAP3 POP POP POP JUMP JUMPDEST PUSH1 0x0 DUP1 PUSH1 0x0 DUP1 PUSH1 0x0 DUP1 PUSH1 0x0 DUP1 PUSH32 0x0 PUSH20 0xFFFFFFFFFFFFFFFFFFFFFFFFFFFFFFFFFFFFFFFF AND PUSH4 0x4C1EE03E DUP13 DUP13 DUP13 PUSH1 0x40 MLOAD DUP5 PUSH4 0xFFFFFFFF AND PUSH1 0xE0 SHL DUP2 MSTORE PUSH1 0x4 ADD PUSH2 0x661 SWAP4 SWAP3 SWAP2 SWAP1 PUSH2 0x2015 JUMP JUMPDEST PUSH1 0x20 PUSH1 0x40 MLOAD DUP1 DUP4 SUB DUP2 DUP7 GAS STATICCALL ISZERO DUP1 ISZERO PUSH2 0x67E JUMPI RETURNDATASIZE PUSH1 0x0 DUP1 RETURNDATACOPY RETURNDATASIZE PUSH1 0x0 REVERT JUMPDEST POP POP POP POP PUSH1 0x40 MLOAD RETURNDATASIZE PUSH1 0x1F NOT PUSH1 0x1F DUP3 ADD AND DUP3 ADD DUP1 PUSH1 0x40 MSTORE POP DUP2 ADD SWAP1 PUSH2 0x6A2 SWAP2 SWAP1 PUSH2 0x2061 JUMP JUMPDEST PUSH20 0xFFFFFFFFFFFFFFFFFFFFFFFFFFFFFFFFFFFFFFFF AND PUSH4 0x392F37E9 PUSH1 0x40 MLOAD DUP2 PUSH4 0xFFFFFFFF AND PUSH1 0xE0 SHL DUP2 MSTORE PUSH1 0x4 ADD PUSH1 0xE0 PUSH1 0x40 MLOAD DUP1 DUP4 SUB DUP2 DUP7 GAS STATICCALL ISZERO DUP1 ISZERO PUSH2 0x6EC JUMPI RETURNDATASIZE PUSH1 0x0 DUP1 RETURNDATACOPY RETURNDATASIZE PUSH1 0x0 REVERT JUMPDEST POP POP POP POP PUSH1 0x40 MLOAD RETURNDATASIZE PUSH1 0x1F NOT PUSH1 0x1F DUP3 ADD AND DUP3 ADD DUP1 PUSH1 0x40 MSTORE POP DUP2 ADD SWAP1 PUSH2 0x710 SWAP2 SWAP1 PUSH2 0x20B8 JUMP JUMPDEST POP SWAP6 POP POP SWAP5 POP SWAP5 POP SWAP5 POP SWAP5 POP PUSH1 0x0 DUP2 PUSH20 0xFFFFFFFFFFFFFFFFFFFFFFFFFFFFFFFFFFFFFFFF AND DUP13 PUSH20 0xFFFFFFFFFFFFFFFFFFFFFFFFFFFFFFFFFFFFFFFF AND EQ PUSH2 0x76D JUMPI DUP4 DUP7 DUP5 PUSH2 0x75E SWAP2 SWAP1 PUSH2 0x2189 JUMP JUMPDEST PUSH2 0x768 SWAP2 SWAP1 PUSH2 0x2212 JUMP JUMPDEST PUSH2 0x785 JUMP JUMPDEST DUP3 DUP6 DUP6 PUSH2 0x77A SWAP2 SWAP1 PUSH2 0x2189 JUMP JUMPDEST PUSH2 0x784 SWAP2 SWAP1 PUSH2 0x2212 JUMP JUMPDEST JUMPDEST SWAP1 POP DUP1 DUP5 DUP5 SWAP9 POP SWAP9 POP SWAP9 POP POP POP POP POP POP POP SWAP4 POP SWAP4 POP SWAP4 SWAP1 POP JUMP JUMPDEST PUSH1 0x0 DUP1 DUP3 PUSH20 0xFFFFFFFFFFFFFFFFFFFFFFFFFFFFFFFFFFFFFFFF AND DUP5 PUSH20 0xFFFFFFFFFFFFFFFFFFFFFFFFFFFFFFFFFFFFFFFF AND SUB PUSH2 0x810 JUMPI PUSH1 0x40 MLOAD PUSH32 0x8C379A000000000000000000000000000000000000000000000000000000000 DUP2 MSTORE PUSH1 0x4 ADD PUSH2 0x807 SWAP1 PUSH2 0x2437 JUMP JUMPDEST PUSH1 0x40 MLOAD DUP1 SWAP2 SUB SWAP1 REVERT JUMPDEST DUP3 PUSH20 0xFFFFFFFFFFFFFFFFFFFFFFFFFFFFFFFFFFFFFFFF AND DUP5 PUSH20 0xFFFFFFFFFFFFFFFFFFFFFFFFFFFFFFFFFFFFFFFF AND LT PUSH2 0x84A JUMPI DUP3 DUP5 PUSH2 0x84D JUMP JUMPDEST DUP4 DUP4 JUMPDEST DUP1 SWAP3 POP DUP2 SWAP4 POP POP POP PUSH1 0x0 PUSH20 0xFFFFFFFFFFFFFFFFFFFFFFFFFFFFFFFFFFFFFFFF AND DUP3 PUSH20 0xFFFFFFFFFFFFFFFFFFFFFFFFFFFFFFFFFFFFFFFF AND SUB PUSH2 0x8C4 JUMPI PUSH1 0x40 MLOAD PUSH32 0x8C379A000000000000000000000000000000000000000000000000000000000 DUP2 MSTORE PUSH1 0x4 ADD PUSH2 0x8BB SWAP1 PUSH2 0x24A3 JUMP JUMPDEST PUSH1 0x40 MLOAD DUP1 SWAP2 SUB SWAP1 REVERT JUMPDEST SWAP3 POP SWAP3 SWAP1 POP JUMP JUMPDEST PUSH1 0x0 DUP1 PUSH1 0x0 DUP1 PUSH1 0x0 DUP1 PUSH1 0x0 DUP1 PUSH32 0x0 PUSH20 0xFFFFFFFFFFFFFFFFFFFFFFFFFFFFFFFFFFFFFFFF AND PUSH4 0x4C1EE03E DUP14 DUP14 DUP14 PUSH1 0x40 MLOAD DUP5 PUSH4 0xFFFFFFFF AND PUSH1 0xE0 SHL DUP2 MSTORE PUSH1 0x4 ADD PUSH2 0x934 SWAP4 SWAP3 SWAP2 SWAP1 PUSH2 0x2015 JUMP JUMPDEST PUSH1 0x20 PUSH1 0x40 MLOAD DUP1 DUP4 SUB DUP2 DUP7 GAS STATICCALL ISZERO DUP1 ISZERO PUSH2 0x951 JUMPI RETURNDATASIZE PUSH1 0x0 DUP1 RETURNDATACOPY RETURNDATASIZE PUSH1 0x0 REVERT JUMPDEST POP POP POP POP PUSH1 0x40 MLOAD RETURNDATASIZE PUSH1 0x1F NOT PUSH1 0x1F DUP3 ADD AND DUP3 ADD DUP1 PUSH1 0x40 MSTORE POP DUP2 ADD SWAP1 PUSH2 0x975 SWAP2 SWAP1 PUSH2 0x2061 JUMP JUMPDEST PUSH20 0xFFFFFFFFFFFFFFFFFFFFFFFFFFFFFFFFFFFFFFFF AND PUSH4 0x392F37E9 PUSH1 0x40 MLOAD DUP2 PUSH4 0xFFFFFFFF AND PUSH1 0xE0 SHL DUP2 MSTORE PUSH1 0x4 ADD PUSH1 0xE0 PUSH1 0x40 MLOAD DUP1 DUP4 SUB DUP2 DUP7 GAS STATICCALL ISZERO DUP1 ISZERO PUSH2 0x9BF JUMPI RETURNDATASIZE PUSH1 0x0 DUP1 RETURNDATACOPY RETURNDATASIZE PUSH1 0x0 REVERT JUMPDEST POP POP POP POP PUSH1 0x40 MLOAD RETURNDATASIZE PUSH1 0x1F NOT PUSH1 0x1F DUP3 ADD AND DUP3 ADD DUP1 PUSH1 0x40 MSTORE POP DUP2 ADD SWAP1 PUSH2 0x9E3 SWAP2 SWAP1 PUSH2 0x20B8 JUMP JUMPDEST POP SWAP6 POP SWAP6 POP SWAP6 POP SWAP6 POP SWAP6 POP SWAP6 POP PUSH1 0x0 DUP10 SUB PUSH2 0xA07 JUMPI PUSH2 0xA04 DUP13 DUP3 DUP9 DUP9 PUSH2 0x1595 JUMP JUMPDEST SWAP9 POP JUMPDEST DUP9 PUSH8 0xDE0B6B3A7640000 PUSH2 0xA21 DUP12 DUP16 DUP9 DUP9 DUP8 DUP14 DUP14 DUP12 PUSH2 0x1668 JUMP JUMPDEST PUSH2 0xA2B SWAP2 SWAP1 PUSH2 0x2189 JUMP JUMPDEST PUSH2 0xA35 SWAP2 SWAP1 PUSH2 0x2212 JUMP JUMPDEST SWAP8 POP DUP13 PUSH8 0xDE0B6B3A7640000 PUSH2 0xA51 DUP16 DUP16 DUP9 DUP9 DUP8 DUP14 DUP14 DUP12 PUSH2 0x1668 JUMP JUMPDEST PUSH2 0xA5B SWAP2 SWAP1 PUSH2 0x2189 JUMP JUMPDEST PUSH2 0xA65 SWAP2 SWAP1 PUSH2 0x2212 JUMP JUMPDEST SWAP7 POP POP POP POP POP POP POP SWAP6 POP SWAP6 SWAP4 POP POP POP POP JUMP JUMPDEST PUSH1 0x0 DUP1 PUSH1 0x0 DUP1 PUSH1 0x0 DUP1 PUSH1 0x0 DUP1 PUSH32 0x0 PUSH20 0xFFFFFFFFFFFFFFFFFFFFFFFFFFFFFFFFFFFFFFFF AND PUSH4 0x4C1EE03E DUP13 DUP13 DUP13 PUSH1 0x40 MLOAD DUP5 PUSH4 0xFFFFFFFF AND PUSH1 0xE0 SHL DUP2 MSTORE PUSH1 0x4 ADD PUSH2 0xAE0 SWAP4 SWAP3 SWAP2 SWAP1 PUSH2 0x2015 JUMP JUMPDEST PUSH1 0x20 PUSH1 0x40 MLOAD DUP1 DUP4 SUB DUP2 DUP7 GAS STATICCALL ISZERO DUP1 ISZERO PUSH2 0xAFD JUMPI RETURNDATASIZE PUSH1 0x0 DUP1 RETURNDATACOPY RETURNDATASIZE PUSH1 0x0 REVERT JUMPDEST POP POP POP POP PUSH1 0x40 MLOAD RETURNDATASIZE PUSH1 0x1F NOT PUSH1 0x1F DUP3 ADD AND DUP3 ADD DUP1 PUSH1 0x40 MSTORE POP DUP2 ADD SWAP1 PUSH2 0xB21 SWAP2 SWAP1 PUSH2 0x2061 JUMP JUMPDEST PUSH20 0xFFFFFFFFFFFFFFFFFFFFFFFFFFFFFFFFFFFFFFFF AND PUSH4 0x392F37E9 PUSH1 0x40 MLOAD DUP2 PUSH4 0xFFFFFFFF AND PUSH1 0xE0 SHL DUP2 MSTORE PUSH1 0x4 ADD PUSH1 0xE0 PUSH1 0x40 MLOAD DUP1 DUP4 SUB DUP2 DUP7 GAS STATICCALL ISZERO DUP1 ISZERO PUSH2 0xB6B JUMPI RETURNDATASIZE PUSH1 0x0 DUP1 RETURNDATACOPY RETURNDATASIZE PUSH1 0x0 REVERT JUMPDEST POP POP POP POP PUSH1 0x40 MLOAD RETURNDATASIZE PUSH1 0x1F NOT PUSH1 0x1F DUP3 ADD AND DUP3 ADD DUP1 PUSH1 0x40 MSTORE POP DUP2 ADD SWAP1 PUSH2 0xB8F SWAP2 SWAP1 PUSH2 0x20B8 JUMP JUMPDEST POP SWAP6 POP SWAP6 POP SWAP6 POP SWAP6 POP SWAP6 POP SWAP6 POP PUSH1 0x0 DUP2 PUSH20 0xFFFFFFFFFFFFFFFFFFFFFFFFFFFFFFFFFFFFFFFF AND DUP13 PUSH20 0xFFFFFFFFFFFFFFFFFFFFFFFFFFFFFFFFFFFFFFFF AND EQ PUSH2 0xBED JUMPI DUP5 DUP8 DUP6 PUSH2 0xBDE SWAP2 SWAP1 PUSH2 0x2189 JUMP JUMPDEST PUSH2 0xBE8 SWAP2 SWAP1 PUSH2 0x2212 JUMP JUMPDEST PUSH2 0xC05 JUMP JUMPDEST DUP4 DUP7 DUP7 PUSH2 0xBFA SWAP2 SWAP1 PUSH2 0x2189 JUMP JUMPDEST PUSH2 0xC04 SWAP2 SWAP1 PUSH2 0x2212 JUMP JUMPDEST JUMPDEST SWAP1 POP DUP1 PUSH8 0xDE0B6B3A7640000 PUSH2 0xC21 DUP4 DUP16 DUP10 DUP10 DUP9 DUP15 DUP15 DUP13 PUSH2 0x1668 JUMP JUMPDEST PUSH2 0xC2B SWAP2 SWAP1 PUSH2 0x2189 JUMP JUMPDEST PUSH2 0xC35 SWAP2 SWAP1 PUSH2 0x2212 JUMP JUMPDEST SWAP9 POP DUP13 PUSH8 0xDE0B6B3A7640000 PUSH2 0xC51 DUP16 DUP16 DUP10 DUP10 DUP9 DUP15 DUP15 DUP13 PUSH2 0x1668 JUMP JUMPDEST PUSH2 0xC5B SWAP2 SWAP1 PUSH2 0x2189 JUMP JUMPDEST PUSH2 0xC65 SWAP2 SWAP1 PUSH2 0x2212 JUMP JUMPDEST SWAP8 POP POP POP POP POP POP POP POP SWAP5 POP SWAP5 SWAP3 POP POP POP JUMP JUMPDEST PUSH1 0x0 DUP1 PUSH1 0x0 DUP1 PUSH1 0x0 DUP1 PUSH1 0x0 DUP1 PUSH32 0x0 PUSH20 0xFFFFFFFFFFFFFFFFFFFFFFFFFFFFFFFFFFFFFFFF AND PUSH4 0x4C1EE03E DUP13 DUP13 DUP13 PUSH1 0x40 MLOAD DUP5 PUSH4 0xFFFFFFFF AND PUSH1 0xE0 SHL DUP2 MSTORE PUSH1 0x4 ADD PUSH2 0xCE0 SWAP4 SWAP3 SWAP2 SWAP1 PUSH2 0x2015 JUMP JUMPDEST PUSH1 0x20 PUSH1 0x40 MLOAD DUP1 DUP4 SUB DUP2 DUP7 GAS STATICCALL ISZERO DUP1 ISZERO PUSH2 0xCFD JUMPI RETURNDATASIZE PUSH1 0x0 DUP1 RETURNDATACOPY RETURNDATASIZE PUSH1 0x0 REVERT JUMPDEST POP POP POP POP PUSH1 0x40 MLOAD RETURNDATASIZE PUSH1 0x1F NOT PUSH1 0x1F DUP3 ADD AND DUP3 ADD DUP1 PUSH1 0x40 MSTORE POP DUP2 ADD SWAP1 PUSH2 0xD21 SWAP2 SWAP1 PUSH2 0x2061 JUMP JUMPDEST PUSH20 0xFFFFFFFFFFFFFFFFFFFFFFFFFFFFFFFFFFFFFFFF AND PUSH4 0x392F37E9 PUSH1 0x40 MLOAD DUP2 PUSH4 0xFFFFFFFF AND PUSH1 0xE0 SHL DUP2 MSTORE PUSH1 0x4 ADD PUSH1 0xE0 PUSH1 0x40 MLOAD DUP1 DUP4 SUB DUP2 DUP7 GAS STATICCALL ISZERO DUP1 ISZERO PUSH2 0xD6B JUMPI RETURNDATASIZE PUSH1 0x0 DUP1 RETURNDATACOPY RETURNDATASIZE PUSH1 0x0 REVERT JUMPDEST POP POP POP POP PUSH1 0x40 MLOAD RETURNDATASIZE PUSH1 0x1F NOT PUSH1 0x1F DUP3 ADD AND DUP3 ADD DUP1 PUSH1 0x40 MSTORE POP DUP2 ADD SWAP1 PUSH2 0xD8F SWAP2 SWAP1 PUSH2 0x20B8 JUMP JUMPDEST POP SWAP6 POP SWAP6 POP SWAP6 POP SWAP6 POP SWAP6 POP SWAP6 POP PUSH1 0x0 DUP10 PUSH2 0xE3F JUMPI DUP2 PUSH20 0xFFFFFFFFFFFFFFFFFFFFFFFFFFFFFFFFFFFFFFFF AND DUP13 PUSH20 0xFFFFFFFFFFFFFFFFFFFFFFFFFFFFFFFFFFFFFFFF AND EQ PUSH2 0xDFA JUMPI DUP5 PUSH8 0xDE0B6B3A7640000 DUP6 PUSH2 0xDEB SWAP2 SWAP1 PUSH2 0x2189 JUMP JUMPDEST PUSH2 0xDF5 SWAP2 SWAP1 PUSH2 0x2212 JUMP JUMPDEST PUSH2 0xE1A JUMP JUMPDEST DUP4 PUSH8 0xDE0B6B3A7640000 DUP7 PUSH2 0xE0F SWAP2 SWAP1 PUSH2 0x2189 JUMP JUMPDEST PUSH2 0xE19 SWAP2 SWAP1 PUSH2 0x2212 JUMP JUMPDEST JUMPDEST PUSH8 0xDE0B6B3A7640000 DUP15 PUSH2 0xE2E SWAP2 SWAP1 PUSH2 0x2189 JUMP JUMPDEST PUSH2 0xE38 SWAP2 SWAP1 PUSH2 0x2212 JUMP JUMPDEST SWAP9 POP PUSH2 0xE76 JUMP JUMPDEST PUSH2 0xE4B DUP13 DUP4 DUP10 DUP10 PUSH2 0x1595 JUMP JUMPDEST SWAP1 POP DUP1 DUP14 PUSH2 0xE5F DUP4 DUP16 DUP10 DUP10 DUP9 DUP15 DUP15 DUP13 PUSH2 0x1668 JUMP JUMPDEST PUSH2 0xE69 SWAP2 SWAP1 PUSH2 0x2189 JUMP JUMPDEST PUSH2 0xE73 SWAP2 SWAP1 PUSH2 0x2212 JUMP JUMPDEST SWAP9 POP JUMPDEST PUSH2 0xE86 DUP14 DUP14 DUP8 DUP8 DUP7 DUP13 DUP13 DUP11 PUSH2 0x1668 JUMP JUMPDEST SWAP8 POP POP POP POP POP POP POP POP SWAP5 POP SWAP5 SWAP3 POP POP POP JUMP JUMPDEST PUSH1 0x0 DUP1 PUSH1 0x0 PUSH2 0xEA8 DUP7 DUP7 DUP7 PUSH2 0x542 JUMP JUMPDEST SWAP1 POP PUSH1 0x0 PUSH20 0xFFFFFFFFFFFFFFFFFFFFFFFFFFFFFFFFFFFFFFFF AND DUP2 PUSH20 0xFFFFFFFFFFFFFFFFFFFFFFFFFFFFFFFFFFFFFFFF AND SUB PUSH2 0xEEB JUMPI PUSH1 0x0 DUP1 SWAP3 POP SWAP3 POP POP PUSH2 0x10B4 JUMP JUMPDEST PUSH1 0x0 DUP1 PUSH1 0x0 DUP1 PUSH1 0x0 DUP1 DUP7 PUSH20 0xFFFFFFFFFFFFFFFFFFFFFFFFFFFFFFFFFFFFFFFF AND PUSH4 0x392F37E9 PUSH1 0x40 MLOAD DUP2 PUSH4 0xFFFFFFFF AND PUSH1 0xE0 SHL DUP2 MSTORE PUSH1 0x4 ADD PUSH1 0xE0 PUSH1 0x40 MLOAD DUP1 DUP4 SUB DUP2 DUP7 GAS STATICCALL ISZERO DUP1 ISZERO PUSH2 0xF3F JUMPI RETURNDATASIZE PUSH1 0x0 DUP1 RETURNDATACOPY RETURNDATASIZE PUSH1 0x0 REVERT JUMPDEST POP POP POP POP PUSH1 0x40 MLOAD RETURNDATASIZE PUSH1 0x1F NOT PUSH1 0x1F DUP3 ADD AND DUP3 ADD DUP1 PUSH1 0x40 MSTORE POP DUP2 ADD SWAP1 PUSH2 0xF63 SWAP2 SWAP1 PUSH2 0x20B8 JUMP JUMPDEST SWAP7 POP SWAP7 POP POP SWAP6 POP SWAP6 POP SWAP6 POP SWAP6 POP DUP2 PUSH20 0xFFFFFFFFFFFFFFFFFFFFFFFFFFFFFFFFFFFFFFFF AND DUP13 PUSH20 0xFFFFFFFFFFFFFFFFFFFFFFFFFFFFFFFFFFFFFFFF AND EQ PUSH2 0xFA9 JUMPI DUP3 PUSH2 0xFAB JUMP JUMPDEST DUP4 JUMPDEST SWAP9 POP DUP1 PUSH20 0xFFFFFFFFFFFFFFFFFFFFFFFFFFFFFFFFFFFFFFFF AND DUP13 PUSH20 0xFFFFFFFFFFFFFFFFFFFFFFFFFFFFFFFFFFFFFFFF AND EQ PUSH2 0xFE6 JUMPI DUP3 PUSH2 0xFE8 JUMP JUMPDEST DUP4 JUMPDEST SWAP8 POP PUSH1 0x0 DUP3 PUSH20 0xFFFFFFFFFFFFFFFFFFFFFFFFFFFFFFFFFFFFFFFF AND DUP14 PUSH20 0xFFFFFFFFFFFFFFFFFFFFFFFFFFFFFFFFFFFFFFFF AND EQ PUSH2 0x1025 JUMPI DUP6 PUSH2 0x1027 JUMP JUMPDEST DUP7 JUMPDEST SWAP1 POP PUSH1 0x0 DUP3 PUSH20 0xFFFFFFFFFFFFFFFFFFFFFFFFFFFFFFFFFFFFFFFF AND DUP15 PUSH20 0xFFFFFFFFFFFFFFFFFFFFFFFFFFFFFFFFFFFFFFFF AND EQ PUSH2 0x1064 JUMPI DUP7 PUSH2 0x1066 JUMP JUMPDEST DUP8 JUMPDEST SWAP1 POP DUP2 PUSH8 0xDE0B6B3A7640000 DUP13 PUSH2 0x107D SWAP2 SWAP1 PUSH2 0x2189 JUMP JUMPDEST PUSH2 0x1087 SWAP2 SWAP1 PUSH2 0x2212 JUMP JUMPDEST SWAP11 POP DUP1 PUSH8 0xDE0B6B3A7640000 DUP12 PUSH2 0x109E SWAP2 SWAP1 PUSH2 0x2189 JUMP JUMPDEST PUSH2 0x10A8 SWAP2 SWAP1 PUSH2 0x2212 JUMP JUMPDEST SWAP10 POP POP POP POP POP POP POP POP POP POP JUMPDEST SWAP4 POP SWAP4 SWAP2 POP POP JUMP JUMPDEST PUSH1 0x0 DUP1 PUSH1 0x0 DUP1 PUSH1 0x0 DUP1 PUSH1 0x0 PUSH32 0x0 PUSH20 0xFFFFFFFFFFFFFFFFFFFFFFFFFFFFFFFFFFFFFFFF AND PUSH4 0x4C1EE03E DUP12 DUP12 DUP12 PUSH1 0x40 MLOAD DUP5 PUSH4 0xFFFFFFFF AND PUSH1 0xE0 SHL DUP2 MSTORE PUSH1 0x4 ADD PUSH2 0x1124 SWAP4 SWAP3 SWAP2 SWAP1 PUSH2 0x2015 JUMP JUMPDEST PUSH1 0x20 PUSH1 0x40 MLOAD DUP1 DUP4 SUB DUP2 DUP7 GAS STATICCALL ISZERO DUP1 ISZERO PUSH2 0x1141 JUMPI RETURNDATASIZE PUSH1 0x0 DUP1 RETURNDATACOPY RETURNDATASIZE PUSH1 0x0 REVERT JUMPDEST POP POP POP POP PUSH1 0x40 MLOAD RETURNDATASIZE PUSH1 0x1F NOT PUSH1 0x1F DUP3 ADD AND DUP3 ADD DUP1 PUSH1 0x40 MSTORE POP DUP2 ADD SWAP1 PUSH2 0x1165 SWAP2 SWAP1 PUSH2 0x2061 JUMP JUMPDEST PUSH20 0xFFFFFFFFFFFFFFFFFFFFFFFFFFFFFFFFFFFFFFFF AND PUSH4 0x392F37E9 PUSH1 0x40 MLOAD DUP2 PUSH4 0xFFFFFFFF AND PUSH1 0xE0 SHL DUP2 MSTORE PUSH1 0x4 ADD PUSH1 0xE0 PUSH1 0x40 MLOAD DUP1 DUP4 SUB DUP2 DUP7 GAS STATICCALL ISZERO DUP1 ISZERO PUSH2 0x11AF JUMPI RETURNDATASIZE PUSH1 0x0 DUP1 RETURNDATACOPY RETURNDATASIZE PUSH1 0x0 REVERT JUMPDEST POP POP POP POP PUSH1 0x40 MLOAD RETURNDATASIZE PUSH1 0x1F NOT PUSH1 0x1F DUP3 ADD AND DUP3 ADD DUP1 PUSH1 0x40 MSTORE POP DUP2 ADD SWAP1 PUSH2 0x11D3 SWAP2 SWAP1 PUSH2 0x20B8 JUMP JUMPDEST POP SWAP6 POP SWAP6 POP SWAP6 POP SWAP6 POP SWAP6 POP SWAP6 POP PUSH1 0x0 DUP2 PUSH20 0xFFFFFFFFFFFFFFFFFFFFFFFFFFFFFFFFFFFFFFFF AND DUP12 PUSH20 0xFFFFFFFFFFFFFFFFFFFFFFFFFFFFFFFFFFFFFFFF AND EQ PUSH2 0x1231 JUMPI DUP5 DUP8 DUP6 PUSH2 0x1222 SWAP2 SWAP1 PUSH2 0x2189 JUMP JUMPDEST PUSH2 0x122C SWAP2 SWAP1 PUSH2 0x2212 JUMP JUMPDEST PUSH2 0x1249 JUMP JUMPDEST DUP4 DUP7 DUP7 PUSH2 0x123E SWAP2 SWAP1 PUSH2 0x2189 JUMP JUMPDEST PUSH2 0x1248 SWAP2 SWAP1 PUSH2 0x2212 JUMP JUMPDEST JUMPDEST SWAP1 POP DUP1 PUSH8 0xDE0B6B3A7640000 PUSH2 0x1265 DUP4 DUP15 DUP10 DUP10 DUP9 DUP15 DUP15 DUP13 PUSH2 0x1668 JUMP JUMPDEST PUSH2 0x126F SWAP2 SWAP1 PUSH2 0x2189 JUMP JUMPDEST PUSH2 0x1279 SWAP2 SWAP1 PUSH2 0x2212 JUMP JUMPDEST SWAP8 POP POP POP POP POP POP POP POP SWAP4 SWAP3 POP POP POP JUMP JUMPDEST PUSH32 0x0 DUP2 JUMP JUMPDEST PUSH1 0x0 DUP1 PUSH1 0x0 DUP1 PUSH1 0x0 DUP1 PUSH1 0x0 PUSH32 0x0 PUSH20 0xFFFFFFFFFFFFFFFFFFFFFFFFFFFFFFFFFFFFFFFF AND PUSH4 0x4C1EE03E DUP12 DUP12 DUP12 PUSH1 0x40 MLOAD DUP5 PUSH4 0xFFFFFFFF AND PUSH1 0xE0 SHL DUP2 MSTORE PUSH1 0x4 ADD PUSH2 0x1315 SWAP4 SWAP3 SWAP2 SWAP1 PUSH2 0x2015 JUMP JUMPDEST PUSH1 0x20 PUSH1 0x40 MLOAD DUP1 DUP4 SUB DUP2 DUP7 GAS STATICCALL ISZERO DUP1 ISZERO PUSH2 0x1332 JUMPI RETURNDATASIZE PUSH1 0x0 DUP1 RETURNDATACOPY RETURNDATASIZE PUSH1 0x0 REVERT JUMPDEST POP POP POP POP PUSH1 0x40 MLOAD RETURNDATASIZE PUSH1 0x1F NOT PUSH1 0x1F DUP3 ADD AND DUP3 ADD DUP1 PUSH1 0x40 MSTORE POP DUP2 ADD SWAP1 PUSH2 0x1356 SWAP2 SWAP1 PUSH2 0x2061 JUMP JUMPDEST PUSH20 0xFFFFFFFFFFFFFFFFFFFFFFFFFFFFFFFFFFFFFFFF AND PUSH4 0x392F37E9 PUSH1 0x40 MLOAD DUP2 PUSH4 0xFFFFFFFF AND PUSH1 0xE0 SHL DUP2 MSTORE PUSH1 0x4 ADD PUSH1 0xE0 PUSH1 0x40 MLOAD DUP1 DUP4 SUB DUP2 DUP7 GAS STATICCALL ISZERO DUP1 ISZERO PUSH2 0x13A0 JUMPI RETURNDATASIZE PUSH1 0x0 DUP1 RETURNDATACOPY RETURNDATASIZE PUSH1 0x0 REVERT JUMPDEST POP POP POP POP PUSH1 0x40 MLOAD RETURNDATASIZE PUSH1 0x1F NOT PUSH1 0x1F DUP3 ADD AND DUP3 ADD DUP1 PUSH1 0x40 MSTORE POP DUP2 ADD SWAP1 PUSH2 0x13C4 SWAP2 SWAP1 PUSH2 0x20B8 JUMP JUMPDEST POP SWAP6 POP SWAP6 POP SWAP6 POP SWAP6 POP SWAP6 POP SWAP6 POP DUP11 PUSH8 0xDE0B6B3A7640000 PUSH2 0x13EB DUP14 DUP14 DUP9 DUP9 DUP8 DUP14 DUP14 DUP12 PUSH2 0x1668 JUMP JUMPDEST PUSH2 0x13F5 SWAP2 SWAP1 PUSH2 0x2189 JUMP JUMPDEST PUSH2 0x13FF SWAP2 SWAP1 PUSH2 0x2212 JUMP JUMPDEST SWAP7 POP POP POP POP POP POP POP SWAP5 SWAP4 POP POP POP POP JUMP JUMPDEST PUSH1 0x0 DUP1 PUSH1 0x0 DUP1 PUSH1 0x0 DUP1 PUSH1 0x0 DUP1 DUP9 PUSH20 0xFFFFFFFFFFFFFFFFFFFFFFFFFFFFFFFFFFFFFFFF AND PUSH4 0x392F37E9 PUSH1 0x40 MLOAD DUP2 PUSH4 0xFFFFFFFF AND PUSH1 0xE0 SHL DUP2 MSTORE PUSH1 0x4 ADD PUSH1 0xE0 PUSH1 0x40 MLOAD DUP1 DUP4 SUB DUP2 DUP7 GAS STATICCALL ISZERO DUP1 ISZERO PUSH2 0x1466 JUMPI RETURNDATASIZE PUSH1 0x0 DUP1 RETURNDATACOPY RETURNDATASIZE PUSH1 0x0 REVERT JUMPDEST POP POP POP POP PUSH1 0x40 MLOAD RETURNDATASIZE PUSH1 0x1F NOT PUSH1 0x1F DUP3 ADD AND DUP3 ADD DUP1 PUSH1 0x40 MSTORE POP DUP2 ADD SWAP1 PUSH2 0x148A SWAP2 SWAP1 PUSH2 0x20B8 JUMP JUMPDEST POP SWAP6 POP SWAP6 POP SWAP6 POP SWAP6 POP SWAP6 POP SWAP6 POP PUSH1 0x0 DUP2 PUSH20 0xFFFFFFFFFFFFFFFFFFFFFFFFFFFFFFFFFFFFFFFF AND DUP12 PUSH20 0xFFFFFFFFFFFFFFFFFFFFFFFFFFFFFFFFFFFFFFFF AND EQ PUSH2 0x14E8 JUMPI DUP5 DUP8 DUP6 PUSH2 0x14D9 SWAP2 SWAP1 PUSH2 0x2189 JUMP JUMPDEST PUSH2 0x14E3 SWAP2 SWAP1 PUSH2 0x2212 JUMP JUMPDEST PUSH2 0x1500 JUMP JUMPDEST DUP4 DUP7 DUP7 PUSH2 0x14F5 SWAP2 SWAP1 PUSH2 0x2189 JUMP JUMPDEST PUSH2 0x14FF SWAP2 SWAP1 PUSH2 0x2212 JUMP JUMPDEST JUMPDEST SWAP1 POP DUP1 PUSH8 0xDE0B6B3A7640000 PUSH2 0x151C DUP4 DUP15 DUP10 DUP10 DUP9 DUP15 DUP15 DUP13 PUSH2 0x1668 JUMP JUMPDEST PUSH2 0x1526 SWAP2 SWAP1 PUSH2 0x2189 JUMP JUMPDEST PUSH2 0x1530 SWAP2 SWAP1 PUSH2 0x2212 JUMP JUMPDEST SWAP9 POP DUP12 PUSH8 0xDE0B6B3A7640000 PUSH2 0x154C DUP15 DUP15 DUP10 DUP10 DUP9 DUP15 DUP15 DUP13 PUSH2 0x1668 JUMP JUMPDEST PUSH2 0x1556 SWAP2 SWAP1 PUSH2 0x2189 JUMP JUMPDEST PUSH2 0x1560 SWAP2 SWAP1 PUSH2 0x2212 JUMP JUMPDEST SWAP8 POP POP POP POP POP POP POP POP SWAP4 POP SWAP4 SWAP2 POP POP JUMP JUMPDEST PUSH32 0x0 DUP2 JUMP JUMPDEST PUSH1 0x0 DUP1 DUP5 PUSH20 0xFFFFFFFFFFFFFFFFFFFFFFFFFFFFFFFFFFFFFFFF AND DUP7 PUSH20 0xFFFFFFFFFFFFFFFFFFFFFFFFFFFFFFFFFFFFFFFF AND EQ PUSH2 0x15D1 JUMPI DUP3 PUSH2 0x15D3 JUMP JUMPDEST DUP4 JUMPDEST SWAP1 POP PUSH1 0x0 DUP6 PUSH20 0xFFFFFFFFFFFFFFFFFFFFFFFFFFFFFFFFFFFFFFFF AND DUP8 PUSH20 0xFFFFFFFFFFFFFFFFFFFFFFFFFFFFFFFFFFFFFFFF AND EQ PUSH2 0x1610 JUMPI DUP5 PUSH2 0x1612 JUMP JUMPDEST DUP4 JUMPDEST SWAP1 POP PUSH2 0x2710 PUSH2 0x1646 DUP3 DUP5 GT PUSH2 0x1632 JUMPI DUP4 DUP4 PUSH2 0x162D SWAP2 SWAP1 PUSH2 0x24C3 JUMP JUMPDEST PUSH2 0x163F JUMP JUMPDEST DUP3 DUP5 PUSH2 0x163E SWAP2 SWAP1 PUSH2 0x24C3 JUMP JUMPDEST JUMPDEST PUSH1 0x1 PUSH2 0x1880 JUMP JUMPDEST PUSH1 0xA PUSH2 0x1652 SWAP2 SWAP1 PUSH2 0x262A JUMP JUMPDEST PUSH2 0x165C SWAP2 SWAP1 PUSH2 0x2189 JUMP JUMPDEST SWAP3 POP POP POP SWAP5 SWAP4 POP POP POP POP JUMP JUMPDEST PUSH1 0x0 DUP2 ISZERO PUSH2 0x1809 JUMPI PUSH1 0x0 PUSH2 0x167F DUP9 DUP9 DUP6 DUP9 DUP9 PUSH2 0x189A JUMP JUMPDEST SWAP1 POP DUP5 PUSH8 0xDE0B6B3A7640000 DUP10 PUSH2 0x1696 SWAP2 SWAP1 PUSH2 0x2189 JUMP JUMPDEST PUSH2 0x16A0 SWAP2 SWAP1 PUSH2 0x2212 JUMP JUMPDEST SWAP8 POP DUP4 PUSH8 0xDE0B6B3A7640000 DUP9 PUSH2 0x16B7 SWAP2 SWAP1 PUSH2 0x2189 JUMP JUMPDEST PUSH2 0x16C1 SWAP2 SWAP1 PUSH2 0x2212 JUMP JUMPDEST SWAP7 POP PUSH1 0x0 DUP1 DUP8 PUSH20 0xFFFFFFFFFFFFFFFFFFFFFFFFFFFFFFFFFFFFFFFF AND DUP12 PUSH20 0xFFFFFFFFFFFFFFFFFFFFFFFFFFFFFFFFFFFFFFFF AND EQ PUSH2 0x1700 JUMPI DUP9 DUP11 PUSH2 0x1703 JUMP JUMPDEST DUP10 DUP10 JUMPDEST SWAP2 POP SWAP2 POP DUP8 PUSH20 0xFFFFFFFFFFFFFFFFFFFFFFFFFFFFFFFFFFFFFFFF AND DUP12 PUSH20 0xFFFFFFFFFFFFFFFFFFFFFFFFFFFFFFFFFFFFFFFF AND EQ PUSH2 0x175E JUMPI DUP6 PUSH8 0xDE0B6B3A7640000 DUP14 PUSH2 0x174F SWAP2 SWAP1 PUSH2 0x2189 JUMP JUMPDEST PUSH2 0x1759 SWAP2 SWAP1 PUSH2 0x2212 JUMP JUMPDEST PUSH2 0x177E JUMP JUMPDEST DUP7 PUSH8 0xDE0B6B3A7640000 DUP14 PUSH2 0x1773 SWAP2 SWAP1 PUSH2 0x2189 JUMP JUMPDEST PUSH2 0x177D SWAP2 SWAP1 PUSH2 0x2212 JUMP JUMPDEST JUMPDEST SWAP12 POP PUSH1 0x0 PUSH2 0x1798 DUP4 DUP15 PUSH2 0x1791 SWAP2 SWAP1 PUSH2 0x2675 JUMP JUMPDEST DUP6 DUP5 PUSH2 0x1999 JUMP JUMPDEST DUP3 PUSH2 0x17A3 SWAP2 SWAP1 PUSH2 0x24C3 JUMP JUMPDEST SWAP1 POP PUSH8 0xDE0B6B3A7640000 DUP10 PUSH20 0xFFFFFFFFFFFFFFFFFFFFFFFFFFFFFFFFFFFFFFFF AND DUP14 PUSH20 0xFFFFFFFFFFFFFFFFFFFFFFFFFFFFFFFFFFFFFFFF AND EQ PUSH2 0x17E7 JUMPI DUP9 PUSH2 0x17E9 JUMP JUMPDEST DUP8 JUMPDEST DUP3 PUSH2 0x17F4 SWAP2 SWAP1 PUSH2 0x2189 JUMP JUMPDEST PUSH2 0x17FE SWAP2 SWAP1 PUSH2 0x2212 JUMP JUMPDEST SWAP5 POP POP POP POP POP PUSH2 0x1874 JUMP JUMPDEST PUSH1 0x0 DUP1 DUP7 PUSH20 0xFFFFFFFFFFFFFFFFFFFFFFFFFFFFFFFFFFFFFFFF AND DUP11 PUSH20 0xFFFFFFFFFFFFFFFFFFFFFFFFFFFFFFFFFFFFFFFF AND EQ PUSH2 0x1846 JUMPI DUP8 DUP10 PUSH2 0x1849 JUMP JUMPDEST DUP9 DUP9 JUMPDEST SWAP2 POP SWAP2 POP DUP11 DUP3 PUSH2 0x1859 SWAP2 SWAP1 PUSH2 0x2675 JUMP JUMPDEST DUP2 DUP13 PUSH2 0x1865 SWAP2 SWAP1 PUSH2 0x2189 JUMP JUMPDEST PUSH2 0x186F SWAP2 SWAP1 PUSH2 0x2212 JUMP JUMPDEST SWAP3 POP POP POP JUMPDEST SWAP9 SWAP8 POP POP POP POP POP POP POP POP JUMP JUMPDEST PUSH1 0x0 DUP2 DUP4 LT ISZERO PUSH2 0x1890 JUMPI DUP2 PUSH2 0x1892 JUMP JUMPDEST DUP3 JUMPDEST SWAP1 POP SWAP3 SWAP2 POP POP JUMP JUMPDEST PUSH1 0x0 DUP4 ISZERO PUSH2 0x1981 JUMPI PUSH1 0x0 DUP4 PUSH8 0xDE0B6B3A7640000 DUP9 PUSH2 0x18B9 SWAP2 SWAP1 PUSH2 0x2189 JUMP JUMPDEST PUSH2 0x18C3 SWAP2 SWAP1 PUSH2 0x2212 JUMP JUMPDEST SWAP1 POP PUSH1 0x0 DUP4 PUSH8 0xDE0B6B3A7640000 DUP9 PUSH2 0x18DC SWAP2 SWAP1 PUSH2 0x2189 JUMP JUMPDEST PUSH2 0x18E6 SWAP2 SWAP1 PUSH2 0x2212 JUMP JUMPDEST SWAP1 POP PUSH1 0x0 PUSH8 0xDE0B6B3A7640000 DUP3 DUP5 PUSH2 0x18FF SWAP2 SWAP1 PUSH2 0x2189 JUMP JUMPDEST PUSH2 0x1909 SWAP2 SWAP1 PUSH2 0x2212 JUMP JUMPDEST SWAP1 POP PUSH1 0x0 PUSH8 0xDE0B6B3A7640000 DUP4 DUP5 PUSH2 0x1922 SWAP2 SWAP1 PUSH2 0x2189 JUMP JUMPDEST PUSH2 0x192C SWAP2 SWAP1 PUSH2 0x2212 JUMP JUMPDEST PUSH8 0xDE0B6B3A7640000 DUP6 DUP7 PUSH2 0x1941 SWAP2 SWAP1 PUSH2 0x2189 JUMP JUMPDEST PUSH2 0x194B SWAP2 SWAP1 PUSH2 0x2212 JUMP JUMPDEST PUSH2 0x1955 SWAP2 SWAP1 PUSH2 0x2675 JUMP JUMPDEST SWAP1 POP PUSH8 0xDE0B6B3A7640000 DUP2 DUP4 PUSH2 0x196C SWAP2 SWAP1 PUSH2 0x2189 JUMP JUMPDEST PUSH2 0x1976 SWAP2 SWAP1 PUSH2 0x2212 JUMP JUMPDEST SWAP5 POP POP POP POP POP PUSH2 0x1990 JUMP JUMPDEST DUP5 DUP7 PUSH2 0x198D SWAP2 SWAP1 PUSH2 0x2189 JUMP JUMPDEST SWAP1 POP JUMPDEST SWAP6 SWAP5 POP POP POP POP POP JUMP JUMPDEST PUSH1 0x0 DUP1 PUSH1 0x0 SWAP1 POP JUMPDEST PUSH1 0xFF DUP2 LT ISZERO PUSH2 0x1AB6 JUMPI PUSH1 0x0 DUP4 SWAP1 POP PUSH1 0x0 PUSH2 0x19BB DUP8 DUP7 PUSH2 0x1AC2 JUMP JUMPDEST SWAP1 POP DUP6 DUP2 LT ISZERO PUSH2 0x1A10 JUMPI PUSH1 0x0 PUSH2 0x19D1 DUP9 DUP8 PUSH2 0x1B84 JUMP JUMPDEST PUSH8 0xDE0B6B3A7640000 DUP4 DUP10 PUSH2 0x19E6 SWAP2 SWAP1 PUSH2 0x24C3 JUMP JUMPDEST PUSH2 0x19F0 SWAP2 SWAP1 PUSH2 0x2189 JUMP JUMPDEST PUSH2 0x19FA SWAP2 SWAP1 PUSH2 0x2212 JUMP JUMPDEST SWAP1 POP DUP1 DUP7 PUSH2 0x1A08 SWAP2 SWAP1 PUSH2 0x2675 JUMP JUMPDEST SWAP6 POP POP PUSH2 0x1A57 JUMP JUMPDEST PUSH1 0x0 PUSH2 0x1A1C DUP9 DUP8 PUSH2 0x1B84 JUMP JUMPDEST PUSH8 0xDE0B6B3A7640000 DUP9 DUP5 PUSH2 0x1A31 SWAP2 SWAP1 PUSH2 0x24C3 JUMP JUMPDEST PUSH2 0x1A3B SWAP2 SWAP1 PUSH2 0x2189 JUMP JUMPDEST PUSH2 0x1A45 SWAP2 SWAP1 PUSH2 0x2212 JUMP JUMPDEST SWAP1 POP DUP1 DUP7 PUSH2 0x1A53 SWAP2 SWAP1 PUSH2 0x24C3 JUMP JUMPDEST SWAP6 POP POP JUMPDEST DUP2 DUP6 GT ISZERO PUSH2 0x1A82 JUMPI PUSH1 0x1 DUP3 DUP7 PUSH2 0x1A6D SWAP2 SWAP1 PUSH2 0x24C3 JUMP JUMPDEST GT PUSH2 0x1A7D JUMPI DUP5 SWAP4 POP POP POP POP PUSH2 0x1ABB JUMP JUMPDEST PUSH2 0x1AA1 JUMP JUMPDEST PUSH1 0x1 DUP6 DUP4 PUSH2 0x1A90 SWAP2 SWAP1 PUSH2 0x24C3 JUMP JUMPDEST GT PUSH2 0x1AA0 JUMPI DUP5 SWAP4 POP POP POP POP PUSH2 0x1ABB JUMP JUMPDEST JUMPDEST POP POP DUP1 DUP1 PUSH2 0x1AAE SWAP1 PUSH2 0x26CB JUMP JUMPDEST SWAP2 POP POP PUSH2 0x19A1 JUMP JUMPDEST POP DUP2 SWAP1 POP JUMPDEST SWAP4 SWAP3 POP POP POP JUMP JUMPDEST PUSH1 0x0 PUSH8 0xDE0B6B3A7640000 DUP3 PUSH8 0xDE0B6B3A7640000 DUP6 PUSH8 0xDE0B6B3A7640000 DUP8 DUP9 PUSH2 0x1AED SWAP2 SWAP1 PUSH2 0x2189 JUMP JUMPDEST PUSH2 0x1AF7 SWAP2 SWAP1 PUSH2 0x2212 JUMP JUMPDEST PUSH2 0x1B01 SWAP2 SWAP1 PUSH2 0x2189 JUMP JUMPDEST PUSH2 0x1B0B SWAP2 SWAP1 PUSH2 0x2212 JUMP JUMPDEST PUSH2 0x1B15 SWAP2 SWAP1 PUSH2 0x2189 JUMP JUMPDEST PUSH2 0x1B1F SWAP2 SWAP1 PUSH2 0x2212 JUMP JUMPDEST PUSH8 0xDE0B6B3A7640000 DUP1 DUP5 PUSH8 0xDE0B6B3A7640000 DUP7 DUP8 PUSH2 0x1B3F SWAP2 SWAP1 PUSH2 0x2189 JUMP JUMPDEST PUSH2 0x1B49 SWAP2 SWAP1 PUSH2 0x2212 JUMP JUMPDEST PUSH2 0x1B53 SWAP2 SWAP1 PUSH2 0x2189 JUMP JUMPDEST PUSH2 0x1B5D SWAP2 SWAP1 PUSH2 0x2212 JUMP JUMPDEST DUP6 PUSH2 0x1B68 SWAP2 SWAP1 PUSH2 0x2189 JUMP JUMPDEST PUSH2 0x1B72 SWAP2 SWAP1 PUSH2 0x2212 JUMP JUMPDEST PUSH2 0x1B7C SWAP2 SWAP1 PUSH2 0x2675 JUMP JUMPDEST SWAP1 POP SWAP3 SWAP2 POP POP JUMP JUMPDEST PUSH1 0x0 PUSH8 0xDE0B6B3A7640000 DUP4 PUSH8 0xDE0B6B3A7640000 DUP6 DUP7 PUSH2 0x1BA5 SWAP2 SWAP1 PUSH2 0x2189 JUMP JUMPDEST PUSH2 0x1BAF SWAP2 SWAP1 PUSH2 0x2212 JUMP JUMPDEST PUSH2 0x1BB9 SWAP2 SWAP1 PUSH2 0x2189 JUMP JUMPDEST PUSH2 0x1BC3 SWAP2 SWAP1 PUSH2 0x2212 JUMP JUMPDEST PUSH8 0xDE0B6B3A7640000 DUP1 DUP5 DUP6 PUSH2 0x1BD9 SWAP2 SWAP1 PUSH2 0x2189 JUMP JUMPDEST PUSH2 0x1BE3 SWAP2 SWAP1 PUSH2 0x2212 JUMP JUMPDEST DUP6 PUSH1 0x3 PUSH2 0x1BF0 SWAP2 SWAP1 PUSH2 0x2189 JUMP JUMPDEST PUSH2 0x1BFA SWAP2 SWAP1 PUSH2 0x2189 JUMP JUMPDEST PUSH2 0x1C04 SWAP2 SWAP1 PUSH2 0x2212 JUMP JUMPDEST PUSH2 0x1C0E SWAP2 SWAP1 PUSH2 0x2675 JUMP JUMPDEST SWAP1 POP SWAP3 SWAP2 POP POP JUMP JUMPDEST PUSH1 0x0 DUP1 REVERT JUMPDEST PUSH1 0x0 DUP2 SWAP1 POP SWAP2 SWAP1 POP JUMP JUMPDEST PUSH2 0x1C2E DUP2 PUSH2 0x1C1B JUMP JUMPDEST DUP2 EQ PUSH2 0x1C39 JUMPI PUSH1 0x0 DUP1 REVERT JUMPDEST POP JUMP JUMPDEST PUSH1 0x0 DUP2 CALLDATALOAD SWAP1 POP PUSH2 0x1C4B DUP2 PUSH2 0x1C25 JUMP JUMPDEST SWAP3 SWAP2 POP POP JUMP JUMPDEST PUSH1 0x0 PUSH20 0xFFFFFFFFFFFFFFFFFFFFFFFFFFFFFFFFFFFFFFFF DUP3 AND SWAP1 POP SWAP2 SWAP1 POP JUMP JUMPDEST PUSH1 0x0 PUSH2 0x1C7C DUP3 PUSH2 0x1C51 JUMP JUMPDEST SWAP1 POP SWAP2 SWAP1 POP JUMP JUMPDEST PUSH2 0x1C8C DUP2 PUSH2 0x1C71 JUMP JUMPDEST DUP2 EQ PUSH2 0x1C97 JUMPI PUSH1 0x0 DUP1 REVERT JUMPDEST POP JUMP JUMPDEST PUSH1 0x0 DUP2 CALLDATALOAD SWAP1 POP PUSH2 0x1CA9 DUP2 PUSH2 0x1C83 JUMP JUMPDEST SWAP3 SWAP2 POP POP JUMP JUMPDEST PUSH1 0x0 DUP2 ISZERO ISZERO SWAP1 POP SWAP2 SWAP1 POP JUMP JUMPDEST PUSH2 0x1CC4 DUP2 PUSH2 0x1CAF JUMP JUMPDEST DUP2 EQ PUSH2 0x1CCF JUMPI PUSH1 0x0 DUP1 REVERT JUMPDEST POP JUMP JUMPDEST PUSH1 0x0 DUP2 CALLDATALOAD SWAP1 POP PUSH2 0x1CE1 DUP2 PUSH2 0x1CBB JUMP JUMPDEST SWAP3 SWAP2 POP POP JUMP JUMPDEST PUSH1 0x0 DUP1 PUSH1 0x0 DUP1 PUSH1 0x80 DUP6 DUP8 SUB SLT ISZERO PUSH2 0x1D01 JUMPI PUSH2 0x1D00 PUSH2 0x1C16 JUMP JUMPDEST JUMPDEST PUSH1 0x0 PUSH2 0x1D0F DUP8 DUP3 DUP9 ADD PUSH2 0x1C3C JUMP JUMPDEST SWAP5 POP POP PUSH1 0x20 PUSH2 0x1D20 DUP8 DUP3 DUP9 ADD PUSH2 0x1C9A JUMP JUMPDEST SWAP4 POP POP PUSH1 0x40 PUSH2 0x1D31 DUP8 DUP3 DUP9 ADD PUSH2 0x1C9A JUMP JUMPDEST SWAP3 POP POP PUSH1 0x60 PUSH2 0x1D42 DUP8 DUP3 DUP9 ADD PUSH2 0x1CD2 JUMP JUMPDEST SWAP2 POP POP SWAP3 SWAP6 SWAP2 SWAP5 POP SWAP3 POP JUMP JUMPDEST PUSH2 0x1D57 DUP2 PUSH2 0x1C1B JUMP JUMPDEST DUP3 MSTORE POP POP JUMP JUMPDEST PUSH1 0x0 PUSH1 0x40 DUP3 ADD SWAP1 POP PUSH2 0x1D72 PUSH1 0x0 DUP4 ADD DUP6 PUSH2 0x1D4E JUMP JUMPDEST PUSH2 0x1D7F PUSH1 0x20 DUP4 ADD DUP5 PUSH2 0x1D4E JUMP JUMPDEST SWAP4 SWAP3 POP POP POP JUMP JUMPDEST PUSH1 0x0 DUP1 PUSH1 0x0 PUSH1 0x60 DUP5 DUP7 SUB SLT ISZERO PUSH2 0x1D9F JUMPI PUSH2 0x1D9E PUSH2 0x1C16 JUMP JUMPDEST JUMPDEST PUSH1 0x0 PUSH2 0x1DAD DUP7 DUP3 DUP8 ADD PUSH2 0x1C9A JUMP JUMPDEST SWAP4 POP POP PUSH1 0x20 PUSH2 0x1DBE DUP7 DUP3 DUP8 ADD PUSH2 0x1C9A JUMP JUMPDEST SWAP3 POP POP PUSH1 0x40 PUSH2 0x1DCF DUP7 DUP3 DUP8 ADD PUSH2 0x1CD2 JUMP JUMPDEST SWAP2 POP POP SWAP3 POP SWAP3 POP SWAP3 JUMP JUMPDEST PUSH2 0x1DE2 DUP2 PUSH2 0x1C71 JUMP JUMPDEST DUP3 MSTORE POP POP JUMP JUMPDEST PUSH1 0x0 PUSH1 0x20 DUP3 ADD SWAP1 POP PUSH2 0x1DFD PUSH1 0x0 DUP4 ADD DUP5 PUSH2 0x1DD9 JUMP JUMPDEST SWAP3 SWAP2 POP POP JUMP JUMPDEST PUSH1 0x0 PUSH1 0x60 DUP3 ADD SWAP1 POP PUSH2 0x1E18 PUSH1 0x0 DUP4 ADD DUP7 PUSH2 0x1D4E JUMP JUMPDEST PUSH2 0x1E25 PUSH1 0x20 DUP4 ADD DUP6 PUSH2 0x1D4E JUMP JUMPDEST PUSH2 0x1E32 PUSH1 0x40 DUP4 ADD DUP5 PUSH2 0x1D4E JUMP JUMPDEST SWAP5 SWAP4 POP POP POP POP JUMP JUMPDEST PUSH1 0x0 DUP1 PUSH1 0x40 DUP4 DUP6 SUB SLT ISZERO PUSH2 0x1E51 JUMPI PUSH2 0x1E50 PUSH2 0x1C16 JUMP JUMPDEST JUMPDEST PUSH1 0x0 PUSH2 0x1E5F DUP6 DUP3 DUP7 ADD PUSH2 0x1C9A JUMP JUMPDEST SWAP3 POP POP PUSH1 0x20 PUSH2 0x1E70 DUP6 DUP3 DUP7 ADD PUSH2 0x1C9A JUMP JUMPDEST SWAP2 POP POP SWAP3 POP SWAP3 SWAP1 POP JUMP JUMPDEST PUSH1 0x0 PUSH1 0x40 DUP3 ADD SWAP1 POP PUSH2 0x1E8F PUSH1 0x0 DUP4 ADD DUP6 PUSH2 0x1DD9 JUMP JUMPDEST PUSH2 0x1E9C PUSH1 0x20 DUP4 ADD DUP5 PUSH2 0x1DD9 JUMP JUMPDEST SWAP4 SWAP3 POP POP POP JUMP JUMPDEST PUSH1 0x0 DUP1 PUSH1 0x0 DUP1 PUSH1 0x0 PUSH1 0xA0 DUP7 DUP9 SUB SLT ISZERO PUSH2 0x1EBF JUMPI PUSH2 0x1EBE PUSH2 0x1C16 JUMP JUMPDEST JUMPDEST PUSH1 0x0 PUSH2 0x1ECD DUP9 DUP3 DUP10 ADD PUSH2 0x1C3C JUMP JUMPDEST SWAP6 POP POP PUSH1 0x20 PUSH2 0x1EDE DUP9 DUP3 DUP10 ADD PUSH2 0x1C9A JUMP JUMPDEST SWAP5 POP POP PUSH1 0x40 PUSH2 0x1EEF DUP9 DUP3 DUP10 ADD PUSH2 0x1C9A JUMP JUMPDEST SWAP4 POP POP PUSH1 0x60 PUSH2 0x1F00 DUP9 DUP3 DUP10 ADD PUSH2 0x1CD2 JUMP JUMPDEST SWAP3 POP POP PUSH1 0x80 PUSH2 0x1F11 DUP9 DUP3 DUP10 ADD PUSH2 0x1C3C JUMP JUMPDEST SWAP2 POP POP SWAP3 SWAP6 POP SWAP3 SWAP6 SWAP1 SWAP4 POP JUMP JUMPDEST PUSH1 0x0 PUSH1 0x20 DUP3 ADD SWAP1 POP PUSH2 0x1F33 PUSH1 0x0 DUP4 ADD DUP5 PUSH2 0x1D4E JUMP JUMPDEST SWAP3 SWAP2 POP POP JUMP JUMPDEST PUSH1 0x0 DUP1 PUSH1 0x0 PUSH1 0x60 DUP5 DUP7 SUB SLT ISZERO PUSH2 0x1F52 JUMPI PUSH2 0x1F51 PUSH2 0x1C16 JUMP JUMPDEST JUMPDEST PUSH1 0x0 PUSH2 0x1F60 DUP7 DUP3 DUP8 ADD PUSH2 0x1C3C JUMP JUMPDEST SWAP4 POP POP PUSH1 0x20 PUSH2 0x1F71 DUP7 DUP3 DUP8 ADD PUSH2 0x1C9A JUMP JUMPDEST SWAP3 POP POP PUSH1 0x40 PUSH2 0x1F82 DUP7 DUP3 DUP8 ADD PUSH2 0x1C9A JUMP JUMPDEST SWAP2 POP POP SWAP3 POP SWAP3 POP SWAP3 JUMP JUMPDEST PUSH1 0x0 DUP2 SWAP1 POP SWAP2 SWAP1 POP JUMP JUMPDEST PUSH1 0x0 PUSH2 0x1FB1 PUSH2 0x1FAC PUSH2 0x1FA7 DUP5 PUSH2 0x1C51 JUMP JUMPDEST PUSH2 0x1F8C JUMP JUMPDEST PUSH2 0x1C51 JUMP JUMPDEST SWAP1 POP SWAP2 SWAP1 POP JUMP JUMPDEST PUSH1 0x0 PUSH2 0x1FC3 DUP3 PUSH2 0x1F96 JUMP JUMPDEST SWAP1 POP SWAP2 SWAP1 POP JUMP JUMPDEST PUSH1 0x0 PUSH2 0x1FD5 DUP3 PUSH2 0x1FB8 JUMP JUMPDEST SWAP1 POP SWAP2 SWAP1 POP JUMP JUMPDEST PUSH2 0x1FE5 DUP2 PUSH2 0x1FCA JUMP JUMPDEST DUP3 MSTORE POP POP JUMP JUMPDEST PUSH1 0x0 PUSH1 0x20 DUP3 ADD SWAP1 POP PUSH2 0x2000 PUSH1 0x0 DUP4 ADD DUP5 PUSH2 0x1FDC JUMP JUMPDEST SWAP3 SWAP2 POP POP JUMP JUMPDEST PUSH2 0x200F DUP2 PUSH2 0x1CAF JUMP JUMPDEST DUP3 MSTORE POP POP JUMP JUMPDEST PUSH1 0x0 PUSH1 0x60 DUP3 ADD SWAP1 POP PUSH2 0x202A PUSH1 0x0 DUP4 ADD DUP7 PUSH2 0x1DD9 JUMP JUMPDEST PUSH2 0x2037 PUSH1 0x20 DUP4 ADD DUP6 PUSH2 0x1DD9 JUMP JUMPDEST PUSH2 0x2044 PUSH1 0x40 DUP4 ADD DUP5 PUSH2 0x2006 JUMP JUMPDEST SWAP5 SWAP4 POP POP POP POP JUMP JUMPDEST PUSH1 0x0 DUP2 MLOAD SWAP1 POP PUSH2 0x205B DUP2 PUSH2 0x1C83 JUMP JUMPDEST SWAP3 SWAP2 POP POP JUMP JUMPDEST PUSH1 0x0 PUSH1 0x20 DUP3 DUP5 SUB SLT ISZERO PUSH2 0x2077 JUMPI PUSH2 0x2076 PUSH2 0x1C16 JUMP JUMPDEST JUMPDEST PUSH1 0x0 PUSH2 0x2085 DUP5 DUP3 DUP6 ADD PUSH2 0x204C JUMP JUMPDEST SWAP2 POP POP SWAP3 SWAP2 POP POP JUMP JUMPDEST PUSH1 0x0 DUP2 MLOAD SWAP1 POP PUSH2 0x209D DUP2 PUSH2 0x1C25 JUMP JUMPDEST SWAP3 SWAP2 POP POP JUMP JUMPDEST PUSH1 0x0 DUP2 MLOAD SWAP1 POP PUSH2 0x20B2 DUP2 PUSH2 0x1CBB JUMP JUMPDEST SWAP3 SWAP2 POP POP JUMP JUMPDEST PUSH1 0x0 DUP1 PUSH1 0x0 DUP1 PUSH1 0x0 DUP1 PUSH1 0x0 PUSH1 0xE0 DUP9 DUP11 SUB SLT ISZERO PUSH2 0x20D7 JUMPI PUSH2 0x20D6 PUSH2 0x1C16 JUMP JUMPDEST JUMPDEST PUSH1 0x0 PUSH2 0x20E5 DUP11 DUP3 DUP12 ADD PUSH2 0x208E JUMP JUMPDEST SWAP8 POP POP PUSH1 0x20 PUSH2 0x20F6 DUP11 DUP3 DUP12 ADD PUSH2 0x208E JUMP JUMPDEST SWAP7 POP POP PUSH1 0x40 PUSH2 0x2107 DUP11 DUP3 DUP12 ADD PUSH2 0x208E JUMP JUMPDEST SWAP6 POP POP PUSH1 0x60 PUSH2 0x2118 DUP11 DUP3 DUP12 ADD PUSH2 0x208E JUMP JUMPDEST SWAP5 POP POP PUSH1 0x80 PUSH2 0x2129 DUP11 DUP3 DUP12 ADD PUSH2 0x20A3 JUMP JUMPDEST SWAP4 POP POP PUSH1 0xA0 PUSH2 0x213A DUP11 DUP3 DUP12 ADD PUSH2 0x204C JUMP JUMPDEST SWAP3 POP POP PUSH1 0xC0 PUSH2 0x214B DUP11 DUP3 DUP12 ADD PUSH2 0x204C JUMP JUMPDEST SWAP2 POP POP SWAP3 SWAP6 SWAP9 SWAP2 SWAP5 SWAP8 POP SWAP3 SWAP6 POP JUMP JUMPDEST PUSH32 0x4E487B7100000000000000000000000000000000000000000000000000000000 PUSH1 0x0 MSTORE PUSH1 0x11 PUSH1 0x4 MSTORE PUSH1 0x24 PUSH1 0x0 REVERT JUMPDEST PUSH1 0x0 PUSH2 0x2194 DUP3 PUSH2 0x1C1B JUMP JUMPDEST SWAP2 POP PUSH2 0x219F DUP4 PUSH2 0x1C1B JUMP JUMPDEST SWAP3 POP DUP2 PUSH32 0xFFFFFFFFFFFFFFFFFFFFFFFFFFFFFFFFFFFFFFFFFFFFFFFFFFFFFFFFFFFFFFFF DIV DUP4 GT DUP3 ISZERO ISZERO AND ISZERO PUSH2 0x21D8 JUMPI PUSH2 0x21D7 PUSH2 0x215A JUMP JUMPDEST JUMPDEST DUP3 DUP3 MUL SWAP1 POP SWAP3 SWAP2 POP POP JUMP JUMPDEST PUSH32 0x4E487B7100000000000000000000000000000000000000000000000000000000 PUSH1 0x0 MSTORE PUSH1 0x12 PUSH1 0x4 MSTORE PUSH1 0x24 PUSH1 0x0 REVERT JUMPDEST PUSH1 0x0 PUSH2 0x221D DUP3 PUSH2 0x1C1B JUMP JUMPDEST SWAP2 POP PUSH2 0x2228 DUP4 PUSH2 0x1C1B JUMP JUMPDEST SWAP3 POP DUP3 PUSH2 0x2238 JUMPI PUSH2 0x2237 PUSH2 0x21E3 JUMP JUMPDEST JUMPDEST DUP3 DUP3 DIV SWAP1 POP SWAP3 SWAP2 POP POP JUMP JUMPDEST PUSH1 0x0 DUP2 PUSH1 0x60 SHL SWAP1 POP SWAP2 SWAP1 POP JUMP JUMPDEST PUSH1 0x0 PUSH2 0x225B DUP3 PUSH2 0x2243 JUMP JUMPDEST SWAP1 POP SWAP2 SWAP1 POP JUMP JUMPDEST PUSH1 0x0 PUSH2 0x226D DUP3 PUSH2 0x2250 JUMP JUMPDEST SWAP1 POP SWAP2 SWAP1 POP JUMP JUMPDEST PUSH2 0x2285 PUSH2 0x2280 DUP3 PUSH2 0x1C71 JUMP JUMPDEST PUSH2 0x2262 JUMP JUMPDEST DUP3 MSTORE POP POP JUMP JUMPDEST PUSH1 0x0 DUP2 PUSH1 0xF8 SHL SWAP1 POP SWAP2 SWAP1 POP JUMP JUMPDEST PUSH1 0x0 PUSH2 0x22A3 DUP3 PUSH2 0x228B JUMP JUMPDEST SWAP1 POP SWAP2 SWAP1 POP JUMP JUMPDEST PUSH1 0x0 PUSH2 0x22B5 DUP3 PUSH2 0x2298 JUMP JUMPDEST SWAP1 POP SWAP2 SWAP1 POP JUMP JUMPDEST PUSH2 0x22CD PUSH2 0x22C8 DUP3 PUSH2 0x1CAF JUMP JUMPDEST PUSH2 0x22AA JUMP JUMPDEST DUP3 MSTORE POP POP JUMP JUMPDEST PUSH1 0x0 PUSH2 0x22DF DUP3 DUP7 PUSH2 0x2274 JUMP JUMPDEST PUSH1 0x14 DUP3 ADD SWAP2 POP PUSH2 0x22EF DUP3 DUP6 PUSH2 0x2274 JUMP JUMPDEST PUSH1 0x14 DUP3 ADD SWAP2 POP PUSH2 0x22FF DUP3 DUP5 PUSH2 0x22BC JUMP JUMPDEST PUSH1 0x1 DUP3 ADD SWAP2 POP DUP2 SWAP1 POP SWAP5 SWAP4 POP POP POP POP JUMP JUMPDEST PUSH1 0x0 DUP2 SWAP1 POP SWAP3 SWAP2 POP POP JUMP JUMPDEST PUSH32 0xFF00000000000000000000000000000000000000000000000000000000000000 PUSH1 0x0 DUP3 ADD MSTORE POP JUMP JUMPDEST PUSH1 0x0 PUSH2 0x2351 PUSH1 0x1 DUP4 PUSH2 0x2310 JUMP JUMPDEST SWAP2 POP PUSH2 0x235C DUP3 PUSH2 0x231B JUMP JUMPDEST PUSH1 0x1 DUP3 ADD SWAP1 POP SWAP2 SWAP1 POP JUMP JUMPDEST PUSH1 0x0 DUP2 SWAP1 POP SWAP2 SWAP1 POP JUMP JUMPDEST PUSH1 0x0 DUP2 SWAP1 POP SWAP2 SWAP1 POP JUMP JUMPDEST PUSH2 0x238C PUSH2 0x2387 DUP3 PUSH2 0x2367 JUMP JUMPDEST PUSH2 0x2371 JUMP JUMPDEST DUP3 MSTORE POP POP JUMP JUMPDEST PUSH1 0x0 PUSH2 0x239D DUP3 PUSH2 0x2344 JUMP JUMPDEST SWAP2 POP PUSH2 0x23A9 DUP3 DUP7 PUSH2 0x2274 JUMP JUMPDEST PUSH1 0x14 DUP3 ADD SWAP2 POP PUSH2 0x23B9 DUP3 DUP6 PUSH2 0x237B JUMP JUMPDEST PUSH1 0x20 DUP3 ADD SWAP2 POP PUSH2 0x23C9 DUP3 DUP5 PUSH2 0x237B JUMP JUMPDEST PUSH1 0x20 DUP3 ADD SWAP2 POP DUP2 SWAP1 POP SWAP5 SWAP4 POP POP POP POP JUMP JUMPDEST PUSH1 0x0 DUP3 DUP3 MSTORE PUSH1 0x20 DUP3 ADD SWAP1 POP SWAP3 SWAP2 POP POP JUMP JUMPDEST PUSH32 0x4944454E544943414C5F41444452455353455300000000000000000000000000 PUSH1 0x0 DUP3 ADD MSTORE POP JUMP JUMPDEST PUSH1 0x0 PUSH2 0x2421 PUSH1 0x13 DUP4 PUSH2 0x23DA JUMP JUMPDEST SWAP2 POP PUSH2 0x242C DUP3 PUSH2 0x23EB JUMP JUMPDEST PUSH1 0x20 DUP3 ADD SWAP1 POP SWAP2 SWAP1 POP JUMP JUMPDEST PUSH1 0x0 PUSH1 0x20 DUP3 ADD SWAP1 POP DUP2 DUP2 SUB PUSH1 0x0 DUP4 ADD MSTORE PUSH2 0x2450 DUP2 PUSH2 0x2414 JUMP JUMPDEST SWAP1 POP SWAP2 SWAP1 POP JUMP JUMPDEST PUSH32 0x5A45524F5F414444524553530000000000000000000000000000000000000000 PUSH1 0x0 DUP3 ADD MSTORE POP JUMP JUMPDEST PUSH1 0x0 PUSH2 0x248D PUSH1 0xC DUP4 PUSH2 0x23DA JUMP JUMPDEST SWAP2 POP PUSH2 0x2498 DUP3 PUSH2 0x2457 JUMP JUMPDEST PUSH1 0x20 DUP3 ADD SWAP1 POP SWAP2 SWAP1 POP JUMP JUMPDEST PUSH1 0x0 PUSH1 0x20 DUP3 ADD SWAP1 POP DUP2 DUP2 SUB PUSH1 0x0 DUP4 ADD MSTORE PUSH2 0x24BC DUP2 PUSH2 0x2480 JUMP JUMPDEST SWAP1 POP SWAP2 SWAP1 POP JUMP JUMPDEST PUSH1 0x0 PUSH2 0x24CE DUP3 PUSH2 0x1C1B JUMP JUMPDEST SWAP2 POP PUSH2 0x24D9 DUP4 PUSH2 0x1C1B JUMP JUMPDEST SWAP3 POP DUP3 DUP3 LT ISZERO PUSH2 0x24EC JUMPI PUSH2 0x24EB PUSH2 0x215A JUMP JUMPDEST JUMPDEST DUP3 DUP3 SUB SWAP1 POP SWAP3 SWAP2 POP POP JUMP JUMPDEST PUSH1 0x0 DUP2 PUSH1 0x1 SHR SWAP1 POP SWAP2 SWAP1 POP JUMP JUMPDEST PUSH1 0x0 DUP1 DUP3 SWAP2 POP DUP4 SWAP1 POP JUMPDEST PUSH1 0x1 DUP6 GT ISZERO PUSH2 0x254E JUMPI DUP1 DUP7 DIV DUP2 GT ISZERO PUSH2 0x252A JUMPI PUSH2 0x2529 PUSH2 0x215A JUMP JUMPDEST JUMPDEST PUSH1 0x1 DUP6 AND ISZERO PUSH2 0x2539 JUMPI DUP1 DUP3 MUL SWAP2 POP JUMPDEST DUP1 DUP2 MUL SWAP1 POP PUSH2 0x2547 DUP6 PUSH2 0x24F7 JUMP JUMPDEST SWAP5 POP PUSH2 0x250E JUMP JUMPDEST SWAP5 POP SWAP5 SWAP3 POP POP POP JUMP JUMPDEST PUSH1 0x0 DUP3 PUSH2 0x2567 JUMPI PUSH1 0x1 SWAP1 POP PUSH2 0x2623 JUMP JUMPDEST DUP2 PUSH2 0x2575 JUMPI PUSH1 0x0 SWAP1 POP PUSH2 0x2623 JUMP JUMPDEST DUP2 PUSH1 0x1 DUP2 EQ PUSH2 0x258B JUMPI PUSH1 0x2 DUP2 EQ PUSH2 0x2595 JUMPI PUSH2 0x25C4 JUMP JUMPDEST PUSH1 0x1 SWAP2 POP POP PUSH2 0x2623 JUMP JUMPDEST PUSH1 0xFF DUP5 GT ISZERO PUSH2 0x25A7 JUMPI PUSH2 0x25A6 PUSH2 0x215A JUMP JUMPDEST JUMPDEST DUP4 PUSH1 0x2 EXP SWAP2 POP DUP5 DUP3 GT ISZERO PUSH2 0x25BE JUMPI PUSH2 0x25BD PUSH2 0x215A JUMP JUMPDEST JUMPDEST POP PUSH2 0x2623 JUMP JUMPDEST POP PUSH1 0x20 DUP4 LT PUSH2 0x133 DUP4 LT AND PUSH1 0x4E DUP5 LT PUSH1 0xB DUP5 LT AND OR ISZERO PUSH2 0x25F9 JUMPI DUP3 DUP3 EXP SWAP1 POP DUP4 DUP2 GT ISZERO PUSH2 0x25F4 JUMPI PUSH2 0x25F3 PUSH2 0x215A JUMP JUMPDEST JUMPDEST PUSH2 0x2623 JUMP JUMPDEST PUSH2 0x2606 DUP5 DUP5 DUP5 PUSH1 0x1 PUSH2 0x2504 JUMP JUMPDEST SWAP3 POP SWAP1 POP DUP2 DUP5 DIV DUP2 GT ISZERO PUSH2 0x261D JUMPI PUSH2 0x261C PUSH2 0x215A JUMP JUMPDEST JUMPDEST DUP2 DUP2 MUL SWAP1 POP JUMPDEST SWAP4 SWAP3 POP POP POP JUMP JUMPDEST PUSH1 0x0 PUSH2 0x2635 DUP3 PUSH2 0x1C1B JUMP JUMPDEST SWAP2 POP PUSH2 0x2640 DUP4 PUSH2 0x1C1B JUMP JUMPDEST SWAP3 POP PUSH2 0x266D PUSH32 0xFFFFFFFFFFFFFFFFFFFFFFFFFFFFFFFFFFFFFFFFFFFFFFFFFFFFFFFFFFFFFFFF DUP5 DUP5 PUSH2 0x2557 JUMP JUMPDEST SWAP1 POP SWAP3 SWAP2 POP POP JUMP JUMPDEST PUSH1 0x0 PUSH2 0x2680 DUP3 PUSH2 0x1C1B JUMP JUMPDEST SWAP2 POP PUSH2 0x268B DUP4 PUSH2 0x1C1B JUMP JUMPDEST SWAP3 POP DUP3 PUSH32 0xFFFFFFFFFFFFFFFFFFFFFFFFFFFFFFFFFFFFFFFFFFFFFFFFFFFFFFFFFFFFFFFF SUB DUP3 GT ISZERO PUSH2 0x26C0 JUMPI PUSH2 0x26BF PUSH2 0x215A JUMP JUMPDEST JUMPDEST DUP3 DUP3 ADD SWAP1 POP SWAP3 SWAP2 POP POP JUMP JUMPDEST PUSH1 0x0 PUSH2 0x26D6 DUP3 PUSH2 0x1C1B JUMP JUMPDEST SWAP2 POP PUSH32 0xFFFFFFFFFFFFFFFFFFFFFFFFFFFFFFFFFFFFFFFFFFFFFFFFFFFFFFFFFFFFFFFF DUP3 SUB PUSH2 0x2708 JUMPI PUSH2 0x2707 PUSH2 0x215A JUMP JUMPDEST JUMPDEST PUSH1 0x1 DUP3 ADD SWAP1 POP SWAP2 SWAP1 POP JUMP INVALID LOG2 PUSH5 0x6970667358 0x22 SLT KECCAK256 ISZERO 0xBB PUSH4 0x6387D135 0x22 0xAF PUSH26 0x6B703ADB7004DB2D51EA3D9D3FE88C7D909D326A4E4164736F6C PUSH4 0x4300080F STOP CALLER "
				},
				"gasEstimates": {
					"creation": {
						"codeDepositCost": "2011400",
						"executionCost": "infinite",
						"totalCost": "infinite"
					},
					"external": {
						"factory()": "infinite",
						"getAmountOut(uint256,address,address,bool)": "infinite",
						"getMinimumValue(address,address,bool)": "infinite",
						"getNormalizedReserves(address,address,bool)": "infinite",
						"getSample(address,address,bool)": "infinite",
						"getTradeDiff(uint256,address,address)": "infinite",
						"getTradeDiff(uint256,address,address,bool)": "infinite",
						"getTradeDiff2(uint256,address,address,bool)": "infinite",
						"getTradeDiff3(uint256,address,address,bool)": "infinite",
						"getTradeDiffSimple(uint256,address,address,bool,uint256)": "infinite",
						"pairFor(address,address,bool)": "infinite",
						"router()": "infinite",
						"sortTokens(address,address)": "infinite"
					},
					"internal": {
						"_calcSample(address,address,uint256,uint256)": "infinite",
						"_d(uint256,uint256)": "infinite",
						"_f(uint256,uint256)": "infinite",
						"_getAmountOut(uint256,address,uint256,uint256,address,uint256,uint256,bool)": "infinite",
						"_get_y(uint256,uint256,uint256)": "infinite",
						"_k(uint256,uint256,bool,uint256,uint256)": "infinite"
					}
				},
				"methodIdentifiers": {
					"factory()": "c45a0155",
					"getAmountOut(uint256,address,address,bool)": "da214231",
					"getMinimumValue(address,address,bool)": "52500733",
					"getNormalizedReserves(address,address,bool)": "bdefde18",
					"getSample(address,address,bool)": "be3b428e",
					"getTradeDiff(uint256,address,address)": "ec323c00",
					"getTradeDiff(uint256,address,address,bool)": "865db5e2",
					"getTradeDiff2(uint256,address,address,bool)": "400b4829",
					"getTradeDiff3(uint256,address,address,bool)": "bc113036",
					"getTradeDiffSimple(uint256,address,address,bool,uint256)": "70550835",
					"pairFor(address,address,bool)": "4c1ee03e",
					"router()": "f887ea40",
					"sortTokens(address,address)": "544caa56"
				}
			},
			"storageLayout": {
				"storage": [],
				"types": null
			},
			"userdoc": {
				"kind": "user",
				"methods": {},
				"version": 1
			}
		}
	}
}